{
  "_format": "hh-sol-artifact-1",
  "contractName": "Funding",
  "sourceName": "contracts/Funding.sol",
  "abi": [
    {
      "inputs": [
        {
          "internalType": "address",
          "name": "usdcAddress",
          "type": "address"
        },
        {
          "internalType": "address",
          "name": "usdtAddress",
          "type": "address"
        },
        {
          "internalType": "address",
          "name": "daiAddress",
          "type": "address"
        }
      ],
      "stateMutability": "nonpayable",
      "type": "constructor"
    },
    {
      "anonymous": false,
      "inputs": [
        {
          "indexed": false,
          "internalType": "address",
          "name": "owner",
          "type": "address"
        },
        {
          "indexed": false,
          "internalType": "uint256",
          "name": "fundId",
          "type": "uint256"
        }
      ],
      "name": "Cancelled",
      "type": "event"
    },
    {
      "anonymous": false,
      "inputs": [
        {
          "indexed": false,
          "internalType": "address",
          "name": "owner",
          "type": "address"
        },
        {
          "indexed": false,
          "internalType": "uint256",
          "name": "balance",
          "type": "uint256"
        },
        {
          "indexed": false,
          "internalType": "uint256",
          "name": "currency",
          "type": "uint256"
        }
      ],
      "name": "DistributionAccomplished",
      "type": "event"
    },
    {
      "anonymous": false,
      "inputs": [
        {
          "indexed": false,
          "internalType": "address",
          "name": "donator",
          "type": "address"
        },
        {
          "indexed": false,
          "internalType": "uint256",
          "name": "amount",
          "type": "uint256"
        },
        {
          "indexed": false,
          "internalType": "uint256",
          "name": "fundId",
          "type": "uint256"
        },
        {
          "indexed": false,
          "internalType": "uint256",
          "name": "currency",
          "type": "uint256"
        }
      ],
      "name": "Donated",
      "type": "event"
    },
    {
      "anonymous": false,
      "inputs": [
        {
          "indexed": false,
          "internalType": "address",
          "name": "owner",
          "type": "address"
        },
        {
          "indexed": false,
          "internalType": "uint256",
          "name": "cap",
          "type": "uint256"
        },
        {
          "indexed": false,
          "internalType": "uint256",
          "name": "id",
          "type": "uint256"
        }
      ],
      "name": "FundCreated",
      "type": "event"
    },
    {
      "anonymous": false,
      "inputs": [
        {
          "indexed": false,
          "internalType": "address",
          "name": "project",
          "type": "address"
        },
        {
          "indexed": false,
          "internalType": "uint256",
          "name": "fee",
          "type": "uint256"
        }
      ],
      "name": "FundingFee",
      "type": "event"
    },
    {
      "anonymous": false,
      "inputs": [
        {
          "indexed": false,
          "internalType": "bool",
          "name": "status",
          "type": "bool"
        }
      ],
      "name": "IncorrectDistribution",
      "type": "event"
    },
    {
      "anonymous": false,
      "inputs": [
        {
          "indexed": false,
          "internalType": "address",
          "name": "owner",
          "type": "address"
        },
        {
          "indexed": false,
          "internalType": "uint256",
          "name": "cap",
          "type": "uint256"
        },
        {
          "indexed": false,
          "internalType": "uint256",
          "name": "fundId",
          "type": "uint256"
        }
      ],
      "name": "MicroClosed",
      "type": "event"
    },
    {
      "anonymous": false,
      "inputs": [
        {
          "indexed": false,
          "internalType": "address",
          "name": "owner",
          "type": "address"
        },
        {
          "indexed": false,
          "internalType": "uint256",
          "name": "cap",
          "type": "uint256"
        },
        {
          "indexed": false,
          "internalType": "uint256",
          "name": "fundId",
          "type": "uint256"
        },
        {
          "indexed": false,
          "internalType": "uint256",
          "name": "currency",
          "type": "uint256"
        }
      ],
      "name": "MicroCreated",
      "type": "event"
    },
    {
      "anonymous": false,
      "inputs": [
        {
          "indexed": false,
          "internalType": "address",
          "name": "owner",
          "type": "address"
        },
        {
          "indexed": false,
          "internalType": "uint256",
          "name": "amount",
          "type": "uint256"
        },
        {
          "indexed": false,
          "internalType": "uint256",
          "name": "fundId",
          "type": "uint256"
        }
      ],
      "name": "MicroDrained",
      "type": "event"
    },
    {
      "anonymous": false,
      "inputs": [
        {
          "indexed": true,
          "internalType": "address",
          "name": "previousOwner",
          "type": "address"
        },
        {
          "indexed": true,
          "internalType": "address",
          "name": "newOwner",
          "type": "address"
        }
      ],
      "name": "OwnershipTransferred",
      "type": "event"
    },
    {
      "anonymous": false,
      "inputs": [
        {
          "indexed": false,
          "internalType": "address",
          "name": "project",
          "type": "address"
        },
        {
          "indexed": false,
          "internalType": "uint256",
          "name": "fee",
          "type": "uint256"
        }
      ],
      "name": "PlatformFee",
      "type": "event"
    },
    {
      "anonymous": false,
      "inputs": [
        {
          "indexed": false,
          "internalType": "address",
          "name": "backer",
          "type": "address"
        },
        {
          "indexed": false,
          "internalType": "uint256",
          "name": "amount",
          "type": "uint256"
        },
        {
          "indexed": false,
          "internalType": "uint256",
          "name": "fundId",
          "type": "uint256"
        }
      ],
      "name": "Refunded",
      "type": "event"
    },
    {
      "anonymous": false,
      "inputs": [
        {
          "indexed": false,
          "internalType": "address",
          "name": "microOwner",
          "type": "address"
        },
        {
          "indexed": false,
          "internalType": "uint256",
          "name": "balance",
          "type": "uint256"
        },
        {
          "indexed": false,
          "internalType": "address",
          "name": "fundOwner",
          "type": "address"
        }
      ],
      "name": "Returned",
      "type": "event"
    },
    {
      "anonymous": false,
      "inputs": [
        {
          "indexed": false,
          "internalType": "address",
          "name": "backer",
          "type": "address"
        },
        {
          "indexed": false,
          "internalType": "uint256",
          "name": "amount",
          "type": "uint256"
        },
        {
          "indexed": false,
          "internalType": "uint256",
          "name": "fundId",
          "type": "uint256"
        }
      ],
      "name": "TokenReward",
      "type": "event"
    },
    {
      "inputs": [
        {
          "internalType": "contract IERC20",
          "name": "_rewardTokenAddress",
          "type": "address"
        }
      ],
      "name": "batchDistribute",
      "outputs": [],
      "stateMutability": "nonpayable",
      "type": "function"
    },
    {
      "inputs": [
        {
          "internalType": "uint256",
          "name": "_index",
          "type": "uint256"
        },
        {
          "internalType": "uint256",
          "name": "_amount",
          "type": "uint256"
        }
      ],
      "name": "calcInvolvedMicros",
      "outputs": [
        {
          "internalType": "uint256",
          "name": "",
          "type": "uint256"
        }
      ],
      "stateMutability": "view",
      "type": "function"
    },
    {
      "inputs": [
        {
          "internalType": "uint256",
          "name": "_index",
          "type": "uint256"
        },
        {
          "internalType": "uint256",
          "name": "_amount",
          "type": "uint256"
        }
      ],
      "name": "calcOutcome",
      "outputs": [
        {
          "internalType": "uint256",
          "name": "",
          "type": "uint256"
        }
      ],
      "stateMutability": "view",
      "type": "function"
    },
    {
      "inputs": [
        {
          "internalType": "uint256",
          "name": "_id",
          "type": "uint256"
        }
      ],
      "name": "cancelFund",
      "outputs": [],
      "stateMutability": "nonpayable",
      "type": "function"
    },
    {
      "inputs": [
        {
          "internalType": "uint256",
          "name": "_fee",
          "type": "uint256"
        }
      ],
      "name": "changeFee",
      "outputs": [],
      "stateMutability": "nonpayable",
      "type": "function"
    },
    {
      "inputs": [
        {
          "internalType": "uint256",
          "name": "_amountM",
          "type": "uint256"
        },
        {
          "internalType": "uint256",
          "name": "_amountD",
          "type": "uint256"
        },
        {
          "internalType": "uint256",
          "name": "_id",
          "type": "uint256"
        },
        {
          "internalType": "uint256",
          "name": "_currency",
          "type": "uint256"
        }
      ],
      "name": "contribute",
      "outputs": [],
      "stateMutability": "nonpayable",
      "type": "function"
    },
    {
      "inputs": [
        {
          "internalType": "uint256",
          "name": "_level1",
          "type": "uint256"
        },
        {
          "internalType": "address",
          "name": "_rewardAddress",
          "type": "address"
        },
        {
          "internalType": "uint256",
          "name": "_rewardAmount",
          "type": "uint256"
        }
      ],
      "name": "createFund",
      "outputs": [],
      "stateMutability": "nonpayable",
      "type": "function"
    },
    {
      "inputs": [
        {
          "internalType": "uint256",
          "name": "_fundId",
          "type": "uint256"
        },
        {
          "internalType": "uint256",
          "name": "_totalNumber",
          "type": "uint256"
        },
        {
          "internalType": "address",
          "name": "_receiver",
          "type": "address"
        },
        {
          "internalType": "address",
          "name": "_erc1155",
          "type": "address"
        },
        {
          "internalType": "uint256",
          "name": "_nftAmount",
          "type": "uint256"
        }
      ],
      "name": "createReward",
      "outputs": [],
      "stateMutability": "nonpayable",
      "type": "function"
    },
    {
      "inputs": [],
      "name": "dai",
      "outputs": [
        {
          "internalType": "contract IERC20",
          "name": "",
          "type": "address"
        }
      ],
      "stateMutability": "view",
      "type": "function"
    },
    {
      "inputs": [
        {
          "internalType": "uint256",
          "name": "_id",
          "type": "uint256"
        },
        {
          "internalType": "contract IERC20",
          "name": "_token",
          "type": "address"
        }
      ],
      "name": "distribute",
      "outputs": [],
      "stateMutability": "nonpayable",
      "type": "function"
    },
    {
      "inputs": [
        {
          "internalType": "uint256",
          "name": "",
          "type": "uint256"
        }
      ],
      "name": "donations",
      "outputs": [
        {
          "internalType": "uint256",
          "name": "id",
          "type": "uint256"
        },
        {
          "internalType": "uint256",
          "name": "fundId",
          "type": "uint256"
        },
        {
          "internalType": "address",
          "name": "backer",
          "type": "address"
        },
        {
          "internalType": "uint256",
          "name": "amount",
          "type": "uint256"
        },
        {
          "internalType": "uint256",
          "name": "state",
          "type": "uint256"
        },
        {
          "internalType": "uint256",
          "name": "currency",
          "type": "uint256"
        }
      ],
      "stateMutability": "view",
      "type": "function"
    },
    {
      "inputs": [],
      "name": "feeAddress",
      "outputs": [
        {
          "internalType": "address",
          "name": "",
          "type": "address"
        }
      ],
      "stateMutability": "view",
      "type": "function"
    },
    {
      "inputs": [
        {
          "internalType": "uint256",
          "name": "",
          "type": "uint256"
        }
      ],
      "name": "funds",
      "outputs": [
        {
          "internalType": "uint256",
          "name": "id",
          "type": "uint256"
        },
        {
          "internalType": "address",
          "name": "owner",
          "type": "address"
        },
        {
          "internalType": "uint256",
          "name": "balance",
          "type": "uint256"
        },
        {
          "internalType": "uint256",
          "name": "deadline",
          "type": "uint256"
        },
        {
          "internalType": "uint256",
          "name": "state",
          "type": "uint256"
        },
        {
          "internalType": "uint256",
          "name": "level1",
          "type": "uint256"
        },
        {
          "internalType": "uint256",
          "name": "tokenReward",
          "type": "uint256"
        },
        {
          "internalType": "address",
          "name": "tokenRewardAddress",
          "type": "address"
        },
        {
          "internalType": "uint256",
          "name": "usdcBalance",
          "type": "uint256"
        },
        {
          "internalType": "uint256",
          "name": "usdtBalance",
          "type": "uint256"
        },
        {
          "internalType": "uint256",
          "name": "daiBalance",
          "type": "uint256"
        }
      ],
      "stateMutability": "view",
      "type": "function"
    },
    {
      "inputs": [
        {
          "internalType": "uint256",
          "name": "_index",
          "type": "uint256"
        }
      ],
      "name": "getBackers",
      "outputs": [
        {
          "internalType": "uint256",
          "name": "",
          "type": "uint256"
        }
      ],
      "stateMutability": "view",
      "type": "function"
    },
    {
      "inputs": [
        {
          "internalType": "uint256",
          "name": "_index",
          "type": "uint256"
        }
      ],
      "name": "getConnectedMicroFunds",
      "outputs": [
        {
          "internalType": "uint256",
          "name": "",
          "type": "uint256"
        }
      ],
      "stateMutability": "view",
      "type": "function"
    },
    {
      "inputs": [
        {
          "internalType": "uint256",
          "name": "_index",
          "type": "uint256"
        }
      ],
      "name": "isPeriodFinished",
      "outputs": [
        {
          "internalType": "bool",
          "name": "",
          "type": "bool"
        }
      ],
      "stateMutability": "view",
      "type": "function"
    },
    {
      "inputs": [
        {
          "internalType": "uint256",
          "name": "",
          "type": "uint256"
        }
      ],
      "name": "microFunds",
      "outputs": [
        {
          "internalType": "uint256",
          "name": "microId",
          "type": "uint256"
        },
        {
          "internalType": "address",
          "name": "owner",
          "type": "address"
        },
        {
          "internalType": "uint256",
          "name": "cap",
          "type": "uint256"
        },
        {
          "internalType": "uint256",
          "name": "microBalance",
          "type": "uint256"
        },
        {
          "internalType": "uint256",
          "name": "fundId",
          "type": "uint256"
        },
        {
          "internalType": "uint256",
          "name": "state",
          "type": "uint256"
        },
        {
          "internalType": "uint256",
          "name": "currency",
          "type": "uint256"
        }
      ],
      "stateMutability": "view",
      "type": "function"
    },
    {
      "inputs": [],
      "name": "minAmount",
      "outputs": [
        {
          "internalType": "uint256",
          "name": "",
          "type": "uint256"
        }
      ],
      "stateMutability": "view",
      "type": "function"
    },
    {
      "inputs": [],
      "name": "owner",
      "outputs": [
        {
          "internalType": "address",
          "name": "",
          "type": "address"
        }
      ],
      "stateMutability": "view",
      "type": "function"
    },
    {
      "inputs": [],
      "name": "platformFee",
      "outputs": [
        {
          "internalType": "uint256",
          "name": "",
          "type": "uint256"
        }
      ],
      "stateMutability": "view",
      "type": "function"
    },
    {
      "inputs": [],
      "name": "renounceOwnership",
      "outputs": [],
      "stateMutability": "nonpayable",
      "type": "function"
    },
    {
      "inputs": [],
      "name": "rewardNft",
      "outputs": [
        {
          "internalType": "contract IERC1155",
          "name": "",
          "type": "address"
        }
      ],
      "stateMutability": "view",
      "type": "function"
    },
    {
      "inputs": [],
      "name": "rewardToken",
      "outputs": [
        {
          "internalType": "contract IERC20",
          "name": "",
          "type": "address"
        }
      ],
      "stateMutability": "view",
      "type": "function"
    },
    {
      "inputs": [
        {
          "internalType": "uint256",
          "name": "",
          "type": "uint256"
        }
      ],
      "name": "rewards",
      "outputs": [
        {
          "internalType": "uint256",
          "name": "rewardId",
          "type": "uint256"
        },
        {
          "internalType": "uint256",
          "name": "fundId",
          "type": "uint256"
        },
        {
          "internalType": "uint256",
          "name": "totalNumber",
          "type": "uint256"
        },
        {
          "internalType": "uint256",
          "name": "actualNumber",
          "type": "uint256"
        },
        {
          "internalType": "address",
          "name": "receiver",
          "type": "address"
        },
        {
          "internalType": "address",
          "name": "erc1155",
          "type": "address"
        },
        {
          "internalType": "uint256",
          "name": "nftAmount",
          "type": "uint256"
        }
      ],
      "stateMutability": "view",
      "type": "function"
    },
    {
      "inputs": [
        {
          "internalType": "uint256",
          "name": "_min",
          "type": "uint256"
        }
      ],
      "name": "setMinimum",
      "outputs": [],
      "stateMutability": "nonpayable",
      "type": "function"
    },
    {
      "inputs": [
        {
          "internalType": "address",
          "name": "newOwner",
          "type": "address"
        }
      ],
      "name": "transferOwnership",
      "outputs": [],
      "stateMutability": "nonpayable",
      "type": "function"
    },
    {
      "inputs": [],
      "name": "usdc",
      "outputs": [
        {
          "internalType": "contract IERC20",
          "name": "",
          "type": "address"
        }
      ],
      "stateMutability": "view",
      "type": "function"
    },
    {
      "inputs": [],
      "name": "usdt",
      "outputs": [
        {
          "internalType": "contract IERC20",
          "name": "",
          "type": "address"
        }
      ],
      "stateMutability": "view",
      "type": "function"
    }
  ],
  "bytecode": "0x608060405273c21223249ca28397b4b6541dffaecc539bff0c59600760006101000a81548173ffffffffffffffffffffffffffffffffffffffff021916908373ffffffffffffffffffffffffffffffffffffffff160217905550600160085560016009553480156200007057600080fd5b506040516200525a3803806200525a8339818101604052810190620000969190620002bf565b620000b6620000aa6200018960201b60201c565b6200019160201b60201c565b6001808190555082600260006101000a81548173ffffffffffffffffffffffffffffffffffffffff021916908373ffffffffffffffffffffffffffffffffffffffff16021790555081600360006101000a81548173ffffffffffffffffffffffffffffffffffffffff021916908373ffffffffffffffffffffffffffffffffffffffff16021790555080600460006101000a81548173ffffffffffffffffffffffffffffffffffffffff021916908373ffffffffffffffffffffffffffffffffffffffff1602179055505050506200031b565b600033905090565b60008060009054906101000a900473ffffffffffffffffffffffffffffffffffffffff169050816000806101000a81548173ffffffffffffffffffffffffffffffffffffffff021916908373ffffffffffffffffffffffffffffffffffffffff1602179055508173ffffffffffffffffffffffffffffffffffffffff168173ffffffffffffffffffffffffffffffffffffffff167f8be0079c531659141344cd1fd0a4f28419497f9722a3daafe3b4186f6b6457e060405160405180910390a35050565b600080fd5b600073ffffffffffffffffffffffffffffffffffffffff82169050919050565b600062000287826200025a565b9050919050565b62000299816200027a565b8114620002a557600080fd5b50565b600081519050620002b9816200028e565b92915050565b600080600060608486031215620002db57620002da62000255565b5b6000620002eb86828701620002a8565b9350506020620002fe86828701620002a8565b92505060406200031186828701620002a8565b9150509250925092565b614f2f806200032b6000396000f3fe608060405234801561001057600080fd5b50600436106101c45760003560e01c8063ac8ddf95116100f9578063e1fa8b0211610097578063f301af4211610071578063f301af4214610501578063f4b9fa7514610537578063f7c618c114610555578063f8626af814610573576101c4565b8063e1fa8b02146104ad578063e4810524146104c9578063f2fde38b146104e5576101c4565b8063b9ce03c0116100d3578063b9ce03c014610415578063be7aec5314610431578063c9168b7214610461578063df81c6b914610491576101c4565b8063ac8ddf9514610399578063aed9523c146103c9578063b318c837146103e5576101c4565b80634184f651116101665780637b8e8895116101405780637b8e8895146102f35780638da5cb5b1461032d5780639b2cb5d81461034b578063a4f10f0e14610369576101c4565b80634184f651146102af5780636a1db1bf146102cd578063715018a6146102e9576101c4565b80632f48ab7d116101a25780632f48ab7d146102395780633209e9e6146102575780633e413bee146102735780634127535814610291576101c4565b80630f7e6320146101c957806316055fa8146101e557806326232a2e1461021b575b600080fd5b6101e360048036038101906101de919061406f565b6105a8565b005b6101ff60048036038101906101fa91906140c2565b610ac6565b604051610212979695949392919061410d565b60405180910390f35b610223610b38565b604051610230919061417c565b60405180910390f35b610241610b3e565b60405161024e91906141f6565b60405180910390f35b610271600480360381019061026c91906140c2565b610b64565b005b61027b610b76565b60405161028891906141f6565b60405180910390f35b610299610b9c565b6040516102a69190614211565b60405180910390f35b6102b7610bc2565b6040516102c4919061424d565b60405180910390f35b6102e760048036038101906102e291906140c2565b610be8565b005b6102f1610bfa565b005b61030d600480360381019061030891906140c2565b610c0e565b6040516103249b9a99989796959493929190614268565b60405180910390f35b610335610cb8565b6040516103429190614211565b60405180910390f35b610353610ce1565b604051610360919061417c565b60405180910390f35b610383600480360381019061037e91906140c2565b610ce7565b604051610390919061417c565b60405180910390f35b6103b360048036038101906103ae91906140c2565b610d57565b6040516103c0919061432e565b60405180910390f35b6103e360048036038101906103de9190614387565b610d88565b005b6103ff60048036038101906103fa91906143b4565b610fc0565b60405161040c919061417c565b60405180910390f35b61042f600480360381019061042a91906143f4565b6110d1565b005b61044b600480360381019061044691906143b4565b6118e1565b604051610458919061417c565b60405180910390f35b61047b600480360381019061047691906140c2565b6119e4565b604051610488919061417c565b60405180910390f35b6104ab60048036038101906104a6919061445b565b611a54565b005b6104c760048036038101906104c291906144d6565b611c60565b005b6104e360048036038101906104de91906140c2565b61240e565b005b6104ff60048036038101906104fa9190614516565b6128c2565b005b61051b600480360381019061051691906140c2565b612946565b60405161052e9796959493929190614543565b60405180910390f35b61053f6129d8565b60405161054c91906141f6565b60405180910390f35b61055d6129fe565b60405161056a91906141f6565b60405180910390f35b61058d600480360381019061058891906140c2565b612a24565b60405161059f969594939291906145b2565b60405180910390f35b600062278d00426105b99190614642565b9050600073ffffffffffffffffffffffffffffffffffffffff163373ffffffffffffffffffffffffffffffffffffffff16141561062b576040517f08c379a0000000000000000000000000000000000000000000000000000000008152600401610622906146f5565b60405180910390fd5b6000841161066e576040517f08c379a000000000000000000000000000000000000000000000000000000000815260040161066590614761565b60405180910390fd5b6008548410156106b3576040517f08c379a00000000000000000000000000000000000000000000000000000000081526004016106aa906147f3565b60405180910390fd5b60008211156108e5578382116106fe576040517f08c379a00000000000000000000000000000000000000000000000000000000081526004016106f590614885565b60405180910390fd5b82600560006101000a81548173ffffffffffffffffffffffffffffffffffffffff021916908373ffffffffffffffffffffffffffffffffffffffff1602179055506000600560009054906101000a900473ffffffffffffffffffffffffffffffffffffffff1673ffffffffffffffffffffffffffffffffffffffff166370a08231336040518263ffffffff1660e01b815260040161079c9190614211565b60206040518083038186803b1580156107b457600080fd5b505afa1580156107c8573d6000803e3d6000fd5b505050506040513d601f19601f820116820180604052508101906107ec91906148ba565b905080831115610831576040517f08c379a000000000000000000000000000000000000000000000000000000000815260040161082890614933565b60405180910390fd5b600560009054906101000a900473ffffffffffffffffffffffffffffffffffffffff1673ffffffffffffffffffffffffffffffffffffffff166323b872dd3330866040518463ffffffff1660e01b815260040161089093929190614953565b602060405180830381600087803b1580156108aa57600080fd5b505af11580156108be573d6000803e3d6000fd5b505050506040513d601f19601f820116820180604052508101906108e291906149b6565b50505b600a604051806101600160405280600a8054905081526020013373ffffffffffffffffffffffffffffffffffffffff1681526020016000815260200183815260200160018152602001868152602001600081526020018573ffffffffffffffffffffffffffffffffffffffff1681526020016000815260200160008152602001600081525090806001815401808255809150506001900390600052602060002090600b02016000909190919091506000820151816000015560208201518160010160006101000a81548173ffffffffffffffffffffffffffffffffffffffff021916908373ffffffffffffffffffffffffffffffffffffffff16021790555060408201518160020155606082015181600301556080820151816004015560a0820151816005015560c0820151816006015560e08201518160070160006101000a81548173ffffffffffffffffffffffffffffffffffffffff021916908373ffffffffffffffffffffffffffffffffffffffff1602179055506101008201518160080155610120820151816009015561014082015181600a015550507ff18ce1b70b1a4044491b54196c83d95e67aae09483ce0d2e1c2a8189faca76443385600a80549050604051610ab8939291906149e3565b60405180910390a150505050565b600b8181548110610ad657600080fd5b90600052602060002090600702016000915090508060000154908060010160009054906101000a900473ffffffffffffffffffffffffffffffffffffffff16908060020154908060030154908060040154908060050154908060060154905087565b60095481565b600360009054906101000a900473ffffffffffffffffffffffffffffffffffffffff1681565b610b6c612a90565b8060088190555050565b600260009054906101000a900473ffffffffffffffffffffffffffffffffffffffff1681565b600760009054906101000a900473ffffffffffffffffffffffffffffffffffffffff1681565b600660009054906101000a900473ffffffffffffffffffffffffffffffffffffffff1681565b610bf0612a90565b8060098190555050565b610c02612a90565b610c0c6000612b0e565b565b600a8181548110610c1e57600080fd5b90600052602060002090600b02016000915090508060000154908060010160009054906101000a900473ffffffffffffffffffffffffffffffffffffffff16908060020154908060030154908060040154908060050154908060060154908060070160009054906101000a900473ffffffffffffffffffffffffffffffffffffffff169080600801549080600901549080600a015490508b565b60008060009054906101000a900473ffffffffffffffffffffffffffffffffffffffff16905090565b60085481565b6000806000905060005b600b80549050811015610d4d5783600b8281548110610d1357610d12614a1a565b5b9060005260206000209060070201600401541415610d3a578180610d3690614a49565b9250505b8080610d4590614a49565b915050610cf1565b5080915050919050565b6000600a8281548110610d6d57610d6c614a1a565b5b90600052602060002090600b02016003015442119050919050565b610d90612a90565b60026001541415610dd6576040517f08c379a0000000000000000000000000000000000000000000000000000000008152600401610dcd90614ade565b60405180910390fd5b600260018190555060005b600a80549050811015610fb557600a8181548110610e0257610e01614a1a565b5b90600052602060002090600b020160030154421015610e2057610fa2565b6001600a8281548110610e3657610e35614a1a565b5b90600052602060002090600b020160040154148015610e9f5750600a8181548110610e6457610e63614a1a565b5b90600052602060002090600b020160050154600a8281548110610e8a57610e89614a1a565b5b90600052602060002090600b02016002015410155b8015610ecf5750600a8181548110610eba57610eb9614a1a565b5b90600052602060002090600b02016003015442115b15610ee357610ede8183611c60565b610fa1565b6001600a8281548110610ef957610ef8614a1a565b5b90600052602060002090600b020160040154148015610f615750600a8181548110610f2757610f26614a1a565b5b90600052602060002090600b020160050154600a8281548110610f4d57610f4c614a1a565b5b90600052602060002090600b020160020154105b8015610f915750600a8181548110610f7c57610f7b614a1a565b5b90600052602060002090600b02016003015442115b15610fa057610f9f8161240e565b5b5b5b8080610fad90614a49565b915050610de1565b506001808190555050565b600080600090508281610fd39190614642565b905060005b600b805490508110156110c65784600b8281548110610ffa57610ff9614a1a565b5b90600052602060002090600702016004015414801561103e57506001600b828154811061102a57611029614a1a565b5b906000526020600020906007020160050154145b801561109f575083600b828154811061105a57611059614a1a565b5b906000526020600020906007020160030154600b83815481106110805761107f614a1a565b5b90600052602060002090600702016002015461109c9190614afe565b10155b156110b35783826110b09190614642565b91505b80806110be90614a49565b915050610fd8565b508091505092915050565b81600a81815481106110e6576110e5614a1a565b5b90600052602060002090600b0201600301544210611139576040517f08c379a000000000000000000000000000000000000000000000000000000000815260040161113090614ba4565b60405180910390fd5b6001600a848154811061114f5761114e614a1a565b5b90600052602060002090600b020160040154146111a1576040517f08c379a000000000000000000000000000000000000000000000000000000000815260040161119890614c10565b60405180910390fd5b600073ffffffffffffffffffffffffffffffffffffffff163373ffffffffffffffffffffffffffffffffffffffff161415611211576040517f08c379a0000000000000000000000000000000000000000000000000000000008152600401611208906146f5565b60405180910390fd5b6000851015611255576040517f08c379a000000000000000000000000000000000000000000000000000000000815260040161124c90614761565b60405180910390fd5b6000841015611299576040517f08c379a000000000000000000000000000000000000000000000000000000000815260040161129090614761565b60405180910390fd5b60018214156113ab57600260009054906101000a900473ffffffffffffffffffffffffffffffffffffffff1673ffffffffffffffffffffffffffffffffffffffff166323b872dd333088886112ee9190614642565b6040518463ffffffff1660e01b815260040161130c93929190614953565b602060405180830381600087803b15801561132657600080fd5b505af115801561133a573d6000803e3d6000fd5b505050506040513d601f19601f8201168201806040525081019061135e91906149b6565b50848461136b9190614642565b600a848154811061137f5761137e614a1a565b5b90600052602060002090600b0201600801600082825461139f9190614642565b9250508190555061160c565b60028214156114bd57600360009054906101000a900473ffffffffffffffffffffffffffffffffffffffff1673ffffffffffffffffffffffffffffffffffffffff166323b872dd333088886114009190614642565b6040518463ffffffff1660e01b815260040161141e93929190614953565b602060405180830381600087803b15801561143857600080fd5b505af115801561144c573d6000803e3d6000fd5b505050506040513d601f19601f8201168201806040525081019061147091906149b6565b50848461147d9190614642565b600a848154811061149157611490614a1a565b5b90600052602060002090600b020160090160008282546114b19190614642565b9250508190555061160b565b60038214156115cf57600460009054906101000a900473ffffffffffffffffffffffffffffffffffffffff1673ffffffffffffffffffffffffffffffffffffffff166323b872dd333088886115129190614642565b6040518463ffffffff1660e01b815260040161153093929190614953565b602060405180830381600087803b15801561154a57600080fd5b505af115801561155e573d6000803e3d6000fd5b505050506040513d601f19601f8201168201806040525081019061158291906149b6565b50848461158f9190614642565b600a84815481106115a3576115a2614a1a565b5b90600052602060002090600b0201600a0160008282546115c39190614642565b9250508190555061160a565b6040517f08c379a000000000000000000000000000000000000000000000000000000000815260040161160190614c7c565b60405180910390fd5b5b5b84846116189190614642565b600a848154811061162c5761162b614a1a565b5b90600052602060002090600b0201600201600082825461164c9190614642565b92505081905550600084111561179357600c6040518060c00160405280600c8054905081526020018581526020013373ffffffffffffffffffffffffffffffffffffffff16815260200186815260200160008152602001848152509080600181540180825580915050600190039060005260206000209060060201600090919091909150600082015181600001556020820151816001015560408201518160020160006101000a81548173ffffffffffffffffffffffffffffffffffffffff021916908373ffffffffffffffffffffffffffffffffffffffff160217905550606082015181600301556080820151816004015560a0820151816005015550507f8d09c6745838fd32e92a7aec9e4c21f8fcc0ddf4300881dcffdbf060ba8bcff2338585856040516117809493929190614c9c565b60405180910390a16117928385612bd2565b5b60008511156118da57600b6040518060e00160405280600b8054905081526020013373ffffffffffffffffffffffffffffffffffffffff16815260200187815260200160008152602001858152602001600181526020018481525090806001815401808255809150506001900390600052602060002090600702016000909190919091506000820151816000015560208201518160010160006101000a81548173ffffffffffffffffffffffffffffffffffffffff021916908373ffffffffffffffffffffffffffffffffffffffff16021790555060408201518160020155606082015181600301556080820151816004015560a0820151816005015560c0820151816006015550507f982b08aefe79525577026fc60aa3d85b642f6336a5078e50f2836434719770a5338685856040516118d19493929190614c9c565b60405180910390a15b5050505050565b6000806000905060005b600b805490508110156119d95784600b828154811061190d5761190c614a1a565b5b90600052602060002090600702016004015414801561195157506001600b828154811061193d5761193c614a1a565b5b906000526020600020906007020160050154145b80156119b2575083600b828154811061196d5761196c614a1a565b5b906000526020600020906007020160030154600b838154811061199357611992614a1a565b5b9060005260206000209060070201600201546119af9190614afe565b10155b156119c65781806119c290614a49565b9250505b80806119d190614a49565b9150506118eb565b508091505092915050565b6000806000905060005b600c80549050811015611a4a5783600c8281548110611a1057611a0f614a1a565b5b9060005260206000209060060201600101541415611a37578180611a3390614a49565b9250505b8080611a4290614a49565b9150506119ee565b5080915050919050565b600073ffffffffffffffffffffffffffffffffffffffff163373ffffffffffffffffffffffffffffffffffffffff161415611ac4576040517f08c379a0000000000000000000000000000000000000000000000000000000008152600401611abb906146f5565b60405180910390fd5b60008411611b07576040517f08c379a0000000000000000000000000000000000000000000000000000000008152600401611afe90614761565b60405180910390fd5b600d6040518060e00160405280600d805490508152602001878152602001868152602001600081526020018573ffffffffffffffffffffffffffffffffffffffff1681526020018473ffffffffffffffffffffffffffffffffffffffff1681526020018381525090806001815401808255809150506001900390600052602060002090600702016000909190919091506000820151816000015560208201518160010155604082015181600201556060820151816003015560808201518160040160006101000a81548173ffffffffffffffffffffffffffffffffffffffff021916908373ffffffffffffffffffffffffffffffffffffffff16021790555060a08201518160050160006101000a81548173ffffffffffffffffffffffffffffffffffffffff021916908373ffffffffffffffffffffffffffffffffffffffff16021790555060c0820151816006015550505050505050565b60026001541415611ca6576040517f08c379a0000000000000000000000000000000000000000000000000000000008152600401611c9d90614ade565b60405180910390fd5b60026001819055506001600a8381548110611cc457611cc3614a1a565b5b90600052602060002090600b02016004015414611d16576040517f08c379a0000000000000000000000000000000000000000000000000000000008152600401611d0d90614c10565b60405180910390fd5b6000600a8381548110611d2c57611d2b614a1a565b5b90600052602060002090600b0201600801541115611d9d57611d9882600a8481548110611d5c57611d5b614a1a565b5b90600052602060002090600b0201600801546001600260009054906101000a900473ffffffffffffffffffffffffffffffffffffffff16613045565b611ea9565b6000600a8381548110611db357611db2614a1a565b5b90600052602060002090600b0201600901541115611e2457611e1f82600a8481548110611de357611de2614a1a565b5b90600052602060002090600b0201600901546002600360009054906101000a900473ffffffffffffffffffffffffffffffffffffffff16613045565b611ea8565b6000600a8381548110611e3a57611e39614a1a565b5b90600052602060002090600b0201600a01541115611ea757611ea682600a8481548110611e6a57611e69614a1a565b5b90600052602060002090600b0201600a01546003600460009054906101000a900473ffffffffffffffffffffffffffffffffffffffff16613045565b5b5b5b6000600a8381548110611ebf57611ebe614a1a565b5b90600052602060002090600b0201600201541115611f3b576000600a8381548110611eed57611eec614a1a565b5b90600052602060002090600b0201600201819055507fadd9d74ee9c338ee8881c6d3644817247d1550a0488e3edb096f7fc0c44518536001604051611f32919061432e565b60405180910390a15b6000600a8381548110611f5157611f50614a1a565b5b90600052602060002090600b02016006015411156123575760005b600c805490508110156123555782600c8281548110611f8e57611f8d614a1a565b5b906000526020600020906006020160010154148015611fd257506000600c8281548110611fbe57611fbd614a1a565b5b906000526020600020906006020160040154145b15612342576000600a8481548110611fed57611fec614a1a565b5b90600052602060002090600b0201600201546064600c848154811061201557612014614a1a565b5b9060005260206000209060060201600301546120319190614ce1565b61203b9190614d6a565b90506000600a858154811061205357612052614a1a565b5b90600052602060002090600b020160020154600a868154811061207957612078614a1a565b5b90600052602060002090600b0201600601546120959190614d6a565b826120a09190614ce1565b90508373ffffffffffffffffffffffffffffffffffffffff1663095ea7b3600c85815481106120d2576120d1614a1a565b5b906000526020600020906006020160020160009054906101000a900473ffffffffffffffffffffffffffffffffffffffff16600a888154811061211857612117614a1a565b5b90600052602060002090600b0201600601546040518363ffffffff1660e01b8152600401612147929190614d9b565b602060405180830381600087803b15801561216157600080fd5b505af1158015612175573d6000803e3d6000fd5b505050506040513d601f19601f8201168201806040525081019061219991906149b6565b508373ffffffffffffffffffffffffffffffffffffffff166323b872dd30600c86815481106121cb576121ca614a1a565b5b906000526020600020906006020160020160009054906101000a900473ffffffffffffffffffffffffffffffffffffffff16846040518463ffffffff1660e01b815260040161221c93929190614953565b602060405180830381600087803b15801561223657600080fd5b505af115801561224a573d6000803e3d6000fd5b505050506040513d601f19601f8201168201806040525081019061226e91906149b6565b506002600c848154811061228557612284614a1a565b5b9060005260206000209060060201600401819055507f3adf3da2135947812c45eca117d988b3303c3d941f155f0afb27d7b0230fab32600c84815481106122cf576122ce614a1a565b5b906000526020600020906006020160020160009054906101000a900473ffffffffffffffffffffffffffffffffffffffff16600c858154811061231557612314614a1a565b5b90600052602060002090600602016003015487604051612337939291906149e3565b60405180910390a150505b808061234d90614a49565b915050611f6c565b505b6000600a838154811061236d5761236c614a1a565b5b90600052602060002090600b0201600801819055506000600a838154811061239857612397614a1a565b5b90600052602060002090600b0201600901819055506000600a83815481106123c3576123c2614a1a565b5b90600052602060002090600b0201600a01819055506002600a83815481106123ee576123ed614a1a565b5b90600052602060002090600b020160040181905550600180819055505050565b60026001541415612454576040517f08c379a000000000000000000000000000000000000000000000000000000000815260040161244b90614ade565b60405180910390fd5b60026001819055506001600a828154811061247257612471614a1a565b5b90600052602060002090600b020160040154146124c4576040517f08c379a00000000000000000000000000000000000000000000000000000000081526004016124bb90614c10565b60405180910390fd5b600a81815481106124d8576124d7614a1a565b5b90600052602060002090600b020160010160009054906101000a900473ffffffffffffffffffffffffffffffffffffffff1673ffffffffffffffffffffffffffffffffffffffff163373ffffffffffffffffffffffffffffffffffffffff16148061256e57503073ffffffffffffffffffffffffffffffffffffffff163373ffffffffffffffffffffffffffffffffffffffff16145b156126fd576000600a828154811061258957612588614a1a565b5b90600052602060002090600b02016008015411156125f6576125f581600a83815481106125b9576125b8614a1a565b5b90600052602060002090600b0201600801546001600260009054906101000a900473ffffffffffffffffffffffffffffffffffffffff166137a8565b5b6000600a828154811061260c5761260b614a1a565b5b90600052602060002090600b02016009015411156126795761267881600a838154811061263c5761263b614a1a565b5b90600052602060002090600b0201600901546002600360009054906101000a900473ffffffffffffffffffffffffffffffffffffffff166137a8565b5b6000600a828154811061268f5761268e614a1a565b5b90600052602060002090600b0201600a015411156126fc576126fb81600a83815481106126bf576126be614a1a565b5b90600052602060002090600b0201600a01546003600460009054906101000a900473ffffffffffffffffffffffffffffffffffffffff166137a8565b5b5b6000600a828154811061271357612712614a1a565b5b90600052602060002090600b02016002015414156127fe576002600a828154811061274157612740614a1a565b5b90600052602060002090600b0201600401819055507f36ea5cd5608625e789af0282eecdb4eae1cb7c1cf6d0ec3f9a84f35be850260b600a828154811061278b5761278a614a1a565b5b90600052602060002090600b020160010160009054906101000a900473ffffffffffffffffffffffffffffffffffffffff16600a83815481106127d1576127d0614a1a565b5b90600052602060002090600b0201600001546040516127f1929190614d9b565b60405180910390a1612837565b7fadd9d74ee9c338ee8881c6d3644817247d1550a0488e3edb096f7fc0c4451853600160405161282e919061432e565b60405180910390a15b6000600a828154811061284d5761284c614a1a565b5b90600052602060002090600b0201600901819055506000600a828154811061287857612877614a1a565b5b90600052602060002090600b0201600a01819055506000600a82815481106128a3576128a2614a1a565b5b90600052602060002090600b0201600401819055506001808190555050565b6128ca612a90565b600073ffffffffffffffffffffffffffffffffffffffff168173ffffffffffffffffffffffffffffffffffffffff16141561293a576040517f08c379a000000000000000000000000000000000000000000000000000000000815260040161293190614e36565b60405180910390fd5b61294381612b0e565b50565b600d818154811061295657600080fd5b90600052602060002090600702016000915090508060000154908060010154908060020154908060030154908060040160009054906101000a900473ffffffffffffffffffffffffffffffffffffffff16908060050160009054906101000a900473ffffffffffffffffffffffffffffffffffffffff16908060060154905087565b600460009054906101000a900473ffffffffffffffffffffffffffffffffffffffff1681565b600560009054906101000a900473ffffffffffffffffffffffffffffffffffffffff1681565b600c8181548110612a3457600080fd5b90600052602060002090600602016000915090508060000154908060010154908060020160009054906101000a900473ffffffffffffffffffffffffffffffffffffffff16908060030154908060040154908060050154905086565b612a98613fce565b73ffffffffffffffffffffffffffffffffffffffff16612ab6610cb8565b73ffffffffffffffffffffffffffffffffffffffff1614612b0c576040517f08c379a0000000000000000000000000000000000000000000000000000000008152600401612b0390614ea2565b60405180910390fd5b565b60008060009054906101000a900473ffffffffffffffffffffffffffffffffffffffff169050816000806101000a81548173ffffffffffffffffffffffffffffffffffffffff021916908373ffffffffffffffffffffffffffffffffffffffff1602179055508173ffffffffffffffffffffffffffffffffffffffff168173ffffffffffffffffffffffffffffffffffffffff167f8be0079c531659141344cd1fd0a4f28419497f9722a3daafe3b4186f6b6457e060405160405180910390a35050565b60005b600b805490508110156130405781600b8281548110612bf757612bf6614a1a565b5b906000526020600020906007020160030154600b8381548110612c1d57612c1c614a1a565b5b906000526020600020906007020160020154612c399190614afe565b10158015612c6b575082600b8281548110612c5757612c56614a1a565b5b906000526020600020906007020160040154145b8015612c9c57506001600b8281548110612c8857612c87614a1a565b5b906000526020600020906007020160050154145b1561302d5781600b8281548110612cb657612cb5614a1a565b5b90600052602060002090600702016003016000828254612cd69190614642565b9250508190555081600a8481548110612cf257612cf1614a1a565b5b90600052602060002090600b02016002016000828254612d129190614642565b925050819055506001600b8281548110612d2f57612d2e614a1a565b5b9060005260206000209060070201600601541415612d885781600a8481548110612d5c57612d5b614a1a565b5b90600052602060002090600b02016008016000828254612d7c9190614642565b92505081905550612e64565b6002600b8281548110612d9e57612d9d614a1a565b5b9060005260206000209060070201600601541415612df75781600a8481548110612dcb57612dca614a1a565b5b90600052602060002090600b02016009016000828254612deb9190614642565b92505081905550612e63565b6003600b8281548110612e0d57612e0c614a1a565b5b9060005260206000209060070201600601541415612e625781600a8481548110612e3a57612e39614a1a565b5b90600052602060002090600b0201600a016000828254612e5a9190614642565b925050819055505b5b5b600b8181548110612e7857612e77614a1a565b5b906000526020600020906007020160030154600b8281548110612e9e57612e9d614a1a565b5b9060005260206000209060070201600201541415612fac576002600b8281548110612ecc57612ecb614a1a565b5b9060005260206000209060070201600501819055507f344f3c440bc0a199d8ebf3e014b04b0be7f494a3e35bc4c4b162dbf9edb24521600b8281548110612f1657612f15614a1a565b5b906000526020600020906007020160010160009054906101000a900473ffffffffffffffffffffffffffffffffffffffff16600b8381548110612f5c57612f5b614a1a565b5b906000526020600020906007020160020154600b8481548110612f8257612f81614a1a565b5b906000526020600020906007020160040154604051612fa3939291906149e3565b60405180910390a15b7ff8d3b803c2699d3e25440474a9089daa89195298415edaf5cb5ff73d4cad4d44600b8281548110612fe157612fe0614a1a565b5b906000526020600020906007020160010160009054906101000a900473ffffffffffffffffffffffffffffffffffffffff168385604051613024939291906149e3565b60405180910390a15b808061303890614a49565b915050612bd5565b505050565b8073ffffffffffffffffffffffffffffffffffffffff1663095ea7b330856040518363ffffffff1660e01b8152600401613080929190614d9b565b602060405180830381600087803b15801561309a57600080fd5b505af11580156130ae573d6000803e3d6000fd5b505050506040513d601f19601f820116820180604052508101906130d291906149b6565b50600060646001856130e49190614ce1565b6130ee9190614d6a565b9050600081856130fe9190614afe565b90508273ffffffffffffffffffffffffffffffffffffffff166323b872dd30600760009054906101000a900473ffffffffffffffffffffffffffffffffffffffff16856040518463ffffffff1660e01b815260040161315f93929190614953565b602060405180830381600087803b15801561317957600080fd5b505af115801561318d573d6000803e3d6000fd5b505050506040513d601f19601f820116820180604052508101906131b191906149b6565b507fa4c6a382f73ff9613852e022f107d783974efe6f56975cafa30fcf48256f0935600a87815481106131e7576131e6614a1a565b5b90600052602060002090600b020160010160009054906101000a900473ffffffffffffffffffffffffffffffffffffffff1683604051613228929190614d9b565b60405180910390a18273ffffffffffffffffffffffffffffffffffffffff166323b872dd30600a898154811061326157613260614a1a565b5b90600052602060002090600b020160010160009054906101000a900473ffffffffffffffffffffffffffffffffffffffff16846040518463ffffffff1660e01b81526004016132b293929190614953565b602060405180830381600087803b1580156132cc57600080fd5b505af11580156132e0573d6000803e3d6000fd5b505050506040513d601f19601f8201168201806040525081019061330491906149b6565b507f3b5e2b80c7d0cf08e68f899d74d0769f512f6e79840f1ea3b78fe64213909996600a878154811061333a57613339614a1a565b5b90600052602060002090600b020160010160009054906101000a900473ffffffffffffffffffffffffffffffffffffffff16868660405161337d939291906149e3565b60405180910390a184600a878154811061339a57613399614a1a565b5b90600052602060002090600b020160020160008282546133ba9190614afe565b9250508190555060005b600b8054905081101561379f5786600b82815481106133e6576133e5614a1a565b5b90600052602060002090600702016004015414801561342a57506001600b828154811061341657613415614a1a565b5b906000526020600020906007020160050154145b801561345a575084600b828154811061344657613445614a1a565b5b906000526020600020906007020160060154145b1561378c57600b818154811061347357613472614a1a565b5b906000526020600020906007020160030154600b828154811061349957613498614a1a565b5b9060005260206000209060070201600201541115613735576000600b82815481106134c7576134c6614a1a565b5b906000526020600020906007020160030154600b83815481106134ed576134ec614a1a565b5b9060005260206000209060070201600201546135099190614afe565b90508473ffffffffffffffffffffffffffffffffffffffff1663095ea7b330836040518363ffffffff1660e01b8152600401613546929190614d9b565b602060405180830381600087803b15801561356057600080fd5b505af1158015613574573d6000803e3d6000fd5b505050506040513d601f19601f8201168201806040525081019061359891906149b6565b508473ffffffffffffffffffffffffffffffffffffffff166323b872dd30600b8b815481106135ca576135c9614a1a565b5b906000526020600020906007020160010160009054906101000a900473ffffffffffffffffffffffffffffffffffffffff16846040518463ffffffff1660e01b815260040161361b93929190614953565b602060405180830381600087803b15801561363557600080fd5b505af1158015613649573d6000803e3d6000fd5b505050506040513d601f19601f8201168201806040525081019061366d91906149b6565b507f98c105e3bc1ca4c7a99cdea9cd2e2c7a0fbf623404262d3dfd0a152545bd25ad600b83815481106136a3576136a2614a1a565b5b906000526020600020906007020160010160009054906101000a900473ffffffffffffffffffffffffffffffffffffffff1682600a8b815481106136ea576136e9614a1a565b5b90600052602060002090600b020160010160009054906101000a900473ffffffffffffffffffffffffffffffffffffffff1660405161372b93929190614ec2565b60405180910390a1505b6000600b888154811061374b5761374a614a1a565b5b9060005260206000209060070201600301819055506002600b828154811061377657613775614a1a565b5b9060005260206000209060070201600501819055505b808061379790614a49565b9150506133c4565b50505050505050565b60005b600b80549050811015613c035784600b82815481106137cd576137cc614a1a565b5b90600052602060002090600702016004015414801561381157506001600b82815481106137fd576137fc614a1a565b5b906000526020600020906007020160050154145b8015613841575082600b828154811061382d5761382c614a1a565b5b906000526020600020906007020160060154145b15613bf057600b818154811061385a57613859614a1a565b5b906000526020600020906007020160030154600b82815481106138805761387f614a1a565b5b9060005260206000209060070201600201541115613b30578173ffffffffffffffffffffffffffffffffffffffff1663095ea7b330600b84815481106138c9576138c8614a1a565b5b9060005260206000209060070201600201546040518363ffffffff1660e01b81526004016138f8929190614d9b565b602060405180830381600087803b15801561391257600080fd5b505af1158015613926573d6000803e3d6000fd5b505050506040513d601f19601f8201168201806040525081019061394a91906149b6565b508173ffffffffffffffffffffffffffffffffffffffff166323b872dd30600b848154811061397c5761397b614a1a565b5b906000526020600020906007020160010160009054906101000a900473ffffffffffffffffffffffffffffffffffffffff16600b85815481106139c2576139c1614a1a565b5b9060005260206000209060070201600201546040518463ffffffff1660e01b81526004016139f293929190614953565b602060405180830381600087803b158015613a0c57600080fd5b505af1158015613a20573d6000803e3d6000fd5b505050506040513d601f19601f82011682018060405250810190613a4491906149b6565b507f98c105e3bc1ca4c7a99cdea9cd2e2c7a0fbf623404262d3dfd0a152545bd25ad600b8281548110613a7a57613a79614a1a565b5b906000526020600020906007020160010160009054906101000a900473ffffffffffffffffffffffffffffffffffffffff16600b8381548110613ac057613abf614a1a565b5b906000526020600020906007020160020154600a8481548110613ae657613ae5614a1a565b5b90600052602060002090600b020160010160009054906101000a900473ffffffffffffffffffffffffffffffffffffffff16604051613b2793929190614ec2565b60405180910390a15b600b8181548110613b4457613b43614a1a565b5b906000526020600020906007020160020154600a8681548110613b6a57613b69614a1a565b5b90600052602060002090600b02016002016000828254613b8a9190614afe565b925050819055506004600b8281548110613ba757613ba6614a1a565b5b906000526020600020906007020160050181905550600b8181548110613bd057613bcf614a1a565b5b90600052602060002090600702016002015484613bed9190614afe565b93505b8080613bfb90614a49565b9150506137ab565b5060005b600c80549050811015613fc75784600c8281548110613c2957613c28614a1a565b5b906000526020600020906006020160010154148015613c6d57506000600c8281548110613c5957613c58614a1a565b5b906000526020600020906006020160040154145b8015613c9d575082600c8281548110613c8957613c88614a1a565b5b906000526020600020906006020160050154145b15613fb4578173ffffffffffffffffffffffffffffffffffffffff1663095ea7b330600c8481548110613cd357613cd2614a1a565b5b9060005260206000209060060201600301546040518363ffffffff1660e01b8152600401613d02929190614d9b565b602060405180830381600087803b158015613d1c57600080fd5b505af1158015613d30573d6000803e3d6000fd5b505050506040513d601f19601f82011682018060405250810190613d5491906149b6565b508173ffffffffffffffffffffffffffffffffffffffff166323b872dd30600c8481548110613d8657613d85614a1a565b5b906000526020600020906006020160020160009054906101000a900473ffffffffffffffffffffffffffffffffffffffff16600c8581548110613dcc57613dcb614a1a565b5b9060005260206000209060060201600301546040518463ffffffff1660e01b8152600401613dfc93929190614953565b602060405180830381600087803b158015613e1657600080fd5b505af1158015613e2a573d6000803e3d6000fd5b505050506040513d601f19601f82011682018060405250810190613e4e91906149b6565b50600c8181548110613e6357613e62614a1a565b5b906000526020600020906006020160030154600a8681548110613e8957613e88614a1a565b5b90600052602060002090600b02016002016000828254613ea99190614afe565b92505081905550600c8181548110613ec457613ec3614a1a565b5b90600052602060002090600602016003015484613ee19190614afe565b93506004600c8281548110613ef957613ef8614a1a565b5b9060005260206000209060060201600401819055507f2dc8e290002f06fc0085bbca9dfb8b415cf4d1178950c72ff9ee8f4d8878ee66600c8281548110613f4357613f42614a1a565b5b906000526020600020906006020160020160009054906101000a900473ffffffffffffffffffffffffffffffffffffffff16600c8381548110613f8957613f88614a1a565b5b90600052602060002090600602016003015487604051613fab939291906149e3565b60405180910390a15b8080613fbf90614a49565b915050613c07565b5050505050565b600033905090565b600080fd5b6000819050919050565b613fee81613fdb565b8114613ff957600080fd5b50565b60008135905061400b81613fe5565b92915050565b600073ffffffffffffffffffffffffffffffffffffffff82169050919050565b600061403c82614011565b9050919050565b61404c81614031565b811461405757600080fd5b50565b60008135905061406981614043565b92915050565b60008060006060848603121561408857614087613fd6565b5b600061409686828701613ffc565b93505060206140a78682870161405a565b92505060406140b886828701613ffc565b9150509250925092565b6000602082840312156140d8576140d7613fd6565b5b60006140e684828501613ffc565b91505092915050565b6140f881613fdb565b82525050565b61410781614031565b82525050565b600060e082019050614122600083018a6140ef565b61412f60208301896140fe565b61413c60408301886140ef565b61414960608301876140ef565b61415660808301866140ef565b61416360a08301856140ef565b61417060c08301846140ef565b98975050505050505050565b600060208201905061419160008301846140ef565b92915050565b6000819050919050565b60006141bc6141b76141b284614011565b614197565b614011565b9050919050565b60006141ce826141a1565b9050919050565b60006141e0826141c3565b9050919050565b6141f0816141d5565b82525050565b600060208201905061420b60008301846141e7565b92915050565b600060208201905061422660008301846140fe565b92915050565b6000614237826141c3565b9050919050565b6142478161422c565b82525050565b6000602082019050614262600083018461423e565b92915050565b60006101608201905061427e600083018e6140ef565b61428b602083018d6140fe565b614298604083018c6140ef565b6142a5606083018b6140ef565b6142b2608083018a6140ef565b6142bf60a08301896140ef565b6142cc60c08301886140ef565b6142d960e08301876140fe565b6142e76101008301866140ef565b6142f56101208301856140ef565b6143036101408301846140ef565b9c9b505050505050505050505050565b60008115159050919050565b61432881614313565b82525050565b6000602082019050614343600083018461431f565b92915050565b600061435482614031565b9050919050565b61436481614349565b811461436f57600080fd5b50565b6000813590506143818161435b565b92915050565b60006020828403121561439d5761439c613fd6565b5b60006143ab84828501614372565b91505092915050565b600080604083850312156143cb576143ca613fd6565b5b60006143d985828601613ffc565b92505060206143ea85828601613ffc565b9150509250929050565b6000806000806080858703121561440e5761440d613fd6565b5b600061441c87828801613ffc565b945050602061442d87828801613ffc565b935050604061443e87828801613ffc565b925050606061444f87828801613ffc565b91505092959194509250565b600080600080600060a0868803121561447757614476613fd6565b5b600061448588828901613ffc565b955050602061449688828901613ffc565b94505060406144a78882890161405a565b93505060606144b88882890161405a565b92505060806144c988828901613ffc565b9150509295509295909350565b600080604083850312156144ed576144ec613fd6565b5b60006144fb85828601613ffc565b925050602061450c85828601614372565b9150509250929050565b60006020828403121561452c5761452b613fd6565b5b600061453a8482850161405a565b91505092915050565b600060e082019050614558600083018a6140ef565b61456560208301896140ef565b61457260408301886140ef565b61457f60608301876140ef565b61458c60808301866140fe565b61459960a08301856140fe565b6145a660c08301846140ef565b98975050505050505050565b600060c0820190506145c760008301896140ef565b6145d460208301886140ef565b6145e160408301876140fe565b6145ee60608301866140ef565b6145fb60808301856140ef565b61460860a08301846140ef565b979650505050505050565b7f4e487b7100000000000000000000000000000000000000000000000000000000600052601160045260246000fd5b600061464d82613fdb565b915061465883613fdb565b9250827fffffffffffffffffffffffffffffffffffffffffffffffffffffffffffffffff0382111561468d5761468c614613565b5b828201905092915050565b600082825260208201905092915050565b7f496e76616c696420616464726573730000000000000000000000000000000000600082015250565b60006146df600f83614698565b91506146ea826146a9565b602082019050919050565b6000602082019050818103600083015261470e816146d2565b9050919050565b7f496e76616c696420616d6f756e74000000000000000000000000000000000000600082015250565b600061474b600e83614698565b915061475682614715565b602082019050919050565b6000602082019050818103600083015261477a8161473e565b9050919050565b7f56616c7565206973206c6f776572207468616e206d696e696d756d20706f737360008201527f69626c6520616d6f756e74000000000000000000000000000000000000000000602082015250565b60006147dd602b83614698565b91506147e882614781565b604082019050919050565b6000602082019050818103600083015261480c816147d0565b9050919050565b7f52657761726420616d6f756e742073686f756c6420626520686967686572207460008201527f68616e206c6576656c2031000000000000000000000000000000000000000000602082015250565b600061486f602b83614698565b915061487a82614813565b604082019050919050565b6000602082019050818103600083015261489e81614862565b9050919050565b6000815190506148b481613fe5565b92915050565b6000602082840312156148d0576148cf613fd6565b5b60006148de848285016148a5565b91505092915050565b7f4e6f7420656e6f75676820746f6b656e20696e2077616c6c6574000000000000600082015250565b600061491d601a83614698565b9150614928826148e7565b602082019050919050565b6000602082019050818103600083015261494c81614910565b9050919050565b600060608201905061496860008301866140fe565b61497560208301856140fe565b61498260408301846140ef565b949350505050565b61499381614313565b811461499e57600080fd5b50565b6000815190506149b08161498a565b92915050565b6000602082840312156149cc576149cb613fd6565b5b60006149da848285016149a1565b91505092915050565b60006060820190506149f860008301866140fe565b614a0560208301856140ef565b614a1260408301846140ef565b949350505050565b7f4e487b7100000000000000000000000000000000000000000000000000000000600052603260045260246000fd5b6000614a5482613fdb565b91507fffffffffffffffffffffffffffffffffffffffffffffffffffffffffffffffff821415614a8757614a86614613565b5b600182019050919050565b7f5265656e7472616e637947756172643a207265656e7472616e742063616c6c00600082015250565b6000614ac8601f83614698565b9150614ad382614a92565b602082019050919050565b60006020820190508181036000830152614af781614abb565b9050919050565b6000614b0982613fdb565b9150614b1483613fdb565b925082821015614b2757614b26614613565b5b828203905092915050565b7f446561646c696e6520666f722063726f776466756e64696e672068617320706160008201527f737365642e000000000000000000000000000000000000000000000000000000602082015250565b6000614b8e602583614698565b9150614b9982614b32565b604082019050919050565b60006020820190508181036000830152614bbd81614b81565b9050919050565b7f46756e64206973206e6f74206163746976650000000000000000000000000000600082015250565b6000614bfa601283614698565b9150614c0582614bc4565b602082019050919050565b60006020820190508181036000830152614c2981614bed565b9050919050565b7f496e76616c69642063757272656e637900000000000000000000000000000000600082015250565b6000614c66601083614698565b9150614c7182614c30565b602082019050919050565b60006020820190508181036000830152614c9581614c59565b9050919050565b6000608082019050614cb160008301876140fe565b614cbe60208301866140ef565b614ccb60408301856140ef565b614cd860608301846140ef565b95945050505050565b6000614cec82613fdb565b9150614cf783613fdb565b9250817fffffffffffffffffffffffffffffffffffffffffffffffffffffffffffffffff0483118215151615614d3057614d2f614613565b5b828202905092915050565b7f4e487b7100000000000000000000000000000000000000000000000000000000600052601260045260246000fd5b6000614d7582613fdb565b9150614d8083613fdb565b925082614d9057614d8f614d3b565b5b828204905092915050565b6000604082019050614db060008301856140fe565b614dbd60208301846140ef565b9392505050565b7f4f776e61626c653a206e6577206f776e657220697320746865207a65726f206160008201527f6464726573730000000000000000000000000000000000000000000000000000602082015250565b6000614e20602683614698565b9150614e2b82614dc4565b604082019050919050565b60006020820190508181036000830152614e4f81614e13565b9050919050565b7f4f776e61626c653a2063616c6c6572206973206e6f7420746865206f776e6572600082015250565b6000614e8c602083614698565b9150614e9782614e56565b602082019050919050565b60006020820190508181036000830152614ebb81614e7f565b9050919050565b6000606082019050614ed760008301866140fe565b614ee460208301856140ef565b614ef160408301846140fe565b94935050505056fea2646970667358221220c2e3428f50332ad248e48b3fc767dbaffc58e9002d3dd981645e7a963e27731764736f6c63430008090033",
  "linkReferences": {},
  "deployedLinkReferences": {}
}