{
  "_format": "hh-sol-artifact-1",
  "contractName": "Funding",
  "sourceName": "contracts/Funding.sol",
  "abi": [
    {
      "inputs": [
        {
          "internalType": "address",
          "name": "usdcAddress",
          "type": "address"
        },
        {
          "internalType": "address",
          "name": "usdtAddress",
          "type": "address"
        },
        {
          "internalType": "address",
          "name": "daiAddress",
          "type": "address"
        }
      ],
      "stateMutability": "nonpayable",
      "type": "constructor"
    },
    {
      "anonymous": false,
      "inputs": [
        {
          "indexed": false,
          "internalType": "address",
          "name": "owner",
          "type": "address"
        },
        {
          "indexed": false,
          "internalType": "uint256",
          "name": "fundId",
          "type": "uint256"
        }
      ],
      "name": "Cancelled",
      "type": "event"
    },
    {
      "anonymous": false,
      "inputs": [
        {
          "indexed": false,
          "internalType": "address",
          "name": "owner",
          "type": "address"
        },
        {
          "indexed": false,
          "internalType": "uint256",
          "name": "balance",
          "type": "uint256"
        },
        {
          "indexed": false,
          "internalType": "uint256",
          "name": "currency",
          "type": "uint256"
        }
      ],
      "name": "DistributionAccomplished",
      "type": "event"
    },
    {
      "anonymous": false,
      "inputs": [
        {
          "indexed": false,
          "internalType": "address",
          "name": "donator",
          "type": "address"
        },
        {
          "indexed": false,
          "internalType": "uint256",
          "name": "amount",
          "type": "uint256"
        },
        {
          "indexed": false,
          "internalType": "uint256",
          "name": "fundId",
          "type": "uint256"
        },
        {
          "indexed": false,
          "internalType": "uint256",
          "name": "currency",
          "type": "uint256"
        },
        {
          "indexed": false,
          "internalType": "uint256",
          "name": "microDrained",
          "type": "uint256"
        }
      ],
      "name": "Donated",
      "type": "event"
    },
    {
      "anonymous": false,
      "inputs": [
        {
          "indexed": false,
          "internalType": "uint256",
          "name": "id",
          "type": "uint256"
        }
      ],
      "name": "FundCreated",
      "type": "event"
    },
    {
      "anonymous": false,
      "inputs": [
        {
          "indexed": false,
          "internalType": "address",
          "name": "project",
          "type": "address"
        },
        {
          "indexed": false,
          "internalType": "uint256",
          "name": "fee",
          "type": "uint256"
        }
      ],
      "name": "FundingFee",
      "type": "event"
    },
    {
      "anonymous": false,
      "inputs": [
        {
          "indexed": false,
          "internalType": "bool",
          "name": "status",
          "type": "bool"
        }
      ],
      "name": "IncorrectDistribution",
      "type": "event"
    },
    {
      "anonymous": false,
      "inputs": [
        {
          "indexed": false,
          "internalType": "address",
          "name": "owner",
          "type": "address"
        },
        {
          "indexed": false,
          "internalType": "uint256",
          "name": "cap",
          "type": "uint256"
        },
        {
          "indexed": false,
          "internalType": "uint256",
          "name": "fundId",
          "type": "uint256"
        }
      ],
      "name": "MicroClosed",
      "type": "event"
    },
    {
      "anonymous": false,
      "inputs": [
        {
          "indexed": false,
          "internalType": "address",
          "name": "owner",
          "type": "address"
        },
        {
          "indexed": false,
          "internalType": "uint256",
          "name": "cap",
          "type": "uint256"
        },
        {
          "indexed": false,
          "internalType": "uint256",
          "name": "fundId",
          "type": "uint256"
        },
        {
          "indexed": false,
          "internalType": "uint256",
          "name": "currency",
          "type": "uint256"
        },
        {
          "indexed": false,
          "internalType": "uint256",
          "name": "microId",
          "type": "uint256"
        }
      ],
      "name": "MicroCreated",
      "type": "event"
    },
    {
      "anonymous": false,
      "inputs": [
        {
          "indexed": false,
          "internalType": "address",
          "name": "owner",
          "type": "address"
        },
        {
          "indexed": false,
          "internalType": "uint256",
          "name": "amount",
          "type": "uint256"
        },
        {
          "indexed": false,
          "internalType": "uint256",
          "name": "fundId",
          "type": "uint256"
        }
      ],
      "name": "MicroDrained",
      "type": "event"
    },
    {
      "anonymous": false,
      "inputs": [
        {
          "indexed": false,
          "internalType": "address",
          "name": "backer",
          "type": "address"
        },
        {
          "indexed": false,
          "internalType": "address",
          "name": "contractAddress",
          "type": "address"
        },
        {
          "indexed": false,
          "internalType": "uint256",
          "name": "fundId",
          "type": "uint256"
        }
      ],
      "name": "NftReward",
      "type": "event"
    },
    {
      "anonymous": false,
      "inputs": [
        {
          "indexed": true,
          "internalType": "address",
          "name": "previousOwner",
          "type": "address"
        },
        {
          "indexed": true,
          "internalType": "address",
          "name": "newOwner",
          "type": "address"
        }
      ],
      "name": "OwnershipTransferred",
      "type": "event"
    },
    {
      "anonymous": false,
      "inputs": [
        {
          "indexed": false,
          "internalType": "address",
          "name": "project",
          "type": "address"
        },
        {
          "indexed": false,
          "internalType": "uint256",
          "name": "fee",
          "type": "uint256"
        }
      ],
      "name": "PlatformFee",
      "type": "event"
    },
    {
      "anonymous": false,
      "inputs": [
        {
          "indexed": false,
          "internalType": "address",
          "name": "backer",
          "type": "address"
        },
        {
          "indexed": false,
          "internalType": "uint256",
          "name": "amount",
          "type": "uint256"
        },
        {
          "indexed": false,
          "internalType": "uint256",
          "name": "fundId",
          "type": "uint256"
        }
      ],
      "name": "Refunded",
      "type": "event"
    },
    {
      "anonymous": false,
      "inputs": [
        {
          "indexed": false,
          "internalType": "address",
          "name": "microOwner",
          "type": "address"
        },
        {
          "indexed": false,
          "internalType": "uint256",
          "name": "balance",
          "type": "uint256"
        },
        {
          "indexed": false,
          "internalType": "address",
          "name": "fundOwner",
          "type": "address"
        }
      ],
      "name": "Returned",
      "type": "event"
    },
    {
      "anonymous": false,
      "inputs": [
        {
          "indexed": false,
          "internalType": "uint256",
          "name": "rewardId",
          "type": "uint256"
        },
        {
          "indexed": false,
          "internalType": "address",
          "name": "owner",
          "type": "address"
        },
        {
          "indexed": false,
          "internalType": "address",
          "name": "contractAddress",
          "type": "address"
        },
        {
          "indexed": false,
          "internalType": "uint256",
          "name": "amount",
          "type": "uint256"
        },
        {
          "indexed": false,
          "internalType": "uint256",
          "name": "fundId",
          "type": "uint256"
        },
        {
          "indexed": false,
          "internalType": "uint256",
          "name": "rewardType",
          "type": "uint256"
        }
      ],
      "name": "RewardCreated",
      "type": "event"
    },
    {
      "anonymous": false,
      "inputs": [
        {
          "indexed": false,
          "internalType": "address",
          "name": "backer",
          "type": "address"
        },
        {
          "indexed": false,
          "internalType": "uint256",
          "name": "amount",
          "type": "uint256"
        },
        {
          "indexed": false,
          "internalType": "uint256",
          "name": "fundId",
          "type": "uint256"
        }
      ],
      "name": "TokenReward",
      "type": "event"
    },
    {
      "inputs": [
        {
          "internalType": "uint256",
          "name": "_index",
          "type": "uint256"
        },
        {
          "internalType": "uint256",
          "name": "_amount",
          "type": "uint256"
        }
      ],
      "name": "calcInvolvedMicros",
      "outputs": [
        {
          "internalType": "uint256",
          "name": "",
          "type": "uint256"
        }
      ],
      "stateMutability": "view",
      "type": "function"
    },
    {
      "inputs": [
        {
          "internalType": "uint256",
          "name": "_index",
          "type": "uint256"
        },
        {
          "internalType": "uint256",
          "name": "_amount",
          "type": "uint256"
        }
      ],
      "name": "calcOutcome",
      "outputs": [
        {
          "internalType": "uint256",
          "name": "",
          "type": "uint256"
        }
      ],
      "stateMutability": "view",
      "type": "function"
    },
    {
      "inputs": [
        {
          "internalType": "uint256",
          "name": "_id",
          "type": "uint256"
        }
      ],
      "name": "cancelFund",
      "outputs": [],
      "stateMutability": "nonpayable",
      "type": "function"
    },
    {
      "inputs": [
        {
          "internalType": "uint256",
          "name": "_fee",
          "type": "uint256"
        }
      ],
      "name": "changeFee",
      "outputs": [],
      "stateMutability": "nonpayable",
      "type": "function"
    },
    {
      "inputs": [
        {
          "internalType": "uint256",
          "name": "_amountM",
          "type": "uint256"
        },
        {
          "internalType": "uint256",
          "name": "_amountD",
          "type": "uint256"
        },
        {
          "internalType": "uint256",
          "name": "_id",
          "type": "uint256"
        },
        {
          "internalType": "uint256",
          "name": "_currency",
          "type": "uint256"
        },
        {
          "internalType": "uint256",
          "name": "_rewardId",
          "type": "uint256"
        }
      ],
      "name": "contribute",
      "outputs": [],
      "stateMutability": "nonpayable",
      "type": "function"
    },
    {
      "inputs": [
        {
          "internalType": "uint256",
          "name": "_level1",
          "type": "uint256"
        }
      ],
      "name": "createFund",
      "outputs": [],
      "stateMutability": "nonpayable",
      "type": "function"
    },
    {
      "inputs": [
        {
          "internalType": "uint256",
          "name": "_fundId",
          "type": "uint256"
        },
        {
          "internalType": "uint256",
          "name": "_totalNumber",
          "type": "uint256"
        },
        {
          "internalType": "uint256",
          "name": "_rewardAmount",
          "type": "uint256"
        },
        {
          "internalType": "address",
          "name": "_tokenAddress",
          "type": "address"
        },
        {
          "internalType": "uint256",
          "name": "_type",
          "type": "uint256"
        }
      ],
      "name": "createReward",
      "outputs": [],
      "stateMutability": "nonpayable",
      "type": "function"
    },
    {
      "inputs": [],
      "name": "createZeroData",
      "outputs": [],
      "stateMutability": "nonpayable",
      "type": "function"
    },
    {
      "inputs": [],
      "name": "dai",
      "outputs": [
        {
          "internalType": "contract IERC20",
          "name": "",
          "type": "address"
        }
      ],
      "stateMutability": "view",
      "type": "function"
    },
    {
      "inputs": [
        {
          "internalType": "uint256",
          "name": "_id",
          "type": "uint256"
        }
      ],
      "name": "distribute",
      "outputs": [],
      "stateMutability": "nonpayable",
      "type": "function"
    },
    {
      "inputs": [
        {
          "internalType": "uint256",
          "name": "",
          "type": "uint256"
        }
      ],
      "name": "donations",
      "outputs": [
        {
          "internalType": "uint256",
          "name": "id",
          "type": "uint256"
        },
        {
          "internalType": "uint256",
          "name": "fundId",
          "type": "uint256"
        },
        {
          "internalType": "address",
          "name": "backer",
          "type": "address"
        },
        {
          "internalType": "uint256",
          "name": "amount",
          "type": "uint256"
        },
        {
          "internalType": "uint256",
          "name": "state",
          "type": "uint256"
        },
        {
          "internalType": "uint256",
          "name": "currency",
          "type": "uint256"
        }
      ],
      "stateMutability": "view",
      "type": "function"
    },
    {
      "inputs": [],
      "name": "feeAddress",
      "outputs": [
        {
          "internalType": "address",
          "name": "",
          "type": "address"
        }
      ],
      "stateMutability": "view",
      "type": "function"
    },
    {
      "inputs": [
        {
          "internalType": "uint256",
          "name": "",
          "type": "uint256"
        }
      ],
      "name": "funds",
      "outputs": [
        {
          "internalType": "uint256",
          "name": "id",
          "type": "uint256"
        },
        {
          "internalType": "address",
          "name": "owner",
          "type": "address"
        },
        {
          "internalType": "uint256",
          "name": "balance",
          "type": "uint256"
        },
        {
          "internalType": "uint256",
          "name": "deadline",
          "type": "uint256"
        },
        {
          "internalType": "uint256",
          "name": "state",
          "type": "uint256"
        },
        {
          "internalType": "uint256",
          "name": "level1",
          "type": "uint256"
        },
        {
          "internalType": "uint256",
          "name": "usdcBalance",
          "type": "uint256"
        },
        {
          "internalType": "uint256",
          "name": "usdtBalance",
          "type": "uint256"
        },
        {
          "internalType": "uint256",
          "name": "daiBalance",
          "type": "uint256"
        }
      ],
      "stateMutability": "view",
      "type": "function"
    },
    {
      "inputs": [
        {
          "internalType": "uint256",
          "name": "_index",
          "type": "uint256"
        }
      ],
      "name": "getBackers",
      "outputs": [
        {
          "internalType": "uint256",
          "name": "",
          "type": "uint256"
        }
      ],
      "stateMutability": "view",
      "type": "function"
    },
    {
      "inputs": [
        {
          "internalType": "uint256",
          "name": "_index",
          "type": "uint256"
        }
      ],
      "name": "getConnectedMicroFunds",
      "outputs": [
        {
          "internalType": "uint256",
          "name": "",
          "type": "uint256"
        }
      ],
      "stateMutability": "view",
      "type": "function"
    },
    {
      "inputs": [
        {
          "internalType": "uint256",
          "name": "",
          "type": "uint256"
        }
      ],
      "name": "microFunds",
      "outputs": [
        {
          "internalType": "uint256",
          "name": "microId",
          "type": "uint256"
        },
        {
          "internalType": "address",
          "name": "owner",
          "type": "address"
        },
        {
          "internalType": "uint256",
          "name": "cap",
          "type": "uint256"
        },
        {
          "internalType": "uint256",
          "name": "microBalance",
          "type": "uint256"
        },
        {
          "internalType": "uint256",
          "name": "fundId",
          "type": "uint256"
        },
        {
          "internalType": "uint256",
          "name": "state",
          "type": "uint256"
        },
        {
          "internalType": "uint256",
          "name": "currency",
          "type": "uint256"
        }
      ],
      "stateMutability": "view",
      "type": "function"
    },
    {
      "inputs": [],
      "name": "minAmount",
      "outputs": [
        {
          "internalType": "uint256",
          "name": "",
          "type": "uint256"
        }
      ],
      "stateMutability": "view",
      "type": "function"
    },
    {
      "inputs": [
        {
          "internalType": "address",
          "name": "",
          "type": "address"
        },
        {
          "internalType": "address",
          "name": "",
          "type": "address"
        },
        {
          "internalType": "uint256[]",
          "name": "",
          "type": "uint256[]"
        },
        {
          "internalType": "uint256[]",
          "name": "",
          "type": "uint256[]"
        },
        {
          "internalType": "bytes",
          "name": "",
          "type": "bytes"
        }
      ],
      "name": "onERC1155BatchReceived",
      "outputs": [
        {
          "internalType": "bytes4",
          "name": "",
          "type": "bytes4"
        }
      ],
      "stateMutability": "nonpayable",
      "type": "function"
    },
    {
      "inputs": [
        {
          "internalType": "address",
          "name": "",
          "type": "address"
        },
        {
          "internalType": "address",
          "name": "",
          "type": "address"
        },
        {
          "internalType": "uint256",
          "name": "",
          "type": "uint256"
        },
        {
          "internalType": "uint256",
          "name": "",
          "type": "uint256"
        },
        {
          "internalType": "bytes",
          "name": "",
          "type": "bytes"
        }
      ],
      "name": "onERC1155Received",
      "outputs": [
        {
          "internalType": "bytes4",
          "name": "",
          "type": "bytes4"
        }
      ],
      "stateMutability": "nonpayable",
      "type": "function"
    },
    {
      "inputs": [],
      "name": "owner",
      "outputs": [
        {
          "internalType": "address",
          "name": "",
          "type": "address"
        }
      ],
      "stateMutability": "view",
      "type": "function"
    },
    {
      "inputs": [],
      "name": "platformFee",
      "outputs": [
        {
          "internalType": "uint256",
          "name": "",
          "type": "uint256"
        }
      ],
      "stateMutability": "view",
      "type": "function"
    },
    {
      "inputs": [],
      "name": "renounceOwnership",
      "outputs": [],
      "stateMutability": "nonpayable",
      "type": "function"
    },
    {
      "inputs": [
        {
          "internalType": "uint256",
          "name": "",
          "type": "uint256"
        }
      ],
      "name": "rewardList",
      "outputs": [
        {
          "internalType": "uint256",
          "name": "rewardId",
          "type": "uint256"
        },
        {
          "internalType": "uint256",
          "name": "rewardItemId",
          "type": "uint256"
        },
        {
          "internalType": "address",
          "name": "receiver",
          "type": "address"
        },
        {
          "internalType": "uint256",
          "name": "state",
          "type": "uint256"
        }
      ],
      "stateMutability": "view",
      "type": "function"
    },
    {
      "inputs": [
        {
          "internalType": "uint256",
          "name": "",
          "type": "uint256"
        }
      ],
      "name": "rewards",
      "outputs": [
        {
          "internalType": "uint256",
          "name": "rewardId",
          "type": "uint256"
        },
        {
          "internalType": "uint256",
          "name": "fundId",
          "type": "uint256"
        },
        {
          "internalType": "uint256",
          "name": "totalNumber",
          "type": "uint256"
        },
        {
          "internalType": "uint256",
          "name": "actualNumber",
          "type": "uint256"
        },
        {
          "internalType": "address",
          "name": "owner",
          "type": "address"
        },
        {
          "internalType": "address",
          "name": "contractAddress",
          "type": "address"
        },
        {
          "internalType": "uint256",
          "name": "erc20amount",
          "type": "uint256"
        },
        {
          "internalType": "uint256",
          "name": "nftId",
          "type": "uint256"
        },
        {
          "internalType": "uint256",
          "name": "state",
          "type": "uint256"
        }
      ],
      "stateMutability": "view",
      "type": "function"
    },
    {
      "inputs": [
        {
          "internalType": "uint256",
          "name": "_min",
          "type": "uint256"
        }
      ],
      "name": "setMinimum",
      "outputs": [],
      "stateMutability": "nonpayable",
      "type": "function"
    },
    {
      "inputs": [
        {
          "internalType": "bytes4",
          "name": "interfaceId",
          "type": "bytes4"
        }
      ],
      "name": "supportsInterface",
      "outputs": [
        {
          "internalType": "bool",
          "name": "",
          "type": "bool"
        }
      ],
      "stateMutability": "view",
      "type": "function"
    },
    {
      "inputs": [
        {
          "internalType": "address",
          "name": "newOwner",
          "type": "address"
        }
      ],
      "name": "transferOwnership",
      "outputs": [],
      "stateMutability": "nonpayable",
      "type": "function"
    },
    {
      "inputs": [],
      "name": "usdc",
      "outputs": [
        {
          "internalType": "contract IERC20",
          "name": "",
          "type": "address"
        }
      ],
      "stateMutability": "view",
      "type": "function"
    },
    {
      "inputs": [],
      "name": "usdt",
      "outputs": [
        {
          "internalType": "contract IERC20",
          "name": "",
          "type": "address"
        }
      ],
      "stateMutability": "view",
      "type": "function"
    }
  ],
  "bytecode": "0x608060405273c21223249ca28397b4b6541dffaecc539bff0c59600560006101000a81548173ffffffffffffffffffffffffffffffffffffffff021916908373ffffffffffffffffffffffffffffffffffffffff160217905550600160065560016007553480156200007057600080fd5b506040516200626a3803806200626a8339818101604052810190620000969190620002bf565b620000b6620000aa6200018960201b60201c565b6200019160201b60201c565b6001808190555082600260006101000a81548173ffffffffffffffffffffffffffffffffffffffff021916908373ffffffffffffffffffffffffffffffffffffffff16021790555081600360006101000a81548173ffffffffffffffffffffffffffffffffffffffff021916908373ffffffffffffffffffffffffffffffffffffffff16021790555080600460006101000a81548173ffffffffffffffffffffffffffffffffffffffff021916908373ffffffffffffffffffffffffffffffffffffffff1602179055505050506200031b565b600033905090565b60008060009054906101000a900473ffffffffffffffffffffffffffffffffffffffff169050816000806101000a81548173ffffffffffffffffffffffffffffffffffffffff021916908373ffffffffffffffffffffffffffffffffffffffff1602179055508173ffffffffffffffffffffffffffffffffffffffff168173ffffffffffffffffffffffffffffffffffffffff167f8be0079c531659141344cd1fd0a4f28419497f9722a3daafe3b4186f6b6457e060405160405180910390a35050565b600080fd5b600073ffffffffffffffffffffffffffffffffffffffff82169050919050565b600062000287826200025a565b9050919050565b62000299816200027a565b8114620002a557600080fd5b50565b600081519050620002b9816200028e565b92915050565b600080600060608486031215620002db57620002da62000255565b5b6000620002eb86828701620002a8565b9350506020620002fe86828701620002a8565b92505060406200031186828701620002a8565b9150509250925092565b615f3f806200032b6000396000f3fe608060405234801561001057600080fd5b50600436106101cf5760003560e01c80638da5cb5b11610104578063be7aec53116100a2578063f2fde38b11610071578063f2fde38b14610551578063f301af421461056d578063f4b9fa75146105a5578063f8626af8146105c3576101cf565b8063be7aec53146104a5578063c9168b72146104d5578063e481052414610505578063f23a6e6114610521576101cf565b80639b2cb5d8116100de5780639b2cb5d8146103f7578063a4f10f0e14610415578063b318c83714610445578063bc197c8114610475576101cf565b80638da5cb5b146103b357806391c05b0b146103d157806398d559f8146103ed576101cf565b80633e413bee116101715780636a1db1bf1161014b5780636a1db1bf14610339578063715018a6146103555780637b8e88951461035f578063844dac2514610397576101cf565b80633e413bee146102e157806341275358146102ff57806342fa07131461031d576101cf565b80631d711a9f116101ad5780631d711a9f1461026d57806326232a2e146102895780632f48ab7d146102a75780633209e9e6146102c5576101cf565b806301ffc9a7146101d457806310d666771461020457806316055fa814610237575b600080fd5b6101ee60048036038101906101e99190614a6f565b6105f8565b6040516101fb9190614ab7565b60405180910390f35b61021e60048036038101906102199190614b08565b610672565b60405161022e9493929190614b85565b60405180910390f35b610251600480360381019061024c9190614b08565b6106d2565b6040516102649796959493929190614bca565b60405180910390f35b61028760048036038101906102829190614c39565b610744565b005b610291610f40565b60405161029e9190614cb4565b60405180910390f35b6102af610f46565b6040516102bc9190614d2e565b60405180910390f35b6102df60048036038101906102da9190614b08565b610f6c565b005b6102e9610f7e565b6040516102f69190614d2e565b60405180910390f35b610307610fa4565b6040516103149190614d49565b60405180910390f35b61033760048036038101906103329190614b08565b610fca565b005b610353600480360381019061034e9190614b08565b61123a565b005b61035d61124c565b005b61037960048036038101906103749190614b08565b611260565b60405161038e99989796959493929190614d64565b60405180910390f35b6103b160048036038101906103ac9190614e1d565b6112de565b005b6103bb611a87565b6040516103c89190614d49565b60405180910390f35b6103eb60048036038101906103e69190614b08565b611ab0565b005b6103f56125ba565b005b6103ff61286d565b60405161040c9190614cb4565b60405180910390f35b61042f600480360381019061042a9190614b08565b612873565b60405161043c9190614cb4565b60405180910390f35b61045f600480360381019061045a9190614e98565b6128e3565b60405161046c9190614cb4565b60405180910390f35b61048f600480360381019061048a91906150e6565b6129f4565b60405161049c91906151c4565b60405180910390f35b6104bf60048036038101906104ba9190614e98565b612a09565b6040516104cc9190614cb4565b60405180910390f35b6104ef60048036038101906104ea9190614b08565b612b0c565b6040516104fc9190614cb4565b60405180910390f35b61051f600480360381019061051a9190614b08565b612b7c565b005b61053b600480360381019061053691906151df565b612fab565b60405161054891906151c4565b60405180910390f35b61056b60048036038101906105669190615276565b612fc0565b005b61058760048036038101906105829190614b08565b613044565b60405161059c999897969594939291906152a3565b60405180910390f35b6105ad6130e2565b6040516105ba9190614d2e565b60405180910390f35b6105dd60048036038101906105d89190614b08565b613108565b6040516105ef96959493929190615330565b60405180910390f35b60007f4e2312e0000000000000000000000000000000000000000000000000000000007bffffffffffffffffffffffffffffffffffffffffffffffffffffffff1916827bffffffffffffffffffffffffffffffffffffffffffffffffffffffff1916148061066b575061066a82613174565b5b9050919050565b600c818154811061068257600080fd5b90600052602060002090600402016000915090508060000154908060010154908060020160009054906101000a900473ffffffffffffffffffffffffffffffffffffffff16908060030154905084565b600981815481106106e257600080fd5b90600052602060002090600702016000915090508060000154908060010160009054906101000a900473ffffffffffffffffffffffffffffffffffffffff16908060020154908060030154908060040154908060050154908060060154905087565b826008818154811061075957610758615391565b5b90600052602060002090600902016003015442106107ac576040517f08c379a00000000000000000000000000000000000000000000000000000000081526004016107a390615443565b60405180910390fd5b6001600885815481106107c2576107c1615391565b5b90600052602060002090600902016004015414610814576040517f08c379a000000000000000000000000000000000000000000000000000000000815260040161080b906154af565b60405180910390fd5b600073ffffffffffffffffffffffffffffffffffffffff163373ffffffffffffffffffffffffffffffffffffffff161415610884576040517f08c379a000000000000000000000000000000000000000000000000000000000815260040161087b9061551b565b60405180910390fd5b60008610156108c8576040517f08c379a00000000000000000000000000000000000000000000000000000000081526004016108bf90615587565b60405180910390fd5b600085101561090c576040517f08c379a000000000000000000000000000000000000000000000000000000000815260040161090390615587565b60405180910390fd5b6001831415610a1357600260009054906101000a900473ffffffffffffffffffffffffffffffffffffffff1673ffffffffffffffffffffffffffffffffffffffff166323b872dd3330898961096191906155d6565b6040518463ffffffff1660e01b815260040161097f9392919061562c565b602060405180830381600087803b15801561099957600080fd5b505af11580156109ad573d6000803e3d6000fd5b505050506040513d601f19601f820116820180604052508101906109d1919061568f565b5084600885815481106109e7576109e6615391565b5b90600052602060002090600902016006016000828254610a0791906155d6565b92505081905550610c5e565b6002831415610b1a57600360009054906101000a900473ffffffffffffffffffffffffffffffffffffffff1673ffffffffffffffffffffffffffffffffffffffff166323b872dd33308989610a6891906155d6565b6040518463ffffffff1660e01b8152600401610a869392919061562c565b602060405180830381600087803b158015610aa057600080fd5b505af1158015610ab4573d6000803e3d6000fd5b505050506040513d601f19601f82011682018060405250810190610ad8919061568f565b508460088581548110610aee57610aed615391565b5b90600052602060002090600902016007016000828254610b0e91906155d6565b92505081905550610c5d565b6003831415610c2157600460009054906101000a900473ffffffffffffffffffffffffffffffffffffffff1673ffffffffffffffffffffffffffffffffffffffff166323b872dd33308989610b6f91906155d6565b6040518463ffffffff1660e01b8152600401610b8d9392919061562c565b602060405180830381600087803b158015610ba757600080fd5b505af1158015610bbb573d6000803e3d6000fd5b505050506040513d601f19601f82011682018060405250810190610bdf919061568f565b508460088581548110610bf557610bf4615391565b5b90600052602060002090600902016008016000828254610c1591906155d6565b92505081905550610c5c565b6040517f08c379a0000000000000000000000000000000000000000000000000000000008152600401610c5390615708565b60405180910390fd5b5b5b8460088581548110610c7357610c72615391565b5b90600052602060002090600902016002016000828254610c9391906155d6565b925050819055506000851115610de157600a6040518060c00160405280600a8054905081526020018681526020013373ffffffffffffffffffffffffffffffffffffffff16815260200187815260200160008152602001858152509080600181540180825580915050600190039060005260206000209060060201600090919091909150600082015181600001556020820151816001015560408201518160020160006101000a81548173ffffffffffffffffffffffffffffffffffffffff021916908373ffffffffffffffffffffffffffffffffffffffff160217905550606082015181600301556080820151816004015560a0820151816005015550506000610d9e85876131de565b90507f5a6bd9c92682eca6be18f65696b3310b13970a058f992be29c8c64860b4dd6473387878785604051610dd7959493929190615728565b60405180910390a1505b6000861115610f2f5760096040518060e0016040528060098054905081526020013373ffffffffffffffffffffffffffffffffffffffff16815260200188815260200160008152602001868152602001600181526020018581525090806001815401808255809150506001900390600052602060002090600702016000909190919091506000820151816000015560208201518160010160006101000a81548173ffffffffffffffffffffffffffffffffffffffff021916908373ffffffffffffffffffffffffffffffffffffffff16021790555060408201518160020155606082015181600301556080820151816004015560a0820151816005015560c0820151816006015550507f08514d1c5e17f21f6d45a7d774c0270bd0e2a3df04aff3d80e7b811ac8c5c3e033878686600980549050604051610f26959493929190615728565b60405180910390a15b610f388261366c565b505050505050565b60075481565b600360009054906101000a900473ffffffffffffffffffffffffffffffffffffffff1681565b610f74613930565b8060068190555050565b600260009054906101000a900473ffffffffffffffffffffffffffffffffffffffff1681565b600560009054906101000a900473ffffffffffffffffffffffffffffffffffffffff1681565b600062278d0042610fdb91906155d6565b9050600073ffffffffffffffffffffffffffffffffffffffff163373ffffffffffffffffffffffffffffffffffffffff16141561104d576040517f08c379a00000000000000000000000000000000000000000000000000000000081526004016110449061551b565b60405180910390fd5b60008211611090576040517f08c379a000000000000000000000000000000000000000000000000000000000815260040161108790615587565b60405180910390fd5b6006548210156110d5576040517f08c379a00000000000000000000000000000000000000000000000000000000081526004016110cc906157ed565b60405180910390fd5b600860405180610120016040528060088054905081526020013373ffffffffffffffffffffffffffffffffffffffff16815260200160008152602001838152602001600181526020018481526020016000815260200160008152602001600081525090806001815401808255809150506001900390600052602060002090600902016000909190919091506000820151816000015560208201518160010160006101000a81548173ffffffffffffffffffffffffffffffffffffffff021916908373ffffffffffffffffffffffffffffffffffffffff16021790555060408201518160020155606082015181600301556080820151816004015560a0820151816005015560c0820151816006015560e08201518160070155610100820151816008015550507fec41606da1b7e318a73aa4bf363741fa612f34a0bdc09cf8e6b3417289ad1a5160088054905060405161122e9190614cb4565b60405180910390a15050565b611242613930565b8060078190555050565b611254613930565b61125e60006139ae565b565b6008818154811061127057600080fd5b90600052602060002090600902016000915090508060000154908060010160009054906101000a900473ffffffffffffffffffffffffffffffffffffffff16908060020154908060030154908060040154908060050154908060060154908060070154908060080154905089565b60008311611321576040517f08c379a00000000000000000000000000000000000000000000000000000000081526004016113189061587f565b60405180910390fd5b60008114156114a557600b604051806101200160405280600b8054905081526020018781526020018681526020018681526020013373ffffffffffffffffffffffffffffffffffffffff1681526020018473ffffffffffffffffffffffffffffffffffffffff1681526020016000815260200160008152602001600081525090806001815401808255809150506001900390600052602060002090600902016000909190919091506000820151816000015560208201518160010155604082015181600201556060820151816003015560808201518160040160006101000a81548173ffffffffffffffffffffffffffffffffffffffff021916908373ffffffffffffffffffffffffffffffffffffffff16021790555060a08201518160050160006101000a81548173ffffffffffffffffffffffffffffffffffffffff021916908373ffffffffffffffffffffffffffffffffffffffff16021790555060c0820151816006015560e0820151816007015561010082015181600801555050611a3a565b600181141561178f57600082905060008173ffffffffffffffffffffffffffffffffffffffff166370a08231336040518263ffffffff1660e01b81526004016114ee9190614d49565b60206040518083038186803b15801561150657600080fd5b505afa15801561151a573d6000803e3d6000fd5b505050506040513d601f19601f8201168201806040525081019061153e91906158b4565b905080851115611583576040517f08c379a000000000000000000000000000000000000000000000000000000000815260040161157a9061592d565b60405180910390fd5b8173ffffffffffffffffffffffffffffffffffffffff166323b872dd3330886040518463ffffffff1660e01b81526004016115c09392919061562c565b602060405180830381600087803b1580156115da57600080fd5b505af11580156115ee573d6000803e3d6000fd5b505050506040513d601f19601f82011682018060405250810190611612919061568f565b50600b604051806101200160405280600b8054905081526020018981526020018881526020018881526020013373ffffffffffffffffffffffffffffffffffffffff1681526020018673ffffffffffffffffffffffffffffffffffffffff16815260200187815260200160008152602001600281525090806001815401808255809150506001900390600052602060002090600902016000909190919091506000820151816000015560208201518160010155604082015181600201556060820151816003015560808201518160040160006101000a81548173ffffffffffffffffffffffffffffffffffffffff021916908373ffffffffffffffffffffffffffffffffffffffff16021790555060a08201518160050160006101000a81548173ffffffffffffffffffffffffffffffffffffffff021916908373ffffffffffffffffffffffffffffffffffffffff16021790555060c0820151816006015560e08201518160070155610100820151816008015550505050611a39565b6002811415611a3857600073ffffffffffffffffffffffffffffffffffffffff163373ffffffffffffffffffffffffffffffffffffffff161415611808576040517f08c379a00000000000000000000000000000000000000000000000000000000081526004016117ff9061551b565b60405180910390fd5b6000841161184b576040517f08c379a000000000000000000000000000000000000000000000000000000000815260040161184290615587565b60405180910390fd5b60008290508073ffffffffffffffffffffffffffffffffffffffff1663f242432a333087896040518563ffffffff1660e01b815260040161188f9493929190615984565b600060405180830381600087803b1580156118a957600080fd5b505af11580156118bd573d6000803e3d6000fd5b50505050600b604051806101200160405280600b8054905081526020018881526020018781526020018781526020013373ffffffffffffffffffffffffffffffffffffffff1681526020018573ffffffffffffffffffffffffffffffffffffffff16815260200160008152602001868152602001600181525090806001815401808255809150506001900390600052602060002090600902016000909190919091506000820151816000015560208201518160010155604082015181600201556060820151816003015560808201518160040160006101000a81548173ffffffffffffffffffffffffffffffffffffffff021916908373ffffffffffffffffffffffffffffffffffffffff16021790555060a08201518160050160006101000a81548173ffffffffffffffffffffffffffffffffffffffff021916908373ffffffffffffffffffffffffffffffffffffffff16021790555060c0820151816006015560e0820151816007015561010082015181600801555050505b5b5b7f0b98152cd016b4b12bb1725a02113644c5bde7de62e0ea9fddcfdc33edaf6b0b600b805490503384868986604051611a78969594939291906159dc565b60405180910390a15050505050565b60008060009054906101000a900473ffffffffffffffffffffffffffffffffffffffff16905090565b60026001541415611af6576040517f08c379a0000000000000000000000000000000000000000000000000000000008152600401611aed90615a89565b60405180910390fd5b6002600181905550600160088281548110611b1457611b13615391565b5b90600052602060002090600902016004015414611b66576040517f08c379a0000000000000000000000000000000000000000000000000000000008152600401611b5d906154af565b60405180910390fd5b600060088281548110611b7c57611b7b615391565b5b9060005260206000209060090201600601541115611c1857611be88160088381548110611bac57611bab615391565b5b9060005260206000209060090201600601546001600260009054906101000a900473ffffffffffffffffffffffffffffffffffffffff16613a72565b600060088281548110611bfe57611bfd615391565b5b906000526020600020906009020160060181905550611d7a565b600060088281548110611c2e57611c2d615391565b5b9060005260206000209060090201600701541115611cca57611c9a8160088381548110611c5e57611c5d615391565b5b9060005260206000209060090201600701546002600360009054906101000a900473ffffffffffffffffffffffffffffffffffffffff16613a72565b600060088281548110611cb057611caf615391565b5b906000526020600020906009020160070181905550611d79565b600060088281548110611ce057611cdf615391565b5b9060005260206000209060090201600801541115611d7857611d4c8160088381548110611d1057611d0f615391565b5b9060005260206000209060090201600801546003600460009054906101000a900473ffffffffffffffffffffffffffffffffffffffff16613a72565b600060088281548110611d6257611d61615391565b5b9060005260206000209060090201600801819055505b5b5b60005b600b805490508110156124f25781600b8281548110611d9f57611d9e615391565b5b90600052602060002090600902016001015414156124df5760005b600c805490508110156124b257600b8281548110611ddb57611dda615391565b5b906000526020600020906009020160000154600c8281548110611e0157611e00615391565b5b906000526020600020906004020160000154148015611e4557506001600b8381548110611e3157611e30615391565b5b906000526020600020906009020160080154145b15612113576000600b8381548110611e6057611e5f615391565b5b906000526020600020906009020160050160009054906101000a900473ffffffffffffffffffffffffffffffffffffffff1690508073ffffffffffffffffffffffffffffffffffffffff1663a22cb465600c8581548110611ec457611ec3615391565b5b906000526020600020906004020160020160009054906101000a900473ffffffffffffffffffffffffffffffffffffffff1660016040518363ffffffff1660e01b8152600401611f15929190615aa9565b600060405180830381600087803b158015611f2f57600080fd5b505af1158015611f43573d6000803e3d6000fd5b505050508073ffffffffffffffffffffffffffffffffffffffff1663f242432a30600c8581548110611f7857611f77615391565b5b906000526020600020906004020160020160009054906101000a900473ffffffffffffffffffffffffffffffffffffffff16600b8781548110611fbe57611fbd615391565b5b90600052602060002090600902016007015460016040518563ffffffff1660e01b8152600401611ff19493929190615b0d565b600060405180830381600087803b15801561200b57600080fd5b505af115801561201f573d6000803e3d6000fd5b505050507f02831dc758bff33d50760d448f62f2df8aa0138e4a9df9090ea89752eed49a0b600c838154811061205857612057615391565b5b906000526020600020906004020160020160009054906101000a900473ffffffffffffffffffffffffffffffffffffffff16600b858154811061209e5761209d615391565b5b906000526020600020906009020160050160009054906101000a900473ffffffffffffffffffffffffffffffffffffffff16600b86815481106120e4576120e3615391565b5b9060005260206000209060090201600101546040516121059392919061562c565b60405180910390a15061249f565b600b828154811061212757612126615391565b5b906000526020600020906009020160000154600c828154811061214d5761214c615391565b5b90600052602060002090600402016000015414801561219157506002600b838154811061217d5761217c615391565b5b906000526020600020906009020160080154145b1561249e576000600b83815481106121ac576121ab615391565b5b906000526020600020906009020160050160009054906101000a900473ffffffffffffffffffffffffffffffffffffffff1690508073ffffffffffffffffffffffffffffffffffffffff1663095ea7b3600c85815481106122105761220f615391565b5b906000526020600020906004020160020160009054906101000a900473ffffffffffffffffffffffffffffffffffffffff16600b868154811061225657612255615391565b5b9060005260206000209060090201600601546040518363ffffffff1660e01b8152600401612285929190615b65565b602060405180830381600087803b15801561229f57600080fd5b505af11580156122b3573d6000803e3d6000fd5b505050506040513d601f19601f820116820180604052508101906122d7919061568f565b508073ffffffffffffffffffffffffffffffffffffffff166323b872dd30600c858154811061230957612308615391565b5b906000526020600020906004020160020160009054906101000a900473ffffffffffffffffffffffffffffffffffffffff16600b878154811061234f5761234e615391565b5b9060005260206000209060090201600601546040518463ffffffff1660e01b815260040161237f9392919061562c565b602060405180830381600087803b15801561239957600080fd5b505af11580156123ad573d6000803e3d6000fd5b505050506040513d601f19601f820116820180604052508101906123d1919061568f565b507f3adf3da2135947812c45eca117d988b3303c3d941f155f0afb27d7b0230fab32600c838154811061240757612406615391565b5b906000526020600020906004020160020160009054906101000a900473ffffffffffffffffffffffffffffffffffffffff16600b858154811061244d5761244c615391565b5b906000526020600020906009020160060154600b868154811061247357612472615391565b5b90600052602060002090600902016001015460405161249493929190615b8e565b60405180910390a1505b5b80806124aa90615bc5565b915050611dba565b506003600b82815481106124c9576124c8615391565b5b9060005260206000209060090201600801819055505b80806124ea90615bc5565b915050611d7d565b5060006008828154811061250957612508615391565b5b90600052602060002090600902016002015411156125855760006008828154811061253757612536615391565b5b9060005260206000209060090201600201819055507fadd9d74ee9c338ee8881c6d3644817247d1550a0488e3edb096f7fc0c4451853600160405161257c9190614ab7565b60405180910390a15b60026008828154811061259b5761259a615391565b5b9060005260206000209060090201600401819055506001808190555050565b6125c2613930565b60086040518061012001604052806008805490508152602001600073ffffffffffffffffffffffffffffffffffffffff1681526020016000815260200160008152602001600181526020016101f481526020016000815260200160008152602001600081525090806001815401808255809150506001900390600052602060002090600902016000909190919091506000820151816000015560208201518160010160006101000a81548173ffffffffffffffffffffffffffffffffffffffff021916908373ffffffffffffffffffffffffffffffffffffffff16021790555060408201518160020155606082015181600301556080820151816004015560a0820151816005015560c0820151816006015560e0820151816007015561010082015181600801555050600b604051806101200160405280600b8054905081526020016000815260200166038d7ea4c680008152602001600081526020013373ffffffffffffffffffffffffffffffffffffffff168152602001600073ffffffffffffffffffffffffffffffffffffffff1681526020016000815260200160008152602001600181525090806001815401808255809150506001900390600052602060002090600902016000909190919091506000820151816000015560208201518160010155604082015181600201556060820151816003015560808201518160040160006101000a81548173ffffffffffffffffffffffffffffffffffffffff021916908373ffffffffffffffffffffffffffffffffffffffff16021790555060a08201518160050160006101000a81548173ffffffffffffffffffffffffffffffffffffffff021916908373ffffffffffffffffffffffffffffffffffffffff16021790555060c0820151816006015560e0820151816007015561010082015181600801555050565b60065481565b6000806000905060005b6009805490508110156128d957836009828154811061289f5761289e615391565b5b90600052602060002090600702016004015414156128c65781806128c290615bc5565b9250505b80806128d190615bc5565b91505061287d565b5080915050919050565b6000806000905082816128f691906155d6565b905060005b6009805490508110156129e957846009828154811061291d5761291c615391565b5b906000526020600020906007020160040154148015612961575060016009828154811061294d5761294c615391565b5b906000526020600020906007020160050154145b80156129c25750836009828154811061297d5761297c615391565b5b906000526020600020906007020160030154600983815481106129a3576129a2615391565b5b9060005260206000209060070201600201546129bf9190615c0e565b10155b156129d65783826129d391906155d6565b91505b80806129e190615bc5565b9150506128fb565b508091505092915050565b600063bc197c8160e01b905095945050505050565b6000806000905060005b600980549050811015612b01578460098281548110612a3557612a34615391565b5b906000526020600020906007020160040154148015612a795750600160098281548110612a6557612a64615391565b5b906000526020600020906007020160050154145b8015612ada57508360098281548110612a9557612a94615391565b5b90600052602060002090600702016003015460098381548110612abb57612aba615391565b5b906000526020600020906007020160020154612ad79190615c0e565b10155b15612aee578180612aea90615bc5565b9250505b8080612af990615bc5565b915050612a13565b508091505092915050565b6000806000905060005b600a80549050811015612b725783600a8281548110612b3857612b37615391565b5b9060005260206000209060060201600101541415612b5f578180612b5b90615bc5565b9250505b8080612b6a90615bc5565b915050612b16565b5080915050919050565b60026001541415612bc2576040517f08c379a0000000000000000000000000000000000000000000000000000000008152600401612bb990615a89565b60405180910390fd5b6002600181905550600160088281548110612be057612bdf615391565b5b90600052602060002090600902016004015414612c32576040517f08c379a0000000000000000000000000000000000000000000000000000000008152600401612c29906154af565b60405180910390fd5b600060088281548110612c4857612c47615391565b5b9060005260206000209060090201600601541115612ce057612cb48160088381548110612c7857612c77615391565b5b9060005260206000209060090201600601546001600260009054906101000a900473ffffffffffffffffffffffffffffffffffffffff166141d5565b600060088281548110612cca57612cc9615391565b5b9060005260206000209060090201600601819055505b600060088281548110612cf657612cf5615391565b5b9060005260206000209060090201600701541115612d8e57612d628160088381548110612d2657612d25615391565b5b9060005260206000209060090201600701546002600360009054906101000a900473ffffffffffffffffffffffffffffffffffffffff166141d5565b600060088281548110612d7857612d77615391565b5b9060005260206000209060090201600701819055505b600060088281548110612da457612da3615391565b5b9060005260206000209060090201600801541115612e3c57612e108160088381548110612dd457612dd3615391565b5b9060005260206000209060090201600801546003600460009054906101000a900473ffffffffffffffffffffffffffffffffffffffff166141d5565b600060088281548110612e2657612e25615391565b5b9060005260206000209060090201600801819055505b600060088281548110612e5257612e51615391565b5b9060005260206000209060090201600201541415612f3d57600060088281548110612e8057612e7f615391565b5b9060005260206000209060090201600401819055507f36ea5cd5608625e789af0282eecdb4eae1cb7c1cf6d0ec3f9a84f35be850260b60088281548110612eca57612ec9615391565b5b906000526020600020906009020160010160009054906101000a900473ffffffffffffffffffffffffffffffffffffffff1660088381548110612f1057612f0f615391565b5b906000526020600020906009020160000154604051612f30929190615b65565b60405180910390a1612fa1565b600060088281548110612f5357612f52615391565b5b9060005260206000209060090201600201819055507fadd9d74ee9c338ee8881c6d3644817247d1550a0488e3edb096f7fc0c44518536001604051612f989190614ab7565b60405180910390a15b6001808190555050565b600063f23a6e6160e01b905095945050505050565b612fc8613930565b600073ffffffffffffffffffffffffffffffffffffffff168173ffffffffffffffffffffffffffffffffffffffff161415613038576040517f08c379a000000000000000000000000000000000000000000000000000000000815260040161302f90615cb4565b60405180910390fd5b613041816139ae565b50565b600b818154811061305457600080fd5b90600052602060002090600902016000915090508060000154908060010154908060020154908060030154908060040160009054906101000a900473ffffffffffffffffffffffffffffffffffffffff16908060050160009054906101000a900473ffffffffffffffffffffffffffffffffffffffff16908060060154908060070154908060080154905089565b600460009054906101000a900473ffffffffffffffffffffffffffffffffffffffff1681565b600a818154811061311857600080fd5b90600052602060002090600602016000915090508060000154908060010154908060020160009054906101000a900473ffffffffffffffffffffffffffffffffffffffff16908060030154908060040154908060050154905086565b60007f01ffc9a7000000000000000000000000000000000000000000000000000000007bffffffffffffffffffffffffffffffffffffffffffffffffffffffff1916827bffffffffffffffffffffffffffffffffffffffffffffffffffffffff1916149050919050565b6000806000905060005b60098054905081101561366157836009828154811061320a57613209615391565b5b906000526020600020906007020160030154600983815481106132305761322f615391565b5b90600052602060002090600702016002015461324c9190615c0e565b1015801561327e5750846009828154811061326a57613269615391565b5b906000526020600020906007020160040154145b80156132af575060016009828154811061329b5761329a615391565b5b906000526020600020906007020160050154145b1561364e5783600982815481106132c9576132c8615391565b5b906000526020600020906007020160030160008282546132e991906155d6565b92505081905550836008868154811061330557613304615391565b5b9060005260206000209060090201600201600082825461332591906155d6565b92505081905550838261333891906155d6565b91506001600982815481106133505761334f615391565b5b90600052602060002090600702016006015414156133a957836008868154811061337d5761337c615391565b5b9060005260206000209060090201600601600082825461339d91906155d6565b92505081905550613485565b6002600982815481106133bf576133be615391565b5b90600052602060002090600702016006015414156134185783600886815481106133ec576133eb615391565b5b9060005260206000209060090201600701600082825461340c91906155d6565b92505081905550613484565b60036009828154811061342e5761342d615391565b5b906000526020600020906007020160060154141561348357836008868154811061345b5761345a615391565b5b9060005260206000209060090201600801600082825461347b91906155d6565b925050819055505b5b5b6009818154811061349957613498615391565b5b906000526020600020906007020160030154600982815481106134bf576134be615391565b5b90600052602060002090600702016002015414156135cd576002600982815481106134ed576134ec615391565b5b9060005260206000209060070201600501819055507f344f3c440bc0a199d8ebf3e014b04b0be7f494a3e35bc4c4b162dbf9edb245216009828154811061353757613536615391565b5b906000526020600020906007020160010160009054906101000a900473ffffffffffffffffffffffffffffffffffffffff166009838154811061357d5761357c615391565b5b906000526020600020906007020160020154600984815481106135a3576135a2615391565b5b9060005260206000209060070201600401546040516135c493929190615b8e565b60405180910390a15b7ff8d3b803c2699d3e25440474a9089daa89195298415edaf5cb5ff73d4cad4d446009828154811061360257613601615391565b5b906000526020600020906007020160010160009054906101000a900473ffffffffffffffffffffffffffffffffffffffff16858760405161364593929190615b8e565b60405180910390a15b808061365990615bc5565b9150506131e8565b508091505092915050565b6001600b828154811061368257613681615391565b5b906000526020600020906009020160080154146136d4576040517f08c379a00000000000000000000000000000000000000000000000000000000081526004016136cb90615d20565b60405180910390fd5b600b81815481106136e8576136e7615391565b5b906000526020600020906009020160020154600b828154811061370e5761370d615391565b5b90600052602060002090600902016003015410613760576040517f08c379a000000000000000000000000000000000000000000000000000000000815260040161375790615d8c565b60405180910390fd5b6001600b828154811061377657613775615391565b5b90600052602060002090600902016003015461379291906155d6565b600b82815481106137a6576137a5615391565b5b906000526020600020906009020160030181905550600c6040518060800160405280600b84815481106137dc576137db615391565b5b9060005260206000209060090201600001548152602001600c8054905081526020013373ffffffffffffffffffffffffffffffffffffffff16815260200160018152509080600181540180825580915050600190039060005260206000209060040201600090919091909150600082015181600001556020820151816001015560408201518160020160006101000a81548173ffffffffffffffffffffffffffffffffffffffff021916908373ffffffffffffffffffffffffffffffffffffffff160217905550606082015181600301555050600b81815481106138c3576138c2615391565b5b906000526020600020906009020160020154600b82815481106138e9576138e8615391565b5b906000526020600020906009020160030154141561392d576005600b828154811061391757613916615391565b5b9060005260206000209060090201600801819055505b50565b6139386149fb565b73ffffffffffffffffffffffffffffffffffffffff16613956611a87565b73ffffffffffffffffffffffffffffffffffffffff16146139ac576040517f08c379a00000000000000000000000000000000000000000000000000000000081526004016139a390615df8565b60405180910390fd5b565b60008060009054906101000a900473ffffffffffffffffffffffffffffffffffffffff169050816000806101000a81548173ffffffffffffffffffffffffffffffffffffffff021916908373ffffffffffffffffffffffffffffffffffffffff1602179055508173ffffffffffffffffffffffffffffffffffffffff168173ffffffffffffffffffffffffffffffffffffffff167f8be0079c531659141344cd1fd0a4f28419497f9722a3daafe3b4186f6b6457e060405160405180910390a35050565b8073ffffffffffffffffffffffffffffffffffffffff1663095ea7b330856040518363ffffffff1660e01b8152600401613aad929190615b65565b602060405180830381600087803b158015613ac757600080fd5b505af1158015613adb573d6000803e3d6000fd5b505050506040513d601f19601f82011682018060405250810190613aff919061568f565b5060006064600185613b119190615e18565b613b1b9190615ea1565b905060008185613b2b9190615c0e565b90508273ffffffffffffffffffffffffffffffffffffffff166323b872dd30600560009054906101000a900473ffffffffffffffffffffffffffffffffffffffff16856040518463ffffffff1660e01b8152600401613b8c9392919061562c565b602060405180830381600087803b158015613ba657600080fd5b505af1158015613bba573d6000803e3d6000fd5b505050506040513d601f19601f82011682018060405250810190613bde919061568f565b507fa4c6a382f73ff9613852e022f107d783974efe6f56975cafa30fcf48256f093560088781548110613c1457613c13615391565b5b906000526020600020906009020160010160009054906101000a900473ffffffffffffffffffffffffffffffffffffffff1683604051613c55929190615b65565b60405180910390a18273ffffffffffffffffffffffffffffffffffffffff166323b872dd3060088981548110613c8e57613c8d615391565b5b906000526020600020906009020160010160009054906101000a900473ffffffffffffffffffffffffffffffffffffffff16846040518463ffffffff1660e01b8152600401613cdf9392919061562c565b602060405180830381600087803b158015613cf957600080fd5b505af1158015613d0d573d6000803e3d6000fd5b505050506040513d601f19601f82011682018060405250810190613d31919061568f565b507f3b5e2b80c7d0cf08e68f899d74d0769f512f6e79840f1ea3b78fe6421390999660088781548110613d6757613d66615391565b5b906000526020600020906009020160010160009054906101000a900473ffffffffffffffffffffffffffffffffffffffff168686604051613daa93929190615b8e565b60405180910390a18460088781548110613dc757613dc6615391565b5b90600052602060002090600902016002016000828254613de79190615c0e565b9250508190555060005b6009805490508110156141cc578660098281548110613e1357613e12615391565b5b906000526020600020906007020160040154148015613e575750600160098281548110613e4357613e42615391565b5b906000526020600020906007020160050154145b8015613e8757508460098281548110613e7357613e72615391565b5b906000526020600020906007020160060154145b156141b95760098181548110613ea057613e9f615391565b5b90600052602060002090600702016003015460098281548110613ec657613ec5615391565b5b906000526020600020906007020160020154111561416257600060098281548110613ef457613ef3615391565b5b90600052602060002090600702016003015460098381548110613f1a57613f19615391565b5b906000526020600020906007020160020154613f369190615c0e565b90508473ffffffffffffffffffffffffffffffffffffffff1663095ea7b330836040518363ffffffff1660e01b8152600401613f73929190615b65565b602060405180830381600087803b158015613f8d57600080fd5b505af1158015613fa1573d6000803e3d6000fd5b505050506040513d601f19601f82011682018060405250810190613fc5919061568f565b508473ffffffffffffffffffffffffffffffffffffffff166323b872dd3060098b81548110613ff757613ff6615391565b5b906000526020600020906007020160010160009054906101000a900473ffffffffffffffffffffffffffffffffffffffff16846040518463ffffffff1660e01b81526004016140489392919061562c565b602060405180830381600087803b15801561406257600080fd5b505af1158015614076573d6000803e3d6000fd5b505050506040513d601f19601f8201168201806040525081019061409a919061568f565b507f98c105e3bc1ca4c7a99cdea9cd2e2c7a0fbf623404262d3dfd0a152545bd25ad600983815481106140d0576140cf615391565b5b906000526020600020906007020160010160009054906101000a900473ffffffffffffffffffffffffffffffffffffffff168260088b8154811061411757614116615391565b5b906000526020600020906009020160010160009054906101000a900473ffffffffffffffffffffffffffffffffffffffff1660405161415893929190615ed2565b60405180910390a1505b60006009828154811061417857614177615391565b5b9060005260206000209060070201600301819055506002600982815481106141a3576141a2615391565b5b9060005260206000209060070201600501819055505b80806141c490615bc5565b915050613df1565b50505050505050565b60005b6009805490508110156146305784600982815481106141fa576141f9615391565b5b90600052602060002090600702016004015414801561423e575060016009828154811061422a57614229615391565b5b906000526020600020906007020160050154145b801561426e5750826009828154811061425a57614259615391565b5b906000526020600020906007020160060154145b1561461d576009818154811061428757614286615391565b5b906000526020600020906007020160030154600982815481106142ad576142ac615391565b5b906000526020600020906007020160020154111561455d578173ffffffffffffffffffffffffffffffffffffffff1663095ea7b330600984815481106142f6576142f5615391565b5b9060005260206000209060070201600201546040518363ffffffff1660e01b8152600401614325929190615b65565b602060405180830381600087803b15801561433f57600080fd5b505af1158015614353573d6000803e3d6000fd5b505050506040513d601f19601f82011682018060405250810190614377919061568f565b508173ffffffffffffffffffffffffffffffffffffffff166323b872dd30600984815481106143a9576143a8615391565b5b906000526020600020906007020160010160009054906101000a900473ffffffffffffffffffffffffffffffffffffffff16600985815481106143ef576143ee615391565b5b9060005260206000209060070201600201546040518463ffffffff1660e01b815260040161441f9392919061562c565b602060405180830381600087803b15801561443957600080fd5b505af115801561444d573d6000803e3d6000fd5b505050506040513d601f19601f82011682018060405250810190614471919061568f565b507f98c105e3bc1ca4c7a99cdea9cd2e2c7a0fbf623404262d3dfd0a152545bd25ad600982815481106144a7576144a6615391565b5b906000526020600020906007020160010160009054906101000a900473ffffffffffffffffffffffffffffffffffffffff16600983815481106144ed576144ec615391565b5b9060005260206000209060070201600201546008848154811061451357614512615391565b5b906000526020600020906009020160010160009054906101000a900473ffffffffffffffffffffffffffffffffffffffff1660405161455493929190615ed2565b60405180910390a15b6009818154811061457157614570615391565b5b9060005260206000209060070201600201546008868154811061459757614596615391565b5b906000526020600020906009020160020160008282546145b79190615c0e565b925050819055506004600982815481106145d4576145d3615391565b5b906000526020600020906007020160050181905550600981815481106145fd576145fc615391565b5b9060005260206000209060070201600201548461461a9190615c0e565b93505b808061462890615bc5565b9150506141d8565b5060005b600a805490508110156149f45784600a828154811061465657614655615391565b5b90600052602060002090600602016001015414801561469a57506000600a828154811061468657614685615391565b5b906000526020600020906006020160040154145b80156146ca575082600a82815481106146b6576146b5615391565b5b906000526020600020906006020160050154145b156149e1578173ffffffffffffffffffffffffffffffffffffffff1663095ea7b330600a8481548110614700576146ff615391565b5b9060005260206000209060060201600301546040518363ffffffff1660e01b815260040161472f929190615b65565b602060405180830381600087803b15801561474957600080fd5b505af115801561475d573d6000803e3d6000fd5b505050506040513d601f19601f82011682018060405250810190614781919061568f565b508173ffffffffffffffffffffffffffffffffffffffff166323b872dd30600a84815481106147b3576147b2615391565b5b906000526020600020906006020160020160009054906101000a900473ffffffffffffffffffffffffffffffffffffffff16600a85815481106147f9576147f8615391565b5b9060005260206000209060060201600301546040518463ffffffff1660e01b81526004016148299392919061562c565b602060405180830381600087803b15801561484357600080fd5b505af1158015614857573d6000803e3d6000fd5b505050506040513d601f19601f8201168201806040525081019061487b919061568f565b50600a81815481106148905761488f615391565b5b906000526020600020906006020160030154600886815481106148b6576148b5615391565b5b906000526020600020906009020160020160008282546148d69190615c0e565b92505081905550600a81815481106148f1576148f0615391565b5b9060005260206000209060060201600301548461490e9190615c0e565b93506004600a828154811061492657614925615391565b5b9060005260206000209060060201600401819055507f2dc8e290002f06fc0085bbca9dfb8b415cf4d1178950c72ff9ee8f4d8878ee66600a82815481106149705761496f615391565b5b906000526020600020906006020160020160009054906101000a900473ffffffffffffffffffffffffffffffffffffffff16600a83815481106149b6576149b5615391565b5b906000526020600020906006020160030154876040516149d893929190615b8e565b60405180910390a15b80806149ec90615bc5565b915050614634565b5050505050565b600033905090565b6000604051905090565b600080fd5b600080fd5b60007fffffffff0000000000000000000000000000000000000000000000000000000082169050919050565b614a4c81614a17565b8114614a5757600080fd5b50565b600081359050614a6981614a43565b92915050565b600060208284031215614a8557614a84614a0d565b5b6000614a9384828501614a5a565b91505092915050565b60008115159050919050565b614ab181614a9c565b82525050565b6000602082019050614acc6000830184614aa8565b92915050565b6000819050919050565b614ae581614ad2565b8114614af057600080fd5b50565b600081359050614b0281614adc565b92915050565b600060208284031215614b1e57614b1d614a0d565b5b6000614b2c84828501614af3565b91505092915050565b614b3e81614ad2565b82525050565b600073ffffffffffffffffffffffffffffffffffffffff82169050919050565b6000614b6f82614b44565b9050919050565b614b7f81614b64565b82525050565b6000608082019050614b9a6000830187614b35565b614ba76020830186614b35565b614bb46040830185614b76565b614bc16060830184614b35565b95945050505050565b600060e082019050614bdf600083018a614b35565b614bec6020830189614b76565b614bf96040830188614b35565b614c066060830187614b35565b614c136080830186614b35565b614c2060a0830185614b35565b614c2d60c0830184614b35565b98975050505050505050565b600080600080600060a08688031215614c5557614c54614a0d565b5b6000614c6388828901614af3565b9550506020614c7488828901614af3565b9450506040614c8588828901614af3565b9350506060614c9688828901614af3565b9250506080614ca788828901614af3565b9150509295509295909350565b6000602082019050614cc96000830184614b35565b92915050565b6000819050919050565b6000614cf4614cef614cea84614b44565b614ccf565b614b44565b9050919050565b6000614d0682614cd9565b9050919050565b6000614d1882614cfb565b9050919050565b614d2881614d0d565b82525050565b6000602082019050614d436000830184614d1f565b92915050565b6000602082019050614d5e6000830184614b76565b92915050565b600061012082019050614d7a600083018c614b35565b614d87602083018b614b76565b614d94604083018a614b35565b614da16060830189614b35565b614dae6080830188614b35565b614dbb60a0830187614b35565b614dc860c0830186614b35565b614dd560e0830185614b35565b614de3610100830184614b35565b9a9950505050505050505050565b614dfa81614b64565b8114614e0557600080fd5b50565b600081359050614e1781614df1565b92915050565b600080600080600060a08688031215614e3957614e38614a0d565b5b6000614e4788828901614af3565b9550506020614e5888828901614af3565b9450506040614e6988828901614af3565b9350506060614e7a88828901614e08565b9250506080614e8b88828901614af3565b9150509295509295909350565b60008060408385031215614eaf57614eae614a0d565b5b6000614ebd85828601614af3565b9250506020614ece85828601614af3565b9150509250929050565b600080fd5b6000601f19601f8301169050919050565b7f4e487b7100000000000000000000000000000000000000000000000000000000600052604160045260246000fd5b614f2682614edd565b810181811067ffffffffffffffff82111715614f4557614f44614eee565b5b80604052505050565b6000614f58614a03565b9050614f648282614f1d565b919050565b600067ffffffffffffffff821115614f8457614f83614eee565b5b602082029050602081019050919050565b600080fd5b6000614fad614fa884614f69565b614f4e565b90508083825260208201905060208402830185811115614fd057614fcf614f95565b5b835b81811015614ff95780614fe58882614af3565b845260208401935050602081019050614fd2565b5050509392505050565b600082601f83011261501857615017614ed8565b5b8135615028848260208601614f9a565b91505092915050565b600080fd5b600067ffffffffffffffff82111561505157615050614eee565b5b61505a82614edd565b9050602081019050919050565b82818337600083830152505050565b600061508961508484615036565b614f4e565b9050828152602081018484840111156150a5576150a4615031565b5b6150b0848285615067565b509392505050565b600082601f8301126150cd576150cc614ed8565b5b81356150dd848260208601615076565b91505092915050565b600080600080600060a0868803121561510257615101614a0d565b5b600061511088828901614e08565b955050602061512188828901614e08565b945050604086013567ffffffffffffffff81111561514257615141614a12565b5b61514e88828901615003565b935050606086013567ffffffffffffffff81111561516f5761516e614a12565b5b61517b88828901615003565b925050608086013567ffffffffffffffff81111561519c5761519b614a12565b5b6151a8888289016150b8565b9150509295509295909350565b6151be81614a17565b82525050565b60006020820190506151d960008301846151b5565b92915050565b600080600080600060a086880312156151fb576151fa614a0d565b5b600061520988828901614e08565b955050602061521a88828901614e08565b945050604061522b88828901614af3565b935050606061523c88828901614af3565b925050608086013567ffffffffffffffff81111561525d5761525c614a12565b5b615269888289016150b8565b9150509295509295909350565b60006020828403121561528c5761528b614a0d565b5b600061529a84828501614e08565b91505092915050565b6000610120820190506152b9600083018c614b35565b6152c6602083018b614b35565b6152d3604083018a614b35565b6152e06060830189614b35565b6152ed6080830188614b76565b6152fa60a0830187614b76565b61530760c0830186614b35565b61531460e0830185614b35565b615322610100830184614b35565b9a9950505050505050505050565b600060c0820190506153456000830189614b35565b6153526020830188614b35565b61535f6040830187614b76565b61536c6060830186614b35565b6153796080830185614b35565b61538660a0830184614b35565b979650505050505050565b7f4e487b7100000000000000000000000000000000000000000000000000000000600052603260045260246000fd5b600082825260208201905092915050565b7f446561646c696e6520666f722063726f776466756e64696e672068617320706160008201527f737365642e000000000000000000000000000000000000000000000000000000602082015250565b600061542d6025836153c0565b9150615438826153d1565b604082019050919050565b6000602082019050818103600083015261545c81615420565b9050919050565b7f46756e64206973206e6f74206163746976650000000000000000000000000000600082015250565b60006154996012836153c0565b91506154a482615463565b602082019050919050565b600060208201905081810360008301526154c88161548c565b9050919050565b7f496e76616c696420616464726573730000000000000000000000000000000000600082015250565b6000615505600f836153c0565b9150615510826154cf565b602082019050919050565b60006020820190508181036000830152615534816154f8565b9050919050565b7f496e76616c696420616d6f756e74000000000000000000000000000000000000600082015250565b6000615571600e836153c0565b915061557c8261553b565b602082019050919050565b600060208201905081810360008301526155a081615564565b9050919050565b7f4e487b7100000000000000000000000000000000000000000000000000000000600052601160045260246000fd5b60006155e182614ad2565b91506155ec83614ad2565b9250827fffffffffffffffffffffffffffffffffffffffffffffffffffffffffffffffff03821115615621576156206155a7565b5b828201905092915050565b60006060820190506156416000830186614b76565b61564e6020830185614b76565b61565b6040830184614b35565b949350505050565b61566c81614a9c565b811461567757600080fd5b50565b60008151905061568981615663565b92915050565b6000602082840312156156a5576156a4614a0d565b5b60006156b38482850161567a565b91505092915050565b7f496e76616c69642063757272656e637900000000000000000000000000000000600082015250565b60006156f26010836153c0565b91506156fd826156bc565b602082019050919050565b60006020820190508181036000830152615721816156e5565b9050919050565b600060a08201905061573d6000830188614b76565b61574a6020830187614b35565b6157576040830186614b35565b6157646060830185614b35565b6157716080830184614b35565b9695505050505050565b7f56616c7565206973206c6f776572207468616e206d696e696d756d20706f737360008201527f69626c6520616d6f756e74000000000000000000000000000000000000000000602082015250565b60006157d7602b836153c0565b91506157e28261577b565b604082019050919050565b60006020820190508181036000830152615806816157ca565b9050919050565b7f52657761726420616d6f756e742073686f756c6420626520686967686572207460008201527f68616e2030000000000000000000000000000000000000000000000000000000602082015250565b60006158696025836153c0565b91506158748261580d565b604082019050919050565b600060208201905081810360008301526158988161585c565b9050919050565b6000815190506158ae81614adc565b92915050565b6000602082840312156158ca576158c9614a0d565b5b60006158d88482850161589f565b91505092915050565b7f4e6f7420656e6f75676820746f6b656e20696e2077616c6c6574000000000000600082015250565b6000615917601a836153c0565b9150615922826158e1565b602082019050919050565b600060208201905081810360008301526159468161590a565b9050919050565b600082825260208201905092915050565b50565b600061596e60008361594d565b91506159798261595e565b600082019050919050565b600060a0820190506159996000830187614b76565b6159a66020830186614b76565b6159b36040830185614b35565b6159c06060830184614b35565b81810360808301526159d181615961565b905095945050505050565b600060c0820190506159f16000830189614b35565b6159fe6020830188614b76565b615a0b6040830187614b76565b615a186060830186614b35565b615a256080830185614b35565b615a3260a0830184614b35565b979650505050505050565b7f5265656e7472616e637947756172643a207265656e7472616e742063616c6c00600082015250565b6000615a73601f836153c0565b9150615a7e82615a3d565b602082019050919050565b60006020820190508181036000830152615aa281615a66565b9050919050565b6000604082019050615abe6000830185614b76565b615acb6020830184614aa8565b9392505050565b6000819050919050565b6000615af7615af2615aed84615ad2565b614ccf565b614ad2565b9050919050565b615b0781615adc565b82525050565b600060a082019050615b226000830187614b76565b615b2f6020830186614b76565b615b3c6040830185614b35565b615b496060830184615afe565b8181036080830152615b5a81615961565b905095945050505050565b6000604082019050615b7a6000830185614b76565b615b876020830184614b35565b9392505050565b6000606082019050615ba36000830186614b76565b615bb06020830185614b35565b615bbd6040830184614b35565b949350505050565b6000615bd082614ad2565b91507fffffffffffffffffffffffffffffffffffffffffffffffffffffffffffffffff821415615c0357615c026155a7565b5b600182019050919050565b6000615c1982614ad2565b9150615c2483614ad2565b925082821015615c3757615c366155a7565b5b828203905092915050565b7f4f776e61626c653a206e6577206f776e657220697320746865207a65726f206160008201527f6464726573730000000000000000000000000000000000000000000000000000602082015250565b6000615c9e6026836153c0565b9150615ca982615c42565b604082019050919050565b60006020820190508181036000830152615ccd81615c91565b9050919050565b7f526577617264206973206e6f7420616374697665206f722066756c6c00000000600082015250565b6000615d0a601c836153c0565b9150615d1582615cd4565b602082019050919050565b60006020820190508181036000830152615d3981615cfd565b9050919050565b7f416c6c2072657761726473206172652064697374726962757465640000000000600082015250565b6000615d76601b836153c0565b9150615d8182615d40565b602082019050919050565b60006020820190508181036000830152615da581615d69565b9050919050565b7f4f776e61626c653a2063616c6c6572206973206e6f7420746865206f776e6572600082015250565b6000615de26020836153c0565b9150615ded82615dac565b602082019050919050565b60006020820190508181036000830152615e1181615dd5565b9050919050565b6000615e2382614ad2565b9150615e2e83614ad2565b9250817fffffffffffffffffffffffffffffffffffffffffffffffffffffffffffffffff0483118215151615615e6757615e666155a7565b5b828202905092915050565b7f4e487b7100000000000000000000000000000000000000000000000000000000600052601260045260246000fd5b6000615eac82614ad2565b9150615eb783614ad2565b925082615ec757615ec6615e72565b5b828204905092915050565b6000606082019050615ee76000830186614b76565b615ef46020830185614b35565b615f016040830184614b76565b94935050505056fea2646970667358221220f9b92e5869867658128e23a67a4cc57b19d422acac644e9f50ae28cfda36e03564736f6c63430008090033",
  "linkReferences": {},
  "deployedLinkReferences": {}
}