{
  "_format": "hh-sol-artifact-1",
  "contractName": "Funding",
  "sourceName": "contracts/Funding.sol",
  "abi": [
    {
      "inputs": [
        {
          "internalType": "address",
          "name": "_gateway",
          "type": "address"
        },
        {
          "internalType": "address",
          "name": "usdcAddress",
          "type": "address"
        },
        {
          "internalType": "address",
          "name": "usdtAddress",
          "type": "address"
        },
        {
          "internalType": "address",
          "name": "daiAddress",
          "type": "address"
        }
      ],
      "stateMutability": "nonpayable",
      "type": "constructor"
    },
    {
      "inputs": [],
      "name": "InvalidAddress",
      "type": "error"
    },
    {
      "inputs": [],
      "name": "NotApprovedByGateway",
      "type": "error"
    },
    {
      "anonymous": false,
      "inputs": [
        {
          "indexed": false,
          "internalType": "uint256",
          "name": "amount",
          "type": "uint256"
        },
        {
          "indexed": false,
          "internalType": "string",
          "name": "symbol",
          "type": "string"
        }
      ],
      "name": "AxelarExecutionComplete",
      "type": "event"
    },
    {
      "anonymous": false,
      "inputs": [
        {
          "indexed": false,
          "internalType": "address",
          "name": "owner",
          "type": "address"
        },
        {
          "indexed": false,
          "internalType": "uint256",
          "name": "fundId",
          "type": "uint256"
        }
      ],
      "name": "Cancelled",
      "type": "event"
    },
    {
      "anonymous": false,
      "inputs": [
        {
          "indexed": false,
          "internalType": "address",
          "name": "owner",
          "type": "address"
        },
        {
          "indexed": false,
          "internalType": "uint256",
          "name": "balance",
          "type": "uint256"
        }
      ],
      "name": "DaiDistributed",
      "type": "event"
    },
    {
      "anonymous": false,
      "inputs": [
        {
          "indexed": false,
          "internalType": "address",
          "name": "project",
          "type": "address"
        },
        {
          "indexed": false,
          "internalType": "uint256",
          "name": "fee",
          "type": "uint256"
        }
      ],
      "name": "DaiFee",
      "type": "event"
    },
    {
      "anonymous": false,
      "inputs": [
        {
          "indexed": false,
          "internalType": "address",
          "name": "owner",
          "type": "address"
        },
        {
          "indexed": false,
          "internalType": "uint256",
          "name": "balance",
          "type": "uint256"
        }
      ],
      "name": "Distributed",
      "type": "event"
    },
    {
      "anonymous": false,
      "inputs": [
        {
          "indexed": false,
          "internalType": "address",
          "name": "donator",
          "type": "address"
        },
        {
          "indexed": false,
          "internalType": "uint256",
          "name": "amount",
          "type": "uint256"
        },
        {
          "indexed": false,
          "internalType": "uint256",
          "name": "fundId",
          "type": "uint256"
        },
        {
          "indexed": false,
          "internalType": "uint256",
          "name": "currency",
          "type": "uint256"
        }
      ],
      "name": "Donated",
      "type": "event"
    },
    {
      "anonymous": false,
      "inputs": [
        {
          "indexed": false,
          "internalType": "address",
          "name": "owner",
          "type": "address"
        },
        {
          "indexed": false,
          "internalType": "uint256",
          "name": "cap",
          "type": "uint256"
        },
        {
          "indexed": false,
          "internalType": "uint256",
          "name": "id",
          "type": "uint256"
        }
      ],
      "name": "FundCreated",
      "type": "event"
    },
    {
      "anonymous": false,
      "inputs": [
        {
          "indexed": false,
          "internalType": "address",
          "name": "project",
          "type": "address"
        },
        {
          "indexed": false,
          "internalType": "uint256",
          "name": "fee",
          "type": "uint256"
        }
      ],
      "name": "FundingFee",
      "type": "event"
    },
    {
      "anonymous": false,
      "inputs": [
        {
          "indexed": false,
          "internalType": "bool",
          "name": "status",
          "type": "bool"
        }
      ],
      "name": "IncorrectDistribution",
      "type": "event"
    },
    {
      "anonymous": false,
      "inputs": [
        {
          "indexed": false,
          "internalType": "address",
          "name": "owner",
          "type": "address"
        },
        {
          "indexed": false,
          "internalType": "uint256",
          "name": "cap",
          "type": "uint256"
        },
        {
          "indexed": false,
          "internalType": "uint256",
          "name": "fundId",
          "type": "uint256"
        }
      ],
      "name": "MicroClosed",
      "type": "event"
    },
    {
      "anonymous": false,
      "inputs": [
        {
          "indexed": false,
          "internalType": "address",
          "name": "owner",
          "type": "address"
        },
        {
          "indexed": false,
          "internalType": "uint256",
          "name": "cap",
          "type": "uint256"
        },
        {
          "indexed": false,
          "internalType": "uint256",
          "name": "fundId",
          "type": "uint256"
        },
        {
          "indexed": false,
          "internalType": "uint256",
          "name": "currency",
          "type": "uint256"
        }
      ],
      "name": "MicroCreated",
      "type": "event"
    },
    {
      "anonymous": false,
      "inputs": [
        {
          "indexed": false,
          "internalType": "address",
          "name": "owner",
          "type": "address"
        },
        {
          "indexed": false,
          "internalType": "uint256",
          "name": "amount",
          "type": "uint256"
        },
        {
          "indexed": false,
          "internalType": "uint256",
          "name": "fundId",
          "type": "uint256"
        }
      ],
      "name": "MicroDrained",
      "type": "event"
    },
    {
      "anonymous": false,
      "inputs": [
        {
          "indexed": true,
          "internalType": "address",
          "name": "previousOwner",
          "type": "address"
        },
        {
          "indexed": true,
          "internalType": "address",
          "name": "newOwner",
          "type": "address"
        }
      ],
      "name": "OwnershipTransferred",
      "type": "event"
    },
    {
      "anonymous": false,
      "inputs": [
        {
          "indexed": false,
          "internalType": "address",
          "name": "backer",
          "type": "address"
        },
        {
          "indexed": false,
          "internalType": "uint256",
          "name": "amount",
          "type": "uint256"
        },
        {
          "indexed": false,
          "internalType": "uint256",
          "name": "fundId",
          "type": "uint256"
        }
      ],
      "name": "Refunded",
      "type": "event"
    },
    {
      "anonymous": false,
      "inputs": [
        {
          "indexed": false,
          "internalType": "address",
          "name": "microOwner",
          "type": "address"
        },
        {
          "indexed": false,
          "internalType": "uint256",
          "name": "balance",
          "type": "uint256"
        },
        {
          "indexed": false,
          "internalType": "address",
          "name": "fundOwner",
          "type": "address"
        }
      ],
      "name": "Returned",
      "type": "event"
    },
    {
      "anonymous": false,
      "inputs": [
        {
          "indexed": false,
          "internalType": "address",
          "name": "owner",
          "type": "address"
        },
        {
          "indexed": false,
          "internalType": "uint256",
          "name": "balance",
          "type": "uint256"
        }
      ],
      "name": "UsdcDistributed",
      "type": "event"
    },
    {
      "anonymous": false,
      "inputs": [
        {
          "indexed": false,
          "internalType": "address",
          "name": "project",
          "type": "address"
        },
        {
          "indexed": false,
          "internalType": "uint256",
          "name": "fee",
          "type": "uint256"
        }
      ],
      "name": "UsdcFee",
      "type": "event"
    },
    {
      "anonymous": false,
      "inputs": [
        {
          "indexed": false,
          "internalType": "address",
          "name": "owner",
          "type": "address"
        },
        {
          "indexed": false,
          "internalType": "uint256",
          "name": "balance",
          "type": "uint256"
        }
      ],
      "name": "UsdtDistributed",
      "type": "event"
    },
    {
      "anonymous": false,
      "inputs": [
        {
          "indexed": false,
          "internalType": "address",
          "name": "project",
          "type": "address"
        },
        {
          "indexed": false,
          "internalType": "uint256",
          "name": "fee",
          "type": "uint256"
        }
      ],
      "name": "UsdtFee",
      "type": "event"
    },
    {
      "inputs": [
        {
          "internalType": "uint256",
          "name": "_index",
          "type": "uint256"
        },
        {
          "internalType": "uint256",
          "name": "_amount",
          "type": "uint256"
        }
      ],
      "name": "calcInvolvedMicros",
      "outputs": [
        {
          "internalType": "uint256",
          "name": "",
          "type": "uint256"
        }
      ],
      "stateMutability": "view",
      "type": "function"
    },
    {
      "inputs": [
        {
          "internalType": "uint256",
          "name": "_index",
          "type": "uint256"
        },
        {
          "internalType": "uint256",
          "name": "_amount",
          "type": "uint256"
        }
      ],
      "name": "calcOutcome",
      "outputs": [
        {
          "internalType": "uint256",
          "name": "",
          "type": "uint256"
        }
      ],
      "stateMutability": "view",
      "type": "function"
    },
    {
      "inputs": [
        {
          "internalType": "uint256",
          "name": "_id",
          "type": "uint256"
        }
      ],
      "name": "cancelFund",
      "outputs": [],
      "stateMutability": "nonpayable",
      "type": "function"
    },
    {
      "inputs": [
        {
          "internalType": "uint256",
          "name": "_fee",
          "type": "uint256"
        }
      ],
      "name": "changeFee",
      "outputs": [],
      "stateMutability": "nonpayable",
      "type": "function"
    },
    {
      "inputs": [
        {
          "internalType": "uint256",
          "name": "_amountM",
          "type": "uint256"
        },
        {
          "internalType": "uint256",
          "name": "_amountD",
          "type": "uint256"
        },
        {
          "internalType": "uint256",
          "name": "_id",
          "type": "uint256"
        },
        {
          "internalType": "uint256",
          "name": "_currency",
          "type": "uint256"
        }
      ],
      "name": "contribute",
      "outputs": [],
      "stateMutability": "nonpayable",
      "type": "function"
    },
    {
      "inputs": [
        {
          "internalType": "uint256",
          "name": "_level1",
          "type": "uint256"
        },
        {
          "internalType": "address",
          "name": "_rewardAddress",
          "type": "address"
        },
        {
          "internalType": "uint256",
          "name": "_rewardAmount",
          "type": "uint256"
        }
      ],
      "name": "createFund",
      "outputs": [],
      "stateMutability": "nonpayable",
      "type": "function"
    },
    {
      "inputs": [],
      "name": "dai",
      "outputs": [
        {
          "internalType": "contract IERC20",
          "name": "",
          "type": "address"
        }
      ],
      "stateMutability": "view",
      "type": "function"
    },
    {
      "inputs": [
        {
          "internalType": "uint256",
          "name": "_id",
          "type": "uint256"
        }
      ],
      "name": "distribute",
      "outputs": [],
      "stateMutability": "nonpayable",
      "type": "function"
    },
    {
      "inputs": [
        {
          "internalType": "uint256",
          "name": "",
          "type": "uint256"
        }
      ],
      "name": "donations",
      "outputs": [
        {
          "internalType": "uint256",
          "name": "id",
          "type": "uint256"
        },
        {
          "internalType": "uint256",
          "name": "fundId",
          "type": "uint256"
        },
        {
          "internalType": "address",
          "name": "backer",
          "type": "address"
        },
        {
          "internalType": "uint256",
          "name": "amount",
          "type": "uint256"
        },
        {
          "internalType": "uint256",
          "name": "state",
          "type": "uint256"
        },
        {
          "internalType": "uint256",
          "name": "currency",
          "type": "uint256"
        }
      ],
      "stateMutability": "view",
      "type": "function"
    },
    {
      "inputs": [
        {
          "internalType": "bytes32",
          "name": "commandId",
          "type": "bytes32"
        },
        {
          "internalType": "string",
          "name": "sourceChain",
          "type": "string"
        },
        {
          "internalType": "string",
          "name": "sourceAddress",
          "type": "string"
        },
        {
          "internalType": "bytes",
          "name": "payload",
          "type": "bytes"
        }
      ],
      "name": "execute",
      "outputs": [],
      "stateMutability": "nonpayable",
      "type": "function"
    },
    {
      "inputs": [
        {
          "internalType": "bytes32",
          "name": "commandId",
          "type": "bytes32"
        },
        {
          "internalType": "string",
          "name": "sourceChain",
          "type": "string"
        },
        {
          "internalType": "string",
          "name": "sourceAddress",
          "type": "string"
        },
        {
          "internalType": "bytes",
          "name": "payload",
          "type": "bytes"
        },
        {
          "internalType": "string",
          "name": "tokenSymbol",
          "type": "string"
        },
        {
          "internalType": "uint256",
          "name": "amount",
          "type": "uint256"
        }
      ],
      "name": "executeWithToken",
      "outputs": [],
      "stateMutability": "nonpayable",
      "type": "function"
    },
    {
      "inputs": [],
      "name": "feeAddress",
      "outputs": [
        {
          "internalType": "address",
          "name": "",
          "type": "address"
        }
      ],
      "stateMutability": "view",
      "type": "function"
    },
    {
      "inputs": [
        {
          "internalType": "uint256",
          "name": "",
          "type": "uint256"
        }
      ],
      "name": "funds",
      "outputs": [
        {
          "internalType": "uint256",
          "name": "id",
          "type": "uint256"
        },
        {
          "internalType": "address",
          "name": "owner",
          "type": "address"
        },
        {
          "internalType": "uint256",
          "name": "balance",
          "type": "uint256"
        },
        {
          "internalType": "uint256",
          "name": "deadline",
          "type": "uint256"
        },
        {
          "internalType": "uint256",
          "name": "state",
          "type": "uint256"
        },
        {
          "internalType": "uint256",
          "name": "level1",
          "type": "uint256"
        },
        {
          "internalType": "uint256",
          "name": "tokenReward",
          "type": "uint256"
        },
        {
          "internalType": "address",
          "name": "tokenRewardAddress",
          "type": "address"
        },
        {
          "internalType": "uint256",
          "name": "usdcBalance",
          "type": "uint256"
        },
        {
          "internalType": "uint256",
          "name": "usdtBalance",
          "type": "uint256"
        },
        {
          "internalType": "uint256",
          "name": "daiBalance",
          "type": "uint256"
        }
      ],
      "stateMutability": "view",
      "type": "function"
    },
    {
      "inputs": [],
      "name": "gateway",
      "outputs": [
        {
          "internalType": "contract IAxelarGateway",
          "name": "",
          "type": "address"
        }
      ],
      "stateMutability": "view",
      "type": "function"
    },
    {
      "inputs": [
        {
          "internalType": "uint256",
          "name": "_index",
          "type": "uint256"
        }
      ],
      "name": "getBackers",
      "outputs": [
        {
          "internalType": "uint256",
          "name": "",
          "type": "uint256"
        }
      ],
      "stateMutability": "view",
      "type": "function"
    },
    {
      "inputs": [
        {
          "internalType": "uint256",
          "name": "_index",
          "type": "uint256"
        }
      ],
      "name": "getConnectedMicroFunds",
      "outputs": [
        {
          "internalType": "uint256",
          "name": "",
          "type": "uint256"
        }
      ],
      "stateMutability": "view",
      "type": "function"
    },
    {
      "inputs": [
        {
          "internalType": "uint256",
          "name": "_index",
          "type": "uint256"
        }
      ],
      "name": "getFundBalance",
      "outputs": [
        {
          "internalType": "uint256",
          "name": "",
          "type": "uint256"
        }
      ],
      "stateMutability": "view",
      "type": "function"
    },
    {
      "inputs": [
        {
          "internalType": "uint256",
          "name": "_index",
          "type": "uint256"
        }
      ],
      "name": "getFundCap",
      "outputs": [
        {
          "internalType": "uint256",
          "name": "",
          "type": "uint256"
        }
      ],
      "stateMutability": "view",
      "type": "function"
    },
    {
      "inputs": [
        {
          "internalType": "uint256",
          "name": "_index",
          "type": "uint256"
        }
      ],
      "name": "getFundDeadline",
      "outputs": [
        {
          "internalType": "uint256",
          "name": "",
          "type": "uint256"
        }
      ],
      "stateMutability": "view",
      "type": "function"
    },
    {
      "inputs": [
        {
          "internalType": "uint256",
          "name": "_index",
          "type": "uint256"
        }
      ],
      "name": "getMicroFundInfo",
      "outputs": [
        {
          "internalType": "uint256",
          "name": "state",
          "type": "uint256"
        },
        {
          "internalType": "uint256",
          "name": "max",
          "type": "uint256"
        },
        {
          "internalType": "uint256",
          "name": "balance",
          "type": "uint256"
        },
        {
          "internalType": "uint256",
          "name": "currency",
          "type": "uint256"
        }
      ],
      "stateMutability": "view",
      "type": "function"
    },
    {
      "inputs": [
        {
          "internalType": "uint256",
          "name": "_index",
          "type": "uint256"
        }
      ],
      "name": "isPeriodFinished",
      "outputs": [
        {
          "internalType": "bool",
          "name": "",
          "type": "bool"
        }
      ],
      "stateMutability": "view",
      "type": "function"
    },
    {
      "inputs": [
        {
          "internalType": "uint256",
          "name": "",
          "type": "uint256"
        }
      ],
      "name": "microFunds",
      "outputs": [
        {
          "internalType": "uint256",
          "name": "microId",
          "type": "uint256"
        },
        {
          "internalType": "address",
          "name": "owner",
          "type": "address"
        },
        {
          "internalType": "uint256",
          "name": "cap",
          "type": "uint256"
        },
        {
          "internalType": "uint256",
          "name": "microBalance",
          "type": "uint256"
        },
        {
          "internalType": "uint256",
          "name": "fundId",
          "type": "uint256"
        },
        {
          "internalType": "uint256",
          "name": "state",
          "type": "uint256"
        },
        {
          "internalType": "uint256",
          "name": "currency",
          "type": "uint256"
        }
      ],
      "stateMutability": "view",
      "type": "function"
    },
    {
      "inputs": [],
      "name": "minAmount",
      "outputs": [
        {
          "internalType": "uint256",
          "name": "",
          "type": "uint256"
        }
      ],
      "stateMutability": "view",
      "type": "function"
    },
    {
      "inputs": [],
      "name": "owner",
      "outputs": [
        {
          "internalType": "address",
          "name": "",
          "type": "address"
        }
      ],
      "stateMutability": "view",
      "type": "function"
    },
    {
      "inputs": [],
      "name": "platformFee",
      "outputs": [
        {
          "internalType": "uint256",
          "name": "",
          "type": "uint256"
        }
      ],
      "stateMutability": "view",
      "type": "function"
    },
    {
      "inputs": [],
      "name": "renounceOwnership",
      "outputs": [],
      "stateMutability": "nonpayable",
      "type": "function"
    },
    {
      "inputs": [],
      "name": "rewardToken",
      "outputs": [
        {
          "internalType": "contract IERC20",
          "name": "",
          "type": "address"
        }
      ],
      "stateMutability": "view",
      "type": "function"
    },
    {
      "inputs": [
        {
          "internalType": "uint256",
          "name": "_min",
          "type": "uint256"
        }
      ],
      "name": "setMinimum",
      "outputs": [],
      "stateMutability": "nonpayable",
      "type": "function"
    },
    {
      "inputs": [
        {
          "internalType": "address",
          "name": "newOwner",
          "type": "address"
        }
      ],
      "name": "transferOwnership",
      "outputs": [],
      "stateMutability": "nonpayable",
      "type": "function"
    },
    {
      "inputs": [],
      "name": "usdc",
      "outputs": [
        {
          "internalType": "contract IERC20",
          "name": "",
          "type": "address"
        }
      ],
      "stateMutability": "view",
      "type": "function"
    },
    {
      "inputs": [],
      "name": "usdt",
      "outputs": [
        {
          "internalType": "contract IERC20",
          "name": "",
          "type": "address"
        }
      ],
      "stateMutability": "view",
      "type": "function"
    }
  ],
  "bytecode": "0x60c060405273c21223249ca28397b4b6541dffaecc539bff0c59600660006101000a81548173ffffffffffffffffffffffffffffffffffffffff021916908373ffffffffffffffffffffffffffffffffffffffff1602179055506001600755600160085573be406f0189a0b4cf3a05c286473d23791dd44cc673ffffffffffffffffffffffffffffffffffffffff1660a09073ffffffffffffffffffffffffffffffffffffffff16815250348015620000b757600080fd5b50604051620052ad380380620052ad8339818101604052810190620000dd9190620003a5565b83620000fe620000f26200026f60201b60201c565b6200027760201b60201c565b60018081905550600073ffffffffffffffffffffffffffffffffffffffff168173ffffffffffffffffffffffffffffffffffffffff1614156200016d576040517fe6c4247b00000000000000000000000000000000000000000000000000000000815260040160405180910390fd5b8073ffffffffffffffffffffffffffffffffffffffff1660808173ffffffffffffffffffffffffffffffffffffffff16815250505082600260006101000a81548173ffffffffffffffffffffffffffffffffffffffff021916908373ffffffffffffffffffffffffffffffffffffffff16021790555081600360006101000a81548173ffffffffffffffffffffffffffffffffffffffff021916908373ffffffffffffffffffffffffffffffffffffffff16021790555080600460006101000a81548173ffffffffffffffffffffffffffffffffffffffff021916908373ffffffffffffffffffffffffffffffffffffffff1602179055505050505062000417565b600033905090565b60008060009054906101000a900473ffffffffffffffffffffffffffffffffffffffff169050816000806101000a81548173ffffffffffffffffffffffffffffffffffffffff021916908373ffffffffffffffffffffffffffffffffffffffff1602179055508173ffffffffffffffffffffffffffffffffffffffff168173ffffffffffffffffffffffffffffffffffffffff167f8be0079c531659141344cd1fd0a4f28419497f9722a3daafe3b4186f6b6457e060405160405180910390a35050565b600080fd5b600073ffffffffffffffffffffffffffffffffffffffff82169050919050565b60006200036d8262000340565b9050919050565b6200037f8162000360565b81146200038b57600080fd5b50565b6000815190506200039f8162000374565b92915050565b60008060008060808587031215620003c257620003c16200033b565b5b6000620003d2878288016200038e565b9450506020620003e5878288016200038e565b9350506040620003f8878288016200038e565b92505060606200040b878288016200038e565b91505092959194509250565b60805160a051614e5e6200044f6000396000505060008181610b3301528181610be501528181610d9a01526133520152614e5e6000f3fe608060405234801561001057600080fd5b50600436106101e55760003560e01c80638da5cb5b1161010f578063b9ce03c0116100a2578063f2fde38b11610071578063f2fde38b146105c9578063f4b9fa75146105e5578063f7c618c114610603578063f8626af814610621576101e5565b8063b9ce03c014610531578063be7aec531461054d578063c9168b721461057d578063e4810524146105ad576101e5565b8063a4f10f0e116100de578063a4f10f0e1461046e578063ac8ddf951461049e578063b318c837146104ce578063b7fa1056146104fe576101e5565b80638da5cb5b146103e657806391c05b0b1461040457806396413b62146104205780639b2cb5d814610450576101e5565b80633e413bee11610187578063679585531161015657806367958553146103565780636a1db1bf14610386578063715018a6146103a25780637b8e8895146103ac576101e5565b80633e413bee146102ce57806341275358146102ec578063491606581461030a5780636266d5fb14610326576101e5565b80631a98b2e0116101c35780631a98b2e01461025a57806326232a2e146102765780632f48ab7d146102945780633209e9e6146102b2576101e5565b80630f7e6320146101ea578063116191b61461020657806316055fa814610224575b600080fd5b61020460048036038101906101ff9190613b36565b610656565b005b61020e610b31565b60405161021b9190613be8565b60405180910390f35b61023e60048036038101906102399190613c03565b610b55565b6040516102519796959493929190613c4e565b60405180910390f35b610274600480360381019061026f9190613dae565b610bc7565b005b61027e610cf2565b60405161028b9190613ebe565b60405180910390f35b61029c610cf8565b6040516102a99190613efa565b60405180910390f35b6102cc60048036038101906102c79190613c03565b610d1e565b005b6102d6610d30565b6040516102e39190613efa565b60405180910390f35b6102f4610d56565b6040516103019190613f15565b60405180910390f35b610324600480360381019061031f9190613f30565b610d7c565b005b610340600480360381019061033b9190613c03565b610e9b565b60405161034d9190613ebe565b60405180910390f35b610370600480360381019061036b9190613c03565b610eca565b60405161037d9190613ebe565b60405180910390f35b6103a0600480360381019061039b9190613c03565b610ef9565b005b6103aa610f0b565b005b6103c660048036038101906103c19190613c03565b610f1f565b6040516103dd9b9a99989796959493929190613ff9565b60405180910390f35b6103ee610fc9565b6040516103fb9190613f15565b60405180910390f35b61041e60048036038101906104199190613c03565b610ff2565b005b61043a60048036038101906104359190613c03565b611a5d565b6040516104479190613ebe565b60405180910390f35b610458611a8c565b6040516104659190613ebe565b60405180910390f35b61048860048036038101906104839190613c03565b611a92565b6040516104959190613ebe565b60405180910390f35b6104b860048036038101906104b39190613c03565b611b02565b6040516104c591906140bf565b60405180910390f35b6104e860048036038101906104e391906140da565b611b33565b6040516104f59190613ebe565b60405180910390f35b61051860048036038101906105139190613c03565b611c44565b604051610528949392919061411a565b60405180910390f35b61054b6004803603810190610546919061415f565b611c94565b005b610567600480360381019061056291906140da565b6124a0565b6040516105749190613ebe565b60405180910390f35b61059760048036038101906105929190613c03565b6125a3565b6040516105a49190613ebe565b60405180910390f35b6105c760048036038101906105c29190613c03565b612613565b005b6105e360048036038101906105de91906141c6565b6131b1565b005b6105ed613235565b6040516105fa9190613efa565b60405180910390f35b61060b61325b565b6040516106189190613efa565b60405180910390f35b61063b60048036038101906106369190613c03565b613281565b60405161064d969594939291906141f3565b60405180910390f35b600062278d00426106679190614283565b9050600073ffffffffffffffffffffffffffffffffffffffff163373ffffffffffffffffffffffffffffffffffffffff1614156106d9576040517f08c379a00000000000000000000000000000000000000000000000000000000081526004016106d090614336565b60405180910390fd5b6000841161071c576040517f08c379a0000000000000000000000000000000000000000000000000000000008152600401610713906143a2565b60405180910390fd5b600754841015610761576040517f08c379a000000000000000000000000000000000000000000000000000000000815260040161075890614434565b60405180910390fd5b60008211156109515782600560006101000a81548173ffffffffffffffffffffffffffffffffffffffff021916908373ffffffffffffffffffffffffffffffffffffffff1602179055506000600560009054906101000a900473ffffffffffffffffffffffffffffffffffffffff1673ffffffffffffffffffffffffffffffffffffffff166370a08231336040518263ffffffff1660e01b81526004016108089190613f15565b60206040518083038186803b15801561082057600080fd5b505afa158015610834573d6000803e3d6000fd5b505050506040513d601f19601f820116820180604052508101906108589190614469565b90508083111561089d576040517f08c379a0000000000000000000000000000000000000000000000000000000008152600401610894906144e2565b60405180910390fd5b600560009054906101000a900473ffffffffffffffffffffffffffffffffffffffff1673ffffffffffffffffffffffffffffffffffffffff166323b872dd3330866040518463ffffffff1660e01b81526004016108fc93929190614502565b602060405180830381600087803b15801561091657600080fd5b505af115801561092a573d6000803e3d6000fd5b505050506040513d601f19601f8201168201806040525081019061094e9190614565565b50505b600960405180610160016040528060098054905081526020013373ffffffffffffffffffffffffffffffffffffffff16815260200160008152602001838152602001600181526020018681526020018481526020018573ffffffffffffffffffffffffffffffffffffffff1681526020016000815260200160008152602001600081525090806001815401808255809150506001900390600052602060002090600b02016000909190919091506000820151816000015560208201518160010160006101000a81548173ffffffffffffffffffffffffffffffffffffffff021916908373ffffffffffffffffffffffffffffffffffffffff16021790555060408201518160020155606082015181600301556080820151816004015560a0820151816005015560c0820151816006015560e08201518160070160006101000a81548173ffffffffffffffffffffffffffffffffffffffff021916908373ffffffffffffffffffffffffffffffffffffffff1602179055506101008201518160080155610120820151816009015561014082015181600a015550507ff18ce1b70b1a4044491b54196c83d95e67aae09483ce0d2e1c2a8189faca76443385600980549050604051610b2393929190614592565b60405180910390a150505050565b7f000000000000000000000000000000000000000000000000000000000000000081565b600a8181548110610b6557600080fd5b90600052602060002090600702016000915090508060000154908060010160009054906101000a900473ffffffffffffffffffffffffffffffffffffffff16908060020154908060030154908060040154908060050154908060060154905087565b60008585604051610bd9929190614608565b604051809103902090507f000000000000000000000000000000000000000000000000000000000000000073ffffffffffffffffffffffffffffffffffffffff16631876eed98c8c8c8c8c878b8b8b6040518a63ffffffff1660e01b8152600401610c4c9998979695949392919061466e565b602060405180830381600087803b158015610c6657600080fd5b505af1158015610c7a573d6000803e3d6000fd5b505050506040513d601f19601f82011682018060405250810190610c9e9190614565565b610cd4576040517f500c44b400000000000000000000000000000000000000000000000000000000815260040160405180910390fd5b610ce58a8a8a8a8a8a8a8a8a6132ed565b5050505050505050505050565b60085481565b600360009054906101000a900473ffffffffffffffffffffffffffffffffffffffff1681565b610d266134d3565b8060078190555050565b600260009054906101000a900473ffffffffffffffffffffffffffffffffffffffff1681565b600660009054906101000a900473ffffffffffffffffffffffffffffffffffffffff1681565b60008282604051610d8e929190614608565b604051809103902090507f000000000000000000000000000000000000000000000000000000000000000073ffffffffffffffffffffffffffffffffffffffff16635f6970c38989898989876040518763ffffffff1660e01b8152600401610dfb969594939291906146ea565b602060405180830381600087803b158015610e1557600080fd5b505af1158015610e29573d6000803e3d6000fd5b505050506040513d601f19601f82011682018060405250810190610e4d9190614565565b610e83576040517f500c44b400000000000000000000000000000000000000000000000000000000815260040160405180910390fd5b610e91878787878787613551565b5050505050505050565b600060098281548110610eb157610eb0614741565b5b90600052602060002090600b0201600501549050919050565b600060098281548110610ee057610edf614741565b5b90600052602060002090600b0201600301549050919050565b610f016134d3565b8060088190555050565b610f136134d3565b610f1d6000613559565b565b60098181548110610f2f57600080fd5b90600052602060002090600b02016000915090508060000154908060010160009054906101000a900473ffffffffffffffffffffffffffffffffffffffff16908060020154908060030154908060040154908060050154908060060154908060070160009054906101000a900473ffffffffffffffffffffffffffffffffffffffff169080600801549080600901549080600a015490508b565b60008060009054906101000a900473ffffffffffffffffffffffffffffffffffffffff16905090565b60026001541415611038576040517f08c379a000000000000000000000000000000000000000000000000000000000815260040161102f906147bc565b60405180910390fd5b600260018190555060016009828154811061105657611055614741565b5b90600052602060002090600b020160040154146110a8576040517f08c379a000000000000000000000000000000000000000000000000000000000815260040161109f90614828565b60405180910390fd5b6000600982815481106110be576110bd614741565b5b90600052602060002090600b020160080154111561199657600260009054906101000a900473ffffffffffffffffffffffffffffffffffffffff1673ffffffffffffffffffffffffffffffffffffffff1663095ea7b3306009848154811061112957611128614741565b5b90600052602060002090600b0201600801546040518363ffffffff1660e01b8152600401611158929190614848565b602060405180830381600087803b15801561117257600080fd5b505af1158015611186573d6000803e3d6000fd5b505050506040513d601f19601f820116820180604052508101906111aa9190614565565b50600060646001600984815481106111c5576111c4614741565b5b90600052602060002090600b0201600801546111e19190614871565b6111eb91906148fa565b90506000816009848154811061120457611203614741565b5b90600052602060002090600b020160080154611220919061492b565b9050600260009054906101000a900473ffffffffffffffffffffffffffffffffffffffff1673ffffffffffffffffffffffffffffffffffffffff166323b872dd30600660009054906101000a900473ffffffffffffffffffffffffffffffffffffffff16856040518463ffffffff1660e01b81526004016112a393929190614502565b602060405180830381600087803b1580156112bd57600080fd5b505af11580156112d1573d6000803e3d6000fd5b505050506040513d601f19601f820116820180604052508101906112f59190614565565b507f6de79fa3fbd5b46d29b0be67a71db2a9004305e499780a007ec21477580987316009848154811061132b5761132a614741565b5b90600052602060002090600b020160010160009054906101000a900473ffffffffffffffffffffffffffffffffffffffff168360405161136c929190614848565b60405180910390a1600260009054906101000a900473ffffffffffffffffffffffffffffffffffffffff1673ffffffffffffffffffffffffffffffffffffffff166323b872dd30600986815481106113c7576113c6614741565b5b90600052602060002090600b020160010160009054906101000a900473ffffffffffffffffffffffffffffffffffffffff16846040518463ffffffff1660e01b815260040161141893929190614502565b602060405180830381600087803b15801561143257600080fd5b505af1158015611446573d6000803e3d6000fd5b505050506040513d601f19601f8201168201806040525081019061146a9190614565565b507f2983755bde2b149ec8f5942cba2708bb9235a94ca22b45266e61f1a63b891fad600984815481106114a05761149f614741565b5b90600052602060002090600b020160010160009054906101000a900473ffffffffffffffffffffffffffffffffffffffff16600985815481106114e6576114e5614741565b5b90600052602060002090600b020160080154604051611506929190614848565b60405180910390a16009838154811061152257611521614741565b5b90600052602060002090600b0201600801546009848154811061154857611547614741565b5b90600052602060002090600b02016002016000828254611568919061492b565b9250508190555060005b600a805490508110156119925783600a828154811061159457611593614741565b5b9060005260206000209060070201600401541480156115d857506001600a82815481106115c4576115c3614741565b5b906000526020600020906007020160050154145b801561160957506001600a82815481106115f5576115f4614741565b5b906000526020600020906007020160060154145b1561197f57600a818154811061162257611621614741565b5b906000526020600020906007020160030154600a828154811061164857611647614741565b5b9060005260206000209060070201600201541115611928576000600a828154811061167657611675614741565b5b906000526020600020906007020160030154600a838154811061169c5761169b614741565b5b9060005260206000209060070201600201546116b8919061492b565b9050600260009054906101000a900473ffffffffffffffffffffffffffffffffffffffff1673ffffffffffffffffffffffffffffffffffffffff1663095ea7b330836040518363ffffffff1660e01b8152600401611717929190614848565b602060405180830381600087803b15801561173157600080fd5b505af1158015611745573d6000803e3d6000fd5b505050506040513d601f19601f820116820180604052508101906117699190614565565b50600260009054906101000a900473ffffffffffffffffffffffffffffffffffffffff1673ffffffffffffffffffffffffffffffffffffffff166323b872dd30600a88815481106117bd576117bc614741565b5b906000526020600020906007020160010160009054906101000a900473ffffffffffffffffffffffffffffffffffffffff16846040518463ffffffff1660e01b815260040161180e93929190614502565b602060405180830381600087803b15801561182857600080fd5b505af115801561183c573d6000803e3d6000fd5b505050506040513d601f19601f820116820180604052508101906118609190614565565b507f98c105e3bc1ca4c7a99cdea9cd2e2c7a0fbf623404262d3dfd0a152545bd25ad600a838154811061189657611895614741565b5b906000526020600020906007020160010160009054906101000a900473ffffffffffffffffffffffffffffffffffffffff1682600988815481106118dd576118dc614741565b5b90600052602060002090600b020160010160009054906101000a900473ffffffffffffffffffffffffffffffffffffffff1660405161191e9392919061495f565b60405180910390a1505b6000600a858154811061193e5761193d614741565b5b9060005260206000209060070201600301819055506002600a828154811061196957611968614741565b5b9060005260206000209060070201600501819055505b808061198a90614996565b915050611572565b5050505b6000600982815481106119ac576119ab614741565b5b90600052602060002090600b0201600201541115611a28576000600982815481106119da576119d9614741565b5b90600052602060002090600b0201600201819055507fadd9d74ee9c338ee8881c6d3644817247d1550a0488e3edb096f7fc0c44518536001604051611a1f91906140bf565b60405180910390a15b600260098281548110611a3e57611a3d614741565b5b90600052602060002090600b0201600401819055506001808190555050565b600060098281548110611a7357611a72614741565b5b90600052602060002090600b0201600201549050919050565b60075481565b6000806000905060005b600a80549050811015611af85783600a8281548110611abe57611abd614741565b5b9060005260206000209060070201600401541415611ae5578180611ae190614996565b9250505b8080611af090614996565b915050611a9c565b5080915050919050565b600060098281548110611b1857611b17614741565b5b90600052602060002090600b02016003015442119050919050565b600080600090508281611b469190614283565b905060005b600a80549050811015611c395784600a8281548110611b6d57611b6c614741565b5b906000526020600020906007020160040154148015611bb157506001600a8281548110611b9d57611b9c614741565b5b906000526020600020906007020160050154145b8015611c12575083600a8281548110611bcd57611bcc614741565b5b906000526020600020906007020160030154600a8381548110611bf357611bf2614741565b5b906000526020600020906007020160020154611c0f919061492b565b10155b15611c26578382611c239190614283565b91505b8080611c3190614996565b915050611b4b565b508091505092915050565b6000806000806000600a8681548110611c6057611c5f614741565b5b9060005260206000209060070201905080600501548160030154826002015483600601549450945094509450509193509193565b8160098181548110611ca957611ca8614741565b5b90600052602060002090600b0201600301544210611cfc576040517f08c379a0000000000000000000000000000000000000000000000000000000008152600401611cf390614a51565b60405180910390fd5b600073ffffffffffffffffffffffffffffffffffffffff163373ffffffffffffffffffffffffffffffffffffffff161415611d6c576040517f08c379a0000000000000000000000000000000000000000000000000000000008152600401611d6390614336565b60405180910390fd5b6000851015611db0576040517f08c379a0000000000000000000000000000000000000000000000000000000008152600401611da7906143a2565b60405180910390fd5b6000841015611df4576040517f08c379a0000000000000000000000000000000000000000000000000000000008152600401611deb906143a2565b60405180910390fd5b600160098481548110611e0a57611e09614741565b5b90600052602060002090600b02016004015414611e5c576040517f08c379a0000000000000000000000000000000000000000000000000000000008152600401611e5390614828565b60405180910390fd5b6001821415611f2757600260009054906101000a900473ffffffffffffffffffffffffffffffffffffffff1673ffffffffffffffffffffffffffffffffffffffff166323b872dd33308888611eb19190614283565b6040518463ffffffff1660e01b8152600401611ecf93929190614502565b602060405180830381600087803b158015611ee957600080fd5b505af1158015611efd573d6000803e3d6000fd5b505050506040513d601f19601f82011682018060405250810190611f219190614565565b506120fa565b6002821415611ff257600360009054906101000a900473ffffffffffffffffffffffffffffffffffffffff1673ffffffffffffffffffffffffffffffffffffffff166323b872dd33308888611f7c9190614283565b6040518463ffffffff1660e01b8152600401611f9a93929190614502565b602060405180830381600087803b158015611fb457600080fd5b505af1158015611fc8573d6000803e3d6000fd5b505050506040513d601f19601f82011682018060405250810190611fec9190614565565b506120f9565b60038214156120bd57600460009054906101000a900473ffffffffffffffffffffffffffffffffffffffff1673ffffffffffffffffffffffffffffffffffffffff166323b872dd333088886120479190614283565b6040518463ffffffff1660e01b815260040161206593929190614502565b602060405180830381600087803b15801561207f57600080fd5b505af1158015612093573d6000803e3d6000fd5b505050506040513d601f19601f820116820180604052508101906120b79190614565565b506120f8565b6040517f08c379a00000000000000000000000000000000000000000000000000000000081526004016120ef90614abd565b60405180910390fd5b5b5b600084111561235257836009848154811061211857612117614741565b5b90600052602060002090600b020160020160008282546121389190614283565b92505081905550600182141561218957836009848154811061215d5761215c614741565b5b90600052602060002090600b0201600801600082825461217d9190614283565b9250508190555061221b565b60028214156121d35783600984815481106121a7576121a6614741565b5b90600052602060002090600b020160090160008282546121c79190614283565b9250508190555061221a565b60038214156122195783600984815481106121f1576121f0614741565b5b90600052602060002090600b0201600a0160008282546122119190614283565b925050819055505b5b5b600b6040518060c00160405280600b8054905081526020018581526020013373ffffffffffffffffffffffffffffffffffffffff16815260200186815260200160008152602001848152509080600181540180825580915050600190039060005260206000209060060201600090919091909150600082015181600001556020820151816001015560408201518160020160006101000a81548173ffffffffffffffffffffffffffffffffffffffff021916908373ffffffffffffffffffffffffffffffffffffffff160217905550606082015181600301556080820151816004015560a0820151816005015550507f8d09c6745838fd32e92a7aec9e4c21f8fcc0ddf4300881dcffdbf060ba8bcff23385858560405161233f9493929190614add565b60405180910390a1612351838561361d565b5b600085111561249957600a6040518060e00160405280600a8054905081526020013373ffffffffffffffffffffffffffffffffffffffff16815260200187815260200160008152602001858152602001600181526020018481525090806001815401808255809150506001900390600052602060002090600702016000909190919091506000820151816000015560208201518160010160006101000a81548173ffffffffffffffffffffffffffffffffffffffff021916908373ffffffffffffffffffffffffffffffffffffffff16021790555060408201518160020155606082015181600301556080820151816004015560a0820151816005015560c0820151816006015550507f982b08aefe79525577026fc60aa3d85b642f6336a5078e50f2836434719770a5338685856040516124909493929190614add565b60405180910390a15b5050505050565b6000806000905060005b600a805490508110156125985784600a82815481106124cc576124cb614741565b5b90600052602060002090600702016004015414801561251057506001600a82815481106124fc576124fb614741565b5b906000526020600020906007020160050154145b8015612571575083600a828154811061252c5761252b614741565b5b906000526020600020906007020160030154600a838154811061255257612551614741565b5b90600052602060002090600702016002015461256e919061492b565b10155b1561258557818061258190614996565b9250505b808061259090614996565b9150506124aa565b508091505092915050565b6000806000905060005b600b805490508110156126095783600b82815481106125cf576125ce614741565b5b90600052602060002090600602016001015414156125f65781806125f290614996565b9250505b808061260190614996565b9150506125ad565b5080915050919050565b60026001541415612659576040517f08c379a0000000000000000000000000000000000000000000000000000000008152600401612650906147bc565b60405180910390fd5b600260018190555060016009828154811061267757612676614741565b5b90600052602060002090600b020160040154146126c9576040517f08c379a00000000000000000000000000000000000000000000000000000000081526004016126c090614828565b60405180910390fd5b600981815481106126dd576126dc614741565b5b90600052602060002090600b020160020154600260009054906101000a900473ffffffffffffffffffffffffffffffffffffffff1673ffffffffffffffffffffffffffffffffffffffff166370a08231306040518263ffffffff1660e01b815260040161274a9190613f15565b60206040518083038186803b15801561276257600080fd5b505afa158015612776573d6000803e3d6000fd5b505050506040513d601f19601f8201168201806040525081019061279a9190614469565b10156127db576040517f08c379a00000000000000000000000000000000000000000000000000000000081526004016127d290614b94565b60405180910390fd5b600981815481106127ef576127ee614741565b5b90600052602060002090600b020160010160009054906101000a900473ffffffffffffffffffffffffffffffffffffffff1673ffffffffffffffffffffffffffffffffffffffff163373ffffffffffffffffffffffffffffffffffffffff16148061288557503073ffffffffffffffffffffffffffffffffffffffff163373ffffffffffffffffffffffffffffffffffffffff16145b156131a75760005b600a80549050811015612cc65781600a82815481106128af576128ae614741565b5b9060005260206000209060070201600401541480156128f357506001600a82815481106128df576128de614741565b5b906000526020600020906007020160050154145b15612cb357600a818154811061290c5761290b614741565b5b906000526020600020906007020160030154600a828154811061293257612931614741565b5b9060005260206000209060070201600201541115612c2657600260009054906101000a900473ffffffffffffffffffffffffffffffffffffffff1673ffffffffffffffffffffffffffffffffffffffff1663095ea7b330600a848154811061299d5761299c614741565b5b9060005260206000209060070201600201546040518363ffffffff1660e01b81526004016129cc929190614848565b602060405180830381600087803b1580156129e657600080fd5b505af11580156129fa573d6000803e3d6000fd5b505050506040513d601f19601f82011682018060405250810190612a1e9190614565565b50600260009054906101000a900473ffffffffffffffffffffffffffffffffffffffff1673ffffffffffffffffffffffffffffffffffffffff166323b872dd30600a8481548110612a7257612a71614741565b5b906000526020600020906007020160010160009054906101000a900473ffffffffffffffffffffffffffffffffffffffff16600a8581548110612ab857612ab7614741565b5b9060005260206000209060070201600201546040518463ffffffff1660e01b8152600401612ae893929190614502565b602060405180830381600087803b158015612b0257600080fd5b505af1158015612b16573d6000803e3d6000fd5b505050506040513d601f19601f82011682018060405250810190612b3a9190614565565b507f98c105e3bc1ca4c7a99cdea9cd2e2c7a0fbf623404262d3dfd0a152545bd25ad600a8281548110612b7057612b6f614741565b5b906000526020600020906007020160010160009054906101000a900473ffffffffffffffffffffffffffffffffffffffff16600a8381548110612bb657612bb5614741565b5b90600052602060002090600702016002015460098481548110612bdc57612bdb614741565b5b90600052602060002090600b020160010160009054906101000a900473ffffffffffffffffffffffffffffffffffffffff16604051612c1d9392919061495f565b60405180910390a15b600a8181548110612c3a57612c39614741565b5b90600052602060002090600702016002015460098381548110612c6057612c5f614741565b5b90600052602060002090600b02016002016000828254612c80919061492b565b925050819055506002600a8281548110612c9d57612c9c614741565b5b9060005260206000209060070201600501819055505b8080612cbe90614996565b91505061288d565b5060005b600b8054905081101561306b5781600b8281548110612cec57612ceb614741565b5b906000526020600020906006020160010154148015612d3057506000600b8281548110612d1c57612d1b614741565b5b906000526020600020906006020160040154145b1561305857600260009054906101000a900473ffffffffffffffffffffffffffffffffffffffff1673ffffffffffffffffffffffffffffffffffffffff1663095ea7b330600b8481548110612d8857612d87614741565b5b9060005260206000209060060201600301546040518363ffffffff1660e01b8152600401612db7929190614848565b602060405180830381600087803b158015612dd157600080fd5b505af1158015612de5573d6000803e3d6000fd5b505050506040513d601f19601f82011682018060405250810190612e099190614565565b50600260009054906101000a900473ffffffffffffffffffffffffffffffffffffffff1673ffffffffffffffffffffffffffffffffffffffff166323b872dd30600b8481548110612e5d57612e5c614741565b5b906000526020600020906006020160020160009054906101000a900473ffffffffffffffffffffffffffffffffffffffff16600b8581548110612ea357612ea2614741565b5b9060005260206000209060060201600301546040518463ffffffff1660e01b8152600401612ed393929190614502565b602060405180830381600087803b158015612eed57600080fd5b505af1158015612f01573d6000803e3d6000fd5b505050506040513d601f19601f82011682018060405250810190612f259190614565565b50600b8181548110612f3a57612f39614741565b5b90600052602060002090600602016003015460098381548110612f6057612f5f614741565b5b90600052602060002090600b02016002016000828254612f80919061492b565b925050819055506002600b8281548110612f9d57612f9c614741565b5b9060005260206000209060060201600401819055507f2dc8e290002f06fc0085bbca9dfb8b415cf4d1178950c72ff9ee8f4d8878ee66600b8281548110612fe757612fe6614741565b5b906000526020600020906006020160020160009054906101000a900473ffffffffffffffffffffffffffffffffffffffff16600b838154811061302d5761302c614741565b5b9060005260206000209060060201600301548460405161304f93929190614592565b60405180910390a15b808061306390614996565b915050612cca565b5060006009828154811061308257613081614741565b5b90600052602060002090600b020160020154141561316d576002600982815481106130b0576130af614741565b5b90600052602060002090600b0201600401819055507f36ea5cd5608625e789af0282eecdb4eae1cb7c1cf6d0ec3f9a84f35be850260b600982815481106130fa576130f9614741565b5b90600052602060002090600b020160010160009054906101000a900473ffffffffffffffffffffffffffffffffffffffff16600983815481106131405761313f614741565b5b90600052602060002090600b020160000154604051613160929190614848565b60405180910390a16131a6565b7fadd9d74ee9c338ee8881c6d3644817247d1550a0488e3edb096f7fc0c4451853600160405161319d91906140bf565b60405180910390a15b5b6001808190555050565b6131b96134d3565b600073ffffffffffffffffffffffffffffffffffffffff168173ffffffffffffffffffffffffffffffffffffffff161415613229576040517f08c379a000000000000000000000000000000000000000000000000000000000815260040161322090614c26565b60405180910390fd5b61323281613559565b50565b600460009054906101000a900473ffffffffffffffffffffffffffffffffffffffff1681565b600560009054906101000a900473ffffffffffffffffffffffffffffffffffffffff1681565b600b818154811061329157600080fd5b90600052602060002090600602016000915090508060000154908060010154908060020160009054906101000a900473ffffffffffffffffffffffffffffffffffffffff16908060030154908060040154908060050154905086565b60026001541415613333576040517f08c379a000000000000000000000000000000000000000000000000000000000815260040161332a906147bc565b60405180910390fd5b60026001819055506000848481019061334c9190614c84565b905060007f000000000000000000000000000000000000000000000000000000000000000073ffffffffffffffffffffffffffffffffffffffff1663935b13f6856040518263ffffffff1660e01b81526004016133a99190614d28565b60206040518083038186803b1580156133c157600080fd5b505afa1580156133d5573d6000803e3d6000fd5b505050506040513d601f19601f820116820180604052508101906133f99190614d5f565b90508073ffffffffffffffffffffffffffffffffffffffff1663a9059cbb83856040518363ffffffff1660e01b8152600401613436929190614848565b602060405180830381600087803b15801561345057600080fd5b505af1158015613464573d6000803e3d6000fd5b505050506040513d601f19601f820116820180604052508101906134889190614565565b507f34bc3aa9b8dc05e10eb9220949706010c001d255263d3c1389c48e0aed5fcfb883856040516134ba929190614d8c565b60405180910390a1505060018081905550505050505050565b6134db613a90565b73ffffffffffffffffffffffffffffffffffffffff166134f9610fc9565b73ffffffffffffffffffffffffffffffffffffffff161461354f576040517f08c379a000000000000000000000000000000000000000000000000000000000815260040161354690614e08565b60405180910390fd5b565b505050505050565b60008060009054906101000a900473ffffffffffffffffffffffffffffffffffffffff169050816000806101000a81548173ffffffffffffffffffffffffffffffffffffffff021916908373ffffffffffffffffffffffffffffffffffffffff1602179055508173ffffffffffffffffffffffffffffffffffffffff168173ffffffffffffffffffffffffffffffffffffffff167f8be0079c531659141344cd1fd0a4f28419497f9722a3daafe3b4186f6b6457e060405160405180910390a35050565b60005b600a80549050811015613a8b5781600a828154811061364257613641614741565b5b906000526020600020906007020160030154600a838154811061366857613667614741565b5b906000526020600020906007020160020154613684919061492b565b101580156136b6575082600a82815481106136a2576136a1614741565b5b906000526020600020906007020160040154145b80156136e757506001600a82815481106136d3576136d2614741565b5b906000526020600020906007020160050154145b15613a785781600a828154811061370157613700614741565b5b906000526020600020906007020160030160008282546137219190614283565b92505081905550816009848154811061373d5761373c614741565b5b90600052602060002090600b0201600201600082825461375d9190614283565b925050819055506001600a828154811061377a57613779614741565b5b90600052602060002090600702016006015414156137d35781600984815481106137a7576137a6614741565b5b90600052602060002090600b020160080160008282546137c79190614283565b925050819055506138af565b6002600a82815481106137e9576137e8614741565b5b906000526020600020906007020160060154141561384257816009848154811061381657613815614741565b5b90600052602060002090600b020160090160008282546138369190614283565b925050819055506138ae565b6003600a828154811061385857613857614741565b5b90600052602060002090600702016006015414156138ad57816009848154811061388557613884614741565b5b90600052602060002090600b0201600a0160008282546138a59190614283565b925050819055505b5b5b600a81815481106138c3576138c2614741565b5b906000526020600020906007020160030154600a82815481106138e9576138e8614741565b5b90600052602060002090600702016002015414156139f7576002600a828154811061391757613916614741565b5b9060005260206000209060070201600501819055507f344f3c440bc0a199d8ebf3e014b04b0be7f494a3e35bc4c4b162dbf9edb24521600a828154811061396157613960614741565b5b906000526020600020906007020160010160009054906101000a900473ffffffffffffffffffffffffffffffffffffffff16600a83815481106139a7576139a6614741565b5b906000526020600020906007020160020154600a84815481106139cd576139cc614741565b5b9060005260206000209060070201600401546040516139ee93929190614592565b60405180910390a15b7ff8d3b803c2699d3e25440474a9089daa89195298415edaf5cb5ff73d4cad4d44600a8281548110613a2c57613a2b614741565b5b906000526020600020906007020160010160009054906101000a900473ffffffffffffffffffffffffffffffffffffffff168385604051613a6f93929190614592565b60405180910390a15b8080613a8390614996565b915050613620565b505050565b600033905090565b600080fd5b600080fd5b6000819050919050565b613ab581613aa2565b8114613ac057600080fd5b50565b600081359050613ad281613aac565b92915050565b600073ffffffffffffffffffffffffffffffffffffffff82169050919050565b6000613b0382613ad8565b9050919050565b613b1381613af8565b8114613b1e57600080fd5b50565b600081359050613b3081613b0a565b92915050565b600080600060608486031215613b4f57613b4e613a98565b5b6000613b5d86828701613ac3565b9350506020613b6e86828701613b21565b9250506040613b7f86828701613ac3565b9150509250925092565b6000819050919050565b6000613bae613ba9613ba484613ad8565b613b89565b613ad8565b9050919050565b6000613bc082613b93565b9050919050565b6000613bd282613bb5565b9050919050565b613be281613bc7565b82525050565b6000602082019050613bfd6000830184613bd9565b92915050565b600060208284031215613c1957613c18613a98565b5b6000613c2784828501613ac3565b91505092915050565b613c3981613aa2565b82525050565b613c4881613af8565b82525050565b600060e082019050613c63600083018a613c30565b613c706020830189613c3f565b613c7d6040830188613c30565b613c8a6060830187613c30565b613c976080830186613c30565b613ca460a0830185613c30565b613cb160c0830184613c30565b98975050505050505050565b6000819050919050565b613cd081613cbd565b8114613cdb57600080fd5b50565b600081359050613ced81613cc7565b92915050565b600080fd5b600080fd5b600080fd5b60008083601f840112613d1857613d17613cf3565b5b8235905067ffffffffffffffff811115613d3557613d34613cf8565b5b602083019150836001820283011115613d5157613d50613cfd565b5b9250929050565b60008083601f840112613d6e57613d6d613cf3565b5b8235905067ffffffffffffffff811115613d8b57613d8a613cf8565b5b602083019150836001820283011115613da757613da6613cfd565b5b9250929050565b60008060008060008060008060008060c08b8d031215613dd157613dd0613a98565b5b6000613ddf8d828e01613cde565b9a505060208b013567ffffffffffffffff811115613e0057613dff613a9d565b5b613e0c8d828e01613d02565b995099505060408b013567ffffffffffffffff811115613e2f57613e2e613a9d565b5b613e3b8d828e01613d02565b975097505060608b013567ffffffffffffffff811115613e5e57613e5d613a9d565b5b613e6a8d828e01613d58565b955095505060808b013567ffffffffffffffff811115613e8d57613e8c613a9d565b5b613e998d828e01613d02565b935093505060a0613eac8d828e01613ac3565b9150509295989b9194979a5092959850565b6000602082019050613ed36000830184613c30565b92915050565b6000613ee482613bb5565b9050919050565b613ef481613ed9565b82525050565b6000602082019050613f0f6000830184613eeb565b92915050565b6000602082019050613f2a6000830184613c3f565b92915050565b60008060008060008060006080888a031215613f4f57613f4e613a98565b5b6000613f5d8a828b01613cde565b975050602088013567ffffffffffffffff811115613f7e57613f7d613a9d565b5b613f8a8a828b01613d02565b9650965050604088013567ffffffffffffffff811115613fad57613fac613a9d565b5b613fb98a828b01613d02565b9450945050606088013567ffffffffffffffff811115613fdc57613fdb613a9d565b5b613fe88a828b01613d58565b925092505092959891949750929550565b60006101608201905061400f600083018e613c30565b61401c602083018d613c3f565b614029604083018c613c30565b614036606083018b613c30565b614043608083018a613c30565b61405060a0830189613c30565b61405d60c0830188613c30565b61406a60e0830187613c3f565b614078610100830186613c30565b614086610120830185613c30565b614094610140830184613c30565b9c9b505050505050505050505050565b60008115159050919050565b6140b9816140a4565b82525050565b60006020820190506140d460008301846140b0565b92915050565b600080604083850312156140f1576140f0613a98565b5b60006140ff85828601613ac3565b925050602061411085828601613ac3565b9150509250929050565b600060808201905061412f6000830187613c30565b61413c6020830186613c30565b6141496040830185613c30565b6141566060830184613c30565b95945050505050565b6000806000806080858703121561417957614178613a98565b5b600061418787828801613ac3565b945050602061419887828801613ac3565b93505060406141a987828801613ac3565b92505060606141ba87828801613ac3565b91505092959194509250565b6000602082840312156141dc576141db613a98565b5b60006141ea84828501613b21565b91505092915050565b600060c0820190506142086000830189613c30565b6142156020830188613c30565b6142226040830187613c3f565b61422f6060830186613c30565b61423c6080830185613c30565b61424960a0830184613c30565b979650505050505050565b7f4e487b7100000000000000000000000000000000000000000000000000000000600052601160045260246000fd5b600061428e82613aa2565b915061429983613aa2565b9250827fffffffffffffffffffffffffffffffffffffffffffffffffffffffffffffffff038211156142ce576142cd614254565b5b828201905092915050565b600082825260208201905092915050565b7f496e76616c696420616464726573730000000000000000000000000000000000600082015250565b6000614320600f836142d9565b915061432b826142ea565b602082019050919050565b6000602082019050818103600083015261434f81614313565b9050919050565b7f496e76616c696420616d6f756e74000000000000000000000000000000000000600082015250565b600061438c600e836142d9565b915061439782614356565b602082019050919050565b600060208201905081810360008301526143bb8161437f565b9050919050565b7f56616c7565206973206c6f776572207468616e206d696e696d756d20706f737360008201527f69626c6520616d6f756e74000000000000000000000000000000000000000000602082015250565b600061441e602b836142d9565b9150614429826143c2565b604082019050919050565b6000602082019050818103600083015261444d81614411565b9050919050565b60008151905061446381613aac565b92915050565b60006020828403121561447f5761447e613a98565b5b600061448d84828501614454565b91505092915050565b7f4e6f7420656e6f75676820746f6b656e20696e2077616c6c6574000000000000600082015250565b60006144cc601a836142d9565b91506144d782614496565b602082019050919050565b600060208201905081810360008301526144fb816144bf565b9050919050565b60006060820190506145176000830186613c3f565b6145246020830185613c3f565b6145316040830184613c30565b949350505050565b614542816140a4565b811461454d57600080fd5b50565b60008151905061455f81614539565b92915050565b60006020828403121561457b5761457a613a98565b5b600061458984828501614550565b91505092915050565b60006060820190506145a76000830186613c3f565b6145b46020830185613c30565b6145c16040830184613c30565b949350505050565b600081905092915050565b82818337600083830152505050565b60006145ef83856145c9565b93506145fc8385846145d4565b82840190509392505050565b60006146158284866145e3565b91508190509392505050565b61462a81613cbd565b82525050565b6000601f19601f8301169050919050565b600061464d83856142d9565b935061465a8385846145d4565b61466383614630565b840190509392505050565b600060c082019050614683600083018c614621565b8181036020830152614696818a8c614641565b905081810360408301526146ab81888a614641565b90506146ba6060830187614621565b81810360808301526146cd818587614641565b90506146dc60a0830184613c30565b9a9950505050505050505050565b60006080820190506146ff6000830189614621565b8181036020830152614712818789614641565b90508181036040830152614727818587614641565b90506147366060830184614621565b979650505050505050565b7f4e487b7100000000000000000000000000000000000000000000000000000000600052603260045260246000fd5b7f5265656e7472616e637947756172643a207265656e7472616e742063616c6c00600082015250565b60006147a6601f836142d9565b91506147b182614770565b602082019050919050565b600060208201905081810360008301526147d581614799565b9050919050565b7f46756e64206973206e6f74206163746976650000000000000000000000000000600082015250565b60006148126012836142d9565b915061481d826147dc565b602082019050919050565b6000602082019050818103600083015261484181614805565b9050919050565b600060408201905061485d6000830185613c3f565b61486a6020830184613c30565b9392505050565b600061487c82613aa2565b915061488783613aa2565b9250817fffffffffffffffffffffffffffffffffffffffffffffffffffffffffffffffff04831182151516156148c0576148bf614254565b5b828202905092915050565b7f4e487b7100000000000000000000000000000000000000000000000000000000600052601260045260246000fd5b600061490582613aa2565b915061491083613aa2565b9250826149205761491f6148cb565b5b828204905092915050565b600061493682613aa2565b915061494183613aa2565b92508282101561495457614953614254565b5b828203905092915050565b60006060820190506149746000830186613c3f565b6149816020830185613c30565b61498e6040830184613c3f565b949350505050565b60006149a182613aa2565b91507fffffffffffffffffffffffffffffffffffffffffffffffffffffffffffffffff8214156149d4576149d3614254565b5b600182019050919050565b7f446561646c696e6520666f722063726f776466756e64696e672068617320706160008201527f737365642e000000000000000000000000000000000000000000000000000000602082015250565b6000614a3b6025836142d9565b9150614a46826149df565b604082019050919050565b60006020820190508181036000830152614a6a81614a2e565b9050919050565b7f496e76616c69642063757272656e637900000000000000000000000000000000600082015250565b6000614aa76010836142d9565b9150614ab282614a71565b602082019050919050565b60006020820190508181036000830152614ad681614a9a565b9050919050565b6000608082019050614af26000830187613c3f565b614aff6020830186613c30565b614b0c6040830185613c30565b614b196060830184613c30565b95945050505050565b7f4e6f7420656e6f75676820746f6b656e7320696e2074686520636f6e7472616360008201527f7400000000000000000000000000000000000000000000000000000000000000602082015250565b6000614b7e6021836142d9565b9150614b8982614b22565b604082019050919050565b60006020820190508181036000830152614bad81614b71565b9050919050565b7f4f776e61626c653a206e6577206f776e657220697320746865207a65726f206160008201527f6464726573730000000000000000000000000000000000000000000000000000602082015250565b6000614c106026836142d9565b9150614c1b82614bb4565b604082019050919050565b60006020820190508181036000830152614c3f81614c03565b9050919050565b6000614c5182613ad8565b9050919050565b614c6181614c46565b8114614c6c57600080fd5b50565b600081359050614c7e81614c58565b92915050565b600060208284031215614c9a57614c99613a98565b5b6000614ca884828501614c6f565b91505092915050565b600081519050919050565b60005b83811015614cda578082015181840152602081019050614cbf565b83811115614ce9576000848401525b50505050565b6000614cfa82614cb1565b614d0481856142d9565b9350614d14818560208601614cbc565b614d1d81614630565b840191505092915050565b60006020820190508181036000830152614d428184614cef565b905092915050565b600081519050614d5981613b0a565b92915050565b600060208284031215614d7557614d74613a98565b5b6000614d8384828501614d4a565b91505092915050565b6000604082019050614da16000830185613c30565b8181036020830152614db38184614cef565b90509392505050565b7f4f776e61626c653a2063616c6c6572206973206e6f7420746865206f776e6572600082015250565b6000614df26020836142d9565b9150614dfd82614dbc565b602082019050919050565b60006020820190508181036000830152614e2181614de5565b905091905056fea2646970667358221220be7868cab64fa55bac6db427d3b07cd41c825fd57147f925c9e2c688a690a68164736f6c63430008090033",
  "linkReferences": {},
  "deployedLinkReferences": {}
}