{
  "_format": "hh-sol-artifact-1",
  "contractName": "Funding",
  "sourceName": "contracts/Funding.sol",
  "abi": [
    {
      "inputs": [
        {
          "internalType": "address",
          "name": "_gateway",
          "type": "address"
        },
        {
          "internalType": "address",
          "name": "tokenAddress",
          "type": "address"
        },
        {
          "internalType": "address",
          "name": "usdcAddress",
          "type": "address"
        }
      ],
      "stateMutability": "nonpayable",
      "type": "constructor"
    },
    {
      "inputs": [],
      "name": "InvalidAddress",
      "type": "error"
    },
    {
      "inputs": [],
      "name": "NotApprovedByGateway",
      "type": "error"
    },
    {
      "anonymous": false,
      "inputs": [
        {
          "indexed": false,
          "internalType": "uint256",
          "name": "amount",
          "type": "uint256"
        },
        {
          "indexed": false,
          "internalType": "string",
          "name": "symbol",
          "type": "string"
        }
      ],
      "name": "AxelarExecutionComplete",
      "type": "event"
    },
    {
      "anonymous": false,
      "inputs": [
        {
          "indexed": false,
          "internalType": "address",
          "name": "owner",
          "type": "address"
        },
        {
          "indexed": false,
          "internalType": "uint256",
          "name": "fundId",
          "type": "uint256"
        }
      ],
      "name": "Cancelled",
      "type": "event"
    },
    {
      "anonymous": false,
      "inputs": [
        {
          "indexed": false,
          "internalType": "address",
          "name": "owner",
          "type": "address"
        },
        {
          "indexed": false,
          "internalType": "uint256",
          "name": "balance",
          "type": "uint256"
        }
      ],
      "name": "Distributed",
      "type": "event"
    },
    {
      "anonymous": false,
      "inputs": [
        {
          "indexed": false,
          "internalType": "address",
          "name": "donator",
          "type": "address"
        },
        {
          "indexed": false,
          "internalType": "uint256",
          "name": "amount",
          "type": "uint256"
        },
        {
          "indexed": false,
          "internalType": "uint256",
          "name": "fundId",
          "type": "uint256"
        }
      ],
      "name": "Donated",
      "type": "event"
    },
    {
      "anonymous": false,
      "inputs": [
        {
          "indexed": false,
          "internalType": "address",
          "name": "owner",
          "type": "address"
        },
        {
          "indexed": false,
          "internalType": "uint256",
          "name": "cap",
          "type": "uint256"
        },
        {
          "indexed": false,
          "internalType": "uint256",
          "name": "id",
          "type": "uint256"
        }
      ],
      "name": "FundCreated",
      "type": "event"
    },
    {
      "anonymous": false,
      "inputs": [
        {
          "indexed": false,
          "internalType": "address",
          "name": "project",
          "type": "address"
        },
        {
          "indexed": false,
          "internalType": "uint256",
          "name": "fee",
          "type": "uint256"
        }
      ],
      "name": "FundingFee",
      "type": "event"
    },
    {
      "anonymous": false,
      "inputs": [
        {
          "indexed": false,
          "internalType": "address",
          "name": "owner",
          "type": "address"
        },
        {
          "indexed": false,
          "internalType": "uint256",
          "name": "cap",
          "type": "uint256"
        },
        {
          "indexed": false,
          "internalType": "uint256",
          "name": "fundId",
          "type": "uint256"
        }
      ],
      "name": "MicroClosed",
      "type": "event"
    },
    {
      "anonymous": false,
      "inputs": [
        {
          "indexed": false,
          "internalType": "address",
          "name": "owner",
          "type": "address"
        },
        {
          "indexed": false,
          "internalType": "uint256",
          "name": "cap",
          "type": "uint256"
        },
        {
          "indexed": false,
          "internalType": "uint256",
          "name": "fundId",
          "type": "uint256"
        }
      ],
      "name": "MicroCreated",
      "type": "event"
    },
    {
      "anonymous": false,
      "inputs": [
        {
          "indexed": false,
          "internalType": "address",
          "name": "owner",
          "type": "address"
        },
        {
          "indexed": false,
          "internalType": "uint256",
          "name": "amount",
          "type": "uint256"
        },
        {
          "indexed": false,
          "internalType": "uint256",
          "name": "fundId",
          "type": "uint256"
        }
      ],
      "name": "MicroDrained",
      "type": "event"
    },
    {
      "anonymous": false,
      "inputs": [
        {
          "indexed": true,
          "internalType": "address",
          "name": "previousOwner",
          "type": "address"
        },
        {
          "indexed": true,
          "internalType": "address",
          "name": "newOwner",
          "type": "address"
        }
      ],
      "name": "OwnershipTransferred",
      "type": "event"
    },
    {
      "anonymous": false,
      "inputs": [
        {
          "indexed": false,
          "internalType": "address",
          "name": "backer",
          "type": "address"
        },
        {
          "indexed": false,
          "internalType": "uint256",
          "name": "amount",
          "type": "uint256"
        },
        {
          "indexed": false,
          "internalType": "uint256",
          "name": "fundId",
          "type": "uint256"
        }
      ],
      "name": "Refunded",
      "type": "event"
    },
    {
      "anonymous": false,
      "inputs": [
        {
          "indexed": false,
          "internalType": "address",
          "name": "microOwner",
          "type": "address"
        },
        {
          "indexed": false,
          "internalType": "uint256",
          "name": "balance",
          "type": "uint256"
        },
        {
          "indexed": false,
          "internalType": "address",
          "name": "fundOwner",
          "type": "address"
        }
      ],
      "name": "Returned",
      "type": "event"
    },
    {
      "anonymous": false,
      "inputs": [
        {
          "indexed": false,
          "internalType": "address",
          "name": "owner",
          "type": "address"
        },
        {
          "indexed": false,
          "internalType": "uint256",
          "name": "id",
          "type": "uint256"
        }
      ],
      "name": "TokenFundCompleted",
      "type": "event"
    },
    {
      "anonymous": false,
      "inputs": [
        {
          "indexed": false,
          "internalType": "address",
          "name": "owner",
          "type": "address"
        },
        {
          "indexed": false,
          "internalType": "uint256",
          "name": "cap",
          "type": "uint256"
        },
        {
          "indexed": false,
          "internalType": "uint256",
          "name": "id",
          "type": "uint256"
        },
        {
          "indexed": false,
          "internalType": "address",
          "name": "token",
          "type": "address"
        }
      ],
      "name": "TokenFundCreated",
      "type": "event"
    },
    {
      "inputs": [],
      "name": "batchDistribute",
      "outputs": [],
      "stateMutability": "nonpayable",
      "type": "function"
    },
    {
      "inputs": [
        {
          "internalType": "uint256",
          "name": "_index",
          "type": "uint256"
        },
        {
          "internalType": "uint256",
          "name": "_amount",
          "type": "uint256"
        }
      ],
      "name": "calcInvolvedMicros",
      "outputs": [
        {
          "internalType": "uint256",
          "name": "",
          "type": "uint256"
        }
      ],
      "stateMutability": "view",
      "type": "function"
    },
    {
      "inputs": [
        {
          "internalType": "uint256",
          "name": "_index",
          "type": "uint256"
        },
        {
          "internalType": "uint256",
          "name": "_amount",
          "type": "uint256"
        }
      ],
      "name": "calcOutcome",
      "outputs": [
        {
          "internalType": "uint256",
          "name": "",
          "type": "uint256"
        }
      ],
      "stateMutability": "view",
      "type": "function"
    },
    {
      "inputs": [
        {
          "internalType": "uint256",
          "name": "_id",
          "type": "uint256"
        }
      ],
      "name": "cancelFund",
      "outputs": [],
      "stateMutability": "nonpayable",
      "type": "function"
    },
    {
      "inputs": [
        {
          "internalType": "uint256",
          "name": "_fee",
          "type": "uint256"
        }
      ],
      "name": "changeFee",
      "outputs": [],
      "stateMutability": "nonpayable",
      "type": "function"
    },
    {
      "inputs": [
        {
          "internalType": "uint256",
          "name": "_amountM",
          "type": "uint256"
        },
        {
          "internalType": "uint256",
          "name": "_amountD",
          "type": "uint256"
        },
        {
          "internalType": "uint256",
          "name": "_id",
          "type": "uint256"
        }
      ],
      "name": "contribute",
      "outputs": [],
      "stateMutability": "nonpayable",
      "type": "function"
    },
    {
      "inputs": [
        {
          "internalType": "uint256",
          "name": "_level1",
          "type": "uint256"
        }
      ],
      "name": "createFund",
      "outputs": [],
      "stateMutability": "nonpayable",
      "type": "function"
    },
    {
      "inputs": [
        {
          "internalType": "uint256",
          "name": "_level1",
          "type": "uint256"
        },
        {
          "internalType": "uint256",
          "name": "_amount",
          "type": "uint256"
        },
        {
          "internalType": "address",
          "name": "_tokenAddress",
          "type": "address"
        }
      ],
      "name": "createTokenFund",
      "outputs": [],
      "stateMutability": "nonpayable",
      "type": "function"
    },
    {
      "inputs": [
        {
          "internalType": "uint256",
          "name": "_id",
          "type": "uint256"
        }
      ],
      "name": "distribute",
      "outputs": [],
      "stateMutability": "nonpayable",
      "type": "function"
    },
    {
      "inputs": [
        {
          "internalType": "uint256",
          "name": "_id",
          "type": "uint256"
        }
      ],
      "name": "distributeTokenReward",
      "outputs": [],
      "stateMutability": "nonpayable",
      "type": "function"
    },
    {
      "inputs": [
        {
          "internalType": "uint256",
          "name": "",
          "type": "uint256"
        }
      ],
      "name": "donations",
      "outputs": [
        {
          "internalType": "uint256",
          "name": "id",
          "type": "uint256"
        },
        {
          "internalType": "uint256",
          "name": "fundId",
          "type": "uint256"
        },
        {
          "internalType": "address",
          "name": "backer",
          "type": "address"
        },
        {
          "internalType": "uint256",
          "name": "amount",
          "type": "uint256"
        },
        {
          "internalType": "uint256",
          "name": "state",
          "type": "uint256"
        }
      ],
      "stateMutability": "view",
      "type": "function"
    },
    {
      "inputs": [
        {
          "internalType": "bytes32",
          "name": "commandId",
          "type": "bytes32"
        },
        {
          "internalType": "string",
          "name": "sourceChain",
          "type": "string"
        },
        {
          "internalType": "string",
          "name": "sourceAddress",
          "type": "string"
        },
        {
          "internalType": "bytes",
          "name": "payload",
          "type": "bytes"
        }
      ],
      "name": "execute",
      "outputs": [],
      "stateMutability": "nonpayable",
      "type": "function"
    },
    {
      "inputs": [
        {
          "internalType": "bytes32",
          "name": "commandId",
          "type": "bytes32"
        },
        {
          "internalType": "string",
          "name": "sourceChain",
          "type": "string"
        },
        {
          "internalType": "string",
          "name": "sourceAddress",
          "type": "string"
        },
        {
          "internalType": "bytes",
          "name": "payload",
          "type": "bytes"
        },
        {
          "internalType": "string",
          "name": "tokenSymbol",
          "type": "string"
        },
        {
          "internalType": "uint256",
          "name": "amount",
          "type": "uint256"
        }
      ],
      "name": "executeWithToken",
      "outputs": [],
      "stateMutability": "nonpayable",
      "type": "function"
    },
    {
      "inputs": [],
      "name": "feeAddress",
      "outputs": [
        {
          "internalType": "address",
          "name": "",
          "type": "address"
        }
      ],
      "stateMutability": "view",
      "type": "function"
    },
    {
      "inputs": [
        {
          "internalType": "uint256",
          "name": "",
          "type": "uint256"
        }
      ],
      "name": "funds",
      "outputs": [
        {
          "internalType": "uint256",
          "name": "id",
          "type": "uint256"
        },
        {
          "internalType": "address",
          "name": "owner",
          "type": "address"
        },
        {
          "internalType": "uint256",
          "name": "balance",
          "type": "uint256"
        },
        {
          "internalType": "uint256",
          "name": "deadline",
          "type": "uint256"
        },
        {
          "internalType": "uint256",
          "name": "state",
          "type": "uint256"
        },
        {
          "internalType": "uint256",
          "name": "currency",
          "type": "uint256"
        },
        {
          "internalType": "uint256",
          "name": "level1",
          "type": "uint256"
        },
        {
          "internalType": "uint256",
          "name": "level2",
          "type": "uint256"
        },
        {
          "internalType": "uint256",
          "name": "level3",
          "type": "uint256"
        },
        {
          "internalType": "uint256",
          "name": "level4",
          "type": "uint256"
        },
        {
          "internalType": "uint256",
          "name": "level5",
          "type": "uint256"
        }
      ],
      "stateMutability": "view",
      "type": "function"
    },
    {
      "inputs": [],
      "name": "gateway",
      "outputs": [
        {
          "internalType": "contract IAxelarGateway",
          "name": "",
          "type": "address"
        }
      ],
      "stateMutability": "view",
      "type": "function"
    },
    {
      "inputs": [
        {
          "internalType": "uint256",
          "name": "_index",
          "type": "uint256"
        }
      ],
      "name": "getBackers",
      "outputs": [
        {
          "internalType": "uint256",
          "name": "",
          "type": "uint256"
        }
      ],
      "stateMutability": "view",
      "type": "function"
    },
    {
      "inputs": [
        {
          "internalType": "uint256",
          "name": "_index",
          "type": "uint256"
        }
      ],
      "name": "getConnectedMicroFunds",
      "outputs": [
        {
          "internalType": "uint256",
          "name": "",
          "type": "uint256"
        }
      ],
      "stateMutability": "view",
      "type": "function"
    },
    {
      "inputs": [
        {
          "internalType": "uint256",
          "name": "_index",
          "type": "uint256"
        }
      ],
      "name": "getFundBalance",
      "outputs": [
        {
          "internalType": "uint256",
          "name": "",
          "type": "uint256"
        }
      ],
      "stateMutability": "view",
      "type": "function"
    },
    {
      "inputs": [
        {
          "internalType": "uint256",
          "name": "_index",
          "type": "uint256"
        }
      ],
      "name": "getFundCap",
      "outputs": [
        {
          "internalType": "uint256",
          "name": "",
          "type": "uint256"
        }
      ],
      "stateMutability": "view",
      "type": "function"
    },
    {
      "inputs": [
        {
          "internalType": "uint256",
          "name": "_index",
          "type": "uint256"
        }
      ],
      "name": "getFundDeadline",
      "outputs": [
        {
          "internalType": "uint256",
          "name": "",
          "type": "uint256"
        }
      ],
      "stateMutability": "view",
      "type": "function"
    },
    {
      "inputs": [
        {
          "internalType": "uint256",
          "name": "_index",
          "type": "uint256"
        }
      ],
      "name": "getMicroFundInfo",
      "outputs": [
        {
          "internalType": "uint256",
          "name": "state",
          "type": "uint256"
        },
        {
          "internalType": "uint256",
          "name": "max",
          "type": "uint256"
        },
        {
          "internalType": "uint256",
          "name": "balance",
          "type": "uint256"
        }
      ],
      "stateMutability": "view",
      "type": "function"
    },
    {
      "inputs": [
        {
          "internalType": "uint256",
          "name": "",
          "type": "uint256"
        }
      ],
      "name": "microFunds",
      "outputs": [
        {
          "internalType": "uint256",
          "name": "microId",
          "type": "uint256"
        },
        {
          "internalType": "address",
          "name": "owner",
          "type": "address"
        },
        {
          "internalType": "uint256",
          "name": "cap",
          "type": "uint256"
        },
        {
          "internalType": "uint256",
          "name": "microBalance",
          "type": "uint256"
        },
        {
          "internalType": "uint256",
          "name": "fundId",
          "type": "uint256"
        },
        {
          "internalType": "uint256",
          "name": "state",
          "type": "uint256"
        }
      ],
      "stateMutability": "view",
      "type": "function"
    },
    {
      "inputs": [],
      "name": "minAmount",
      "outputs": [
        {
          "internalType": "uint256",
          "name": "",
          "type": "uint256"
        }
      ],
      "stateMutability": "view",
      "type": "function"
    },
    {
      "inputs": [],
      "name": "owner",
      "outputs": [
        {
          "internalType": "address",
          "name": "",
          "type": "address"
        }
      ],
      "stateMutability": "view",
      "type": "function"
    },
    {
      "inputs": [],
      "name": "platformFee",
      "outputs": [
        {
          "internalType": "uint256",
          "name": "",
          "type": "uint256"
        }
      ],
      "stateMutability": "view",
      "type": "function"
    },
    {
      "inputs": [],
      "name": "renounceOwnership",
      "outputs": [],
      "stateMutability": "nonpayable",
      "type": "function"
    },
    {
      "inputs": [
        {
          "internalType": "uint256",
          "name": "_min",
          "type": "uint256"
        }
      ],
      "name": "setMinimum",
      "outputs": [],
      "stateMutability": "nonpayable",
      "type": "function"
    },
    {
      "inputs": [],
      "name": "token",
      "outputs": [
        {
          "internalType": "contract IERC20",
          "name": "",
          "type": "address"
        }
      ],
      "stateMutability": "view",
      "type": "function"
    },
    {
      "inputs": [
        {
          "internalType": "uint256",
          "name": "",
          "type": "uint256"
        }
      ],
      "name": "tokenFunds",
      "outputs": [
        {
          "internalType": "uint256",
          "name": "id",
          "type": "uint256"
        },
        {
          "internalType": "address",
          "name": "owner",
          "type": "address"
        },
        {
          "internalType": "uint256",
          "name": "balance",
          "type": "uint256"
        },
        {
          "internalType": "uint256",
          "name": "deadline",
          "type": "uint256"
        },
        {
          "internalType": "uint256",
          "name": "state",
          "type": "uint256"
        },
        {
          "internalType": "uint256",
          "name": "reward",
          "type": "uint256"
        },
        {
          "internalType": "uint256",
          "name": "level1",
          "type": "uint256"
        }
      ],
      "stateMutability": "view",
      "type": "function"
    },
    {
      "inputs": [
        {
          "internalType": "address",
          "name": "newOwner",
          "type": "address"
        }
      ],
      "name": "transferOwnership",
      "outputs": [],
      "stateMutability": "nonpayable",
      "type": "function"
    },
    {
      "inputs": [],
      "name": "usdc",
      "outputs": [
        {
          "internalType": "contract IERC20",
          "name": "",
          "type": "address"
        }
      ],
      "stateMutability": "view",
      "type": "function"
    }
  ],
  "bytecode": "0x60c060405273c21223249ca28397b4b6541dffaecc539bff0c59600460006101000a81548173ffffffffffffffffffffffffffffffffffffffff021916908373ffffffffffffffffffffffffffffffffffffffff1602179055506001600555600160065573be406f0189a0b4cf3a05c286473d23791dd44cc673ffffffffffffffffffffffffffffffffffffffff1660a09073ffffffffffffffffffffffffffffffffffffffff16815250348015620000b757600080fd5b5060405162005c7f38038062005c7f8339818101604052810190620000dd919062000363565b82620000fe620000f26200022d60201b60201c565b6200023560201b60201c565b60018081905550600073ffffffffffffffffffffffffffffffffffffffff168173ffffffffffffffffffffffffffffffffffffffff1614156200016d576040517fe6c4247b00000000000000000000000000000000000000000000000000000000815260040160405180910390fd5b8073ffffffffffffffffffffffffffffffffffffffff1660808173ffffffffffffffffffffffffffffffffffffffff16815250505081600260006101000a81548173ffffffffffffffffffffffffffffffffffffffff021916908373ffffffffffffffffffffffffffffffffffffffff16021790555080600360006101000a81548173ffffffffffffffffffffffffffffffffffffffff021916908373ffffffffffffffffffffffffffffffffffffffff160217905550505050620003bf565b600033905090565b60008060009054906101000a900473ffffffffffffffffffffffffffffffffffffffff169050816000806101000a81548173ffffffffffffffffffffffffffffffffffffffff021916908373ffffffffffffffffffffffffffffffffffffffff1602179055508173ffffffffffffffffffffffffffffffffffffffff168173ffffffffffffffffffffffffffffffffffffffff167f8be0079c531659141344cd1fd0a4f28419497f9722a3daafe3b4186f6b6457e060405160405180910390a35050565b600080fd5b600073ffffffffffffffffffffffffffffffffffffffff82169050919050565b60006200032b82620002fe565b9050919050565b6200033d816200031e565b81146200034957600080fd5b50565b6000815190506200035d8162000332565b92915050565b6000806000606084860312156200037f576200037e620002f9565b5b60006200038f868287016200034c565b9350506020620003a2868287016200034c565b9250506040620003b5868287016200034c565b9150509250925092565b60805160a051615888620003f7600039600050506000818161066c0152818161071801528181610bad0152613c1201526158886000f3fe608060405234801561001057600080fd5b50600436106101f05760003560e01c80637d98adaf1161010f578063be7aec53116100a2578063f2fde38b11610071578063f2fde38b146105f2578063f8626af81461060e578063fc0c546a14610642578063ff8c55dd14610660576101f0565b8063be7aec531461055a578063c9168b721461058a578063d0fa2486146105ba578063e4810524146105d6576101f0565b80639b2cb5d8116100de5780639b2cb5d8146104aa578063a4f10f0e146104c8578063b318c837146104f8578063b7fa105614610528576101f0565b80637d98adaf146104245780638da5cb5b1461044057806391c05b0b1461045e57806396413b621461047a576101f0565b806342fa071311610187578063679585531161015657806367958553146103945780636a1db1bf146103c4578063715018a6146103e05780637b8e8895146103ea576101f0565b806342fa071314610310578063491606581461032c5780636266d5fb146103485780636590108c14610378576101f0565b806326232a2e116101c357806326232a2e1461029a5780633209e9e6146102b85780633e413bee146102d457806341275358146102f2576101f0565b8063116191b6146101f557806316055fa8146102135780631a98b2e014610248578063252a999614610264575b600080fd5b6101fd61066a565b60405161020a919061428c565b60405180910390f35b61022d600480360381019061022891906142e7565b61068e565b60405161023f96959493929190614344565b60405180910390f35b610262600480360381019061025d9190614496565b6106fa565b005b61027e600480360381019061027991906142e7565b610825565b60405161029197969594939291906145a6565b60405180910390f35b6102a2610897565b6040516102af9190614615565b60405180910390f35b6102d260048036038101906102cd91906142e7565b61089d565b005b6102dc6108af565b6040516102e99190614651565b60405180910390f35b6102fa6108d5565b604051610307919061466c565b60405180910390f35b61032a600480360381019061032591906142e7565b6108fb565b005b61034660048036038101906103419190614687565b610b8f565b005b610362600480360381019061035d91906142e7565b610cae565b60405161036f9190614615565b60405180910390f35b610392600480360381019061038d919061477c565b610cdd565b005b6103ae60048036038101906103a991906142e7565b611157565b6040516103bb9190614615565b60405180910390f35b6103de60048036038101906103d991906142e7565b611186565b005b6103e8611198565b005b61040460048036038101906103ff91906142e7565b6111ac565b60405161041b9b9a999897969594939291906147cf565b60405180910390f35b61043e6004803603810190610439919061487a565b611236565b005b6104486118bf565b604051610455919061466c565b60405180910390f35b610478600480360381019061047391906142e7565b6118e8565b005b610494600480360381019061048f91906142e7565b612380565b6040516104a19190614615565b60405180910390f35b6104b26123af565b6040516104bf9190614615565b60405180910390f35b6104e260048036038101906104dd91906142e7565b6123b5565b6040516104ef9190614615565b60405180910390f35b610512600480360381019061050d91906148cd565b612425565b60405161051f9190614615565b60405180910390f35b610542600480360381019061053d91906142e7565b612536565b6040516105519392919061490d565b60405180910390f35b610574600480360381019061056f91906148cd565b61257d565b6040516105819190614615565b60405180910390f35b6105a4600480360381019061059f91906142e7565b612680565b6040516105b19190614615565b60405180910390f35b6105d460048036038101906105cf91906142e7565b6126f0565b005b6105f060048036038101906105eb91906142e7565b612cec565b005b61060c60048036038101906106079190614944565b613929565b005b610628600480360381019061062391906142e7565b6139ad565b604051610639959493929190614971565b60405180910390f35b61064a613a13565b6040516106579190614651565b60405180910390f35b610668613a39565b005b7f000000000000000000000000000000000000000000000000000000000000000081565b600a818154811061069e57600080fd5b90600052602060002090600602016000915090508060000154908060010160009054906101000a900473ffffffffffffffffffffffffffffffffffffffff16908060020154908060030154908060040154908060050154905086565b6000858560405161070c929190614a03565b604051809103902090507f000000000000000000000000000000000000000000000000000000000000000073ffffffffffffffffffffffffffffffffffffffff16631876eed98c8c8c8c8c878b8b8b6040518a63ffffffff1660e01b815260040161077f99989796959493929190614a7a565b602060405180830381600087803b15801561079957600080fd5b505af11580156107ad573d6000803e3d6000fd5b505050506040513d601f19601f820116820180604052508101906107d19190614b2e565b610807576040517f500c44b400000000000000000000000000000000000000000000000000000000815260040160405180910390fd5b6108188a8a8a8a8a8a8a8a8a613bad565b5050505050505050505050565b6008818154811061083557600080fd5b90600052602060002090600702016000915090508060000154908060010160009054906101000a900473ffffffffffffffffffffffffffffffffffffffff16908060020154908060030154908060040154908060050154908060060154905087565b60065481565b6108a5613d93565b8060058190555050565b600360009054906101000a900473ffffffffffffffffffffffffffffffffffffffff1681565b600460009054906101000a900473ffffffffffffffffffffffffffffffffffffffff1681565b600062278d004261090c9190614b8a565b9050600073ffffffffffffffffffffffffffffffffffffffff163373ffffffffffffffffffffffffffffffffffffffff16141561097e576040517f08c379a000000000000000000000000000000000000000000000000000000000815260040161097590614c2c565b60405180910390fd5b600082116109c1576040517f08c379a00000000000000000000000000000000000000000000000000000000081526004016109b890614c98565b60405180910390fd5b600554821015610a06576040517f08c379a00000000000000000000000000000000000000000000000000000000081526004016109fd90614d2a565b60405180910390fd5b600960405180610160016040528060098054905081526020013373ffffffffffffffffffffffffffffffffffffffff1681526020016000815260200183815260200160018152602001600081526020018481526020018481526020018481526020018481526020018481525090806001815401808255809150506001900390600052602060002090600b02016000909190919091506000820151816000015560208201518160010160006101000a81548173ffffffffffffffffffffffffffffffffffffffff021916908373ffffffffffffffffffffffffffffffffffffffff16021790555060408201518160020155606082015181600301556080820151816004015560a0820151816005015560c0820151816006015560e082015181600701556101008201518160080155610120820151816009015561014082015181600a015550507ff18ce1b70b1a4044491b54196c83d95e67aae09483ce0d2e1c2a8189faca76443383600980549050604051610b8393929190614d4a565b60405180910390a15050565b60008282604051610ba1929190614a03565b604051809103902090507f000000000000000000000000000000000000000000000000000000000000000073ffffffffffffffffffffffffffffffffffffffff16635f6970c38989898989876040518763ffffffff1660e01b8152600401610c0e96959493929190614d81565b602060405180830381600087803b158015610c2857600080fd5b505af1158015610c3c573d6000803e3d6000fd5b505050506040513d601f19601f82011682018060405250810190610c609190614b2e565b610c96576040517f500c44b400000000000000000000000000000000000000000000000000000000815260040160405180910390fd5b610ca4878787878787613e11565b5050505050505050565b600060098281548110610cc457610cc3614dd8565b5b90600052602060002090600b0201600601549050919050565b600062278d0042610cee9190614b8a565b90506103e88411610d34576040517f08c379a0000000000000000000000000000000000000000000000000000000008152600401610d2b90614e53565b60405180910390fd5b60648311610d77576040517f08c379a0000000000000000000000000000000000000000000000000000000008152600401610d6e90614ee5565b60405180910390fd5b600073ffffffffffffffffffffffffffffffffffffffff168273ffffffffffffffffffffffffffffffffffffffff161415610de7576040517f08c379a0000000000000000000000000000000000000000000000000000000008152600401610dde90614f51565b60405180910390fd5b428111610e29576040517f08c379a0000000000000000000000000000000000000000000000000000000008152600401610e2090614fbd565b60405180910390fd5b81600760006101000a81548173ffffffffffffffffffffffffffffffffffffffff021916908373ffffffffffffffffffffffffffffffffffffffff1602179055506000600260009054906101000a900473ffffffffffffffffffffffffffffffffffffffff1673ffffffffffffffffffffffffffffffffffffffff166370a08231336040518263ffffffff1660e01b8152600401610ec7919061466c565b60206040518083038186803b158015610edf57600080fd5b505afa158015610ef3573d6000803e3d6000fd5b505050506040513d601f19601f82011682018060405250810190610f179190614ff2565b905080841115610f5c576040517f08c379a0000000000000000000000000000000000000000000000000000000008152600401610f539061506b565b60405180910390fd5b600260009054906101000a900473ffffffffffffffffffffffffffffffffffffffff1673ffffffffffffffffffffffffffffffffffffffff166323b872dd3330876040518463ffffffff1660e01b8152600401610fbb9392919061508b565b602060405180830381600087803b158015610fd557600080fd5b505af1158015610fe9573d6000803e3d6000fd5b505050506040513d601f19601f8201168201806040525081019061100d9190614b2e565b5060086040518060e0016040528060088054905081526020013373ffffffffffffffffffffffffffffffffffffffff16815260200160008152602001848152602001600181526020018681526020018781525090806001815401808255809150506001900390600052602060002090600702016000909190919091506000820151816000015560208201518160010160006101000a81548173ffffffffffffffffffffffffffffffffffffffff021916908373ffffffffffffffffffffffffffffffffffffffff16021790555060408201518160020155606082015181600301556080820151816004015560a0820151816005015560c0820151816006015550507f995c56f3643d06109399bc43ef727fc98f3178fd8dd598557a87bfa5f0d73b2533866008805490508660405161114894939291906150c2565b60405180910390a15050505050565b60006009828154811061116d5761116c614dd8565b5b90600052602060002090600b0201600301549050919050565b61118e613d93565b8060068190555050565b6111a0613d93565b6111aa6000613e19565b565b600981815481106111bc57600080fd5b90600052602060002090600b02016000915090508060000154908060010160009054906101000a900473ffffffffffffffffffffffffffffffffffffffff169080600201549080600301549080600401549080600501549080600601549080600701549080600801549080600901549080600a015490508b565b806009818154811061124b5761124a614dd8565b5b90600052602060002090600b020160030154421061129e576040517f08c379a000000000000000000000000000000000000000000000000000000000815260040161129590615179565b60405180910390fd5b600073ffffffffffffffffffffffffffffffffffffffff163373ffffffffffffffffffffffffffffffffffffffff16141561130e576040517f08c379a000000000000000000000000000000000000000000000000000000000815260040161130590614c2c565b60405180910390fd5b6000841015611352576040517f08c379a000000000000000000000000000000000000000000000000000000000815260040161134990614c98565b60405180910390fd5b6000831015611396576040517f08c379a000000000000000000000000000000000000000000000000000000000815260040161138d90614c98565b60405180910390fd5b6001600983815481106113ac576113ab614dd8565b5b90600052602060002090600b020160040154146113fe576040517f08c379a00000000000000000000000000000000000000000000000000000000081526004016113f5906151e5565b60405180910390fd5b60006009838154811061141457611413614dd8565b5b90600052602060002090600b02016005015414156114ee57600260009054906101000a900473ffffffffffffffffffffffffffffffffffffffff1673ffffffffffffffffffffffffffffffffffffffff166323b872dd333087876114789190614b8a565b6040518463ffffffff1660e01b81526004016114969392919061508b565b602060405180830381600087803b1580156114b057600080fd5b505af11580156114c4573d6000803e3d6000fd5b505050506040513d601f19601f820116820180604052508101906114e89190614b2e565b5061161a565b60016009838154811061150457611503614dd8565b5b90600052602060002090600b02016005015414156115de57600360009054906101000a900473ffffffffffffffffffffffffffffffffffffffff1673ffffffffffffffffffffffffffffffffffffffff166323b872dd333087876115689190614b8a565b6040518463ffffffff1660e01b81526004016115869392919061508b565b602060405180830381600087803b1580156115a057600080fd5b505af11580156115b4573d6000803e3d6000fd5b505050506040513d601f19601f820116820180604052508101906115d89190614b2e565b50611619565b6040517f08c379a000000000000000000000000000000000000000000000000000000000815260040161161090615251565b60405180910390fd5b5b600083111561178457826009838154811061163857611637614dd8565b5b90600052602060002090600b020160020160008282546116589190614b8a565b92505081905550600b6040518060a00160405280600b8054905081526020018481526020013373ffffffffffffffffffffffffffffffffffffffff16815260200185815260200160008152509080600181540180825580915050600190039060005260206000209060050201600090919091909150600082015181600001556020820151816001015560408201518160020160006101000a81548173ffffffffffffffffffffffffffffffffffffffff021916908373ffffffffffffffffffffffffffffffffffffffff160217905550606082015181600301556080820151816004015550507f4928895ba6723e8e27b15f32e4c3054a1b6c7f8c03f133558d6fa42b3928d14c33848460405161177193929190614d4a565b60405180910390a16117838284613edd565b5b60008411156118b957600a6040518060c00160405280600a8054905081526020013373ffffffffffffffffffffffffffffffffffffffff16815260200186815260200160008152602001848152602001600181525090806001815401808255809150506001900390600052602060002090600602016000909190919091506000820151816000015560208201518160010160006101000a81548173ffffffffffffffffffffffffffffffffffffffff021916908373ffffffffffffffffffffffffffffffffffffffff16021790555060408201518160020155606082015181600301556080820151816004015560a0820151816005015550507ff063c0df9b2896b63568ae0044926eceb22a0eb7a0d0407b01d58c9ef81de6d43385846040516118b093929190614d4a565b60405180910390a15b50505050565b60008060009054906101000a900473ffffffffffffffffffffffffffffffffffffffff16905090565b6002600154141561192e576040517f08c379a0000000000000000000000000000000000000000000000000000000008152600401611925906152bd565b60405180910390fd5b600260018190555060016009828154811061194c5761194b614dd8565b5b90600052602060002090600b0201600401541461199e576040517f08c379a0000000000000000000000000000000000000000000000000000000008152600401611995906151e5565b60405180910390fd5b6000600982815481106119b4576119b3614dd8565b5b90600052602060002090600b020160050154141561233b57600981815481106119e0576119df614dd8565b5b90600052602060002090600b020160020154600260009054906101000a900473ffffffffffffffffffffffffffffffffffffffff1673ffffffffffffffffffffffffffffffffffffffff166370a08231306040518263ffffffff1660e01b8152600401611a4d919061466c565b60206040518083038186803b158015611a6557600080fd5b505afa158015611a79573d6000803e3d6000fd5b505050506040513d601f19601f82011682018060405250810190611a9d9190614ff2565b1015611ade576040517f08c379a0000000000000000000000000000000000000000000000000000000008152600401611ad59061534f565b60405180910390fd5b600260009054906101000a900473ffffffffffffffffffffffffffffffffffffffff1673ffffffffffffffffffffffffffffffffffffffff1663095ea7b33060098481548110611b3157611b30614dd8565b5b90600052602060002090600b0201600201546040518363ffffffff1660e01b8152600401611b6092919061536f565b602060405180830381600087803b158015611b7a57600080fd5b505af1158015611b8e573d6000803e3d6000fd5b505050506040513d601f19601f82011682018060405250810190611bb29190614b2e565b5060006064600160098481548110611bcd57611bcc614dd8565b5b90600052602060002090600b020160020154611be99190615398565b611bf39190615421565b905060008160098481548110611c0c57611c0b614dd8565b5b90600052602060002090600b020160020154611c289190615452565b9050600260009054906101000a900473ffffffffffffffffffffffffffffffffffffffff1673ffffffffffffffffffffffffffffffffffffffff166323b872dd30600460009054906101000a900473ffffffffffffffffffffffffffffffffffffffff16856040518463ffffffff1660e01b8152600401611cab9392919061508b565b602060405180830381600087803b158015611cc557600080fd5b505af1158015611cd9573d6000803e3d6000fd5b505050506040513d601f19601f82011682018060405250810190611cfd9190614b2e565b507fbd7be181889421a250b191cccf6016a1956adc1f1f75af42434f320ad4fd4e0160098481548110611d3357611d32614dd8565b5b90600052602060002090600b020160010160009054906101000a900473ffffffffffffffffffffffffffffffffffffffff1683604051611d7492919061536f565b60405180910390a1600260009054906101000a900473ffffffffffffffffffffffffffffffffffffffff1673ffffffffffffffffffffffffffffffffffffffff166323b872dd3060098681548110611dcf57611dce614dd8565b5b90600052602060002090600b020160010160009054906101000a900473ffffffffffffffffffffffffffffffffffffffff16846040518463ffffffff1660e01b8152600401611e209392919061508b565b602060405180830381600087803b158015611e3a57600080fd5b505af1158015611e4e573d6000803e3d6000fd5b505050506040513d601f19601f82011682018060405250810190611e729190614b2e565b50600260098481548110611e8957611e88614dd8565b5b90600052602060002090600b0201600401819055507fb649c98f58055c520df0dcb5709eff2e931217ff2fb1e21376130d31bbb1c0af60098481548110611ed357611ed2614dd8565b5b90600052602060002090600b020160010160009054906101000a900473ffffffffffffffffffffffffffffffffffffffff1660098581548110611f1957611f18614dd8565b5b90600052602060002090600b020160020154604051611f3992919061536f565b60405180910390a160005b600a805490508110156123335783600a8281548110611f6657611f65614dd8565b5b906000526020600020906006020160040154148015611faa57506001600a8281548110611f9657611f95614dd8565b5b906000526020600020906006020160050154145b1561232057600a8181548110611fc357611fc2614dd8565b5b906000526020600020906006020160030154600a8281548110611fe957611fe8614dd8565b5b90600052602060002090600602016002015411156122c9576000600a828154811061201757612016614dd8565b5b906000526020600020906006020160030154600a838154811061203d5761203c614dd8565b5b9060005260206000209060060201600201546120599190615452565b9050600260009054906101000a900473ffffffffffffffffffffffffffffffffffffffff1673ffffffffffffffffffffffffffffffffffffffff1663095ea7b330836040518363ffffffff1660e01b81526004016120b892919061536f565b602060405180830381600087803b1580156120d257600080fd5b505af11580156120e6573d6000803e3d6000fd5b505050506040513d601f19601f8201168201806040525081019061210a9190614b2e565b50600260009054906101000a900473ffffffffffffffffffffffffffffffffffffffff1673ffffffffffffffffffffffffffffffffffffffff166323b872dd30600a888154811061215e5761215d614dd8565b5b906000526020600020906006020160010160009054906101000a900473ffffffffffffffffffffffffffffffffffffffff16846040518463ffffffff1660e01b81526004016121af9392919061508b565b602060405180830381600087803b1580156121c957600080fd5b505af11580156121dd573d6000803e3d6000fd5b505050506040513d601f19601f820116820180604052508101906122019190614b2e565b507f98c105e3bc1ca4c7a99cdea9cd2e2c7a0fbf623404262d3dfd0a152545bd25ad600a838154811061223757612236614dd8565b5b906000526020600020906006020160010160009054906101000a900473ffffffffffffffffffffffffffffffffffffffff16826009888154811061227e5761227d614dd8565b5b90600052602060002090600b020160010160009054906101000a900473ffffffffffffffffffffffffffffffffffffffff166040516122bf93929190615486565b60405180910390a1505b6000600985815481106122df576122de614dd8565b5b90600052602060002090600b0201600201819055506002600a828154811061230a57612309614dd8565b5b9060005260206000209060060201600501819055505b808061232b906154bd565b915050611f44565b505050612376565b6040517f08c379a000000000000000000000000000000000000000000000000000000000815260040161236d90615251565b60405180910390fd5b6001808190555050565b60006009828154811061239657612395614dd8565b5b90600052602060002090600b0201600201549050919050565b60055481565b6000806000905060005b600a8054905081101561241b5783600a82815481106123e1576123e0614dd8565b5b9060005260206000209060060201600401541415612408578180612404906154bd565b9250505b8080612413906154bd565b9150506123bf565b5080915050919050565b6000806000905082816124389190614b8a565b905060005b600a8054905081101561252b5784600a828154811061245f5761245e614dd8565b5b9060005260206000209060060201600401541480156124a357506001600a828154811061248f5761248e614dd8565b5b906000526020600020906006020160050154145b8015612504575083600a82815481106124bf576124be614dd8565b5b906000526020600020906006020160030154600a83815481106124e5576124e4614dd8565b5b9060005260206000209060060201600201546125019190615452565b10155b156125185783826125159190614b8a565b91505b8080612523906154bd565b91505061243d565b508091505092915050565b600080600080600a85815481106125505761254f614dd8565b5b90600052602060002090600602019050806005015481600301548260020154935093509350509193909250565b6000806000905060005b600a805490508110156126755784600a82815481106125a9576125a8614dd8565b5b9060005260206000209060060201600401541480156125ed57506001600a82815481106125d9576125d8614dd8565b5b906000526020600020906006020160050154145b801561264e575083600a828154811061260957612608614dd8565b5b906000526020600020906006020160030154600a838154811061262f5761262e614dd8565b5b90600052602060002090600602016002015461264b9190615452565b10155b1561266257818061265e906154bd565b9250505b808061266d906154bd565b915050612587565b508091505092915050565b6000806000905060005b600b805490508110156126e65783600b82815481106126ac576126ab614dd8565b5b90600052602060002090600502016001015414156126d35781806126cf906154bd565b9250505b80806126de906154bd565b91505061268a565b5080915050919050565b60016008828154811061270657612705614dd8565b5b90600052602060002090600702016004015414612758576040517f08c379a000000000000000000000000000000000000000000000000000000000815260040161274f906151e5565b60405180910390fd5b6008818154811061276c5761276b614dd8565b5b9060005260206000209060070201600601546008828154811061279257612791614dd8565b5b90600052602060002090600702016002015410156127e5576040517f08c379a00000000000000000000000000000000000000000000000000000000081526004016127dc90615552565b60405180910390fd5b600760009054906101000a900473ffffffffffffffffffffffffffffffffffffffff1673ffffffffffffffffffffffffffffffffffffffff1663095ea7b3306008848154811061283857612837614dd8565b5b9060005260206000209060070201600501546040518363ffffffff1660e01b815260040161286792919061536f565b602060405180830381600087803b15801561288157600080fd5b505af1158015612895573d6000803e3d6000fd5b505050506040513d601f19601f820116820180604052508101906128b99190614b2e565b5060005b600b80549050811015612c1a5781600b82815481106128df576128de614dd8565b5b90600052602060002090600502016001015414801561292357506000600b828154811061290f5761290e614dd8565b5b906000526020600020906005020160040154145b15612c075760006008838154811061293e5761293d614dd8565b5b906000526020600020906007020160020154600b838154811061296457612963614dd8565b5b9060005260206000209060050201600301546129809190615421565b905060006008848154811061299857612997614dd8565b5b906000526020600020906007020160050154826129b59190615398565b9050600260009054906101000a900473ffffffffffffffffffffffffffffffffffffffff1673ffffffffffffffffffffffffffffffffffffffff166323b872dd30600b8681548110612a0a57612a09614dd8565b5b906000526020600020906005020160020160009054906101000a900473ffffffffffffffffffffffffffffffffffffffff16600b8781548110612a5057612a4f614dd8565b5b9060005260206000209060050201600301546040518463ffffffff1660e01b8152600401612a809392919061508b565b602060405180830381600087803b158015612a9a57600080fd5b505af1158015612aae573d6000803e3d6000fd5b505050506040513d601f19601f82011682018060405250810190612ad29190614b2e565b50600b8381548110612ae757612ae6614dd8565b5b90600052602060002090600502016003015460098581548110612b0d57612b0c614dd8565b5b90600052602060002090600b02016002016000828254612b2d9190615452565b925050819055506002600b8481548110612b4a57612b49614dd8565b5b9060005260206000209060050201600401819055507f2dc8e290002f06fc0085bbca9dfb8b415cf4d1178950c72ff9ee8f4d8878ee66600b8481548110612b9457612b93614dd8565b5b906000526020600020906005020160020160009054906101000a900473ffffffffffffffffffffffffffffffffffffffff16600b8581548110612bda57612bd9614dd8565b5b90600052602060002090600502016003015486604051612bfc93929190614d4a565b60405180910390a150505b8080612c12906154bd565b9150506128bd565b50600260088281548110612c3157612c30614dd8565b5b9060005260206000209060070201600401819055507f285d39baa18539882d2f8ce9667d1be375875adba80e767c80c368921f5b021460088281548110612c7b57612c7a614dd8565b5b906000526020600020906007020160010160009054906101000a900473ffffffffffffffffffffffffffffffffffffffff1660088381548110612cc157612cc0614dd8565b5b906000526020600020906007020160000154604051612ce192919061536f565b60405180910390a150565b60026001541415612d32576040517f08c379a0000000000000000000000000000000000000000000000000000000008152600401612d29906152bd565b60405180910390fd5b6002600181905550600160098281548110612d5057612d4f614dd8565b5b90600052602060002090600b02016004015414612da2576040517f08c379a0000000000000000000000000000000000000000000000000000000008152600401612d99906151e5565b60405180910390fd5b60098181548110612db657612db5614dd8565b5b90600052602060002090600b020160020154600260009054906101000a900473ffffffffffffffffffffffffffffffffffffffff1673ffffffffffffffffffffffffffffffffffffffff166370a08231306040518263ffffffff1660e01b8152600401612e23919061466c565b60206040518083038186803b158015612e3b57600080fd5b505afa158015612e4f573d6000803e3d6000fd5b505050506040513d601f19601f82011682018060405250810190612e739190614ff2565b1015612eb4576040517f08c379a0000000000000000000000000000000000000000000000000000000008152600401612eab9061534f565b60405180910390fd5b60098181548110612ec857612ec7614dd8565b5b90600052602060002090600b020160010160009054906101000a900473ffffffffffffffffffffffffffffffffffffffff1673ffffffffffffffffffffffffffffffffffffffff163373ffffffffffffffffffffffffffffffffffffffff161480612f5e57503073ffffffffffffffffffffffffffffffffffffffff163373ffffffffffffffffffffffffffffffffffffffff16145b1561391f5760005b600a8054905081101561339f5781600a8281548110612f8857612f87614dd8565b5b906000526020600020906006020160040154148015612fcc57506001600a8281548110612fb857612fb7614dd8565b5b906000526020600020906006020160050154145b1561338c57600a8181548110612fe557612fe4614dd8565b5b906000526020600020906006020160030154600a828154811061300b5761300a614dd8565b5b90600052602060002090600602016002015411156132ff57600260009054906101000a900473ffffffffffffffffffffffffffffffffffffffff1673ffffffffffffffffffffffffffffffffffffffff1663095ea7b330600a848154811061307657613075614dd8565b5b9060005260206000209060060201600201546040518363ffffffff1660e01b81526004016130a592919061536f565b602060405180830381600087803b1580156130bf57600080fd5b505af11580156130d3573d6000803e3d6000fd5b505050506040513d601f19601f820116820180604052508101906130f79190614b2e565b50600260009054906101000a900473ffffffffffffffffffffffffffffffffffffffff1673ffffffffffffffffffffffffffffffffffffffff166323b872dd30600a848154811061314b5761314a614dd8565b5b906000526020600020906006020160010160009054906101000a900473ffffffffffffffffffffffffffffffffffffffff16600a858154811061319157613190614dd8565b5b9060005260206000209060060201600201546040518463ffffffff1660e01b81526004016131c19392919061508b565b602060405180830381600087803b1580156131db57600080fd5b505af11580156131ef573d6000803e3d6000fd5b505050506040513d601f19601f820116820180604052508101906132139190614b2e565b507f98c105e3bc1ca4c7a99cdea9cd2e2c7a0fbf623404262d3dfd0a152545bd25ad600a828154811061324957613248614dd8565b5b906000526020600020906006020160010160009054906101000a900473ffffffffffffffffffffffffffffffffffffffff16600a838154811061328f5761328e614dd8565b5b906000526020600020906006020160020154600984815481106132b5576132b4614dd8565b5b90600052602060002090600b020160010160009054906101000a900473ffffffffffffffffffffffffffffffffffffffff166040516132f693929190615486565b60405180910390a15b600a818154811061331357613312614dd8565b5b9060005260206000209060060201600201546009838154811061333957613338614dd8565b5b90600052602060002090600b020160020160008282546133599190615452565b925050819055506002600a828154811061337657613375614dd8565b5b9060005260206000209060060201600501819055505b8080613397906154bd565b915050612f66565b5060005b600b805490508110156137e15781600b82815481106133c5576133c4614dd8565b5b90600052602060002090600502016001015414801561340957506000600b82815481106133f5576133f4614dd8565b5b906000526020600020906005020160040154145b156137ce5760006009838154811061342457613423614dd8565b5b90600052602060002090600b020160050154141561376357600260009054906101000a900473ffffffffffffffffffffffffffffffffffffffff1673ffffffffffffffffffffffffffffffffffffffff1663095ea7b330600b848154811061348f5761348e614dd8565b5b9060005260206000209060050201600301546040518363ffffffff1660e01b81526004016134be92919061536f565b602060405180830381600087803b1580156134d857600080fd5b505af11580156134ec573d6000803e3d6000fd5b505050506040513d601f19601f820116820180604052508101906135109190614b2e565b50600260009054906101000a900473ffffffffffffffffffffffffffffffffffffffff1673ffffffffffffffffffffffffffffffffffffffff166323b872dd30600b848154811061356457613563614dd8565b5b906000526020600020906005020160020160009054906101000a900473ffffffffffffffffffffffffffffffffffffffff16600b85815481106135aa576135a9614dd8565b5b9060005260206000209060050201600301546040518463ffffffff1660e01b81526004016135da9392919061508b565b602060405180830381600087803b1580156135f457600080fd5b505af1158015613608573d6000803e3d6000fd5b505050506040513d601f19601f8201168201806040525081019061362c9190614b2e565b50600b818154811061364157613640614dd8565b5b9060005260206000209060050201600301546009838154811061366757613666614dd8565b5b90600052602060002090600b020160020160008282546136879190615452565b925050819055506002600b82815481106136a4576136a3614dd8565b5b9060005260206000209060050201600401819055507f2dc8e290002f06fc0085bbca9dfb8b415cf4d1178950c72ff9ee8f4d8878ee66600b82815481106136ee576136ed614dd8565b5b906000526020600020906005020160020160009054906101000a900473ffffffffffffffffffffffffffffffffffffffff16600b838154811061373457613733614dd8565b5b9060005260206000209060050201600301548460405161375693929190614d4a565b60405180910390a16137cd565b60016009838154811061377957613778614dd8565b5b90600052602060002090600b02016005015414156137cc576040517f08c379a00000000000000000000000000000000000000000000000000000000081526004016137c390615251565b60405180910390fd5b5b5b80806137d9906154bd565b9150506133a3565b506000600982815481106137f8576137f7614dd8565b5b90600052602060002090600b02016002015414156138e35760026009828154811061382657613825614dd8565b5b90600052602060002090600b0201600401819055507f36ea5cd5608625e789af0282eecdb4eae1cb7c1cf6d0ec3f9a84f35be850260b600982815481106138705761386f614dd8565b5b90600052602060002090600b020160010160009054906101000a900473ffffffffffffffffffffffffffffffffffffffff16600983815481106138b6576138b5614dd8565b5b90600052602060002090600b0201600001546040516138d692919061536f565b60405180910390a161391e565b6040517f08c379a0000000000000000000000000000000000000000000000000000000008152600401613915906155be565b60405180910390fd5b5b6001808190555050565b613931613d93565b600073ffffffffffffffffffffffffffffffffffffffff168173ffffffffffffffffffffffffffffffffffffffff1614156139a1576040517f08c379a000000000000000000000000000000000000000000000000000000000815260040161399890615650565b60405180910390fd5b6139aa81613e19565b50565b600b81815481106139bd57600080fd5b90600052602060002090600502016000915090508060000154908060010154908060020160009054906101000a900473ffffffffffffffffffffffffffffffffffffffff16908060030154908060040154905085565b600260009054906101000a900473ffffffffffffffffffffffffffffffffffffffff1681565b613a41613d93565b60026001541415613a87576040517f08c379a0000000000000000000000000000000000000000000000000000000008152600401613a7e906152bd565b60405180910390fd5b600260018190555060005b600980549050811015613ba35760098181548110613ab357613ab2614dd8565b5b90600052602060002090600b020160030154421015613ad157613b90565b600160098281548110613ae757613ae6614dd8565b5b90600052602060002090600b020160040154148015613b50575060098181548110613b1557613b14614dd8565b5b90600052602060002090600b02016006015460098281548110613b3b57613b3a614dd8565b5b90600052602060002090600b02016002015410155b8015613b80575060098181548110613b6b57613b6a614dd8565b5b90600052602060002090600b02016003015442115b15613b8f57613b8e816118e8565b5b5b8080613b9b906154bd565b915050613a92565b5060018081905550565b60026001541415613bf3576040517f08c379a0000000000000000000000000000000000000000000000000000000008152600401613bea906152bd565b60405180910390fd5b600260018190555060008484810190613c0c91906156ae565b905060007f000000000000000000000000000000000000000000000000000000000000000073ffffffffffffffffffffffffffffffffffffffff1663935b13f6856040518263ffffffff1660e01b8152600401613c699190615752565b60206040518083038186803b158015613c8157600080fd5b505afa158015613c95573d6000803e3d6000fd5b505050506040513d601f19601f82011682018060405250810190613cb99190615789565b90508073ffffffffffffffffffffffffffffffffffffffff1663a9059cbb83856040518363ffffffff1660e01b8152600401613cf692919061536f565b602060405180830381600087803b158015613d1057600080fd5b505af1158015613d24573d6000803e3d6000fd5b505050506040513d601f19601f82011682018060405250810190613d489190614b2e565b507f34bc3aa9b8dc05e10eb9220949706010c001d255263d3c1389c48e0aed5fcfb88385604051613d7a9291906157b6565b60405180910390a1505060018081905550505050505050565b613d9b614205565b73ffffffffffffffffffffffffffffffffffffffff16613db96118bf565b73ffffffffffffffffffffffffffffffffffffffff1614613e0f576040517f08c379a0000000000000000000000000000000000000000000000000000000008152600401613e0690615832565b60405180910390fd5b565b505050505050565b60008060009054906101000a900473ffffffffffffffffffffffffffffffffffffffff169050816000806101000a81548173ffffffffffffffffffffffffffffffffffffffff021916908373ffffffffffffffffffffffffffffffffffffffff1602179055508173ffffffffffffffffffffffffffffffffffffffff168173ffffffffffffffffffffffffffffffffffffffff167f8be0079c531659141344cd1fd0a4f28419497f9722a3daafe3b4186f6b6457e060405160405180910390a35050565b60005b600a805490508110156142005781600a8281548110613f0257613f01614dd8565b5b906000526020600020906006020160030154600a8381548110613f2857613f27614dd8565b5b906000526020600020906006020160020154613f449190615452565b10158015613f76575082600a8281548110613f6257613f61614dd8565b5b906000526020600020906006020160040154145b8015613fa757506001600a8281548110613f9357613f92614dd8565b5b906000526020600020906006020160050154145b156141ed5781600a8281548110613fc157613fc0614dd8565b5b90600052602060002090600602016003016000828254613fe19190614b8a565b925050819055508160098481548110613ffd57613ffc614dd8565b5b90600052602060002090600b0201600201600082825461401d9190614b8a565b92505081905550600a818154811061403857614037614dd8565b5b906000526020600020906006020160030154600a828154811061405e5761405d614dd8565b5b906000526020600020906006020160020154141561416c576002600a828154811061408c5761408b614dd8565b5b9060005260206000209060060201600501819055507f344f3c440bc0a199d8ebf3e014b04b0be7f494a3e35bc4c4b162dbf9edb24521600a82815481106140d6576140d5614dd8565b5b906000526020600020906006020160010160009054906101000a900473ffffffffffffffffffffffffffffffffffffffff16600a838154811061411c5761411b614dd8565b5b906000526020600020906006020160020154600a848154811061414257614141614dd8565b5b90600052602060002090600602016004015460405161416393929190614d4a565b60405180910390a15b7ff8d3b803c2699d3e25440474a9089daa89195298415edaf5cb5ff73d4cad4d44600a82815481106141a1576141a0614dd8565b5b906000526020600020906006020160010160009054906101000a900473ffffffffffffffffffffffffffffffffffffffff1683856040516141e493929190614d4a565b60405180910390a15b80806141f8906154bd565b915050613ee0565b505050565b600033905090565b600073ffffffffffffffffffffffffffffffffffffffff82169050919050565b6000819050919050565b600061425261424d6142488461420d565b61422d565b61420d565b9050919050565b600061426482614237565b9050919050565b600061427682614259565b9050919050565b6142868161426b565b82525050565b60006020820190506142a1600083018461427d565b92915050565b600080fd5b600080fd5b6000819050919050565b6142c4816142b1565b81146142cf57600080fd5b50565b6000813590506142e1816142bb565b92915050565b6000602082840312156142fd576142fc6142a7565b5b600061430b848285016142d2565b91505092915050565b61431d816142b1565b82525050565b600061432e8261420d565b9050919050565b61433e81614323565b82525050565b600060c0820190506143596000830189614314565b6143666020830188614335565b6143736040830187614314565b6143806060830186614314565b61438d6080830185614314565b61439a60a0830184614314565b979650505050505050565b6000819050919050565b6143b8816143a5565b81146143c357600080fd5b50565b6000813590506143d5816143af565b92915050565b600080fd5b600080fd5b600080fd5b60008083601f840112614400576143ff6143db565b5b8235905067ffffffffffffffff81111561441d5761441c6143e0565b5b602083019150836001820283011115614439576144386143e5565b5b9250929050565b60008083601f840112614456576144556143db565b5b8235905067ffffffffffffffff811115614473576144726143e0565b5b60208301915083600182028301111561448f5761448e6143e5565b5b9250929050565b60008060008060008060008060008060c08b8d0312156144b9576144b86142a7565b5b60006144c78d828e016143c6565b9a505060208b013567ffffffffffffffff8111156144e8576144e76142ac565b5b6144f48d828e016143ea565b995099505060408b013567ffffffffffffffff811115614517576145166142ac565b5b6145238d828e016143ea565b975097505060608b013567ffffffffffffffff811115614546576145456142ac565b5b6145528d828e01614440565b955095505060808b013567ffffffffffffffff811115614575576145746142ac565b5b6145818d828e016143ea565b935093505060a06145948d828e016142d2565b9150509295989b9194979a5092959850565b600060e0820190506145bb600083018a614314565b6145c86020830189614335565b6145d56040830188614314565b6145e26060830187614314565b6145ef6080830186614314565b6145fc60a0830185614314565b61460960c0830184614314565b98975050505050505050565b600060208201905061462a6000830184614314565b92915050565b600061463b82614259565b9050919050565b61464b81614630565b82525050565b60006020820190506146666000830184614642565b92915050565b60006020820190506146816000830184614335565b92915050565b60008060008060008060006080888a0312156146a6576146a56142a7565b5b60006146b48a828b016143c6565b975050602088013567ffffffffffffffff8111156146d5576146d46142ac565b5b6146e18a828b016143ea565b9650965050604088013567ffffffffffffffff811115614704576147036142ac565b5b6147108a828b016143ea565b9450945050606088013567ffffffffffffffff811115614733576147326142ac565b5b61473f8a828b01614440565b925092505092959891949750929550565b61475981614323565b811461476457600080fd5b50565b60008135905061477681614750565b92915050565b600080600060608486031215614795576147946142a7565b5b60006147a3868287016142d2565b93505060206147b4868287016142d2565b92505060406147c586828701614767565b9150509250925092565b6000610160820190506147e5600083018e614314565b6147f2602083018d614335565b6147ff604083018c614314565b61480c606083018b614314565b614819608083018a614314565b61482660a0830189614314565b61483360c0830188614314565b61484060e0830187614314565b61484e610100830186614314565b61485c610120830185614314565b61486a610140830184614314565b9c9b505050505050505050505050565b600080600060608486031215614893576148926142a7565b5b60006148a1868287016142d2565b93505060206148b2868287016142d2565b92505060406148c3868287016142d2565b9150509250925092565b600080604083850312156148e4576148e36142a7565b5b60006148f2858286016142d2565b9250506020614903858286016142d2565b9150509250929050565b60006060820190506149226000830186614314565b61492f6020830185614314565b61493c6040830184614314565b949350505050565b60006020828403121561495a576149596142a7565b5b600061496884828501614767565b91505092915050565b600060a0820190506149866000830188614314565b6149936020830187614314565b6149a06040830186614335565b6149ad6060830185614314565b6149ba6080830184614314565b9695505050505050565b600081905092915050565b82818337600083830152505050565b60006149ea83856149c4565b93506149f78385846149cf565b82840190509392505050565b6000614a108284866149de565b91508190509392505050565b614a25816143a5565b82525050565b600082825260208201905092915050565b6000601f19601f8301169050919050565b6000614a598385614a2b565b9350614a668385846149cf565b614a6f83614a3c565b840190509392505050565b600060c082019050614a8f600083018c614a1c565b8181036020830152614aa2818a8c614a4d565b90508181036040830152614ab781888a614a4d565b9050614ac66060830187614a1c565b8181036080830152614ad9818587614a4d565b9050614ae860a0830184614314565b9a9950505050505050505050565b60008115159050919050565b614b0b81614af6565b8114614b1657600080fd5b50565b600081519050614b2881614b02565b92915050565b600060208284031215614b4457614b436142a7565b5b6000614b5284828501614b19565b91505092915050565b7f4e487b7100000000000000000000000000000000000000000000000000000000600052601160045260246000fd5b6000614b95826142b1565b9150614ba0836142b1565b9250827fffffffffffffffffffffffffffffffffffffffffffffffffffffffffffffffff03821115614bd557614bd4614b5b565b5b828201905092915050565b7f496e76616c696420616464726573730000000000000000000000000000000000600082015250565b6000614c16600f83614a2b565b9150614c2182614be0565b602082019050919050565b60006020820190508181036000830152614c4581614c09565b9050919050565b7f496e76616c696420616d6f756e74000000000000000000000000000000000000600082015250565b6000614c82600e83614a2b565b9150614c8d82614c4c565b602082019050919050565b60006020820190508181036000830152614cb181614c75565b9050919050565b7f56616c7565206973206c6f776572207468616e206d696e696d756d20706f737360008201527f69626c6520616d6f756e74000000000000000000000000000000000000000000602082015250565b6000614d14602b83614a2b565b9150614d1f82614cb8565b604082019050919050565b60006020820190508181036000830152614d4381614d07565b9050919050565b6000606082019050614d5f6000830186614335565b614d6c6020830185614314565b614d796040830184614314565b949350505050565b6000608082019050614d966000830189614a1c565b8181036020830152614da9818789614a4d565b90508181036040830152614dbe818587614a4d565b9050614dcd6060830184614a1c565b979650505050505050565b7f4e487b7100000000000000000000000000000000000000000000000000000000600052603260045260246000fd5b7f476f616c206d7573742062652067726561746572207468616e20313030300000600082015250565b6000614e3d601e83614a2b565b9150614e4882614e07565b602082019050919050565b60006020820190508181036000830152614e6c81614e30565b9050919050565b7f546f6b656e20726577617264206d75737420626520677265617465722074686160008201527f6e20313030000000000000000000000000000000000000000000000000000000602082015250565b6000614ecf602583614a2b565b9150614eda82614e73565b604082019050919050565b60006020820190508181036000830152614efe81614ec2565b9050919050565b7f496e76616c696420746f6b656e20616464726573730000000000000000000000600082015250565b6000614f3b601583614a2b565b9150614f4682614f05565b602082019050919050565b60006020820190508181036000830152614f6a81614f2e565b9050919050565b7f496e76616c696420646561646c696e6500000000000000000000000000000000600082015250565b6000614fa7601083614a2b565b9150614fb282614f71565b602082019050919050565b60006020820190508181036000830152614fd681614f9a565b9050919050565b600081519050614fec816142bb565b92915050565b600060208284031215615008576150076142a7565b5b600061501684828501614fdd565b91505092915050565b7f4e6f7420656e6f75676820746f6b656e20696e2077616c6c6574000000000000600082015250565b6000615055601a83614a2b565b91506150608261501f565b602082019050919050565b6000602082019050818103600083015261508481615048565b9050919050565b60006060820190506150a06000830186614335565b6150ad6020830185614335565b6150ba6040830184614314565b949350505050565b60006080820190506150d76000830187614335565b6150e46020830186614314565b6150f16040830185614314565b6150fe6060830184614335565b95945050505050565b7f446561646c696e6520666f722063726f776466756e64696e672068617320706160008201527f737365642e000000000000000000000000000000000000000000000000000000602082015250565b6000615163602583614a2b565b915061516e82615107565b604082019050919050565b6000602082019050818103600083015261519281615156565b9050919050565b7f46756e64206973206e6f74206163746976650000000000000000000000000000600082015250565b60006151cf601283614a2b565b91506151da82615199565b602082019050919050565b600060208201905081810360008301526151fe816151c2565b9050919050565b7f496e76616c69642063757272656e637900000000000000000000000000000000600082015250565b600061523b601083614a2b565b915061524682615205565b602082019050919050565b6000602082019050818103600083015261526a8161522e565b9050919050565b7f5265656e7472616e637947756172643a207265656e7472616e742063616c6c00600082015250565b60006152a7601f83614a2b565b91506152b282615271565b602082019050919050565b600060208201905081810360008301526152d68161529a565b9050919050565b7f4e6f7420656e6f75676820746f6b656e7320696e2074686520636f6e7472616360008201527f7400000000000000000000000000000000000000000000000000000000000000602082015250565b6000615339602183614a2b565b9150615344826152dd565b604082019050919050565b600060208201905081810360008301526153688161532c565b9050919050565b60006040820190506153846000830185614335565b6153916020830184614314565b9392505050565b60006153a3826142b1565b91506153ae836142b1565b9250817fffffffffffffffffffffffffffffffffffffffffffffffffffffffffffffffff04831182151516156153e7576153e6614b5b565b5b828202905092915050565b7f4e487b7100000000000000000000000000000000000000000000000000000000600052601260045260246000fd5b600061542c826142b1565b9150615437836142b1565b925082615447576154466153f2565b5b828204905092915050565b600061545d826142b1565b9150615468836142b1565b92508282101561547b5761547a614b5b565b5b828203905092915050565b600060608201905061549b6000830186614335565b6154a86020830185614314565b6154b56040830184614335565b949350505050565b60006154c8826142b1565b91507fffffffffffffffffffffffffffffffffffffffffffffffffffffffffffffffff8214156154fb576154fa614b5b565b5b600182019050919050565b7f476f616c206e6f74207265616368656400000000000000000000000000000000600082015250565b600061553c601083614a2b565b915061554782615506565b602082019050919050565b6000602082019050818103600083015261556b8161552f565b9050919050565b7f50726f626c656d20776974682063616c63756c6174696f6e0000000000000000600082015250565b60006155a8601883614a2b565b91506155b382615572565b602082019050919050565b600060208201905081810360008301526155d78161559b565b9050919050565b7f4f776e61626c653a206e6577206f776e657220697320746865207a65726f206160008201527f6464726573730000000000000000000000000000000000000000000000000000602082015250565b600061563a602683614a2b565b9150615645826155de565b604082019050919050565b600060208201905081810360008301526156698161562d565b9050919050565b600061567b8261420d565b9050919050565b61568b81615670565b811461569657600080fd5b50565b6000813590506156a881615682565b92915050565b6000602082840312156156c4576156c36142a7565b5b60006156d284828501615699565b91505092915050565b600081519050919050565b60005b838110156157045780820151818401526020810190506156e9565b83811115615713576000848401525b50505050565b6000615724826156db565b61572e8185614a2b565b935061573e8185602086016156e6565b61574781614a3c565b840191505092915050565b6000602082019050818103600083015261576c8184615719565b905092915050565b60008151905061578381614750565b92915050565b60006020828403121561579f5761579e6142a7565b5b60006157ad84828501615774565b91505092915050565b60006040820190506157cb6000830185614314565b81810360208301526157dd8184615719565b90509392505050565b7f4f776e61626c653a2063616c6c6572206973206e6f7420746865206f776e6572600082015250565b600061581c602083614a2b565b9150615827826157e6565b602082019050919050565b6000602082019050818103600083015261584b8161580f565b905091905056fea2646970667358221220d2ec9c5139a176445adb09695aaa6dc8f36cf4aeb4e42aca43ee2e33bc8641ca64736f6c63430008090033",
  "linkReferences": {},
  "deployedLinkReferences": {}
}