{
  "_format": "hh-sol-artifact-1",
  "contractName": "Funding",
  "sourceName": "contracts/Funding.sol",
  "abi": [
    {
      "inputs": [
        {
          "internalType": "address",
          "name": "usdcAddress",
          "type": "address"
        },
        {
          "internalType": "address",
          "name": "usdtAddress",
          "type": "address"
        },
        {
          "internalType": "address",
          "name": "daiAddress",
          "type": "address"
        }
      ],
      "stateMutability": "nonpayable",
      "type": "constructor"
    },
    {
      "anonymous": false,
      "inputs": [
        {
          "indexed": false,
          "internalType": "address",
          "name": "owner",
          "type": "address"
        },
        {
          "indexed": false,
          "internalType": "uint256",
          "name": "fundId",
          "type": "uint256"
        }
      ],
      "name": "Cancelled",
      "type": "event"
    },
    {
      "anonymous": false,
      "inputs": [
        {
          "indexed": false,
          "internalType": "address",
          "name": "owner",
          "type": "address"
        },
        {
          "indexed": false,
          "internalType": "uint256",
          "name": "balance",
          "type": "uint256"
        },
        {
          "indexed": false,
          "internalType": "uint256",
          "name": "currency",
          "type": "uint256"
        }
      ],
      "name": "DistributionAccomplished",
      "type": "event"
    },
    {
      "anonymous": false,
      "inputs": [
        {
          "indexed": false,
          "internalType": "address",
          "name": "donator",
          "type": "address"
        },
        {
          "indexed": false,
          "internalType": "uint256",
          "name": "amount",
          "type": "uint256"
        },
        {
          "indexed": false,
          "internalType": "uint256",
          "name": "fundId",
          "type": "uint256"
        },
        {
          "indexed": false,
          "internalType": "uint256",
          "name": "currency",
          "type": "uint256"
        },
        {
          "indexed": false,
          "internalType": "uint256",
          "name": "microDrained",
          "type": "uint256"
        }
      ],
      "name": "Donated",
      "type": "event"
    },
    {
      "anonymous": false,
      "inputs": [
        {
          "indexed": false,
          "internalType": "uint256",
          "name": "id",
          "type": "uint256"
        }
      ],
      "name": "FundCreated",
      "type": "event"
    },
    {
      "anonymous": false,
      "inputs": [
        {
          "indexed": false,
          "internalType": "address",
          "name": "project",
          "type": "address"
        },
        {
          "indexed": false,
          "internalType": "uint256",
          "name": "fee",
          "type": "uint256"
        }
      ],
      "name": "FundingFee",
      "type": "event"
    },
    {
      "anonymous": false,
      "inputs": [
        {
          "indexed": false,
          "internalType": "bool",
          "name": "status",
          "type": "bool"
        }
      ],
      "name": "IncorrectDistribution",
      "type": "event"
    },
    {
      "anonymous": false,
      "inputs": [
        {
          "indexed": false,
          "internalType": "address",
          "name": "owner",
          "type": "address"
        },
        {
          "indexed": false,
          "internalType": "uint256",
          "name": "cap",
          "type": "uint256"
        },
        {
          "indexed": false,
          "internalType": "uint256",
          "name": "fundId",
          "type": "uint256"
        }
      ],
      "name": "MicroClosed",
      "type": "event"
    },
    {
      "anonymous": false,
      "inputs": [
        {
          "indexed": false,
          "internalType": "address",
          "name": "owner",
          "type": "address"
        },
        {
          "indexed": false,
          "internalType": "uint256",
          "name": "cap",
          "type": "uint256"
        },
        {
          "indexed": false,
          "internalType": "uint256",
          "name": "fundId",
          "type": "uint256"
        },
        {
          "indexed": false,
          "internalType": "uint256",
          "name": "currency",
          "type": "uint256"
        },
        {
          "indexed": false,
          "internalType": "uint256",
          "name": "microId",
          "type": "uint256"
        }
      ],
      "name": "MicroCreated",
      "type": "event"
    },
    {
      "anonymous": false,
      "inputs": [
        {
          "indexed": false,
          "internalType": "address",
          "name": "owner",
          "type": "address"
        },
        {
          "indexed": false,
          "internalType": "uint256",
          "name": "amount",
          "type": "uint256"
        },
        {
          "indexed": false,
          "internalType": "uint256",
          "name": "fundId",
          "type": "uint256"
        }
      ],
      "name": "MicroDrained",
      "type": "event"
    },
    {
      "anonymous": false,
      "inputs": [
        {
          "indexed": false,
          "internalType": "address",
          "name": "backer",
          "type": "address"
        },
        {
          "indexed": false,
          "internalType": "address",
          "name": "contractAddress",
          "type": "address"
        },
        {
          "indexed": false,
          "internalType": "uint256",
          "name": "fundId",
          "type": "uint256"
        }
      ],
      "name": "NftReward",
      "type": "event"
    },
    {
      "anonymous": false,
      "inputs": [
        {
          "indexed": true,
          "internalType": "address",
          "name": "previousOwner",
          "type": "address"
        },
        {
          "indexed": true,
          "internalType": "address",
          "name": "newOwner",
          "type": "address"
        }
      ],
      "name": "OwnershipTransferred",
      "type": "event"
    },
    {
      "anonymous": false,
      "inputs": [
        {
          "indexed": false,
          "internalType": "address",
          "name": "project",
          "type": "address"
        },
        {
          "indexed": false,
          "internalType": "uint256",
          "name": "fee",
          "type": "uint256"
        }
      ],
      "name": "PlatformFee",
      "type": "event"
    },
    {
      "anonymous": false,
      "inputs": [
        {
          "indexed": false,
          "internalType": "address",
          "name": "backer",
          "type": "address"
        },
        {
          "indexed": false,
          "internalType": "uint256",
          "name": "amount",
          "type": "uint256"
        },
        {
          "indexed": false,
          "internalType": "uint256",
          "name": "fundId",
          "type": "uint256"
        }
      ],
      "name": "Refunded",
      "type": "event"
    },
    {
      "anonymous": false,
      "inputs": [
        {
          "indexed": false,
          "internalType": "address",
          "name": "microOwner",
          "type": "address"
        },
        {
          "indexed": false,
          "internalType": "uint256",
          "name": "balance",
          "type": "uint256"
        },
        {
          "indexed": false,
          "internalType": "address",
          "name": "fundOwner",
          "type": "address"
        }
      ],
      "name": "Returned",
      "type": "event"
    },
    {
      "anonymous": false,
      "inputs": [
        {
          "indexed": false,
          "internalType": "uint256",
          "name": "rewardId",
          "type": "uint256"
        },
        {
          "indexed": false,
          "internalType": "address",
          "name": "owner",
          "type": "address"
        },
        {
          "indexed": false,
          "internalType": "address",
          "name": "contractAddress",
          "type": "address"
        },
        {
          "indexed": false,
          "internalType": "uint256",
          "name": "amount",
          "type": "uint256"
        },
        {
          "indexed": false,
          "internalType": "uint256",
          "name": "fundId",
          "type": "uint256"
        },
        {
          "indexed": false,
          "internalType": "bool",
          "name": "nftType",
          "type": "bool"
        }
      ],
      "name": "RewardCreated",
      "type": "event"
    },
    {
      "anonymous": false,
      "inputs": [
        {
          "indexed": false,
          "internalType": "address",
          "name": "backer",
          "type": "address"
        },
        {
          "indexed": false,
          "internalType": "uint256",
          "name": "amount",
          "type": "uint256"
        },
        {
          "indexed": false,
          "internalType": "uint256",
          "name": "fundId",
          "type": "uint256"
        }
      ],
      "name": "TokenReward",
      "type": "event"
    },
    {
      "inputs": [
        {
          "internalType": "uint256",
          "name": "_index",
          "type": "uint256"
        },
        {
          "internalType": "uint256",
          "name": "_amount",
          "type": "uint256"
        }
      ],
      "name": "calcInvolvedMicros",
      "outputs": [
        {
          "internalType": "uint256",
          "name": "",
          "type": "uint256"
        }
      ],
      "stateMutability": "view",
      "type": "function"
    },
    {
      "inputs": [
        {
          "internalType": "uint256",
          "name": "_index",
          "type": "uint256"
        },
        {
          "internalType": "uint256",
          "name": "_amount",
          "type": "uint256"
        }
      ],
      "name": "calcOutcome",
      "outputs": [
        {
          "internalType": "uint256",
          "name": "",
          "type": "uint256"
        }
      ],
      "stateMutability": "view",
      "type": "function"
    },
    {
      "inputs": [
        {
          "internalType": "uint256",
          "name": "_id",
          "type": "uint256"
        }
      ],
      "name": "cancelFund",
      "outputs": [],
      "stateMutability": "nonpayable",
      "type": "function"
    },
    {
      "inputs": [
        {
          "internalType": "uint256",
          "name": "_fee",
          "type": "uint256"
        }
      ],
      "name": "changeFee",
      "outputs": [],
      "stateMutability": "nonpayable",
      "type": "function"
    },
    {
      "inputs": [
        {
          "internalType": "uint256",
          "name": "_amountM",
          "type": "uint256"
        },
        {
          "internalType": "uint256",
          "name": "_amountD",
          "type": "uint256"
        },
        {
          "internalType": "uint256",
          "name": "_id",
          "type": "uint256"
        },
        {
          "internalType": "uint256",
          "name": "_currency",
          "type": "uint256"
        },
        {
          "internalType": "uint256",
          "name": "_rewardId",
          "type": "uint256"
        }
      ],
      "name": "contribute",
      "outputs": [],
      "stateMutability": "nonpayable",
      "type": "function"
    },
    {
      "inputs": [
        {
          "internalType": "uint256",
          "name": "_level1",
          "type": "uint256"
        }
      ],
      "name": "createFund",
      "outputs": [],
      "stateMutability": "nonpayable",
      "type": "function"
    },
    {
      "inputs": [
        {
          "internalType": "uint256",
          "name": "_fundId",
          "type": "uint256"
        },
        {
          "internalType": "uint256",
          "name": "_totalNumber",
          "type": "uint256"
        },
        {
          "internalType": "address",
          "name": "_nftAddress",
          "type": "address"
        },
        {
          "internalType": "uint256",
          "name": "_nftId",
          "type": "uint256"
        }
      ],
      "name": "createNftReward",
      "outputs": [],
      "stateMutability": "nonpayable",
      "type": "function"
    },
    {
      "inputs": [
        {
          "internalType": "uint256",
          "name": "_fundId",
          "type": "uint256"
        },
        {
          "internalType": "uint256",
          "name": "_totalNumber",
          "type": "uint256"
        },
        {
          "internalType": "uint256",
          "name": "_rewardAmount",
          "type": "uint256"
        },
        {
          "internalType": "address",
          "name": "_rewardAddress",
          "type": "address"
        }
      ],
      "name": "createTokenReward",
      "outputs": [],
      "stateMutability": "nonpayable",
      "type": "function"
    },
    {
      "inputs": [],
      "name": "createZeroData",
      "outputs": [],
      "stateMutability": "nonpayable",
      "type": "function"
    },
    {
      "inputs": [],
      "name": "dai",
      "outputs": [
        {
          "internalType": "contract IERC20",
          "name": "",
          "type": "address"
        }
      ],
      "stateMutability": "view",
      "type": "function"
    },
    {
      "inputs": [
        {
          "internalType": "uint256",
          "name": "_id",
          "type": "uint256"
        }
      ],
      "name": "distribute",
      "outputs": [],
      "stateMutability": "nonpayable",
      "type": "function"
    },
    {
      "inputs": [
        {
          "internalType": "uint256",
          "name": "",
          "type": "uint256"
        }
      ],
      "name": "donations",
      "outputs": [
        {
          "internalType": "uint256",
          "name": "id",
          "type": "uint256"
        },
        {
          "internalType": "uint256",
          "name": "fundId",
          "type": "uint256"
        },
        {
          "internalType": "address",
          "name": "backer",
          "type": "address"
        },
        {
          "internalType": "uint256",
          "name": "amount",
          "type": "uint256"
        },
        {
          "internalType": "uint256",
          "name": "state",
          "type": "uint256"
        },
        {
          "internalType": "uint256",
          "name": "currency",
          "type": "uint256"
        }
      ],
      "stateMutability": "view",
      "type": "function"
    },
    {
      "inputs": [],
      "name": "feeAddress",
      "outputs": [
        {
          "internalType": "address",
          "name": "",
          "type": "address"
        }
      ],
      "stateMutability": "view",
      "type": "function"
    },
    {
      "inputs": [
        {
          "internalType": "uint256",
          "name": "",
          "type": "uint256"
        }
      ],
      "name": "funds",
      "outputs": [
        {
          "internalType": "uint256",
          "name": "id",
          "type": "uint256"
        },
        {
          "internalType": "address",
          "name": "owner",
          "type": "address"
        },
        {
          "internalType": "uint256",
          "name": "balance",
          "type": "uint256"
        },
        {
          "internalType": "uint256",
          "name": "deadline",
          "type": "uint256"
        },
        {
          "internalType": "uint256",
          "name": "state",
          "type": "uint256"
        },
        {
          "internalType": "uint256",
          "name": "level1",
          "type": "uint256"
        },
        {
          "internalType": "uint256",
          "name": "usdcBalance",
          "type": "uint256"
        },
        {
          "internalType": "uint256",
          "name": "usdtBalance",
          "type": "uint256"
        },
        {
          "internalType": "uint256",
          "name": "daiBalance",
          "type": "uint256"
        }
      ],
      "stateMutability": "view",
      "type": "function"
    },
    {
      "inputs": [
        {
          "internalType": "uint256",
          "name": "_index",
          "type": "uint256"
        }
      ],
      "name": "getBackers",
      "outputs": [
        {
          "internalType": "uint256",
          "name": "",
          "type": "uint256"
        }
      ],
      "stateMutability": "view",
      "type": "function"
    },
    {
      "inputs": [
        {
          "internalType": "uint256",
          "name": "_index",
          "type": "uint256"
        }
      ],
      "name": "getConnectedMicroFunds",
      "outputs": [
        {
          "internalType": "uint256",
          "name": "",
          "type": "uint256"
        }
      ],
      "stateMutability": "view",
      "type": "function"
    },
    {
      "inputs": [
        {
          "internalType": "uint256",
          "name": "",
          "type": "uint256"
        }
      ],
      "name": "microFunds",
      "outputs": [
        {
          "internalType": "uint256",
          "name": "microId",
          "type": "uint256"
        },
        {
          "internalType": "address",
          "name": "owner",
          "type": "address"
        },
        {
          "internalType": "uint256",
          "name": "cap",
          "type": "uint256"
        },
        {
          "internalType": "uint256",
          "name": "microBalance",
          "type": "uint256"
        },
        {
          "internalType": "uint256",
          "name": "fundId",
          "type": "uint256"
        },
        {
          "internalType": "uint256",
          "name": "state",
          "type": "uint256"
        },
        {
          "internalType": "uint256",
          "name": "currency",
          "type": "uint256"
        }
      ],
      "stateMutability": "view",
      "type": "function"
    },
    {
      "inputs": [],
      "name": "minAmount",
      "outputs": [
        {
          "internalType": "uint256",
          "name": "",
          "type": "uint256"
        }
      ],
      "stateMutability": "view",
      "type": "function"
    },
    {
      "inputs": [
        {
          "internalType": "address",
          "name": "",
          "type": "address"
        },
        {
          "internalType": "address",
          "name": "",
          "type": "address"
        },
        {
          "internalType": "uint256[]",
          "name": "",
          "type": "uint256[]"
        },
        {
          "internalType": "uint256[]",
          "name": "",
          "type": "uint256[]"
        },
        {
          "internalType": "bytes",
          "name": "",
          "type": "bytes"
        }
      ],
      "name": "onERC1155BatchReceived",
      "outputs": [
        {
          "internalType": "bytes4",
          "name": "",
          "type": "bytes4"
        }
      ],
      "stateMutability": "nonpayable",
      "type": "function"
    },
    {
      "inputs": [
        {
          "internalType": "address",
          "name": "",
          "type": "address"
        },
        {
          "internalType": "address",
          "name": "",
          "type": "address"
        },
        {
          "internalType": "uint256",
          "name": "",
          "type": "uint256"
        },
        {
          "internalType": "uint256",
          "name": "",
          "type": "uint256"
        },
        {
          "internalType": "bytes",
          "name": "",
          "type": "bytes"
        }
      ],
      "name": "onERC1155Received",
      "outputs": [
        {
          "internalType": "bytes4",
          "name": "",
          "type": "bytes4"
        }
      ],
      "stateMutability": "nonpayable",
      "type": "function"
    },
    {
      "inputs": [],
      "name": "owner",
      "outputs": [
        {
          "internalType": "address",
          "name": "",
          "type": "address"
        }
      ],
      "stateMutability": "view",
      "type": "function"
    },
    {
      "inputs": [],
      "name": "platformFee",
      "outputs": [
        {
          "internalType": "uint256",
          "name": "",
          "type": "uint256"
        }
      ],
      "stateMutability": "view",
      "type": "function"
    },
    {
      "inputs": [],
      "name": "renounceOwnership",
      "outputs": [],
      "stateMutability": "nonpayable",
      "type": "function"
    },
    {
      "inputs": [
        {
          "internalType": "uint256",
          "name": "",
          "type": "uint256"
        }
      ],
      "name": "rewardList",
      "outputs": [
        {
          "internalType": "uint256",
          "name": "rewardId",
          "type": "uint256"
        },
        {
          "internalType": "uint256",
          "name": "rewardItemId",
          "type": "uint256"
        },
        {
          "internalType": "address",
          "name": "receiver",
          "type": "address"
        },
        {
          "internalType": "uint256",
          "name": "state",
          "type": "uint256"
        }
      ],
      "stateMutability": "view",
      "type": "function"
    },
    {
      "inputs": [
        {
          "internalType": "uint256",
          "name": "",
          "type": "uint256"
        }
      ],
      "name": "rewards",
      "outputs": [
        {
          "internalType": "uint256",
          "name": "rewardId",
          "type": "uint256"
        },
        {
          "internalType": "uint256",
          "name": "fundId",
          "type": "uint256"
        },
        {
          "internalType": "uint256",
          "name": "totalNumber",
          "type": "uint256"
        },
        {
          "internalType": "uint256",
          "name": "actualNumber",
          "type": "uint256"
        },
        {
          "internalType": "address",
          "name": "owner",
          "type": "address"
        },
        {
          "internalType": "address",
          "name": "contractAddress",
          "type": "address"
        },
        {
          "internalType": "uint256",
          "name": "erc20amount",
          "type": "uint256"
        },
        {
          "internalType": "uint256",
          "name": "nftId",
          "type": "uint256"
        },
        {
          "internalType": "uint256",
          "name": "state",
          "type": "uint256"
        }
      ],
      "stateMutability": "view",
      "type": "function"
    },
    {
      "inputs": [
        {
          "internalType": "uint256",
          "name": "_min",
          "type": "uint256"
        }
      ],
      "name": "setMinimum",
      "outputs": [],
      "stateMutability": "nonpayable",
      "type": "function"
    },
    {
      "inputs": [
        {
          "internalType": "bytes4",
          "name": "interfaceId",
          "type": "bytes4"
        }
      ],
      "name": "supportsInterface",
      "outputs": [
        {
          "internalType": "bool",
          "name": "",
          "type": "bool"
        }
      ],
      "stateMutability": "view",
      "type": "function"
    },
    {
      "inputs": [
        {
          "internalType": "address",
          "name": "newOwner",
          "type": "address"
        }
      ],
      "name": "transferOwnership",
      "outputs": [],
      "stateMutability": "nonpayable",
      "type": "function"
    },
    {
      "inputs": [],
      "name": "usdc",
      "outputs": [
        {
          "internalType": "contract IERC20",
          "name": "",
          "type": "address"
        }
      ],
      "stateMutability": "view",
      "type": "function"
    },
    {
      "inputs": [],
      "name": "usdt",
      "outputs": [
        {
          "internalType": "contract IERC20",
          "name": "",
          "type": "address"
        }
      ],
      "stateMutability": "view",
      "type": "function"
    }
  ],
  "bytecode": "0x608060405273c21223249ca28397b4b6541dffaecc539bff0c59600560006101000a81548173ffffffffffffffffffffffffffffffffffffffff021916908373ffffffffffffffffffffffffffffffffffffffff160217905550600160065560016007553480156200007057600080fd5b50604051620059ed380380620059ed8339818101604052810190620000969190620002bf565b620000b6620000aa6200018960201b60201c565b6200019160201b60201c565b6001808190555082600260006101000a81548173ffffffffffffffffffffffffffffffffffffffff021916908373ffffffffffffffffffffffffffffffffffffffff16021790555081600360006101000a81548173ffffffffffffffffffffffffffffffffffffffff021916908373ffffffffffffffffffffffffffffffffffffffff16021790555080600460006101000a81548173ffffffffffffffffffffffffffffffffffffffff021916908373ffffffffffffffffffffffffffffffffffffffff1602179055505050506200031b565b600033905090565b60008060009054906101000a900473ffffffffffffffffffffffffffffffffffffffff169050816000806101000a81548173ffffffffffffffffffffffffffffffffffffffff021916908373ffffffffffffffffffffffffffffffffffffffff1602179055508173ffffffffffffffffffffffffffffffffffffffff168173ffffffffffffffffffffffffffffffffffffffff167f8be0079c531659141344cd1fd0a4f28419497f9722a3daafe3b4186f6b6457e060405160405180910390a35050565b600080fd5b600073ffffffffffffffffffffffffffffffffffffffff82169050919050565b600062000287826200025a565b9050919050565b62000299816200027a565b8114620002a557600080fd5b50565b600081519050620002b9816200028e565b92915050565b600080600060608486031215620002db57620002da62000255565b5b6000620002eb86828701620002a8565b9350506020620002fe86828701620002a8565b92505060406200031186828701620002a8565b9150509250925092565b6156c2806200032b6000396000f3fe608060405234801561001057600080fd5b50600436106101da5760003560e01c806391c05b0b11610104578063c9168b72116100a2578063f2fde38b11610071578063f2fde38b14610578578063f301af4214610594578063f4b9fa75146105cc578063f8626af8146105ea576101da565b8063c9168b72146104e0578063e1485dad14610510578063e48105241461052c578063f23a6e6114610548576101da565b8063a4f10f0e116100de578063a4f10f0e14610420578063b318c83714610450578063bc197c8114610480578063be7aec53146104b0576101da565b806391c05b0b146103dc57806398d559f8146103f85780639b2cb5d814610402576101da565b80633209e9e61161017c5780636a1db1bf1161014b5780636a1db1bf14610360578063715018a61461037c5780637b8e8895146103865780638da5cb5b146103be576101da565b80633209e9e6146102ec5780633e413bee14610308578063412753581461032657806342fa071314610344576101da565b80631d711a9f116101b85780631d711a9f1461027857806326232a2e146102945780632f48ab7d146102b2578063320369ce146102d0576101da565b806301ffc9a7146101df57806310d666771461020f57806316055fa814610242575b600080fd5b6101f960048036038101906101f4919061425b565b61061f565b60405161020691906142a3565b60405180910390f35b610229600480360381019061022491906142f4565b610699565b6040516102399493929190614371565b60405180910390f35b61025c600480360381019061025791906142f4565b6106f9565b60405161026f97969594939291906143b6565b60405180910390f35b610292600480360381019061028d9190614425565b61076b565b005b61029c610f67565b6040516102a991906144a0565b60405180910390f35b6102ba610f6d565b6040516102c7919061451a565b60405180910390f35b6102ea60048036038101906102e59190614561565b610f93565b005b610306600480360381019061030191906142f4565b61130e565b005b610310611320565b60405161031d919061451a565b60405180910390f35b61032e611346565b60405161033b91906145c8565b60405180910390f35b61035e600480360381019061035991906142f4565b61136c565b005b61037a600480360381019061037591906142f4565b6115dc565b005b6103846115ee565b005b6103a0600480360381019061039b91906142f4565b611602565b6040516103b5999897969594939291906145e3565b60405180910390f35b6103c6611680565b6040516103d391906145c8565b60405180910390f35b6103f660048036038101906103f191906142f4565b6116a9565b005b610400611a3a565b005b61040a611ced565b60405161041791906144a0565b60405180910390f35b61043a600480360381019061043591906142f4565b611cf3565b60405161044791906144a0565b60405180910390f35b61046a60048036038101906104659190614670565b611d63565b60405161047791906144a0565b60405180910390f35b61049a600480360381019061049591906148be565b611e74565b6040516104a7919061499c565b60405180910390f35b6104ca60048036038101906104c59190614670565b611e89565b6040516104d791906144a0565b60405180910390f35b6104fa60048036038101906104f591906142f4565b611f8c565b60405161050791906144a0565b60405180910390f35b61052a600480360381019061052591906149b7565b611ffc565b005b610546600480360381019061054191906142f4565b612368565b005b610562600480360381019061055d9190614a1e565b612797565b60405161056f919061499c565b60405180910390f35b610592600480360381019061058d9190614ab5565b6127ac565b005b6105ae60048036038101906105a991906142f4565b612830565b6040516105c399989796959493929190614ae2565b60405180910390f35b6105d46128ce565b6040516105e1919061451a565b60405180910390f35b61060460048036038101906105ff91906142f4565b6128f4565b60405161061696959493929190614b6f565b60405180910390f35b60007f4e2312e0000000000000000000000000000000000000000000000000000000007bffffffffffffffffffffffffffffffffffffffffffffffffffffffff1916827bffffffffffffffffffffffffffffffffffffffffffffffffffffffff19161480610692575061069182612960565b5b9050919050565b600c81815481106106a957600080fd5b90600052602060002090600402016000915090508060000154908060010154908060020160009054906101000a900473ffffffffffffffffffffffffffffffffffffffff16908060030154905084565b6009818154811061070957600080fd5b90600052602060002090600702016000915090508060000154908060010160009054906101000a900473ffffffffffffffffffffffffffffffffffffffff16908060020154908060030154908060040154908060050154908060060154905087565b82600881815481106107805761077f614bd0565b5b90600052602060002090600902016003015442106107d3576040517f08c379a00000000000000000000000000000000000000000000000000000000081526004016107ca90614c82565b60405180910390fd5b6001600885815481106107e9576107e8614bd0565b5b9060005260206000209060090201600401541461083b576040517f08c379a000000000000000000000000000000000000000000000000000000000815260040161083290614cee565b60405180910390fd5b600073ffffffffffffffffffffffffffffffffffffffff163373ffffffffffffffffffffffffffffffffffffffff1614156108ab576040517f08c379a00000000000000000000000000000000000000000000000000000000081526004016108a290614d5a565b60405180910390fd5b60008610156108ef576040517f08c379a00000000000000000000000000000000000000000000000000000000081526004016108e690614dc6565b60405180910390fd5b6000851015610933576040517f08c379a000000000000000000000000000000000000000000000000000000000815260040161092a90614dc6565b60405180910390fd5b6001831415610a3a57600260009054906101000a900473ffffffffffffffffffffffffffffffffffffffff1673ffffffffffffffffffffffffffffffffffffffff166323b872dd333089896109889190614e15565b6040518463ffffffff1660e01b81526004016109a693929190614e6b565b602060405180830381600087803b1580156109c057600080fd5b505af11580156109d4573d6000803e3d6000fd5b505050506040513d601f19601f820116820180604052508101906109f89190614ece565b508460088581548110610a0e57610a0d614bd0565b5b90600052602060002090600902016006016000828254610a2e9190614e15565b92505081905550610c85565b6002831415610b4157600360009054906101000a900473ffffffffffffffffffffffffffffffffffffffff1673ffffffffffffffffffffffffffffffffffffffff166323b872dd33308989610a8f9190614e15565b6040518463ffffffff1660e01b8152600401610aad93929190614e6b565b602060405180830381600087803b158015610ac757600080fd5b505af1158015610adb573d6000803e3d6000fd5b505050506040513d601f19601f82011682018060405250810190610aff9190614ece565b508460088581548110610b1557610b14614bd0565b5b90600052602060002090600902016007016000828254610b359190614e15565b92505081905550610c84565b6003831415610c4857600460009054906101000a900473ffffffffffffffffffffffffffffffffffffffff1673ffffffffffffffffffffffffffffffffffffffff166323b872dd33308989610b969190614e15565b6040518463ffffffff1660e01b8152600401610bb493929190614e6b565b602060405180830381600087803b158015610bce57600080fd5b505af1158015610be2573d6000803e3d6000fd5b505050506040513d601f19601f82011682018060405250810190610c069190614ece565b508460088581548110610c1c57610c1b614bd0565b5b90600052602060002090600902016008016000828254610c3c9190614e15565b92505081905550610c83565b6040517f08c379a0000000000000000000000000000000000000000000000000000000008152600401610c7a90614f47565b60405180910390fd5b5b5b8460088581548110610c9a57610c99614bd0565b5b90600052602060002090600902016002016000828254610cba9190614e15565b925050819055506000851115610e0857600a6040518060c00160405280600a8054905081526020018681526020013373ffffffffffffffffffffffffffffffffffffffff16815260200187815260200160008152602001858152509080600181540180825580915050600190039060005260206000209060060201600090919091909150600082015181600001556020820151816001015560408201518160020160006101000a81548173ffffffffffffffffffffffffffffffffffffffff021916908373ffffffffffffffffffffffffffffffffffffffff160217905550606082015181600301556080820151816004015560a0820151816005015550506000610dc585876129ca565b90507f5a6bd9c92682eca6be18f65696b3310b13970a058f992be29c8c64860b4dd6473387878785604051610dfe959493929190614f67565b60405180910390a1505b6000861115610f565760096040518060e0016040528060098054905081526020013373ffffffffffffffffffffffffffffffffffffffff16815260200188815260200160008152602001868152602001600181526020018581525090806001815401808255809150506001900390600052602060002090600702016000909190919091506000820151816000015560208201518160010160006101000a81548173ffffffffffffffffffffffffffffffffffffffff021916908373ffffffffffffffffffffffffffffffffffffffff16021790555060408201518160020155606082015181600301556080820151816004015560a0820151816005015560c0820151816006015550507f08514d1c5e17f21f6d45a7d774c0270bd0e2a3df04aff3d80e7b811ac8c5c3e033878686600980549050604051610f4d959493929190614f67565b60405180910390a15b610f5f82612e58565b505050505050565b60075481565b600360009054906101000a900473ffffffffffffffffffffffffffffffffffffffff1681565b600073ffffffffffffffffffffffffffffffffffffffff163373ffffffffffffffffffffffffffffffffffffffff161415611003576040517f08c379a0000000000000000000000000000000000000000000000000000000008152600401610ffa90614d5a565b60405180910390fd5b60008311611046576040517f08c379a000000000000000000000000000000000000000000000000000000000815260040161103d90614dc6565b60405180910390fd5b600082905060008173ffffffffffffffffffffffffffffffffffffffff1662fdd58e33856040518363ffffffff1660e01b8152600401611087929190614fba565b60206040518083038186803b15801561109f57600080fd5b505afa1580156110b3573d6000803e3d6000fd5b505050506040513d601f19601f820116820180604052508101906110d79190614ff8565b90508173ffffffffffffffffffffffffffffffffffffffff1663f242432a333086896040518563ffffffff1660e01b8152600401611118949392919061505c565b600060405180830381600087803b15801561113257600080fd5b505af1158015611146573d6000803e3d6000fd5b50505050600b604051806101200160405280600b8054905081526020018881526020018781526020018781526020013373ffffffffffffffffffffffffffffffffffffffff1681526020018673ffffffffffffffffffffffffffffffffffffffff16815260200160008152602001858152602001600181525090806001815401808255809150506001900390600052602060002090600902016000909190919091506000820151816000015560208201518160010155604082015181600201556060820151816003015560808201518160040160006101000a81548173ffffffffffffffffffffffffffffffffffffffff021916908373ffffffffffffffffffffffffffffffffffffffff16021790555060a08201518160050160006101000a81548173ffffffffffffffffffffffffffffffffffffffff021916908373ffffffffffffffffffffffffffffffffffffffff16021790555060c0820151816006015560e08201518160070155610100820151816008015550507f275f0dc6a40778333db8eafe4d1167bdc1603c7ab7f4870fa6b0ace4041be091600b805490503386888a60016040516112fe969594939291906150b4565b60405180910390a1505050505050565b61131661311c565b8060068190555050565b600260009054906101000a900473ffffffffffffffffffffffffffffffffffffffff1681565b600560009054906101000a900473ffffffffffffffffffffffffffffffffffffffff1681565b600062278d004261137d9190614e15565b9050600073ffffffffffffffffffffffffffffffffffffffff163373ffffffffffffffffffffffffffffffffffffffff1614156113ef576040517f08c379a00000000000000000000000000000000000000000000000000000000081526004016113e690614d5a565b60405180910390fd5b60008211611432576040517f08c379a000000000000000000000000000000000000000000000000000000000815260040161142990614dc6565b60405180910390fd5b600654821015611477576040517f08c379a000000000000000000000000000000000000000000000000000000000815260040161146e90615187565b60405180910390fd5b600860405180610120016040528060088054905081526020013373ffffffffffffffffffffffffffffffffffffffff16815260200160008152602001838152602001600181526020018481526020016000815260200160008152602001600081525090806001815401808255809150506001900390600052602060002090600902016000909190919091506000820151816000015560208201518160010160006101000a81548173ffffffffffffffffffffffffffffffffffffffff021916908373ffffffffffffffffffffffffffffffffffffffff16021790555060408201518160020155606082015181600301556080820151816004015560a0820151816005015560c0820151816006015560e08201518160070155610100820151816008015550507fec41606da1b7e318a73aa4bf363741fa612f34a0bdc09cf8e6b3417289ad1a516008805490506040516115d091906144a0565b60405180910390a15050565b6115e461311c565b8060078190555050565b6115f661311c565b611600600061319a565b565b6008818154811061161257600080fd5b90600052602060002090600902016000915090508060000154908060010160009054906101000a900473ffffffffffffffffffffffffffffffffffffffff16908060020154908060030154908060040154908060050154908060060154908060070154908060080154905089565b60008060009054906101000a900473ffffffffffffffffffffffffffffffffffffffff16905090565b600260015414156116ef576040517f08c379a00000000000000000000000000000000000000000000000000000000081526004016116e6906151f3565b60405180910390fd5b600260018190555060016008828154811061170d5761170c614bd0565b5b9060005260206000209060090201600401541461175f576040517f08c379a000000000000000000000000000000000000000000000000000000000815260040161175690614cee565b60405180910390fd5b60006008828154811061177557611774614bd0565b5b9060005260206000209060090201600601541115611811576117e181600883815481106117a5576117a4614bd0565b5b9060005260206000209060090201600601546001600260009054906101000a900473ffffffffffffffffffffffffffffffffffffffff1661325e565b6000600882815481106117f7576117f6614bd0565b5b906000526020600020906009020160060181905550611973565b60006008828154811061182757611826614bd0565b5b90600052602060002090600902016007015411156118c357611893816008838154811061185757611856614bd0565b5b9060005260206000209060090201600701546002600360009054906101000a900473ffffffffffffffffffffffffffffffffffffffff1661325e565b6000600882815481106118a9576118a8614bd0565b5b906000526020600020906009020160070181905550611972565b6000600882815481106118d9576118d8614bd0565b5b906000526020600020906009020160080154111561197157611945816008838154811061190957611908614bd0565b5b9060005260206000209060090201600801546003600460009054906101000a900473ffffffffffffffffffffffffffffffffffffffff1661325e565b60006008828154811061195b5761195a614bd0565b5b9060005260206000209060090201600801819055505b5b5b60006008828154811061198957611988614bd0565b5b9060005260206000209060090201600201541115611a05576000600882815481106119b7576119b6614bd0565b5b9060005260206000209060090201600201819055507fadd9d74ee9c338ee8881c6d3644817247d1550a0488e3edb096f7fc0c445185360016040516119fc91906142a3565b60405180910390a15b600260088281548110611a1b57611a1a614bd0565b5b9060005260206000209060090201600401819055506001808190555050565b611a4261311c565b60086040518061012001604052806008805490508152602001600073ffffffffffffffffffffffffffffffffffffffff1681526020016000815260200160008152602001600181526020016101f481526020016000815260200160008152602001600081525090806001815401808255809150506001900390600052602060002090600902016000909190919091506000820151816000015560208201518160010160006101000a81548173ffffffffffffffffffffffffffffffffffffffff021916908373ffffffffffffffffffffffffffffffffffffffff16021790555060408201518160020155606082015181600301556080820151816004015560a0820151816005015560c0820151816006015560e0820151816007015561010082015181600801555050600b604051806101200160405280600b8054905081526020016000815260200166038d7ea4c680008152602001600081526020013373ffffffffffffffffffffffffffffffffffffffff168152602001600073ffffffffffffffffffffffffffffffffffffffff1681526020016000815260200160008152602001600181525090806001815401808255809150506001900390600052602060002090600902016000909190919091506000820151816000015560208201518160010155604082015181600201556060820151816003015560808201518160040160006101000a81548173ffffffffffffffffffffffffffffffffffffffff021916908373ffffffffffffffffffffffffffffffffffffffff16021790555060a08201518160050160006101000a81548173ffffffffffffffffffffffffffffffffffffffff021916908373ffffffffffffffffffffffffffffffffffffffff16021790555060c0820151816006015560e0820151816007015561010082015181600801555050565b60065481565b6000806000905060005b600980549050811015611d59578360098281548110611d1f57611d1e614bd0565b5b9060005260206000209060070201600401541415611d46578180611d4290615213565b9250505b8080611d5190615213565b915050611cfd565b5080915050919050565b600080600090508281611d769190614e15565b905060005b600980549050811015611e69578460098281548110611d9d57611d9c614bd0565b5b906000526020600020906007020160040154148015611de15750600160098281548110611dcd57611dcc614bd0565b5b906000526020600020906007020160050154145b8015611e4257508360098281548110611dfd57611dfc614bd0565b5b90600052602060002090600702016003015460098381548110611e2357611e22614bd0565b5b906000526020600020906007020160020154611e3f919061525c565b10155b15611e56578382611e539190614e15565b91505b8080611e6190615213565b915050611d7b565b508091505092915050565b600063bc197c8160e01b905095945050505050565b6000806000905060005b600980549050811015611f81578460098281548110611eb557611eb4614bd0565b5b906000526020600020906007020160040154148015611ef95750600160098281548110611ee557611ee4614bd0565b5b906000526020600020906007020160050154145b8015611f5a57508360098281548110611f1557611f14614bd0565b5b90600052602060002090600702016003015460098381548110611f3b57611f3a614bd0565b5b906000526020600020906007020160020154611f57919061525c565b10155b15611f6e578180611f6a90615213565b9250505b8080611f7990615213565b915050611e93565b508091505092915050565b6000806000905060005b600a80549050811015611ff25783600a8281548110611fb857611fb7614bd0565b5b9060005260206000209060060201600101541415611fdf578180611fdb90615213565b9250505b8080611fea90615213565b915050611f96565b5080915050919050565b6000821161203f576040517f08c379a000000000000000000000000000000000000000000000000000000000815260040161203690615302565b60405180910390fd5b600081905060008173ffffffffffffffffffffffffffffffffffffffff166370a08231336040518263ffffffff1660e01b815260040161207f91906145c8565b60206040518083038186803b15801561209757600080fd5b505afa1580156120ab573d6000803e3d6000fd5b505050506040513d601f19601f820116820180604052508101906120cf9190614ff8565b905080841115612114576040517f08c379a000000000000000000000000000000000000000000000000000000000815260040161210b9061536e565b60405180910390fd5b8173ffffffffffffffffffffffffffffffffffffffff166323b872dd3330876040518463ffffffff1660e01b815260040161215193929190614e6b565b602060405180830381600087803b15801561216b57600080fd5b505af115801561217f573d6000803e3d6000fd5b505050506040513d601f19601f820116820180604052508101906121a39190614ece565b50600b604051806101200160405280600b8054905081526020018881526020018781526020018781526020013373ffffffffffffffffffffffffffffffffffffffff1681526020018573ffffffffffffffffffffffffffffffffffffffff16815260200186815260200160008152602001600281525090806001815401808255809150506001900390600052602060002090600902016000909190919091506000820151816000015560208201518160010155604082015181600201556060820151816003015560808201518160040160006101000a81548173ffffffffffffffffffffffffffffffffffffffff021916908373ffffffffffffffffffffffffffffffffffffffff16021790555060a08201518160050160006101000a81548173ffffffffffffffffffffffffffffffffffffffff021916908373ffffffffffffffffffffffffffffffffffffffff16021790555060c0820151816006015560e08201518160070155610100820151816008015550507f275f0dc6a40778333db8eafe4d1167bdc1603c7ab7f4870fa6b0ace4041be091600b805490503385878a6000604051612358969594939291906150b4565b60405180910390a1505050505050565b600260015414156123ae576040517f08c379a00000000000000000000000000000000000000000000000000000000081526004016123a5906151f3565b60405180910390fd5b60026001819055506001600882815481106123cc576123cb614bd0565b5b9060005260206000209060090201600401541461241e576040517f08c379a000000000000000000000000000000000000000000000000000000000815260040161241590614cee565b60405180910390fd5b60006008828154811061243457612433614bd0565b5b90600052602060002090600902016006015411156124cc576124a0816008838154811061246457612463614bd0565b5b9060005260206000209060090201600601546001600260009054906101000a900473ffffffffffffffffffffffffffffffffffffffff166139c1565b6000600882815481106124b6576124b5614bd0565b5b9060005260206000209060090201600601819055505b6000600882815481106124e2576124e1614bd0565b5b906000526020600020906009020160070154111561257a5761254e816008838154811061251257612511614bd0565b5b9060005260206000209060090201600701546002600360009054906101000a900473ffffffffffffffffffffffffffffffffffffffff166139c1565b60006008828154811061256457612563614bd0565b5b9060005260206000209060090201600701819055505b6000600882815481106125905761258f614bd0565b5b9060005260206000209060090201600801541115612628576125fc81600883815481106125c0576125bf614bd0565b5b9060005260206000209060090201600801546003600460009054906101000a900473ffffffffffffffffffffffffffffffffffffffff166139c1565b60006008828154811061261257612611614bd0565b5b9060005260206000209060090201600801819055505b60006008828154811061263e5761263d614bd0565b5b90600052602060002090600902016002015414156127295760006008828154811061266c5761266b614bd0565b5b9060005260206000209060090201600401819055507f36ea5cd5608625e789af0282eecdb4eae1cb7c1cf6d0ec3f9a84f35be850260b600882815481106126b6576126b5614bd0565b5b906000526020600020906009020160010160009054906101000a900473ffffffffffffffffffffffffffffffffffffffff16600883815481106126fc576126fb614bd0565b5b90600052602060002090600902016000015460405161271c929190614fba565b60405180910390a161278d565b60006008828154811061273f5761273e614bd0565b5b9060005260206000209060090201600201819055507fadd9d74ee9c338ee8881c6d3644817247d1550a0488e3edb096f7fc0c4451853600160405161278491906142a3565b60405180910390a15b6001808190555050565b600063f23a6e6160e01b905095945050505050565b6127b461311c565b600073ffffffffffffffffffffffffffffffffffffffff168173ffffffffffffffffffffffffffffffffffffffff161415612824576040517f08c379a000000000000000000000000000000000000000000000000000000000815260040161281b90615400565b60405180910390fd5b61282d8161319a565b50565b600b818154811061284057600080fd5b90600052602060002090600902016000915090508060000154908060010154908060020154908060030154908060040160009054906101000a900473ffffffffffffffffffffffffffffffffffffffff16908060050160009054906101000a900473ffffffffffffffffffffffffffffffffffffffff16908060060154908060070154908060080154905089565b600460009054906101000a900473ffffffffffffffffffffffffffffffffffffffff1681565b600a818154811061290457600080fd5b90600052602060002090600602016000915090508060000154908060010154908060020160009054906101000a900473ffffffffffffffffffffffffffffffffffffffff16908060030154908060040154908060050154905086565b60007f01ffc9a7000000000000000000000000000000000000000000000000000000007bffffffffffffffffffffffffffffffffffffffffffffffffffffffff1916827bffffffffffffffffffffffffffffffffffffffffffffffffffffffff1916149050919050565b6000806000905060005b600980549050811015612e4d5783600982815481106129f6576129f5614bd0565b5b90600052602060002090600702016003015460098381548110612a1c57612a1b614bd0565b5b906000526020600020906007020160020154612a38919061525c565b10158015612a6a57508460098281548110612a5657612a55614bd0565b5b906000526020600020906007020160040154145b8015612a9b5750600160098281548110612a8757612a86614bd0565b5b906000526020600020906007020160050154145b15612e3a578360098281548110612ab557612ab4614bd0565b5b90600052602060002090600702016003016000828254612ad59190614e15565b925050819055508360088681548110612af157612af0614bd0565b5b90600052602060002090600902016002016000828254612b119190614e15565b925050819055508382612b249190614e15565b9150600160098281548110612b3c57612b3b614bd0565b5b9060005260206000209060070201600601541415612b95578360088681548110612b6957612b68614bd0565b5b90600052602060002090600902016006016000828254612b899190614e15565b92505081905550612c71565b600260098281548110612bab57612baa614bd0565b5b9060005260206000209060070201600601541415612c04578360088681548110612bd857612bd7614bd0565b5b90600052602060002090600902016007016000828254612bf89190614e15565b92505081905550612c70565b600360098281548110612c1a57612c19614bd0565b5b9060005260206000209060070201600601541415612c6f578360088681548110612c4757612c46614bd0565b5b90600052602060002090600902016008016000828254612c679190614e15565b925050819055505b5b5b60098181548110612c8557612c84614bd0565b5b90600052602060002090600702016003015460098281548110612cab57612caa614bd0565b5b9060005260206000209060070201600201541415612db957600260098281548110612cd957612cd8614bd0565b5b9060005260206000209060070201600501819055507f344f3c440bc0a199d8ebf3e014b04b0be7f494a3e35bc4c4b162dbf9edb2452160098281548110612d2357612d22614bd0565b5b906000526020600020906007020160010160009054906101000a900473ffffffffffffffffffffffffffffffffffffffff1660098381548110612d6957612d68614bd0565b5b90600052602060002090600702016002015460098481548110612d8f57612d8e614bd0565b5b906000526020600020906007020160040154604051612db093929190615420565b60405180910390a15b7ff8d3b803c2699d3e25440474a9089daa89195298415edaf5cb5ff73d4cad4d4460098281548110612dee57612ded614bd0565b5b906000526020600020906007020160010160009054906101000a900473ffffffffffffffffffffffffffffffffffffffff168587604051612e3193929190615420565b60405180910390a15b8080612e4590615213565b9150506129d4565b508091505092915050565b6001600b8281548110612e6e57612e6d614bd0565b5b90600052602060002090600902016008015414612ec0576040517f08c379a0000000000000000000000000000000000000000000000000000000008152600401612eb7906154a3565b60405180910390fd5b600b8181548110612ed457612ed3614bd0565b5b906000526020600020906009020160020154600b8281548110612efa57612ef9614bd0565b5b90600052602060002090600902016003015410612f4c576040517f08c379a0000000000000000000000000000000000000000000000000000000008152600401612f439061550f565b60405180910390fd5b6001600b8281548110612f6257612f61614bd0565b5b906000526020600020906009020160030154612f7e9190614e15565b600b8281548110612f9257612f91614bd0565b5b906000526020600020906009020160030181905550600c6040518060800160405280600b8481548110612fc857612fc7614bd0565b5b9060005260206000209060090201600001548152602001600c8054905081526020013373ffffffffffffffffffffffffffffffffffffffff16815260200160018152509080600181540180825580915050600190039060005260206000209060040201600090919091909150600082015181600001556020820151816001015560408201518160020160006101000a81548173ffffffffffffffffffffffffffffffffffffffff021916908373ffffffffffffffffffffffffffffffffffffffff160217905550606082015181600301555050600b81815481106130af576130ae614bd0565b5b906000526020600020906009020160020154600b82815481106130d5576130d4614bd0565b5b9060005260206000209060090201600301541415613119576005600b828154811061310357613102614bd0565b5b9060005260206000209060090201600801819055505b50565b6131246141e7565b73ffffffffffffffffffffffffffffffffffffffff16613142611680565b73ffffffffffffffffffffffffffffffffffffffff1614613198576040517f08c379a000000000000000000000000000000000000000000000000000000000815260040161318f9061557b565b60405180910390fd5b565b60008060009054906101000a900473ffffffffffffffffffffffffffffffffffffffff169050816000806101000a81548173ffffffffffffffffffffffffffffffffffffffff021916908373ffffffffffffffffffffffffffffffffffffffff1602179055508173ffffffffffffffffffffffffffffffffffffffff168173ffffffffffffffffffffffffffffffffffffffff167f8be0079c531659141344cd1fd0a4f28419497f9722a3daafe3b4186f6b6457e060405160405180910390a35050565b8073ffffffffffffffffffffffffffffffffffffffff1663095ea7b330856040518363ffffffff1660e01b8152600401613299929190614fba565b602060405180830381600087803b1580156132b357600080fd5b505af11580156132c7573d6000803e3d6000fd5b505050506040513d601f19601f820116820180604052508101906132eb9190614ece565b50600060646001856132fd919061559b565b6133079190615624565b905060008185613317919061525c565b90508273ffffffffffffffffffffffffffffffffffffffff166323b872dd30600560009054906101000a900473ffffffffffffffffffffffffffffffffffffffff16856040518463ffffffff1660e01b815260040161337893929190614e6b565b602060405180830381600087803b15801561339257600080fd5b505af11580156133a6573d6000803e3d6000fd5b505050506040513d601f19601f820116820180604052508101906133ca9190614ece565b507fa4c6a382f73ff9613852e022f107d783974efe6f56975cafa30fcf48256f093560088781548110613400576133ff614bd0565b5b906000526020600020906009020160010160009054906101000a900473ffffffffffffffffffffffffffffffffffffffff1683604051613441929190614fba565b60405180910390a18273ffffffffffffffffffffffffffffffffffffffff166323b872dd306008898154811061347a57613479614bd0565b5b906000526020600020906009020160010160009054906101000a900473ffffffffffffffffffffffffffffffffffffffff16846040518463ffffffff1660e01b81526004016134cb93929190614e6b565b602060405180830381600087803b1580156134e557600080fd5b505af11580156134f9573d6000803e3d6000fd5b505050506040513d601f19601f8201168201806040525081019061351d9190614ece565b507f3b5e2b80c7d0cf08e68f899d74d0769f512f6e79840f1ea3b78fe642139099966008878154811061355357613552614bd0565b5b906000526020600020906009020160010160009054906101000a900473ffffffffffffffffffffffffffffffffffffffff16868660405161359693929190615420565b60405180910390a184600887815481106135b3576135b2614bd0565b5b906000526020600020906009020160020160008282546135d3919061525c565b9250508190555060005b6009805490508110156139b85786600982815481106135ff576135fe614bd0565b5b906000526020600020906007020160040154148015613643575060016009828154811061362f5761362e614bd0565b5b906000526020600020906007020160050154145b80156136735750846009828154811061365f5761365e614bd0565b5b906000526020600020906007020160060154145b156139a5576009818154811061368c5761368b614bd0565b5b906000526020600020906007020160030154600982815481106136b2576136b1614bd0565b5b906000526020600020906007020160020154111561394e576000600982815481106136e0576136df614bd0565b5b9060005260206000209060070201600301546009838154811061370657613705614bd0565b5b906000526020600020906007020160020154613722919061525c565b90508473ffffffffffffffffffffffffffffffffffffffff1663095ea7b330836040518363ffffffff1660e01b815260040161375f929190614fba565b602060405180830381600087803b15801561377957600080fd5b505af115801561378d573d6000803e3d6000fd5b505050506040513d601f19601f820116820180604052508101906137b19190614ece565b508473ffffffffffffffffffffffffffffffffffffffff166323b872dd3060098b815481106137e3576137e2614bd0565b5b906000526020600020906007020160010160009054906101000a900473ffffffffffffffffffffffffffffffffffffffff16846040518463ffffffff1660e01b815260040161383493929190614e6b565b602060405180830381600087803b15801561384e57600080fd5b505af1158015613862573d6000803e3d6000fd5b505050506040513d601f19601f820116820180604052508101906138869190614ece565b507f98c105e3bc1ca4c7a99cdea9cd2e2c7a0fbf623404262d3dfd0a152545bd25ad600983815481106138bc576138bb614bd0565b5b906000526020600020906007020160010160009054906101000a900473ffffffffffffffffffffffffffffffffffffffff168260088b8154811061390357613902614bd0565b5b906000526020600020906009020160010160009054906101000a900473ffffffffffffffffffffffffffffffffffffffff1660405161394493929190615655565b60405180910390a1505b60006009828154811061396457613963614bd0565b5b90600052602060002090600702016003018190555060026009828154811061398f5761398e614bd0565b5b9060005260206000209060070201600501819055505b80806139b090615213565b9150506135dd565b50505050505050565b60005b600980549050811015613e1c5784600982815481106139e6576139e5614bd0565b5b906000526020600020906007020160040154148015613a2a5750600160098281548110613a1657613a15614bd0565b5b906000526020600020906007020160050154145b8015613a5a57508260098281548110613a4657613a45614bd0565b5b906000526020600020906007020160060154145b15613e095760098181548110613a7357613a72614bd0565b5b90600052602060002090600702016003015460098281548110613a9957613a98614bd0565b5b9060005260206000209060070201600201541115613d49578173ffffffffffffffffffffffffffffffffffffffff1663095ea7b33060098481548110613ae257613ae1614bd0565b5b9060005260206000209060070201600201546040518363ffffffff1660e01b8152600401613b11929190614fba565b602060405180830381600087803b158015613b2b57600080fd5b505af1158015613b3f573d6000803e3d6000fd5b505050506040513d601f19601f82011682018060405250810190613b639190614ece565b508173ffffffffffffffffffffffffffffffffffffffff166323b872dd3060098481548110613b9557613b94614bd0565b5b906000526020600020906007020160010160009054906101000a900473ffffffffffffffffffffffffffffffffffffffff1660098581548110613bdb57613bda614bd0565b5b9060005260206000209060070201600201546040518463ffffffff1660e01b8152600401613c0b93929190614e6b565b602060405180830381600087803b158015613c2557600080fd5b505af1158015613c39573d6000803e3d6000fd5b505050506040513d601f19601f82011682018060405250810190613c5d9190614ece565b507f98c105e3bc1ca4c7a99cdea9cd2e2c7a0fbf623404262d3dfd0a152545bd25ad60098281548110613c9357613c92614bd0565b5b906000526020600020906007020160010160009054906101000a900473ffffffffffffffffffffffffffffffffffffffff1660098381548110613cd957613cd8614bd0565b5b90600052602060002090600702016002015460088481548110613cff57613cfe614bd0565b5b906000526020600020906009020160010160009054906101000a900473ffffffffffffffffffffffffffffffffffffffff16604051613d4093929190615655565b60405180910390a15b60098181548110613d5d57613d5c614bd0565b5b90600052602060002090600702016002015460088681548110613d8357613d82614bd0565b5b90600052602060002090600902016002016000828254613da3919061525c565b92505081905550600460098281548110613dc057613dbf614bd0565b5b90600052602060002090600702016005018190555060098181548110613de957613de8614bd0565b5b90600052602060002090600702016002015484613e06919061525c565b93505b8080613e1490615213565b9150506139c4565b5060005b600a805490508110156141e05784600a8281548110613e4257613e41614bd0565b5b906000526020600020906006020160010154148015613e8657506000600a8281548110613e7257613e71614bd0565b5b906000526020600020906006020160040154145b8015613eb6575082600a8281548110613ea257613ea1614bd0565b5b906000526020600020906006020160050154145b156141cd578173ffffffffffffffffffffffffffffffffffffffff1663095ea7b330600a8481548110613eec57613eeb614bd0565b5b9060005260206000209060060201600301546040518363ffffffff1660e01b8152600401613f1b929190614fba565b602060405180830381600087803b158015613f3557600080fd5b505af1158015613f49573d6000803e3d6000fd5b505050506040513d601f19601f82011682018060405250810190613f6d9190614ece565b508173ffffffffffffffffffffffffffffffffffffffff166323b872dd30600a8481548110613f9f57613f9e614bd0565b5b906000526020600020906006020160020160009054906101000a900473ffffffffffffffffffffffffffffffffffffffff16600a8581548110613fe557613fe4614bd0565b5b9060005260206000209060060201600301546040518463ffffffff1660e01b815260040161401593929190614e6b565b602060405180830381600087803b15801561402f57600080fd5b505af1158015614043573d6000803e3d6000fd5b505050506040513d601f19601f820116820180604052508101906140679190614ece565b50600a818154811061407c5761407b614bd0565b5b906000526020600020906006020160030154600886815481106140a2576140a1614bd0565b5b906000526020600020906009020160020160008282546140c2919061525c565b92505081905550600a81815481106140dd576140dc614bd0565b5b906000526020600020906006020160030154846140fa919061525c565b93506004600a828154811061411257614111614bd0565b5b9060005260206000209060060201600401819055507f2dc8e290002f06fc0085bbca9dfb8b415cf4d1178950c72ff9ee8f4d8878ee66600a828154811061415c5761415b614bd0565b5b906000526020600020906006020160020160009054906101000a900473ffffffffffffffffffffffffffffffffffffffff16600a83815481106141a2576141a1614bd0565b5b906000526020600020906006020160030154876040516141c493929190615420565b60405180910390a15b80806141d890615213565b915050613e20565b5050505050565b600033905090565b6000604051905090565b600080fd5b600080fd5b60007fffffffff0000000000000000000000000000000000000000000000000000000082169050919050565b61423881614203565b811461424357600080fd5b50565b6000813590506142558161422f565b92915050565b600060208284031215614271576142706141f9565b5b600061427f84828501614246565b91505092915050565b60008115159050919050565b61429d81614288565b82525050565b60006020820190506142b86000830184614294565b92915050565b6000819050919050565b6142d1816142be565b81146142dc57600080fd5b50565b6000813590506142ee816142c8565b92915050565b60006020828403121561430a576143096141f9565b5b6000614318848285016142df565b91505092915050565b61432a816142be565b82525050565b600073ffffffffffffffffffffffffffffffffffffffff82169050919050565b600061435b82614330565b9050919050565b61436b81614350565b82525050565b60006080820190506143866000830187614321565b6143936020830186614321565b6143a06040830185614362565b6143ad6060830184614321565b95945050505050565b600060e0820190506143cb600083018a614321565b6143d86020830189614362565b6143e56040830188614321565b6143f26060830187614321565b6143ff6080830186614321565b61440c60a0830185614321565b61441960c0830184614321565b98975050505050505050565b600080600080600060a08688031215614441576144406141f9565b5b600061444f888289016142df565b9550506020614460888289016142df565b9450506040614471888289016142df565b9350506060614482888289016142df565b9250506080614493888289016142df565b9150509295509295909350565b60006020820190506144b56000830184614321565b92915050565b6000819050919050565b60006144e06144db6144d684614330565b6144bb565b614330565b9050919050565b60006144f2826144c5565b9050919050565b6000614504826144e7565b9050919050565b614514816144f9565b82525050565b600060208201905061452f600083018461450b565b92915050565b61453e81614350565b811461454957600080fd5b50565b60008135905061455b81614535565b92915050565b6000806000806080858703121561457b5761457a6141f9565b5b6000614589878288016142df565b945050602061459a878288016142df565b93505060406145ab8782880161454c565b92505060606145bc878288016142df565b91505092959194509250565b60006020820190506145dd6000830184614362565b92915050565b6000610120820190506145f9600083018c614321565b614606602083018b614362565b614613604083018a614321565b6146206060830189614321565b61462d6080830188614321565b61463a60a0830187614321565b61464760c0830186614321565b61465460e0830185614321565b614662610100830184614321565b9a9950505050505050505050565b60008060408385031215614687576146866141f9565b5b6000614695858286016142df565b92505060206146a6858286016142df565b9150509250929050565b600080fd5b6000601f19601f8301169050919050565b7f4e487b7100000000000000000000000000000000000000000000000000000000600052604160045260246000fd5b6146fe826146b5565b810181811067ffffffffffffffff8211171561471d5761471c6146c6565b5b80604052505050565b60006147306141ef565b905061473c82826146f5565b919050565b600067ffffffffffffffff82111561475c5761475b6146c6565b5b602082029050602081019050919050565b600080fd5b600061478561478084614741565b614726565b905080838252602082019050602084028301858111156147a8576147a761476d565b5b835b818110156147d157806147bd88826142df565b8452602084019350506020810190506147aa565b5050509392505050565b600082601f8301126147f0576147ef6146b0565b5b8135614800848260208601614772565b91505092915050565b600080fd5b600067ffffffffffffffff821115614829576148286146c6565b5b614832826146b5565b9050602081019050919050565b82818337600083830152505050565b600061486161485c8461480e565b614726565b90508281526020810184848401111561487d5761487c614809565b5b61488884828561483f565b509392505050565b600082601f8301126148a5576148a46146b0565b5b81356148b584826020860161484e565b91505092915050565b600080600080600060a086880312156148da576148d96141f9565b5b60006148e88882890161454c565b95505060206148f98882890161454c565b945050604086013567ffffffffffffffff81111561491a576149196141fe565b5b614926888289016147db565b935050606086013567ffffffffffffffff811115614947576149466141fe565b5b614953888289016147db565b925050608086013567ffffffffffffffff811115614974576149736141fe565b5b61498088828901614890565b9150509295509295909350565b61499681614203565b82525050565b60006020820190506149b1600083018461498d565b92915050565b600080600080608085870312156149d1576149d06141f9565b5b60006149df878288016142df565b94505060206149f0878288016142df565b9350506040614a01878288016142df565b9250506060614a128782880161454c565b91505092959194509250565b600080600080600060a08688031215614a3a57614a396141f9565b5b6000614a488882890161454c565b9550506020614a598882890161454c565b9450506040614a6a888289016142df565b9350506060614a7b888289016142df565b925050608086013567ffffffffffffffff811115614a9c57614a9b6141fe565b5b614aa888828901614890565b9150509295509295909350565b600060208284031215614acb57614aca6141f9565b5b6000614ad98482850161454c565b91505092915050565b600061012082019050614af8600083018c614321565b614b05602083018b614321565b614b12604083018a614321565b614b1f6060830189614321565b614b2c6080830188614362565b614b3960a0830187614362565b614b4660c0830186614321565b614b5360e0830185614321565b614b61610100830184614321565b9a9950505050505050505050565b600060c082019050614b846000830189614321565b614b916020830188614321565b614b9e6040830187614362565b614bab6060830186614321565b614bb86080830185614321565b614bc560a0830184614321565b979650505050505050565b7f4e487b7100000000000000000000000000000000000000000000000000000000600052603260045260246000fd5b600082825260208201905092915050565b7f446561646c696e6520666f722063726f776466756e64696e672068617320706160008201527f737365642e000000000000000000000000000000000000000000000000000000602082015250565b6000614c6c602583614bff565b9150614c7782614c10565b604082019050919050565b60006020820190508181036000830152614c9b81614c5f565b9050919050565b7f46756e64206973206e6f74206163746976650000000000000000000000000000600082015250565b6000614cd8601283614bff565b9150614ce382614ca2565b602082019050919050565b60006020820190508181036000830152614d0781614ccb565b9050919050565b7f496e76616c696420616464726573730000000000000000000000000000000000600082015250565b6000614d44600f83614bff565b9150614d4f82614d0e565b602082019050919050565b60006020820190508181036000830152614d7381614d37565b9050919050565b7f496e76616c696420616d6f756e74000000000000000000000000000000000000600082015250565b6000614db0600e83614bff565b9150614dbb82614d7a565b602082019050919050565b60006020820190508181036000830152614ddf81614da3565b9050919050565b7f4e487b7100000000000000000000000000000000000000000000000000000000600052601160045260246000fd5b6000614e20826142be565b9150614e2b836142be565b9250827fffffffffffffffffffffffffffffffffffffffffffffffffffffffffffffffff03821115614e6057614e5f614de6565b5b828201905092915050565b6000606082019050614e806000830186614362565b614e8d6020830185614362565b614e9a6040830184614321565b949350505050565b614eab81614288565b8114614eb657600080fd5b50565b600081519050614ec881614ea2565b92915050565b600060208284031215614ee457614ee36141f9565b5b6000614ef284828501614eb9565b91505092915050565b7f496e76616c69642063757272656e637900000000000000000000000000000000600082015250565b6000614f31601083614bff565b9150614f3c82614efb565b602082019050919050565b60006020820190508181036000830152614f6081614f24565b9050919050565b600060a082019050614f7c6000830188614362565b614f896020830187614321565b614f966040830186614321565b614fa36060830185614321565b614fb06080830184614321565b9695505050505050565b6000604082019050614fcf6000830185614362565b614fdc6020830184614321565b9392505050565b600081519050614ff2816142c8565b92915050565b60006020828403121561500e5761500d6141f9565b5b600061501c84828501614fe3565b91505092915050565b600082825260208201905092915050565b50565b6000615046600083615025565b915061505182615036565b600082019050919050565b600060a0820190506150716000830187614362565b61507e6020830186614362565b61508b6040830185614321565b6150986060830184614321565b81810360808301526150a981615039565b905095945050505050565b600060c0820190506150c96000830189614321565b6150d66020830188614362565b6150e36040830187614362565b6150f06060830186614321565b6150fd6080830185614321565b61510a60a0830184614294565b979650505050505050565b7f56616c7565206973206c6f776572207468616e206d696e696d756d20706f737360008201527f69626c6520616d6f756e74000000000000000000000000000000000000000000602082015250565b6000615171602b83614bff565b915061517c82615115565b604082019050919050565b600060208201905081810360008301526151a081615164565b9050919050565b7f5265656e7472616e637947756172643a207265656e7472616e742063616c6c00600082015250565b60006151dd601f83614bff565b91506151e8826151a7565b602082019050919050565b6000602082019050818103600083015261520c816151d0565b9050919050565b600061521e826142be565b91507fffffffffffffffffffffffffffffffffffffffffffffffffffffffffffffffff82141561525157615250614de6565b5b600182019050919050565b6000615267826142be565b9150615272836142be565b92508282101561528557615284614de6565b5b828203905092915050565b7f52657761726420616d6f756e742073686f756c6420626520686967686572207460008201527f68616e2030000000000000000000000000000000000000000000000000000000602082015250565b60006152ec602583614bff565b91506152f782615290565b604082019050919050565b6000602082019050818103600083015261531b816152df565b9050919050565b7f4e6f7420656e6f75676820746f6b656e20696e2077616c6c6574000000000000600082015250565b6000615358601a83614bff565b915061536382615322565b602082019050919050565b600060208201905081810360008301526153878161534b565b9050919050565b7f4f776e61626c653a206e6577206f776e657220697320746865207a65726f206160008201527f6464726573730000000000000000000000000000000000000000000000000000602082015250565b60006153ea602683614bff565b91506153f58261538e565b604082019050919050565b60006020820190508181036000830152615419816153dd565b9050919050565b60006060820190506154356000830186614362565b6154426020830185614321565b61544f6040830184614321565b949350505050565b7f526577617264206973206e6f7420616374697665206f722066756c6c00000000600082015250565b600061548d601c83614bff565b915061549882615457565b602082019050919050565b600060208201905081810360008301526154bc81615480565b9050919050565b7f416c6c2072657761726473206172652064697374726962757465640000000000600082015250565b60006154f9601b83614bff565b9150615504826154c3565b602082019050919050565b60006020820190508181036000830152615528816154ec565b9050919050565b7f4f776e61626c653a2063616c6c6572206973206e6f7420746865206f776e6572600082015250565b6000615565602083614bff565b91506155708261552f565b602082019050919050565b6000602082019050818103600083015261559481615558565b9050919050565b60006155a6826142be565b91506155b1836142be565b9250817fffffffffffffffffffffffffffffffffffffffffffffffffffffffffffffffff04831182151516156155ea576155e9614de6565b5b828202905092915050565b7f4e487b7100000000000000000000000000000000000000000000000000000000600052601260045260246000fd5b600061562f826142be565b915061563a836142be565b92508261564a576156496155f5565b5b828204905092915050565b600060608201905061566a6000830186614362565b6156776020830185614321565b6156846040830184614362565b94935050505056fea2646970667358221220a21fd30b2b8865d15622e0171bad6663497457390909295644f037d7cf7651ac64736f6c63430008090033",
  "linkReferences": {},
  "deployedLinkReferences": {}
}