{
  "_format": "hh-sol-artifact-1",
  "contractName": "Funding",
  "sourceName": "contracts/Funding.sol",
  "abi": [
    {
      "inputs": [
        {
          "internalType": "address",
          "name": "usdcAddress",
          "type": "address"
        },
        {
          "internalType": "address",
          "name": "usdtAddress",
          "type": "address"
        },
        {
          "internalType": "address",
          "name": "daiAddress",
          "type": "address"
        }
      ],
      "stateMutability": "nonpayable",
      "type": "constructor"
    },
    {
      "anonymous": false,
      "inputs": [
        {
          "indexed": false,
          "internalType": "address",
          "name": "owner",
          "type": "address"
        },
        {
          "indexed": false,
          "internalType": "uint256",
          "name": "fundId",
          "type": "uint256"
        }
      ],
      "name": "Cancelled",
      "type": "event"
    },
    {
      "anonymous": false,
      "inputs": [
        {
          "indexed": false,
          "internalType": "address",
          "name": "owner",
          "type": "address"
        },
        {
          "indexed": false,
          "internalType": "uint256",
          "name": "balance",
          "type": "uint256"
        },
        {
          "indexed": false,
          "internalType": "uint256",
          "name": "currency",
          "type": "uint256"
        }
      ],
      "name": "DistributionAccomplished",
      "type": "event"
    },
    {
      "anonymous": false,
      "inputs": [
        {
          "indexed": false,
          "internalType": "address",
          "name": "donator",
          "type": "address"
        },
        {
          "indexed": false,
          "internalType": "uint256",
          "name": "amount",
          "type": "uint256"
        },
        {
          "indexed": false,
          "internalType": "uint256",
          "name": "fundId",
          "type": "uint256"
        },
        {
          "indexed": false,
          "internalType": "uint256",
          "name": "currency",
          "type": "uint256"
        },
        {
          "indexed": false,
          "internalType": "uint256",
          "name": "microDrained",
          "type": "uint256"
        }
      ],
      "name": "Donated",
      "type": "event"
    },
    {
      "anonymous": false,
      "inputs": [
        {
          "indexed": false,
          "internalType": "uint256",
          "name": "id",
          "type": "uint256"
        }
      ],
      "name": "FundCreated",
      "type": "event"
    },
    {
      "anonymous": false,
      "inputs": [
        {
          "indexed": false,
          "internalType": "address",
          "name": "project",
          "type": "address"
        },
        {
          "indexed": false,
          "internalType": "uint256",
          "name": "fee",
          "type": "uint256"
        }
      ],
      "name": "FundingFee",
      "type": "event"
    },
    {
      "anonymous": false,
      "inputs": [
        {
          "indexed": false,
          "internalType": "bool",
          "name": "status",
          "type": "bool"
        }
      ],
      "name": "IncorrectDistribution",
      "type": "event"
    },
    {
      "anonymous": false,
      "inputs": [
        {
          "indexed": false,
          "internalType": "address",
          "name": "owner",
          "type": "address"
        },
        {
          "indexed": false,
          "internalType": "uint256",
          "name": "cap",
          "type": "uint256"
        },
        {
          "indexed": false,
          "internalType": "uint256",
          "name": "fundId",
          "type": "uint256"
        }
      ],
      "name": "MicroClosed",
      "type": "event"
    },
    {
      "anonymous": false,
      "inputs": [
        {
          "indexed": false,
          "internalType": "address",
          "name": "owner",
          "type": "address"
        },
        {
          "indexed": false,
          "internalType": "uint256",
          "name": "cap",
          "type": "uint256"
        },
        {
          "indexed": false,
          "internalType": "uint256",
          "name": "fundId",
          "type": "uint256"
        },
        {
          "indexed": false,
          "internalType": "uint256",
          "name": "currency",
          "type": "uint256"
        }
      ],
      "name": "MicroCreated",
      "type": "event"
    },
    {
      "anonymous": false,
      "inputs": [
        {
          "indexed": false,
          "internalType": "address",
          "name": "owner",
          "type": "address"
        },
        {
          "indexed": false,
          "internalType": "uint256",
          "name": "amount",
          "type": "uint256"
        },
        {
          "indexed": false,
          "internalType": "uint256",
          "name": "fundId",
          "type": "uint256"
        }
      ],
      "name": "MicroDrained",
      "type": "event"
    },
    {
      "anonymous": false,
      "inputs": [
        {
          "indexed": false,
          "internalType": "address",
          "name": "backer",
          "type": "address"
        },
        {
          "indexed": false,
          "internalType": "address",
          "name": "contractAddress",
          "type": "address"
        },
        {
          "indexed": false,
          "internalType": "uint256",
          "name": "fundId",
          "type": "uint256"
        }
      ],
      "name": "NftReward",
      "type": "event"
    },
    {
      "anonymous": false,
      "inputs": [
        {
          "indexed": true,
          "internalType": "address",
          "name": "previousOwner",
          "type": "address"
        },
        {
          "indexed": true,
          "internalType": "address",
          "name": "newOwner",
          "type": "address"
        }
      ],
      "name": "OwnershipTransferred",
      "type": "event"
    },
    {
      "anonymous": false,
      "inputs": [
        {
          "indexed": false,
          "internalType": "address",
          "name": "project",
          "type": "address"
        },
        {
          "indexed": false,
          "internalType": "uint256",
          "name": "fee",
          "type": "uint256"
        }
      ],
      "name": "PlatformFee",
      "type": "event"
    },
    {
      "anonymous": false,
      "inputs": [
        {
          "indexed": false,
          "internalType": "address",
          "name": "backer",
          "type": "address"
        },
        {
          "indexed": false,
          "internalType": "uint256",
          "name": "amount",
          "type": "uint256"
        },
        {
          "indexed": false,
          "internalType": "uint256",
          "name": "fundId",
          "type": "uint256"
        }
      ],
      "name": "Refunded",
      "type": "event"
    },
    {
      "anonymous": false,
      "inputs": [
        {
          "indexed": false,
          "internalType": "address",
          "name": "microOwner",
          "type": "address"
        },
        {
          "indexed": false,
          "internalType": "uint256",
          "name": "balance",
          "type": "uint256"
        },
        {
          "indexed": false,
          "internalType": "address",
          "name": "fundOwner",
          "type": "address"
        }
      ],
      "name": "Returned",
      "type": "event"
    },
    {
      "anonymous": false,
      "inputs": [
        {
          "indexed": false,
          "internalType": "uint256",
          "name": "rewardId",
          "type": "uint256"
        },
        {
          "indexed": false,
          "internalType": "address",
          "name": "owner",
          "type": "address"
        },
        {
          "indexed": false,
          "internalType": "address",
          "name": "contractAddress",
          "type": "address"
        },
        {
          "indexed": false,
          "internalType": "uint256",
          "name": "amount",
          "type": "uint256"
        },
        {
          "indexed": false,
          "internalType": "uint256",
          "name": "fundId",
          "type": "uint256"
        },
        {
          "indexed": false,
          "internalType": "bool",
          "name": "nftType",
          "type": "bool"
        }
      ],
      "name": "RewardCreated",
      "type": "event"
    },
    {
      "anonymous": false,
      "inputs": [
        {
          "indexed": false,
          "internalType": "address",
          "name": "backer",
          "type": "address"
        },
        {
          "indexed": false,
          "internalType": "uint256",
          "name": "amount",
          "type": "uint256"
        },
        {
          "indexed": false,
          "internalType": "uint256",
          "name": "fundId",
          "type": "uint256"
        }
      ],
      "name": "TokenReward",
      "type": "event"
    },
    {
      "inputs": [
        {
          "internalType": "contract IERC20",
          "name": "_rewardTokenAddress",
          "type": "address"
        }
      ],
      "name": "batchDistribute",
      "outputs": [],
      "stateMutability": "nonpayable",
      "type": "function"
    },
    {
      "inputs": [
        {
          "internalType": "uint256",
          "name": "_index",
          "type": "uint256"
        },
        {
          "internalType": "uint256",
          "name": "_amount",
          "type": "uint256"
        }
      ],
      "name": "calcInvolvedMicros",
      "outputs": [
        {
          "internalType": "uint256",
          "name": "",
          "type": "uint256"
        }
      ],
      "stateMutability": "view",
      "type": "function"
    },
    {
      "inputs": [
        {
          "internalType": "uint256",
          "name": "_index",
          "type": "uint256"
        },
        {
          "internalType": "uint256",
          "name": "_amount",
          "type": "uint256"
        }
      ],
      "name": "calcOutcome",
      "outputs": [
        {
          "internalType": "uint256",
          "name": "",
          "type": "uint256"
        }
      ],
      "stateMutability": "view",
      "type": "function"
    },
    {
      "inputs": [
        {
          "internalType": "uint256",
          "name": "_id",
          "type": "uint256"
        }
      ],
      "name": "cancelFund",
      "outputs": [],
      "stateMutability": "nonpayable",
      "type": "function"
    },
    {
      "inputs": [
        {
          "internalType": "uint256",
          "name": "_fee",
          "type": "uint256"
        }
      ],
      "name": "changeFee",
      "outputs": [],
      "stateMutability": "nonpayable",
      "type": "function"
    },
    {
      "inputs": [
        {
          "internalType": "uint256",
          "name": "_amountM",
          "type": "uint256"
        },
        {
          "internalType": "uint256",
          "name": "_amountD",
          "type": "uint256"
        },
        {
          "internalType": "uint256",
          "name": "_id",
          "type": "uint256"
        },
        {
          "internalType": "uint256",
          "name": "_currency",
          "type": "uint256"
        },
        {
          "internalType": "uint256",
          "name": "_rewardId",
          "type": "uint256"
        }
      ],
      "name": "contribute",
      "outputs": [],
      "stateMutability": "nonpayable",
      "type": "function"
    },
    {
      "inputs": [
        {
          "internalType": "uint256",
          "name": "_level1",
          "type": "uint256"
        }
      ],
      "name": "createFund",
      "outputs": [],
      "stateMutability": "nonpayable",
      "type": "function"
    },
    {
      "inputs": [
        {
          "internalType": "uint256",
          "name": "_fundId",
          "type": "uint256"
        },
        {
          "internalType": "uint256",
          "name": "_totalNumber",
          "type": "uint256"
        },
        {
          "internalType": "address",
          "name": "_nftAddress",
          "type": "address"
        },
        {
          "internalType": "uint256",
          "name": "_nftId",
          "type": "uint256"
        }
      ],
      "name": "createNftReward",
      "outputs": [],
      "stateMutability": "nonpayable",
      "type": "function"
    },
    {
      "inputs": [
        {
          "internalType": "uint256",
          "name": "_fundId",
          "type": "uint256"
        },
        {
          "internalType": "uint256",
          "name": "_totalNumber",
          "type": "uint256"
        },
        {
          "internalType": "uint256",
          "name": "_rewardAmount",
          "type": "uint256"
        },
        {
          "internalType": "address",
          "name": "_rewardAddress",
          "type": "address"
        }
      ],
      "name": "createTokenReward",
      "outputs": [],
      "stateMutability": "nonpayable",
      "type": "function"
    },
    {
      "inputs": [],
      "name": "createZeroData",
      "outputs": [],
      "stateMutability": "nonpayable",
      "type": "function"
    },
    {
      "inputs": [],
      "name": "dai",
      "outputs": [
        {
          "internalType": "contract IERC20",
          "name": "",
          "type": "address"
        }
      ],
      "stateMutability": "view",
      "type": "function"
    },
    {
      "inputs": [
        {
          "internalType": "uint256",
          "name": "_id",
          "type": "uint256"
        }
      ],
      "name": "distribute",
      "outputs": [],
      "stateMutability": "nonpayable",
      "type": "function"
    },
    {
      "inputs": [
        {
          "internalType": "uint256",
          "name": "",
          "type": "uint256"
        }
      ],
      "name": "donations",
      "outputs": [
        {
          "internalType": "uint256",
          "name": "id",
          "type": "uint256"
        },
        {
          "internalType": "uint256",
          "name": "fundId",
          "type": "uint256"
        },
        {
          "internalType": "address",
          "name": "backer",
          "type": "address"
        },
        {
          "internalType": "uint256",
          "name": "amount",
          "type": "uint256"
        },
        {
          "internalType": "uint256",
          "name": "state",
          "type": "uint256"
        },
        {
          "internalType": "uint256",
          "name": "currency",
          "type": "uint256"
        }
      ],
      "stateMutability": "view",
      "type": "function"
    },
    {
      "inputs": [],
      "name": "feeAddress",
      "outputs": [
        {
          "internalType": "address",
          "name": "",
          "type": "address"
        }
      ],
      "stateMutability": "view",
      "type": "function"
    },
    {
      "inputs": [
        {
          "internalType": "uint256",
          "name": "",
          "type": "uint256"
        }
      ],
      "name": "funds",
      "outputs": [
        {
          "internalType": "uint256",
          "name": "id",
          "type": "uint256"
        },
        {
          "internalType": "address",
          "name": "owner",
          "type": "address"
        },
        {
          "internalType": "uint256",
          "name": "balance",
          "type": "uint256"
        },
        {
          "internalType": "uint256",
          "name": "deadline",
          "type": "uint256"
        },
        {
          "internalType": "uint256",
          "name": "state",
          "type": "uint256"
        },
        {
          "internalType": "uint256",
          "name": "level1",
          "type": "uint256"
        },
        {
          "internalType": "uint256",
          "name": "usdcBalance",
          "type": "uint256"
        },
        {
          "internalType": "uint256",
          "name": "usdtBalance",
          "type": "uint256"
        },
        {
          "internalType": "uint256",
          "name": "daiBalance",
          "type": "uint256"
        }
      ],
      "stateMutability": "view",
      "type": "function"
    },
    {
      "inputs": [
        {
          "internalType": "uint256",
          "name": "_index",
          "type": "uint256"
        }
      ],
      "name": "getBackers",
      "outputs": [
        {
          "internalType": "uint256",
          "name": "",
          "type": "uint256"
        }
      ],
      "stateMutability": "view",
      "type": "function"
    },
    {
      "inputs": [
        {
          "internalType": "uint256",
          "name": "_index",
          "type": "uint256"
        }
      ],
      "name": "getConnectedMicroFunds",
      "outputs": [
        {
          "internalType": "uint256",
          "name": "",
          "type": "uint256"
        }
      ],
      "stateMutability": "view",
      "type": "function"
    },
    {
      "inputs": [
        {
          "internalType": "uint256",
          "name": "",
          "type": "uint256"
        }
      ],
      "name": "microFunds",
      "outputs": [
        {
          "internalType": "uint256",
          "name": "microId",
          "type": "uint256"
        },
        {
          "internalType": "address",
          "name": "owner",
          "type": "address"
        },
        {
          "internalType": "uint256",
          "name": "cap",
          "type": "uint256"
        },
        {
          "internalType": "uint256",
          "name": "microBalance",
          "type": "uint256"
        },
        {
          "internalType": "uint256",
          "name": "fundId",
          "type": "uint256"
        },
        {
          "internalType": "uint256",
          "name": "state",
          "type": "uint256"
        },
        {
          "internalType": "uint256",
          "name": "currency",
          "type": "uint256"
        }
      ],
      "stateMutability": "view",
      "type": "function"
    },
    {
      "inputs": [],
      "name": "minAmount",
      "outputs": [
        {
          "internalType": "uint256",
          "name": "",
          "type": "uint256"
        }
      ],
      "stateMutability": "view",
      "type": "function"
    },
    {
      "inputs": [],
      "name": "owner",
      "outputs": [
        {
          "internalType": "address",
          "name": "",
          "type": "address"
        }
      ],
      "stateMutability": "view",
      "type": "function"
    },
    {
      "inputs": [],
      "name": "platformFee",
      "outputs": [
        {
          "internalType": "uint256",
          "name": "",
          "type": "uint256"
        }
      ],
      "stateMutability": "view",
      "type": "function"
    },
    {
      "inputs": [],
      "name": "renounceOwnership",
      "outputs": [],
      "stateMutability": "nonpayable",
      "type": "function"
    },
    {
      "inputs": [
        {
          "internalType": "uint256",
          "name": "",
          "type": "uint256"
        }
      ],
      "name": "rewardList",
      "outputs": [
        {
          "internalType": "uint256",
          "name": "rewardId",
          "type": "uint256"
        },
        {
          "internalType": "uint256",
          "name": "rewardItemId",
          "type": "uint256"
        },
        {
          "internalType": "address",
          "name": "receiver",
          "type": "address"
        },
        {
          "internalType": "uint256",
          "name": "state",
          "type": "uint256"
        }
      ],
      "stateMutability": "view",
      "type": "function"
    },
    {
      "inputs": [
        {
          "internalType": "uint256",
          "name": "",
          "type": "uint256"
        }
      ],
      "name": "rewards",
      "outputs": [
        {
          "internalType": "uint256",
          "name": "rewardId",
          "type": "uint256"
        },
        {
          "internalType": "uint256",
          "name": "fundId",
          "type": "uint256"
        },
        {
          "internalType": "uint256",
          "name": "totalNumber",
          "type": "uint256"
        },
        {
          "internalType": "uint256",
          "name": "actualNumber",
          "type": "uint256"
        },
        {
          "internalType": "address",
          "name": "owner",
          "type": "address"
        },
        {
          "internalType": "address",
          "name": "contractAddress",
          "type": "address"
        },
        {
          "internalType": "uint256",
          "name": "erc20amount",
          "type": "uint256"
        },
        {
          "internalType": "uint256",
          "name": "nftId",
          "type": "uint256"
        },
        {
          "internalType": "uint256",
          "name": "state",
          "type": "uint256"
        }
      ],
      "stateMutability": "view",
      "type": "function"
    },
    {
      "inputs": [
        {
          "internalType": "uint256",
          "name": "_min",
          "type": "uint256"
        }
      ],
      "name": "setMinimum",
      "outputs": [],
      "stateMutability": "nonpayable",
      "type": "function"
    },
    {
      "inputs": [
        {
          "internalType": "address",
          "name": "newOwner",
          "type": "address"
        }
      ],
      "name": "transferOwnership",
      "outputs": [],
      "stateMutability": "nonpayable",
      "type": "function"
    },
    {
      "inputs": [],
      "name": "usdc",
      "outputs": [
        {
          "internalType": "contract IERC20",
          "name": "",
          "type": "address"
        }
      ],
      "stateMutability": "view",
      "type": "function"
    },
    {
      "inputs": [],
      "name": "usdt",
      "outputs": [
        {
          "internalType": "contract IERC20",
          "name": "",
          "type": "address"
        }
      ],
      "stateMutability": "view",
      "type": "function"
    }
  ],
  "bytecode": "0x608060405273c21223249ca28397b4b6541dffaecc539bff0c59600560006101000a81548173ffffffffffffffffffffffffffffffffffffffff021916908373ffffffffffffffffffffffffffffffffffffffff160217905550600160065560016007553480156200007057600080fd5b5060405162005f6438038062005f648339818101604052810190620000969190620002bf565b620000b6620000aa6200018960201b60201c565b6200019160201b60201c565b6001808190555082600260006101000a81548173ffffffffffffffffffffffffffffffffffffffff021916908373ffffffffffffffffffffffffffffffffffffffff16021790555081600360006101000a81548173ffffffffffffffffffffffffffffffffffffffff021916908373ffffffffffffffffffffffffffffffffffffffff16021790555080600460006101000a81548173ffffffffffffffffffffffffffffffffffffffff021916908373ffffffffffffffffffffffffffffffffffffffff1602179055505050506200031b565b600033905090565b60008060009054906101000a900473ffffffffffffffffffffffffffffffffffffffff169050816000806101000a81548173ffffffffffffffffffffffffffffffffffffffff021916908373ffffffffffffffffffffffffffffffffffffffff1602179055508173ffffffffffffffffffffffffffffffffffffffff168173ffffffffffffffffffffffffffffffffffffffff167f8be0079c531659141344cd1fd0a4f28419497f9722a3daafe3b4186f6b6457e060405160405180910390a35050565b600080fd5b600073ffffffffffffffffffffffffffffffffffffffff82169050919050565b600062000287826200025a565b9050919050565b62000299816200027a565b8114620002a557600080fd5b50565b600081519050620002b9816200028e565b92915050565b600080600060608486031215620002db57620002da62000255565b5b6000620002eb86828701620002a8565b9350506020620002fe86828701620002a8565b92505060406200031186828701620002a8565b9150509250925092565b615c39806200032b6000396000f3fe608060405234801561001057600080fd5b50600436106101c45760003560e01c806391c05b0b116100f9578063c9168b7211610097578063f2fde38b11610071578063f2fde38b146104ee578063f301af421461050a578063f4b9fa7514610542578063f8626af814610560576101c4565b8063c9168b7214610486578063e1485dad146104b6578063e4810524146104d2576101c4565b8063a4f10f0e116100d3578063a4f10f0e146103da578063aed9523c1461040a578063b318c83714610426578063be7aec5314610456576101c4565b806391c05b0b1461039657806398d559f8146103b25780639b2cb5d8146103bc576101c4565b80633e413bee116101665780636a1db1bf116101405780636a1db1bf1461031a578063715018a6146103365780637b8e8895146103405780638da5cb5b14610378576101c4565b80633e413bee146102c257806341275358146102e057806342fa0713146102fe576101c4565b806326232a2e116101a257806326232a2e1461024e5780632f48ab7d1461026c578063320369ce1461028a5780633209e9e6146102a6576101c4565b806310d66677146101c957806316055fa8146101fc5780631d711a9f14610232575b600080fd5b6101e360048036038101906101de9190614a67565b610595565b6040516101f39493929190614ae4565b60405180910390f35b61021660048036038101906102119190614a67565b6105f5565b6040516102299796959493929190614b29565b60405180910390f35b61024c60048036038101906102479190614b98565b610667565b005b610256610e88565b6040516102639190614c13565b60405180910390f35b610274610e8e565b6040516102819190614c8d565b60405180910390f35b6102a4600480360381019061029f9190614cd4565b610eb4565b005b6102c060048036038101906102bb9190614a67565b61122f565b005b6102ca611241565b6040516102d79190614c8d565b60405180910390f35b6102e8611267565b6040516102f59190614d3b565b60405180910390f35b61031860048036038101906103139190614a67565b61128d565b005b610334600480360381019061032f9190614a67565b6114fd565b005b61033e61150f565b005b61035a60048036038101906103559190614a67565b611523565b60405161036f99989796959493929190614d56565b60405180910390f35b6103806115a1565b60405161038d9190614d3b565b60405180910390f35b6103b060048036038101906103ab9190614a67565b6115ca565b005b6103ba6120d4565b005b6103c4612387565b6040516103d19190614c13565b60405180910390f35b6103f460048036038101906103ef9190614a67565b61238d565b6040516104019190614c13565b60405180910390f35b610424600480360381019061041f9190614e21565b6123fd565b005b610440600480360381019061043b9190614e4e565b612634565b60405161044d9190614c13565b60405180910390f35b610470600480360381019061046b9190614e4e565b612745565b60405161047d9190614c13565b60405180910390f35b6104a0600480360381019061049b9190614a67565b612848565b6040516104ad9190614c13565b60405180910390f35b6104d060048036038101906104cb9190614e8e565b6128b8565b005b6104ec60048036038101906104e79190614a67565b612c24565b005b61050860048036038101906105039190614ef5565b613053565b005b610524600480360381019061051f9190614a67565b6130d7565b60405161053999989796959493929190614f22565b60405180910390f35b61054a613175565b6040516105579190614c8d565b60405180910390f35b61057a60048036038101906105759190614a67565b61319b565b60405161058c96959493929190614faf565b60405180910390f35b600c81815481106105a557600080fd5b90600052602060002090600402016000915090508060000154908060010154908060020160009054906101000a900473ffffffffffffffffffffffffffffffffffffffff16908060030154905084565b6009818154811061060557600080fd5b90600052602060002090600702016000915090508060000154908060010160009054906101000a900473ffffffffffffffffffffffffffffffffffffffff16908060020154908060030154908060040154908060050154908060060154905087565b826008818154811061067c5761067b615010565b5b90600052602060002090600902016003015442106106cf576040517f08c379a00000000000000000000000000000000000000000000000000000000081526004016106c6906150c2565b60405180910390fd5b6001600885815481106106e5576106e4615010565b5b90600052602060002090600902016004015414610737576040517f08c379a000000000000000000000000000000000000000000000000000000000815260040161072e9061512e565b60405180910390fd5b600073ffffffffffffffffffffffffffffffffffffffff163373ffffffffffffffffffffffffffffffffffffffff1614156107a7576040517f08c379a000000000000000000000000000000000000000000000000000000000815260040161079e9061519a565b60405180910390fd5b60008610156107eb576040517f08c379a00000000000000000000000000000000000000000000000000000000081526004016107e290615206565b60405180910390fd5b600085101561082f576040517f08c379a000000000000000000000000000000000000000000000000000000000815260040161082690615206565b60405180910390fd5b600183141561094157600260009054906101000a900473ffffffffffffffffffffffffffffffffffffffff1673ffffffffffffffffffffffffffffffffffffffff166323b872dd333089896108849190615255565b6040518463ffffffff1660e01b81526004016108a2939291906152ab565b602060405180830381600087803b1580156108bc57600080fd5b505af11580156108d0573d6000803e3d6000fd5b505050506040513d601f19601f820116820180604052508101906108f4919061531a565b5085856109019190615255565b6008858154811061091557610914615010565b5b906000526020600020906009020160060160008282546109359190615255565b92505081905550610ba2565b6002831415610a5357600360009054906101000a900473ffffffffffffffffffffffffffffffffffffffff1673ffffffffffffffffffffffffffffffffffffffff166323b872dd333089896109969190615255565b6040518463ffffffff1660e01b81526004016109b4939291906152ab565b602060405180830381600087803b1580156109ce57600080fd5b505af11580156109e2573d6000803e3d6000fd5b505050506040513d601f19601f82011682018060405250810190610a06919061531a565b508585610a139190615255565b60088581548110610a2757610a26615010565b5b90600052602060002090600902016007016000828254610a479190615255565b92505081905550610ba1565b6003831415610b6557600460009054906101000a900473ffffffffffffffffffffffffffffffffffffffff1673ffffffffffffffffffffffffffffffffffffffff166323b872dd33308989610aa89190615255565b6040518463ffffffff1660e01b8152600401610ac6939291906152ab565b602060405180830381600087803b158015610ae057600080fd5b505af1158015610af4573d6000803e3d6000fd5b505050506040513d601f19601f82011682018060405250810190610b18919061531a565b508585610b259190615255565b60088581548110610b3957610b38615010565b5b90600052602060002090600902016008016000828254610b599190615255565b92505081905550610ba0565b6040517f08c379a0000000000000000000000000000000000000000000000000000000008152600401610b9790615393565b60405180910390fd5b5b5b8585610bae9190615255565b60088581548110610bc257610bc1615010565b5b90600052602060002090600902016002016000828254610be29190615255565b925050819055506000851115610d3057600a6040518060c00160405280600a8054905081526020018681526020013373ffffffffffffffffffffffffffffffffffffffff16815260200187815260200160008152602001858152509080600181540180825580915050600190039060005260206000209060060201600090919091909150600082015181600001556020820151816001015560408201518160020160006101000a81548173ffffffffffffffffffffffffffffffffffffffff021916908373ffffffffffffffffffffffffffffffffffffffff160217905550606082015181600301556080820151816004015560a0820151816005015550506000610ced8587613207565b90507f5a6bd9c92682eca6be18f65696b3310b13970a058f992be29c8c64860b4dd6473387878785604051610d269594939291906153b3565b60405180910390a1505b6000861115610e775760096040518060e0016040528060098054905081526020013373ffffffffffffffffffffffffffffffffffffffff16815260200188815260200160008152602001868152602001600181526020018581525090806001815401808255809150506001900390600052602060002090600702016000909190919091506000820151816000015560208201518160010160006101000a81548173ffffffffffffffffffffffffffffffffffffffff021916908373ffffffffffffffffffffffffffffffffffffffff16021790555060408201518160020155606082015181600301556080820151816004015560a0820151816005015560c0820151816006015550507f982b08aefe79525577026fc60aa3d85b642f6336a5078e50f2836434719770a533878686604051610e6e9493929190615406565b60405180910390a15b610e8082613695565b505050505050565b60075481565b600360009054906101000a900473ffffffffffffffffffffffffffffffffffffffff1681565b600073ffffffffffffffffffffffffffffffffffffffff163373ffffffffffffffffffffffffffffffffffffffff161415610f24576040517f08c379a0000000000000000000000000000000000000000000000000000000008152600401610f1b9061519a565b60405180910390fd5b60008311610f67576040517f08c379a0000000000000000000000000000000000000000000000000000000008152600401610f5e90615206565b60405180910390fd5b600082905060008173ffffffffffffffffffffffffffffffffffffffff1662fdd58e33856040518363ffffffff1660e01b8152600401610fa892919061544b565b60206040518083038186803b158015610fc057600080fd5b505afa158015610fd4573d6000803e3d6000fd5b505050506040513d601f19601f82011682018060405250810190610ff89190615489565b90508173ffffffffffffffffffffffffffffffffffffffff1663f242432a333086896040518563ffffffff1660e01b815260040161103994939291906154ed565b600060405180830381600087803b15801561105357600080fd5b505af1158015611067573d6000803e3d6000fd5b50505050600b604051806101200160405280600b8054905081526020018881526020018781526020018781526020013373ffffffffffffffffffffffffffffffffffffffff1681526020018673ffffffffffffffffffffffffffffffffffffffff16815260200160008152602001858152602001600181525090806001815401808255809150506001900390600052602060002090600902016000909190919091506000820151816000015560208201518160010155604082015181600201556060820151816003015560808201518160040160006101000a81548173ffffffffffffffffffffffffffffffffffffffff021916908373ffffffffffffffffffffffffffffffffffffffff16021790555060a08201518160050160006101000a81548173ffffffffffffffffffffffffffffffffffffffff021916908373ffffffffffffffffffffffffffffffffffffffff16021790555060c0820151816006015560e08201518160070155610100820151816008015550507f275f0dc6a40778333db8eafe4d1167bdc1603c7ab7f4870fa6b0ace4041be091600b805490503386888a600160405161121f96959493929190615554565b60405180910390a1505050505050565b611237613959565b8060068190555050565b600260009054906101000a900473ffffffffffffffffffffffffffffffffffffffff1681565b600560009054906101000a900473ffffffffffffffffffffffffffffffffffffffff1681565b600062278d004261129e9190615255565b9050600073ffffffffffffffffffffffffffffffffffffffff163373ffffffffffffffffffffffffffffffffffffffff161415611310576040517f08c379a00000000000000000000000000000000000000000000000000000000081526004016113079061519a565b60405180910390fd5b60008211611353576040517f08c379a000000000000000000000000000000000000000000000000000000000815260040161134a90615206565b60405180910390fd5b600654821015611398576040517f08c379a000000000000000000000000000000000000000000000000000000000815260040161138f90615627565b60405180910390fd5b600860405180610120016040528060088054905081526020013373ffffffffffffffffffffffffffffffffffffffff16815260200160008152602001838152602001600181526020018481526020016000815260200160008152602001600081525090806001815401808255809150506001900390600052602060002090600902016000909190919091506000820151816000015560208201518160010160006101000a81548173ffffffffffffffffffffffffffffffffffffffff021916908373ffffffffffffffffffffffffffffffffffffffff16021790555060408201518160020155606082015181600301556080820151816004015560a0820151816005015560c0820151816006015560e08201518160070155610100820151816008015550507fec41606da1b7e318a73aa4bf363741fa612f34a0bdc09cf8e6b3417289ad1a516008805490506040516114f19190614c13565b60405180910390a15050565b611505613959565b8060078190555050565b611517613959565b61152160006139d7565b565b6008818154811061153357600080fd5b90600052602060002090600902016000915090508060000154908060010160009054906101000a900473ffffffffffffffffffffffffffffffffffffffff16908060020154908060030154908060040154908060050154908060060154908060070154908060080154905089565b60008060009054906101000a900473ffffffffffffffffffffffffffffffffffffffff16905090565b60026001541415611610576040517f08c379a000000000000000000000000000000000000000000000000000000000815260040161160790615693565b60405180910390fd5b600260018190555060016008828154811061162e5761162d615010565b5b90600052602060002090600902016004015414611680576040517f08c379a00000000000000000000000000000000000000000000000000000000081526004016116779061512e565b60405180910390fd5b60006008828154811061169657611695615010565b5b90600052602060002090600902016006015411156117325761170281600883815481106116c6576116c5615010565b5b9060005260206000209060090201600601546001600260009054906101000a900473ffffffffffffffffffffffffffffffffffffffff16613a9b565b60006008828154811061171857611717615010565b5b906000526020600020906009020160060181905550611894565b60006008828154811061174857611747615010565b5b90600052602060002090600902016007015411156117e4576117b4816008838154811061177857611777615010565b5b9060005260206000209060090201600701546002600360009054906101000a900473ffffffffffffffffffffffffffffffffffffffff16613a9b565b6000600882815481106117ca576117c9615010565b5b906000526020600020906009020160070181905550611893565b6000600882815481106117fa576117f9615010565b5b906000526020600020906009020160080154111561189257611866816008838154811061182a57611829615010565b5b9060005260206000209060090201600801546003600460009054906101000a900473ffffffffffffffffffffffffffffffffffffffff16613a9b565b60006008828154811061187c5761187b615010565b5b9060005260206000209060090201600801819055505b5b5b60005b600b8054905081101561200c5781600b82815481106118b9576118b8615010565b5b9060005260206000209060090201600101541415611ff95760005b600c80549050811015611fcc57600b82815481106118f5576118f4615010565b5b906000526020600020906009020160000154600c828154811061191b5761191a615010565b5b90600052602060002090600402016000015414801561195f57506001600b838154811061194b5761194a615010565b5b906000526020600020906009020160080154145b15611c2d576000600b838154811061197a57611979615010565b5b906000526020600020906009020160050160009054906101000a900473ffffffffffffffffffffffffffffffffffffffff1690508073ffffffffffffffffffffffffffffffffffffffff1663a22cb465600c85815481106119de576119dd615010565b5b906000526020600020906004020160020160009054906101000a900473ffffffffffffffffffffffffffffffffffffffff1660016040518363ffffffff1660e01b8152600401611a2f9291906156b3565b600060405180830381600087803b158015611a4957600080fd5b505af1158015611a5d573d6000803e3d6000fd5b505050508073ffffffffffffffffffffffffffffffffffffffff1663f242432a30600c8581548110611a9257611a91615010565b5b906000526020600020906004020160020160009054906101000a900473ffffffffffffffffffffffffffffffffffffffff16600b8781548110611ad857611ad7615010565b5b90600052602060002090600902016007015460016040518563ffffffff1660e01b8152600401611b0b9493929190615717565b600060405180830381600087803b158015611b2557600080fd5b505af1158015611b39573d6000803e3d6000fd5b505050507f02831dc758bff33d50760d448f62f2df8aa0138e4a9df9090ea89752eed49a0b600c8381548110611b7257611b71615010565b5b906000526020600020906004020160020160009054906101000a900473ffffffffffffffffffffffffffffffffffffffff16600b8581548110611bb857611bb7615010565b5b906000526020600020906009020160050160009054906101000a900473ffffffffffffffffffffffffffffffffffffffff16600b8681548110611bfe57611bfd615010565b5b906000526020600020906009020160010154604051611c1f939291906152ab565b60405180910390a150611fb9565b600b8281548110611c4157611c40615010565b5b906000526020600020906009020160000154600c8281548110611c6757611c66615010565b5b906000526020600020906004020160000154148015611cab57506002600b8381548110611c9757611c96615010565b5b906000526020600020906009020160080154145b15611fb8576000600b8381548110611cc657611cc5615010565b5b906000526020600020906009020160050160009054906101000a900473ffffffffffffffffffffffffffffffffffffffff1690508073ffffffffffffffffffffffffffffffffffffffff1663095ea7b3600c8581548110611d2a57611d29615010565b5b906000526020600020906004020160020160009054906101000a900473ffffffffffffffffffffffffffffffffffffffff16600b8681548110611d7057611d6f615010565b5b9060005260206000209060090201600601546040518363ffffffff1660e01b8152600401611d9f92919061544b565b602060405180830381600087803b158015611db957600080fd5b505af1158015611dcd573d6000803e3d6000fd5b505050506040513d601f19601f82011682018060405250810190611df1919061531a565b508073ffffffffffffffffffffffffffffffffffffffff166323b872dd30600c8581548110611e2357611e22615010565b5b906000526020600020906004020160020160009054906101000a900473ffffffffffffffffffffffffffffffffffffffff16600b8781548110611e6957611e68615010565b5b9060005260206000209060090201600601546040518463ffffffff1660e01b8152600401611e99939291906152ab565b602060405180830381600087803b158015611eb357600080fd5b505af1158015611ec7573d6000803e3d6000fd5b505050506040513d601f19601f82011682018060405250810190611eeb919061531a565b507f3adf3da2135947812c45eca117d988b3303c3d941f155f0afb27d7b0230fab32600c8381548110611f2157611f20615010565b5b906000526020600020906004020160020160009054906101000a900473ffffffffffffffffffffffffffffffffffffffff16600b8581548110611f6757611f66615010565b5b906000526020600020906009020160060154600b8681548110611f8d57611f8c615010565b5b906000526020600020906009020160010154604051611fae9392919061576f565b60405180910390a1505b5b8080611fc4906157a6565b9150506118d4565b506003600b8281548110611fe357611fe2615010565b5b9060005260206000209060090201600801819055505b8080612004906157a6565b915050611897565b5060006008828154811061202357612022615010565b5b906000526020600020906009020160020154111561209f5760006008828154811061205157612050615010565b5b9060005260206000209060090201600201819055507fadd9d74ee9c338ee8881c6d3644817247d1550a0488e3edb096f7fc0c4451853600160405161209691906157ef565b60405180910390a15b6002600882815481106120b5576120b4615010565b5b9060005260206000209060090201600401819055506001808190555050565b6120dc613959565b60086040518061012001604052806008805490508152602001600073ffffffffffffffffffffffffffffffffffffffff1681526020016000815260200160008152602001600181526020016101f481526020016000815260200160008152602001600081525090806001815401808255809150506001900390600052602060002090600902016000909190919091506000820151816000015560208201518160010160006101000a81548173ffffffffffffffffffffffffffffffffffffffff021916908373ffffffffffffffffffffffffffffffffffffffff16021790555060408201518160020155606082015181600301556080820151816004015560a0820151816005015560c0820151816006015560e0820151816007015561010082015181600801555050600b604051806101200160405280600b8054905081526020016000815260200166038d7ea4c680008152602001600081526020013373ffffffffffffffffffffffffffffffffffffffff168152602001600073ffffffffffffffffffffffffffffffffffffffff1681526020016000815260200160008152602001600181525090806001815401808255809150506001900390600052602060002090600902016000909190919091506000820151816000015560208201518160010155604082015181600201556060820151816003015560808201518160040160006101000a81548173ffffffffffffffffffffffffffffffffffffffff021916908373ffffffffffffffffffffffffffffffffffffffff16021790555060a08201518160050160006101000a81548173ffffffffffffffffffffffffffffffffffffffff021916908373ffffffffffffffffffffffffffffffffffffffff16021790555060c0820151816006015560e0820151816007015561010082015181600801555050565b60065481565b6000806000905060005b6009805490508110156123f35783600982815481106123b9576123b8615010565b5b90600052602060002090600702016004015414156123e05781806123dc906157a6565b9250505b80806123eb906157a6565b915050612397565b5080915050919050565b612405613959565b6002600154141561244b576040517f08c379a000000000000000000000000000000000000000000000000000000000815260040161244290615693565b60405180910390fd5b600260018190555060005b600880549050811015612629576008818154811061247757612476615010565b5b90600052602060002090600902016003015442101561249557612616565b6001600882815481106124ab576124aa615010565b5b9060005260206000209060090201600401541480156125145750600881815481106124d9576124d8615010565b5b906000526020600020906009020160050154600882815481106124ff576124fe615010565b5b90600052602060002090600902016002015410155b801561254457506008818154811061252f5761252e615010565b5b90600052602060002090600902016003015442115b1561255757612552816115ca565b612615565b60016008828154811061256d5761256c615010565b5b9060005260206000209060090201600401541480156125d557506008818154811061259b5761259a615010565b5b906000526020600020906009020160050154600882815481106125c1576125c0615010565b5b906000526020600020906009020160020154105b80156126055750600881815481106125f0576125ef615010565b5b90600052602060002090600902016003015442115b156126145761261381612c24565b5b5b5b8080612621906157a6565b915050612456565b506001808190555050565b6000806000905082816126479190615255565b905060005b60098054905081101561273a57846009828154811061266e5761266d615010565b5b9060005260206000209060070201600401541480156126b2575060016009828154811061269e5761269d615010565b5b906000526020600020906007020160050154145b8015612713575083600982815481106126ce576126cd615010565b5b906000526020600020906007020160030154600983815481106126f4576126f3615010565b5b906000526020600020906007020160020154612710919061580a565b10155b156127275783826127249190615255565b91505b8080612732906157a6565b91505061264c565b508091505092915050565b6000806000905060005b60098054905081101561283d57846009828154811061277157612770615010565b5b9060005260206000209060070201600401541480156127b557506001600982815481106127a1576127a0615010565b5b906000526020600020906007020160050154145b8015612816575083600982815481106127d1576127d0615010565b5b906000526020600020906007020160030154600983815481106127f7576127f6615010565b5b906000526020600020906007020160020154612813919061580a565b10155b1561282a578180612826906157a6565b9250505b8080612835906157a6565b91505061274f565b508091505092915050565b6000806000905060005b600a805490508110156128ae5783600a828154811061287457612873615010565b5b906000526020600020906006020160010154141561289b578180612897906157a6565b9250505b80806128a6906157a6565b915050612852565b5080915050919050565b600082116128fb576040517f08c379a00000000000000000000000000000000000000000000000000000000081526004016128f2906158b0565b60405180910390fd5b600081905060008173ffffffffffffffffffffffffffffffffffffffff166370a08231336040518263ffffffff1660e01b815260040161293b9190614d3b565b60206040518083038186803b15801561295357600080fd5b505afa158015612967573d6000803e3d6000fd5b505050506040513d601f19601f8201168201806040525081019061298b9190615489565b9050808411156129d0576040517f08c379a00000000000000000000000000000000000000000000000000000000081526004016129c79061591c565b60405180910390fd5b8173ffffffffffffffffffffffffffffffffffffffff166323b872dd3330876040518463ffffffff1660e01b8152600401612a0d939291906152ab565b602060405180830381600087803b158015612a2757600080fd5b505af1158015612a3b573d6000803e3d6000fd5b505050506040513d601f19601f82011682018060405250810190612a5f919061531a565b50600b604051806101200160405280600b8054905081526020018881526020018781526020018781526020013373ffffffffffffffffffffffffffffffffffffffff1681526020018573ffffffffffffffffffffffffffffffffffffffff16815260200186815260200160008152602001600281525090806001815401808255809150506001900390600052602060002090600902016000909190919091506000820151816000015560208201518160010155604082015181600201556060820151816003015560808201518160040160006101000a81548173ffffffffffffffffffffffffffffffffffffffff021916908373ffffffffffffffffffffffffffffffffffffffff16021790555060a08201518160050160006101000a81548173ffffffffffffffffffffffffffffffffffffffff021916908373ffffffffffffffffffffffffffffffffffffffff16021790555060c0820151816006015560e08201518160070155610100820151816008015550507f275f0dc6a40778333db8eafe4d1167bdc1603c7ab7f4870fa6b0ace4041be091600b805490503385878a6000604051612c1496959493929190615554565b60405180910390a1505050505050565b60026001541415612c6a576040517f08c379a0000000000000000000000000000000000000000000000000000000008152600401612c6190615693565b60405180910390fd5b6002600181905550600160088281548110612c8857612c87615010565b5b90600052602060002090600902016004015414612cda576040517f08c379a0000000000000000000000000000000000000000000000000000000008152600401612cd19061512e565b60405180910390fd5b600060088281548110612cf057612cef615010565b5b9060005260206000209060090201600601541115612d8857612d5c8160088381548110612d2057612d1f615010565b5b9060005260206000209060090201600601546001600260009054906101000a900473ffffffffffffffffffffffffffffffffffffffff166141fe565b600060088281548110612d7257612d71615010565b5b9060005260206000209060090201600601819055505b600060088281548110612d9e57612d9d615010565b5b9060005260206000209060090201600701541115612e3657612e0a8160088381548110612dce57612dcd615010565b5b9060005260206000209060090201600701546002600360009054906101000a900473ffffffffffffffffffffffffffffffffffffffff166141fe565b600060088281548110612e2057612e1f615010565b5b9060005260206000209060090201600701819055505b600060088281548110612e4c57612e4b615010565b5b9060005260206000209060090201600801541115612ee457612eb88160088381548110612e7c57612e7b615010565b5b9060005260206000209060090201600801546003600460009054906101000a900473ffffffffffffffffffffffffffffffffffffffff166141fe565b600060088281548110612ece57612ecd615010565b5b9060005260206000209060090201600801819055505b600060088281548110612efa57612ef9615010565b5b9060005260206000209060090201600201541415612fe557600060088281548110612f2857612f27615010565b5b9060005260206000209060090201600401819055507f36ea5cd5608625e789af0282eecdb4eae1cb7c1cf6d0ec3f9a84f35be850260b60088281548110612f7257612f71615010565b5b906000526020600020906009020160010160009054906101000a900473ffffffffffffffffffffffffffffffffffffffff1660088381548110612fb857612fb7615010565b5b906000526020600020906009020160000154604051612fd892919061544b565b60405180910390a1613049565b600060088281548110612ffb57612ffa615010565b5b9060005260206000209060090201600201819055507fadd9d74ee9c338ee8881c6d3644817247d1550a0488e3edb096f7fc0c4451853600160405161304091906157ef565b60405180910390a15b6001808190555050565b61305b613959565b600073ffffffffffffffffffffffffffffffffffffffff168173ffffffffffffffffffffffffffffffffffffffff1614156130cb576040517f08c379a00000000000000000000000000000000000000000000000000000000081526004016130c2906159ae565b60405180910390fd5b6130d4816139d7565b50565b600b81815481106130e757600080fd5b90600052602060002090600902016000915090508060000154908060010154908060020154908060030154908060040160009054906101000a900473ffffffffffffffffffffffffffffffffffffffff16908060050160009054906101000a900473ffffffffffffffffffffffffffffffffffffffff16908060060154908060070154908060080154905089565b600460009054906101000a900473ffffffffffffffffffffffffffffffffffffffff1681565b600a81815481106131ab57600080fd5b90600052602060002090600602016000915090508060000154908060010154908060020160009054906101000a900473ffffffffffffffffffffffffffffffffffffffff16908060030154908060040154908060050154905086565b6000806000905060005b60098054905081101561368a57836009828154811061323357613232615010565b5b9060005260206000209060070201600301546009838154811061325957613258615010565b5b906000526020600020906007020160020154613275919061580a565b101580156132a75750846009828154811061329357613292615010565b5b906000526020600020906007020160040154145b80156132d857506001600982815481106132c4576132c3615010565b5b906000526020600020906007020160050154145b156136775783600982815481106132f2576132f1615010565b5b906000526020600020906007020160030160008282546133129190615255565b92505081905550836008868154811061332e5761332d615010565b5b9060005260206000209060090201600201600082825461334e9190615255565b9250508190555083826133619190615255565b915060016009828154811061337957613378615010565b5b90600052602060002090600702016006015414156133d25783600886815481106133a6576133a5615010565b5b906000526020600020906009020160060160008282546133c69190615255565b925050819055506134ae565b6002600982815481106133e8576133e7615010565b5b906000526020600020906007020160060154141561344157836008868154811061341557613414615010565b5b906000526020600020906009020160070160008282546134359190615255565b925050819055506134ad565b60036009828154811061345757613456615010565b5b90600052602060002090600702016006015414156134ac57836008868154811061348457613483615010565b5b906000526020600020906009020160080160008282546134a49190615255565b925050819055505b5b5b600981815481106134c2576134c1615010565b5b906000526020600020906007020160030154600982815481106134e8576134e7615010565b5b90600052602060002090600702016002015414156135f65760026009828154811061351657613515615010565b5b9060005260206000209060070201600501819055507f344f3c440bc0a199d8ebf3e014b04b0be7f494a3e35bc4c4b162dbf9edb24521600982815481106135605761355f615010565b5b906000526020600020906007020160010160009054906101000a900473ffffffffffffffffffffffffffffffffffffffff16600983815481106135a6576135a5615010565b5b906000526020600020906007020160020154600984815481106135cc576135cb615010565b5b9060005260206000209060070201600401546040516135ed9392919061576f565b60405180910390a15b7ff8d3b803c2699d3e25440474a9089daa89195298415edaf5cb5ff73d4cad4d446009828154811061362b5761362a615010565b5b906000526020600020906007020160010160009054906101000a900473ffffffffffffffffffffffffffffffffffffffff16858760405161366e9392919061576f565b60405180910390a15b8080613682906157a6565b915050613211565b508091505092915050565b6001600b82815481106136ab576136aa615010565b5b906000526020600020906009020160080154146136fd576040517f08c379a00000000000000000000000000000000000000000000000000000000081526004016136f490615a1a565b60405180910390fd5b600b818154811061371157613710615010565b5b906000526020600020906009020160020154600b828154811061373757613736615010565b5b90600052602060002090600902016003015410613789576040517f08c379a000000000000000000000000000000000000000000000000000000000815260040161378090615a86565b60405180910390fd5b6001600b828154811061379f5761379e615010565b5b9060005260206000209060090201600301546137bb9190615255565b600b82815481106137cf576137ce615010565b5b906000526020600020906009020160030181905550600c6040518060800160405280600b848154811061380557613804615010565b5b9060005260206000209060090201600001548152602001600c8054905081526020013373ffffffffffffffffffffffffffffffffffffffff16815260200160018152509080600181540180825580915050600190039060005260206000209060040201600090919091909150600082015181600001556020820151816001015560408201518160020160006101000a81548173ffffffffffffffffffffffffffffffffffffffff021916908373ffffffffffffffffffffffffffffffffffffffff160217905550606082015181600301555050600b81815481106138ec576138eb615010565b5b906000526020600020906009020160020154600b828154811061391257613911615010565b5b9060005260206000209060090201600301541415613956576005600b82815481106139405761393f615010565b5b9060005260206000209060090201600801819055505b50565b613961614a24565b73ffffffffffffffffffffffffffffffffffffffff1661397f6115a1565b73ffffffffffffffffffffffffffffffffffffffff16146139d5576040517f08c379a00000000000000000000000000000000000000000000000000000000081526004016139cc90615af2565b60405180910390fd5b565b60008060009054906101000a900473ffffffffffffffffffffffffffffffffffffffff169050816000806101000a81548173ffffffffffffffffffffffffffffffffffffffff021916908373ffffffffffffffffffffffffffffffffffffffff1602179055508173ffffffffffffffffffffffffffffffffffffffff168173ffffffffffffffffffffffffffffffffffffffff167f8be0079c531659141344cd1fd0a4f28419497f9722a3daafe3b4186f6b6457e060405160405180910390a35050565b8073ffffffffffffffffffffffffffffffffffffffff1663095ea7b330856040518363ffffffff1660e01b8152600401613ad692919061544b565b602060405180830381600087803b158015613af057600080fd5b505af1158015613b04573d6000803e3d6000fd5b505050506040513d601f19601f82011682018060405250810190613b28919061531a565b5060006064600185613b3a9190615b12565b613b449190615b9b565b905060008185613b54919061580a565b90508273ffffffffffffffffffffffffffffffffffffffff166323b872dd30600560009054906101000a900473ffffffffffffffffffffffffffffffffffffffff16856040518463ffffffff1660e01b8152600401613bb5939291906152ab565b602060405180830381600087803b158015613bcf57600080fd5b505af1158015613be3573d6000803e3d6000fd5b505050506040513d601f19601f82011682018060405250810190613c07919061531a565b507fa4c6a382f73ff9613852e022f107d783974efe6f56975cafa30fcf48256f093560088781548110613c3d57613c3c615010565b5b906000526020600020906009020160010160009054906101000a900473ffffffffffffffffffffffffffffffffffffffff1683604051613c7e92919061544b565b60405180910390a18273ffffffffffffffffffffffffffffffffffffffff166323b872dd3060088981548110613cb757613cb6615010565b5b906000526020600020906009020160010160009054906101000a900473ffffffffffffffffffffffffffffffffffffffff16846040518463ffffffff1660e01b8152600401613d08939291906152ab565b602060405180830381600087803b158015613d2257600080fd5b505af1158015613d36573d6000803e3d6000fd5b505050506040513d601f19601f82011682018060405250810190613d5a919061531a565b507f3b5e2b80c7d0cf08e68f899d74d0769f512f6e79840f1ea3b78fe6421390999660088781548110613d9057613d8f615010565b5b906000526020600020906009020160010160009054906101000a900473ffffffffffffffffffffffffffffffffffffffff168686604051613dd39392919061576f565b60405180910390a18460088781548110613df057613def615010565b5b90600052602060002090600902016002016000828254613e10919061580a565b9250508190555060005b6009805490508110156141f5578660098281548110613e3c57613e3b615010565b5b906000526020600020906007020160040154148015613e805750600160098281548110613e6c57613e6b615010565b5b906000526020600020906007020160050154145b8015613eb057508460098281548110613e9c57613e9b615010565b5b906000526020600020906007020160060154145b156141e25760098181548110613ec957613ec8615010565b5b90600052602060002090600702016003015460098281548110613eef57613eee615010565b5b906000526020600020906007020160020154111561418b57600060098281548110613f1d57613f1c615010565b5b90600052602060002090600702016003015460098381548110613f4357613f42615010565b5b906000526020600020906007020160020154613f5f919061580a565b90508473ffffffffffffffffffffffffffffffffffffffff1663095ea7b330836040518363ffffffff1660e01b8152600401613f9c92919061544b565b602060405180830381600087803b158015613fb657600080fd5b505af1158015613fca573d6000803e3d6000fd5b505050506040513d601f19601f82011682018060405250810190613fee919061531a565b508473ffffffffffffffffffffffffffffffffffffffff166323b872dd3060098b815481106140205761401f615010565b5b906000526020600020906007020160010160009054906101000a900473ffffffffffffffffffffffffffffffffffffffff16846040518463ffffffff1660e01b8152600401614071939291906152ab565b602060405180830381600087803b15801561408b57600080fd5b505af115801561409f573d6000803e3d6000fd5b505050506040513d601f19601f820116820180604052508101906140c3919061531a565b507f98c105e3bc1ca4c7a99cdea9cd2e2c7a0fbf623404262d3dfd0a152545bd25ad600983815481106140f9576140f8615010565b5b906000526020600020906007020160010160009054906101000a900473ffffffffffffffffffffffffffffffffffffffff168260088b815481106141405761413f615010565b5b906000526020600020906009020160010160009054906101000a900473ffffffffffffffffffffffffffffffffffffffff1660405161418193929190615bcc565b60405180910390a1505b6000600988815481106141a1576141a0615010565b5b9060005260206000209060070201600301819055506002600982815481106141cc576141cb615010565b5b9060005260206000209060070201600501819055505b80806141ed906157a6565b915050613e1a565b50505050505050565b60005b60098054905081101561465957846009828154811061422357614222615010565b5b906000526020600020906007020160040154148015614267575060016009828154811061425357614252615010565b5b906000526020600020906007020160050154145b80156142975750826009828154811061428357614282615010565b5b906000526020600020906007020160060154145b1561464657600981815481106142b0576142af615010565b5b906000526020600020906007020160030154600982815481106142d6576142d5615010565b5b9060005260206000209060070201600201541115614586578173ffffffffffffffffffffffffffffffffffffffff1663095ea7b3306009848154811061431f5761431e615010565b5b9060005260206000209060070201600201546040518363ffffffff1660e01b815260040161434e92919061544b565b602060405180830381600087803b15801561436857600080fd5b505af115801561437c573d6000803e3d6000fd5b505050506040513d601f19601f820116820180604052508101906143a0919061531a565b508173ffffffffffffffffffffffffffffffffffffffff166323b872dd30600984815481106143d2576143d1615010565b5b906000526020600020906007020160010160009054906101000a900473ffffffffffffffffffffffffffffffffffffffff166009858154811061441857614417615010565b5b9060005260206000209060070201600201546040518463ffffffff1660e01b8152600401614448939291906152ab565b602060405180830381600087803b15801561446257600080fd5b505af1158015614476573d6000803e3d6000fd5b505050506040513d601f19601f8201168201806040525081019061449a919061531a565b507f98c105e3bc1ca4c7a99cdea9cd2e2c7a0fbf623404262d3dfd0a152545bd25ad600982815481106144d0576144cf615010565b5b906000526020600020906007020160010160009054906101000a900473ffffffffffffffffffffffffffffffffffffffff166009838154811061451657614515615010565b5b9060005260206000209060070201600201546008848154811061453c5761453b615010565b5b906000526020600020906009020160010160009054906101000a900473ffffffffffffffffffffffffffffffffffffffff1660405161457d93929190615bcc565b60405180910390a15b6009818154811061459a57614599615010565b5b906000526020600020906007020160020154600886815481106145c0576145bf615010565b5b906000526020600020906009020160020160008282546145e0919061580a565b925050819055506004600982815481106145fd576145fc615010565b5b9060005260206000209060070201600501819055506009818154811061462657614625615010565b5b90600052602060002090600702016002015484614643919061580a565b93505b8080614651906157a6565b915050614201565b5060005b600a80549050811015614a1d5784600a828154811061467f5761467e615010565b5b9060005260206000209060060201600101541480156146c357506000600a82815481106146af576146ae615010565b5b906000526020600020906006020160040154145b80156146f3575082600a82815481106146df576146de615010565b5b906000526020600020906006020160050154145b15614a0a578173ffffffffffffffffffffffffffffffffffffffff1663095ea7b330600a848154811061472957614728615010565b5b9060005260206000209060060201600301546040518363ffffffff1660e01b815260040161475892919061544b565b602060405180830381600087803b15801561477257600080fd5b505af1158015614786573d6000803e3d6000fd5b505050506040513d601f19601f820116820180604052508101906147aa919061531a565b508173ffffffffffffffffffffffffffffffffffffffff166323b872dd30600a84815481106147dc576147db615010565b5b906000526020600020906006020160020160009054906101000a900473ffffffffffffffffffffffffffffffffffffffff16600a858154811061482257614821615010565b5b9060005260206000209060060201600301546040518463ffffffff1660e01b8152600401614852939291906152ab565b602060405180830381600087803b15801561486c57600080fd5b505af1158015614880573d6000803e3d6000fd5b505050506040513d601f19601f820116820180604052508101906148a4919061531a565b50600a81815481106148b9576148b8615010565b5b906000526020600020906006020160030154600886815481106148df576148de615010565b5b906000526020600020906009020160020160008282546148ff919061580a565b92505081905550600a818154811061491a57614919615010565b5b90600052602060002090600602016003015484614937919061580a565b93506004600a828154811061494f5761494e615010565b5b9060005260206000209060060201600401819055507f2dc8e290002f06fc0085bbca9dfb8b415cf4d1178950c72ff9ee8f4d8878ee66600a828154811061499957614998615010565b5b906000526020600020906006020160020160009054906101000a900473ffffffffffffffffffffffffffffffffffffffff16600a83815481106149df576149de615010565b5b90600052602060002090600602016003015487604051614a019392919061576f565b60405180910390a15b8080614a15906157a6565b91505061465d565b5050505050565b600033905090565b600080fd5b6000819050919050565b614a4481614a31565b8114614a4f57600080fd5b50565b600081359050614a6181614a3b565b92915050565b600060208284031215614a7d57614a7c614a2c565b5b6000614a8b84828501614a52565b91505092915050565b614a9d81614a31565b82525050565b600073ffffffffffffffffffffffffffffffffffffffff82169050919050565b6000614ace82614aa3565b9050919050565b614ade81614ac3565b82525050565b6000608082019050614af96000830187614a94565b614b066020830186614a94565b614b136040830185614ad5565b614b206060830184614a94565b95945050505050565b600060e082019050614b3e600083018a614a94565b614b4b6020830189614ad5565b614b586040830188614a94565b614b656060830187614a94565b614b726080830186614a94565b614b7f60a0830185614a94565b614b8c60c0830184614a94565b98975050505050505050565b600080600080600060a08688031215614bb457614bb3614a2c565b5b6000614bc288828901614a52565b9550506020614bd388828901614a52565b9450506040614be488828901614a52565b9350506060614bf588828901614a52565b9250506080614c0688828901614a52565b9150509295509295909350565b6000602082019050614c286000830184614a94565b92915050565b6000819050919050565b6000614c53614c4e614c4984614aa3565b614c2e565b614aa3565b9050919050565b6000614c6582614c38565b9050919050565b6000614c7782614c5a565b9050919050565b614c8781614c6c565b82525050565b6000602082019050614ca26000830184614c7e565b92915050565b614cb181614ac3565b8114614cbc57600080fd5b50565b600081359050614cce81614ca8565b92915050565b60008060008060808587031215614cee57614ced614a2c565b5b6000614cfc87828801614a52565b9450506020614d0d87828801614a52565b9350506040614d1e87828801614cbf565b9250506060614d2f87828801614a52565b91505092959194509250565b6000602082019050614d506000830184614ad5565b92915050565b600061012082019050614d6c600083018c614a94565b614d79602083018b614ad5565b614d86604083018a614a94565b614d936060830189614a94565b614da06080830188614a94565b614dad60a0830187614a94565b614dba60c0830186614a94565b614dc760e0830185614a94565b614dd5610100830184614a94565b9a9950505050505050505050565b6000614dee82614ac3565b9050919050565b614dfe81614de3565b8114614e0957600080fd5b50565b600081359050614e1b81614df5565b92915050565b600060208284031215614e3757614e36614a2c565b5b6000614e4584828501614e0c565b91505092915050565b60008060408385031215614e6557614e64614a2c565b5b6000614e7385828601614a52565b9250506020614e8485828601614a52565b9150509250929050565b60008060008060808587031215614ea857614ea7614a2c565b5b6000614eb687828801614a52565b9450506020614ec787828801614a52565b9350506040614ed887828801614a52565b9250506060614ee987828801614cbf565b91505092959194509250565b600060208284031215614f0b57614f0a614a2c565b5b6000614f1984828501614cbf565b91505092915050565b600061012082019050614f38600083018c614a94565b614f45602083018b614a94565b614f52604083018a614a94565b614f5f6060830189614a94565b614f6c6080830188614ad5565b614f7960a0830187614ad5565b614f8660c0830186614a94565b614f9360e0830185614a94565b614fa1610100830184614a94565b9a9950505050505050505050565b600060c082019050614fc46000830189614a94565b614fd16020830188614a94565b614fde6040830187614ad5565b614feb6060830186614a94565b614ff86080830185614a94565b61500560a0830184614a94565b979650505050505050565b7f4e487b7100000000000000000000000000000000000000000000000000000000600052603260045260246000fd5b600082825260208201905092915050565b7f446561646c696e6520666f722063726f776466756e64696e672068617320706160008201527f737365642e000000000000000000000000000000000000000000000000000000602082015250565b60006150ac60258361503f565b91506150b782615050565b604082019050919050565b600060208201905081810360008301526150db8161509f565b9050919050565b7f46756e64206973206e6f74206163746976650000000000000000000000000000600082015250565b600061511860128361503f565b9150615123826150e2565b602082019050919050565b600060208201905081810360008301526151478161510b565b9050919050565b7f496e76616c696420616464726573730000000000000000000000000000000000600082015250565b6000615184600f8361503f565b915061518f8261514e565b602082019050919050565b600060208201905081810360008301526151b381615177565b9050919050565b7f496e76616c696420616d6f756e74000000000000000000000000000000000000600082015250565b60006151f0600e8361503f565b91506151fb826151ba565b602082019050919050565b6000602082019050818103600083015261521f816151e3565b9050919050565b7f4e487b7100000000000000000000000000000000000000000000000000000000600052601160045260246000fd5b600061526082614a31565b915061526b83614a31565b9250827fffffffffffffffffffffffffffffffffffffffffffffffffffffffffffffffff038211156152a05761529f615226565b5b828201905092915050565b60006060820190506152c06000830186614ad5565b6152cd6020830185614ad5565b6152da6040830184614a94565b949350505050565b60008115159050919050565b6152f7816152e2565b811461530257600080fd5b50565b600081519050615314816152ee565b92915050565b6000602082840312156153305761532f614a2c565b5b600061533e84828501615305565b91505092915050565b7f496e76616c69642063757272656e637900000000000000000000000000000000600082015250565b600061537d60108361503f565b915061538882615347565b602082019050919050565b600060208201905081810360008301526153ac81615370565b9050919050565b600060a0820190506153c86000830188614ad5565b6153d56020830187614a94565b6153e26040830186614a94565b6153ef6060830185614a94565b6153fc6080830184614a94565b9695505050505050565b600060808201905061541b6000830187614ad5565b6154286020830186614a94565b6154356040830185614a94565b6154426060830184614a94565b95945050505050565b60006040820190506154606000830185614ad5565b61546d6020830184614a94565b9392505050565b60008151905061548381614a3b565b92915050565b60006020828403121561549f5761549e614a2c565b5b60006154ad84828501615474565b91505092915050565b600082825260208201905092915050565b50565b60006154d76000836154b6565b91506154e2826154c7565b600082019050919050565b600060a0820190506155026000830187614ad5565b61550f6020830186614ad5565b61551c6040830185614a94565b6155296060830184614a94565b818103608083015261553a816154ca565b905095945050505050565b61554e816152e2565b82525050565b600060c0820190506155696000830189614a94565b6155766020830188614ad5565b6155836040830187614ad5565b6155906060830186614a94565b61559d6080830185614a94565b6155aa60a0830184615545565b979650505050505050565b7f56616c7565206973206c6f776572207468616e206d696e696d756d20706f737360008201527f69626c6520616d6f756e74000000000000000000000000000000000000000000602082015250565b6000615611602b8361503f565b915061561c826155b5565b604082019050919050565b6000602082019050818103600083015261564081615604565b9050919050565b7f5265656e7472616e637947756172643a207265656e7472616e742063616c6c00600082015250565b600061567d601f8361503f565b915061568882615647565b602082019050919050565b600060208201905081810360008301526156ac81615670565b9050919050565b60006040820190506156c86000830185614ad5565b6156d56020830184615545565b9392505050565b6000819050919050565b60006157016156fc6156f7846156dc565b614c2e565b614a31565b9050919050565b615711816156e6565b82525050565b600060a08201905061572c6000830187614ad5565b6157396020830186614ad5565b6157466040830185614a94565b6157536060830184615708565b8181036080830152615764816154ca565b905095945050505050565b60006060820190506157846000830186614ad5565b6157916020830185614a94565b61579e6040830184614a94565b949350505050565b60006157b182614a31565b91507fffffffffffffffffffffffffffffffffffffffffffffffffffffffffffffffff8214156157e4576157e3615226565b5b600182019050919050565b60006020820190506158046000830184615545565b92915050565b600061581582614a31565b915061582083614a31565b92508282101561583357615832615226565b5b828203905092915050565b7f52657761726420616d6f756e742073686f756c6420626520686967686572207460008201527f68616e2030000000000000000000000000000000000000000000000000000000602082015250565b600061589a60258361503f565b91506158a58261583e565b604082019050919050565b600060208201905081810360008301526158c98161588d565b9050919050565b7f4e6f7420656e6f75676820746f6b656e20696e2077616c6c6574000000000000600082015250565b6000615906601a8361503f565b9150615911826158d0565b602082019050919050565b60006020820190508181036000830152615935816158f9565b9050919050565b7f4f776e61626c653a206e6577206f776e657220697320746865207a65726f206160008201527f6464726573730000000000000000000000000000000000000000000000000000602082015250565b600061599860268361503f565b91506159a38261593c565b604082019050919050565b600060208201905081810360008301526159c78161598b565b9050919050565b7f526577617264206973206e6f7420616374697665206f722066756c6c00000000600082015250565b6000615a04601c8361503f565b9150615a0f826159ce565b602082019050919050565b60006020820190508181036000830152615a33816159f7565b9050919050565b7f416c6c2072657761726473206172652064697374726962757465640000000000600082015250565b6000615a70601b8361503f565b9150615a7b82615a3a565b602082019050919050565b60006020820190508181036000830152615a9f81615a63565b9050919050565b7f4f776e61626c653a2063616c6c6572206973206e6f7420746865206f776e6572600082015250565b6000615adc60208361503f565b9150615ae782615aa6565b602082019050919050565b60006020820190508181036000830152615b0b81615acf565b9050919050565b6000615b1d82614a31565b9150615b2883614a31565b9250817fffffffffffffffffffffffffffffffffffffffffffffffffffffffffffffffff0483118215151615615b6157615b60615226565b5b828202905092915050565b7f4e487b7100000000000000000000000000000000000000000000000000000000600052601260045260246000fd5b6000615ba682614a31565b9150615bb183614a31565b925082615bc157615bc0615b6c565b5b828204905092915050565b6000606082019050615be16000830186614ad5565b615bee6020830185614a94565b615bfb6040830184614ad5565b94935050505056fea264697066735822122005774f5a984084c7ebbc3a4f497f19cb74c08ac5e37693a82640f4882dcec07964736f6c63430008090033",
  "linkReferences": {},
  "deployedLinkReferences": {}
}