{
  "_format": "hh-sol-artifact-1",
  "contractName": "Funding",
  "sourceName": "contracts/Funding.sol",
  "abi": [
    {
      "inputs": [
        {
          "internalType": "address",
          "name": "usdcAddress",
          "type": "address"
        },
        {
          "internalType": "address",
          "name": "usdtAddress",
          "type": "address"
        },
        {
          "internalType": "address",
          "name": "daiAddress",
          "type": "address"
        }
      ],
      "stateMutability": "nonpayable",
      "type": "constructor"
    },
    {
      "anonymous": false,
      "inputs": [
        {
          "indexed": false,
          "internalType": "address",
          "name": "owner",
          "type": "address"
        },
        {
          "indexed": false,
          "internalType": "uint256",
          "name": "fundId",
          "type": "uint256"
        }
      ],
      "name": "Cancelled",
      "type": "event"
    },
    {
      "anonymous": false,
      "inputs": [
        {
          "indexed": false,
          "internalType": "address",
          "name": "owner",
          "type": "address"
        },
        {
          "indexed": false,
          "internalType": "uint256",
          "name": "balance",
          "type": "uint256"
        }
      ],
      "name": "DaiDistributed",
      "type": "event"
    },
    {
      "anonymous": false,
      "inputs": [
        {
          "indexed": false,
          "internalType": "address",
          "name": "project",
          "type": "address"
        },
        {
          "indexed": false,
          "internalType": "uint256",
          "name": "fee",
          "type": "uint256"
        }
      ],
      "name": "DaiFee",
      "type": "event"
    },
    {
      "anonymous": false,
      "inputs": [
        {
          "indexed": false,
          "internalType": "address",
          "name": "owner",
          "type": "address"
        },
        {
          "indexed": false,
          "internalType": "uint256",
          "name": "balance",
          "type": "uint256"
        }
      ],
      "name": "Distributed",
      "type": "event"
    },
    {
      "anonymous": false,
      "inputs": [
        {
          "indexed": false,
          "internalType": "address",
          "name": "donator",
          "type": "address"
        },
        {
          "indexed": false,
          "internalType": "uint256",
          "name": "amount",
          "type": "uint256"
        },
        {
          "indexed": false,
          "internalType": "uint256",
          "name": "fundId",
          "type": "uint256"
        },
        {
          "indexed": false,
          "internalType": "uint256",
          "name": "currency",
          "type": "uint256"
        }
      ],
      "name": "Donated",
      "type": "event"
    },
    {
      "anonymous": false,
      "inputs": [
        {
          "indexed": false,
          "internalType": "address",
          "name": "owner",
          "type": "address"
        },
        {
          "indexed": false,
          "internalType": "uint256",
          "name": "cap",
          "type": "uint256"
        },
        {
          "indexed": false,
          "internalType": "uint256",
          "name": "id",
          "type": "uint256"
        }
      ],
      "name": "FundCreated",
      "type": "event"
    },
    {
      "anonymous": false,
      "inputs": [
        {
          "indexed": false,
          "internalType": "address",
          "name": "project",
          "type": "address"
        },
        {
          "indexed": false,
          "internalType": "uint256",
          "name": "fee",
          "type": "uint256"
        }
      ],
      "name": "FundingFee",
      "type": "event"
    },
    {
      "anonymous": false,
      "inputs": [
        {
          "indexed": false,
          "internalType": "bool",
          "name": "status",
          "type": "bool"
        }
      ],
      "name": "IncorrectDistribution",
      "type": "event"
    },
    {
      "anonymous": false,
      "inputs": [
        {
          "indexed": false,
          "internalType": "address",
          "name": "owner",
          "type": "address"
        },
        {
          "indexed": false,
          "internalType": "uint256",
          "name": "cap",
          "type": "uint256"
        },
        {
          "indexed": false,
          "internalType": "uint256",
          "name": "fundId",
          "type": "uint256"
        }
      ],
      "name": "MicroClosed",
      "type": "event"
    },
    {
      "anonymous": false,
      "inputs": [
        {
          "indexed": false,
          "internalType": "address",
          "name": "owner",
          "type": "address"
        },
        {
          "indexed": false,
          "internalType": "uint256",
          "name": "cap",
          "type": "uint256"
        },
        {
          "indexed": false,
          "internalType": "uint256",
          "name": "fundId",
          "type": "uint256"
        },
        {
          "indexed": false,
          "internalType": "uint256",
          "name": "currency",
          "type": "uint256"
        }
      ],
      "name": "MicroCreated",
      "type": "event"
    },
    {
      "anonymous": false,
      "inputs": [
        {
          "indexed": false,
          "internalType": "address",
          "name": "owner",
          "type": "address"
        },
        {
          "indexed": false,
          "internalType": "uint256",
          "name": "amount",
          "type": "uint256"
        },
        {
          "indexed": false,
          "internalType": "uint256",
          "name": "fundId",
          "type": "uint256"
        }
      ],
      "name": "MicroDrained",
      "type": "event"
    },
    {
      "anonymous": false,
      "inputs": [
        {
          "indexed": true,
          "internalType": "address",
          "name": "previousOwner",
          "type": "address"
        },
        {
          "indexed": true,
          "internalType": "address",
          "name": "newOwner",
          "type": "address"
        }
      ],
      "name": "OwnershipTransferred",
      "type": "event"
    },
    {
      "anonymous": false,
      "inputs": [
        {
          "indexed": false,
          "internalType": "address",
          "name": "backer",
          "type": "address"
        },
        {
          "indexed": false,
          "internalType": "uint256",
          "name": "amount",
          "type": "uint256"
        },
        {
          "indexed": false,
          "internalType": "uint256",
          "name": "fundId",
          "type": "uint256"
        }
      ],
      "name": "Refunded",
      "type": "event"
    },
    {
      "anonymous": false,
      "inputs": [
        {
          "indexed": false,
          "internalType": "address",
          "name": "microOwner",
          "type": "address"
        },
        {
          "indexed": false,
          "internalType": "uint256",
          "name": "balance",
          "type": "uint256"
        },
        {
          "indexed": false,
          "internalType": "address",
          "name": "fundOwner",
          "type": "address"
        }
      ],
      "name": "Returned",
      "type": "event"
    },
    {
      "anonymous": false,
      "inputs": [
        {
          "indexed": false,
          "internalType": "address",
          "name": "owner",
          "type": "address"
        },
        {
          "indexed": false,
          "internalType": "uint256",
          "name": "balance",
          "type": "uint256"
        }
      ],
      "name": "UsdcDistributed",
      "type": "event"
    },
    {
      "anonymous": false,
      "inputs": [
        {
          "indexed": false,
          "internalType": "address",
          "name": "project",
          "type": "address"
        },
        {
          "indexed": false,
          "internalType": "uint256",
          "name": "fee",
          "type": "uint256"
        }
      ],
      "name": "UsdcFee",
      "type": "event"
    },
    {
      "anonymous": false,
      "inputs": [
        {
          "indexed": false,
          "internalType": "address",
          "name": "owner",
          "type": "address"
        },
        {
          "indexed": false,
          "internalType": "uint256",
          "name": "balance",
          "type": "uint256"
        }
      ],
      "name": "UsdtDistributed",
      "type": "event"
    },
    {
      "anonymous": false,
      "inputs": [
        {
          "indexed": false,
          "internalType": "address",
          "name": "project",
          "type": "address"
        },
        {
          "indexed": false,
          "internalType": "uint256",
          "name": "fee",
          "type": "uint256"
        }
      ],
      "name": "UsdtFee",
      "type": "event"
    },
    {
      "inputs": [
        {
          "internalType": "uint256",
          "name": "_index",
          "type": "uint256"
        },
        {
          "internalType": "uint256",
          "name": "_amount",
          "type": "uint256"
        }
      ],
      "name": "calcInvolvedMicros",
      "outputs": [
        {
          "internalType": "uint256",
          "name": "",
          "type": "uint256"
        }
      ],
      "stateMutability": "view",
      "type": "function"
    },
    {
      "inputs": [
        {
          "internalType": "uint256",
          "name": "_index",
          "type": "uint256"
        },
        {
          "internalType": "uint256",
          "name": "_amount",
          "type": "uint256"
        }
      ],
      "name": "calcOutcome",
      "outputs": [
        {
          "internalType": "uint256",
          "name": "",
          "type": "uint256"
        }
      ],
      "stateMutability": "view",
      "type": "function"
    },
    {
      "inputs": [
        {
          "internalType": "uint256",
          "name": "_id",
          "type": "uint256"
        }
      ],
      "name": "cancelFund",
      "outputs": [],
      "stateMutability": "nonpayable",
      "type": "function"
    },
    {
      "inputs": [
        {
          "internalType": "uint256",
          "name": "_fee",
          "type": "uint256"
        }
      ],
      "name": "changeFee",
      "outputs": [],
      "stateMutability": "nonpayable",
      "type": "function"
    },
    {
      "inputs": [
        {
          "internalType": "uint256",
          "name": "_amountM",
          "type": "uint256"
        },
        {
          "internalType": "uint256",
          "name": "_amountD",
          "type": "uint256"
        },
        {
          "internalType": "uint256",
          "name": "_id",
          "type": "uint256"
        },
        {
          "internalType": "uint256",
          "name": "_currency",
          "type": "uint256"
        }
      ],
      "name": "contribute",
      "outputs": [],
      "stateMutability": "nonpayable",
      "type": "function"
    },
    {
      "inputs": [
        {
          "internalType": "uint256",
          "name": "_level1",
          "type": "uint256"
        },
        {
          "internalType": "address",
          "name": "_rewardAddress",
          "type": "address"
        },
        {
          "internalType": "uint256",
          "name": "_rewardAmount",
          "type": "uint256"
        }
      ],
      "name": "createFund",
      "outputs": [],
      "stateMutability": "nonpayable",
      "type": "function"
    },
    {
      "inputs": [],
      "name": "dai",
      "outputs": [
        {
          "internalType": "contract IERC20",
          "name": "",
          "type": "address"
        }
      ],
      "stateMutability": "view",
      "type": "function"
    },
    {
      "inputs": [
        {
          "internalType": "uint256",
          "name": "_id",
          "type": "uint256"
        }
      ],
      "name": "distribute",
      "outputs": [],
      "stateMutability": "nonpayable",
      "type": "function"
    },
    {
      "inputs": [
        {
          "internalType": "uint256",
          "name": "",
          "type": "uint256"
        }
      ],
      "name": "donations",
      "outputs": [
        {
          "internalType": "uint256",
          "name": "id",
          "type": "uint256"
        },
        {
          "internalType": "uint256",
          "name": "fundId",
          "type": "uint256"
        },
        {
          "internalType": "address",
          "name": "backer",
          "type": "address"
        },
        {
          "internalType": "uint256",
          "name": "amount",
          "type": "uint256"
        },
        {
          "internalType": "uint256",
          "name": "state",
          "type": "uint256"
        },
        {
          "internalType": "uint256",
          "name": "currency",
          "type": "uint256"
        }
      ],
      "stateMutability": "view",
      "type": "function"
    },
    {
      "inputs": [],
      "name": "feeAddress",
      "outputs": [
        {
          "internalType": "address",
          "name": "",
          "type": "address"
        }
      ],
      "stateMutability": "view",
      "type": "function"
    },
    {
      "inputs": [
        {
          "internalType": "uint256",
          "name": "",
          "type": "uint256"
        }
      ],
      "name": "funds",
      "outputs": [
        {
          "internalType": "uint256",
          "name": "id",
          "type": "uint256"
        },
        {
          "internalType": "address",
          "name": "owner",
          "type": "address"
        },
        {
          "internalType": "uint256",
          "name": "balance",
          "type": "uint256"
        },
        {
          "internalType": "uint256",
          "name": "deadline",
          "type": "uint256"
        },
        {
          "internalType": "uint256",
          "name": "state",
          "type": "uint256"
        },
        {
          "internalType": "uint256",
          "name": "level1",
          "type": "uint256"
        },
        {
          "internalType": "uint256",
          "name": "tokenReward",
          "type": "uint256"
        },
        {
          "internalType": "address",
          "name": "tokenRewardAddress",
          "type": "address"
        },
        {
          "internalType": "uint256",
          "name": "usdcBalance",
          "type": "uint256"
        },
        {
          "internalType": "uint256",
          "name": "usdtBalance",
          "type": "uint256"
        },
        {
          "internalType": "uint256",
          "name": "daiBalance",
          "type": "uint256"
        }
      ],
      "stateMutability": "view",
      "type": "function"
    },
    {
      "inputs": [
        {
          "internalType": "uint256",
          "name": "_index",
          "type": "uint256"
        }
      ],
      "name": "getAllBalances",
      "outputs": [
        {
          "internalType": "uint256",
          "name": "",
          "type": "uint256"
        },
        {
          "internalType": "uint256",
          "name": "",
          "type": "uint256"
        },
        {
          "internalType": "uint256",
          "name": "",
          "type": "uint256"
        },
        {
          "internalType": "uint256",
          "name": "",
          "type": "uint256"
        }
      ],
      "stateMutability": "view",
      "type": "function"
    },
    {
      "inputs": [
        {
          "internalType": "uint256",
          "name": "_index",
          "type": "uint256"
        }
      ],
      "name": "getBackers",
      "outputs": [
        {
          "internalType": "uint256",
          "name": "",
          "type": "uint256"
        }
      ],
      "stateMutability": "view",
      "type": "function"
    },
    {
      "inputs": [
        {
          "internalType": "uint256",
          "name": "_index",
          "type": "uint256"
        }
      ],
      "name": "getConnectedMicroFunds",
      "outputs": [
        {
          "internalType": "uint256",
          "name": "",
          "type": "uint256"
        }
      ],
      "stateMutability": "view",
      "type": "function"
    },
    {
      "inputs": [
        {
          "internalType": "uint256",
          "name": "_index",
          "type": "uint256"
        }
      ],
      "name": "getFundBalance",
      "outputs": [
        {
          "internalType": "uint256",
          "name": "",
          "type": "uint256"
        }
      ],
      "stateMutability": "view",
      "type": "function"
    },
    {
      "inputs": [
        {
          "internalType": "uint256",
          "name": "_index",
          "type": "uint256"
        }
      ],
      "name": "getFundCap",
      "outputs": [
        {
          "internalType": "uint256",
          "name": "",
          "type": "uint256"
        }
      ],
      "stateMutability": "view",
      "type": "function"
    },
    {
      "inputs": [
        {
          "internalType": "uint256",
          "name": "_index",
          "type": "uint256"
        }
      ],
      "name": "getFundDeadline",
      "outputs": [
        {
          "internalType": "uint256",
          "name": "",
          "type": "uint256"
        }
      ],
      "stateMutability": "view",
      "type": "function"
    },
    {
      "inputs": [
        {
          "internalType": "uint256",
          "name": "_index",
          "type": "uint256"
        }
      ],
      "name": "getMicroFundInfo",
      "outputs": [
        {
          "internalType": "uint256",
          "name": "state",
          "type": "uint256"
        },
        {
          "internalType": "uint256",
          "name": "max",
          "type": "uint256"
        },
        {
          "internalType": "uint256",
          "name": "balance",
          "type": "uint256"
        },
        {
          "internalType": "uint256",
          "name": "currency",
          "type": "uint256"
        }
      ],
      "stateMutability": "view",
      "type": "function"
    },
    {
      "inputs": [
        {
          "internalType": "uint256",
          "name": "_index",
          "type": "uint256"
        }
      ],
      "name": "isPeriodFinished",
      "outputs": [
        {
          "internalType": "bool",
          "name": "",
          "type": "bool"
        }
      ],
      "stateMutability": "view",
      "type": "function"
    },
    {
      "inputs": [
        {
          "internalType": "uint256",
          "name": "",
          "type": "uint256"
        }
      ],
      "name": "microFunds",
      "outputs": [
        {
          "internalType": "uint256",
          "name": "microId",
          "type": "uint256"
        },
        {
          "internalType": "address",
          "name": "owner",
          "type": "address"
        },
        {
          "internalType": "uint256",
          "name": "cap",
          "type": "uint256"
        },
        {
          "internalType": "uint256",
          "name": "microBalance",
          "type": "uint256"
        },
        {
          "internalType": "uint256",
          "name": "fundId",
          "type": "uint256"
        },
        {
          "internalType": "uint256",
          "name": "state",
          "type": "uint256"
        },
        {
          "internalType": "uint256",
          "name": "currency",
          "type": "uint256"
        }
      ],
      "stateMutability": "view",
      "type": "function"
    },
    {
      "inputs": [],
      "name": "minAmount",
      "outputs": [
        {
          "internalType": "uint256",
          "name": "",
          "type": "uint256"
        }
      ],
      "stateMutability": "view",
      "type": "function"
    },
    {
      "inputs": [],
      "name": "owner",
      "outputs": [
        {
          "internalType": "address",
          "name": "",
          "type": "address"
        }
      ],
      "stateMutability": "view",
      "type": "function"
    },
    {
      "inputs": [],
      "name": "platformFee",
      "outputs": [
        {
          "internalType": "uint256",
          "name": "",
          "type": "uint256"
        }
      ],
      "stateMutability": "view",
      "type": "function"
    },
    {
      "inputs": [],
      "name": "renounceOwnership",
      "outputs": [],
      "stateMutability": "nonpayable",
      "type": "function"
    },
    {
      "inputs": [],
      "name": "rewardToken",
      "outputs": [
        {
          "internalType": "contract IERC20",
          "name": "",
          "type": "address"
        }
      ],
      "stateMutability": "view",
      "type": "function"
    },
    {
      "inputs": [
        {
          "internalType": "uint256",
          "name": "_min",
          "type": "uint256"
        }
      ],
      "name": "setMinimum",
      "outputs": [],
      "stateMutability": "nonpayable",
      "type": "function"
    },
    {
      "inputs": [
        {
          "internalType": "address",
          "name": "newOwner",
          "type": "address"
        }
      ],
      "name": "transferOwnership",
      "outputs": [],
      "stateMutability": "nonpayable",
      "type": "function"
    },
    {
      "inputs": [],
      "name": "usdc",
      "outputs": [
        {
          "internalType": "contract IERC20",
          "name": "",
          "type": "address"
        }
      ],
      "stateMutability": "view",
      "type": "function"
    },
    {
      "inputs": [],
      "name": "usdt",
      "outputs": [
        {
          "internalType": "contract IERC20",
          "name": "",
          "type": "address"
        }
      ],
      "stateMutability": "view",
      "type": "function"
    }
  ],
  "bytecode": "0x608060405273c21223249ca28397b4b6541dffaecc539bff0c59600660006101000a81548173ffffffffffffffffffffffffffffffffffffffff021916908373ffffffffffffffffffffffffffffffffffffffff160217905550600160075560016008553480156200007057600080fd5b50604051620059e9380380620059e98339818101604052810190620000969190620002bf565b620000b6620000aa6200018960201b60201c565b6200019160201b60201c565b6001808190555082600260006101000a81548173ffffffffffffffffffffffffffffffffffffffff021916908373ffffffffffffffffffffffffffffffffffffffff16021790555081600360006101000a81548173ffffffffffffffffffffffffffffffffffffffff021916908373ffffffffffffffffffffffffffffffffffffffff16021790555080600460006101000a81548173ffffffffffffffffffffffffffffffffffffffff021916908373ffffffffffffffffffffffffffffffffffffffff1602179055505050506200031b565b600033905090565b60008060009054906101000a900473ffffffffffffffffffffffffffffffffffffffff169050816000806101000a81548173ffffffffffffffffffffffffffffffffffffffff021916908373ffffffffffffffffffffffffffffffffffffffff1602179055508173ffffffffffffffffffffffffffffffffffffffff168173ffffffffffffffffffffffffffffffffffffffff167f8be0079c531659141344cd1fd0a4f28419497f9722a3daafe3b4186f6b6457e060405160405180910390a35050565b600080fd5b600073ffffffffffffffffffffffffffffffffffffffff82169050919050565b600062000287826200025a565b9050919050565b62000299816200027a565b8114620002a557600080fd5b50565b600081519050620002b9816200028e565b92915050565b600080600060608486031215620002db57620002da62000255565b5b6000620002eb86828701620002a8565b9350506020620002fe86828701620002a8565b92505060406200031186828701620002a8565b9150509250925092565b6156be806200032b6000396000f3fe608060405234801561001057600080fd5b50600436106101cf5760003560e01c806396413b6211610104578063be7aec53116100a2578063f4b9fa7511610071578063f4b9fa7514610579578063f4ecdcee14610597578063f7c618c1146105ca578063f8626af8146105e8576101cf565b8063be7aec53146104e1578063c9168b7214610511578063e481052414610541578063f2fde38b1461055d576101cf565b8063ac8ddf95116100de578063ac8ddf9514610432578063b318c83714610462578063b7fa105614610492578063b9ce03c0146104c5576101cf565b806396413b62146103b45780639b2cb5d8146103e4578063a4f10f0e14610402576101cf565b80636266d5fb11610171578063715018a61161014b578063715018a6146103365780637b8e8895146103405780638da5cb5b1461037a57806391c05b0b14610398576101cf565b80636266d5fb146102ba57806367958553146102ea5780636a1db1bf1461031a576101cf565b80632f48ab7d116101ad5780632f48ab7d146102445780633209e9e6146102625780633e413bee1461027e578063412753581461029c576101cf565b80630f7e6320146101d457806316055fa8146101f057806326232a2e14610226575b600080fd5b6101ee60048036038101906101e9919061498a565b61061d565b005b61020a600480360381019061020591906149dd565b610b11565b60405161021d9796959493929190614a28565b60405180910390f35b61022e610b83565b60405161023b9190614a97565b60405180910390f35b61024c610b89565b6040516102599190614b11565b60405180910390f35b61027c600480360381019061027791906149dd565b610baf565b005b610286610bc1565b6040516102939190614b11565b60405180910390f35b6102a4610be7565b6040516102b19190614b2c565b60405180910390f35b6102d460048036038101906102cf91906149dd565b610c0d565b6040516102e19190614a97565b60405180910390f35b61030460048036038101906102ff91906149dd565b610c3c565b6040516103119190614a97565b60405180910390f35b610334600480360381019061032f91906149dd565b610cad565b005b61033e610cbf565b005b61035a600480360381019061035591906149dd565b610cd3565b6040516103719b9a99989796959493929190614b47565b60405180910390f35b610382610d7d565b60405161038f9190614b2c565b60405180910390f35b6103b260048036038101906103ad91906149dd565b610da6565b005b6103ce60048036038101906103c991906149dd565b6129f7565b6040516103db9190614a97565b60405180910390f35b6103ec612a26565b6040516103f99190614a97565b60405180910390f35b61041c600480360381019061041791906149dd565b612a2c565b6040516104299190614a97565b60405180910390f35b61044c600480360381019061044791906149dd565b612a9c565b6040516104599190614c0d565b60405180910390f35b61047c60048036038101906104779190614c28565b612acd565b6040516104899190614a97565b60405180910390f35b6104ac60048036038101906104a791906149dd565b612bde565b6040516104bc9493929190614c68565b60405180910390f35b6104df60048036038101906104da9190614cad565b612c2e565b005b6104fb60048036038101906104f69190614c28565b61343a565b6040516105089190614a97565b60405180910390f35b61052b600480360381019061052691906149dd565b61353d565b6040516105389190614a97565b60405180910390f35b61055b600480360381019061055691906149dd565b6135ad565b005b61057760048036038101906105729190614d14565b61414b565b005b6105816141cf565b60405161058e9190614b11565b60405180910390f35b6105b160048036038101906105ac91906149dd565b6141f5565b6040516105c19493929190614c68565b60405180910390f35b6105d26142a2565b6040516105df9190614b11565b60405180910390f35b61060260048036038101906105fd91906149dd565b6142c8565b60405161061496959493929190614d41565b60405180910390f35b600062278d004261062e9190614dd1565b9050600073ffffffffffffffffffffffffffffffffffffffff163373ffffffffffffffffffffffffffffffffffffffff1614156106a0576040517f08c379a000000000000000000000000000000000000000000000000000000000815260040161069790614e84565b60405180910390fd5b600084116106e3576040517f08c379a00000000000000000000000000000000000000000000000000000000081526004016106da90614ef0565b60405180910390fd5b600754841015610728576040517f08c379a000000000000000000000000000000000000000000000000000000000815260040161071f90614f82565b60405180910390fd5b60008211156109185782600560006101000a81548173ffffffffffffffffffffffffffffffffffffffff021916908373ffffffffffffffffffffffffffffffffffffffff1602179055506000600560009054906101000a900473ffffffffffffffffffffffffffffffffffffffff1673ffffffffffffffffffffffffffffffffffffffff166370a08231336040518263ffffffff1660e01b81526004016107cf9190614b2c565b60206040518083038186803b1580156107e757600080fd5b505afa1580156107fb573d6000803e3d6000fd5b505050506040513d601f19601f8201168201806040525081019061081f9190614fb7565b905080831115610864576040517f08c379a000000000000000000000000000000000000000000000000000000000815260040161085b90615030565b60405180910390fd5b600560009054906101000a900473ffffffffffffffffffffffffffffffffffffffff1673ffffffffffffffffffffffffffffffffffffffff166323b872dd3330866040518463ffffffff1660e01b81526004016108c393929190615050565b602060405180830381600087803b1580156108dd57600080fd5b505af11580156108f1573d6000803e3d6000fd5b505050506040513d601f19601f8201168201806040525081019061091591906150b3565b50505b6009604051806101600160405280600160098054905061093891906150e0565b81526020013373ffffffffffffffffffffffffffffffffffffffff1681526020016000815260200183815260200160018152602001868152602001600081526020018573ffffffffffffffffffffffffffffffffffffffff1681526020016000815260200160008152602001600081525090806001815401808255809150506001900390600052602060002090600b02016000909190919091506000820151816000015560208201518160010160006101000a81548173ffffffffffffffffffffffffffffffffffffffff021916908373ffffffffffffffffffffffffffffffffffffffff16021790555060408201518160020155606082015181600301556080820151816004015560a0820151816005015560c0820151816006015560e08201518160070160006101000a81548173ffffffffffffffffffffffffffffffffffffffff021916908373ffffffffffffffffffffffffffffffffffffffff1602179055506101008201518160080155610120820151816009015561014082015181600a015550507ff18ce1b70b1a4044491b54196c83d95e67aae09483ce0d2e1c2a8189faca764433856001600980549050610af491906150e0565b604051610b0393929190615114565b60405180910390a150505050565b600a8181548110610b2157600080fd5b90600052602060002090600702016000915090508060000154908060010160009054906101000a900473ffffffffffffffffffffffffffffffffffffffff16908060020154908060030154908060040154908060050154908060060154905087565b60085481565b600360009054906101000a900473ffffffffffffffffffffffffffffffffffffffff1681565b610bb7614334565b8060078190555050565b600260009054906101000a900473ffffffffffffffffffffffffffffffffffffffff1681565b600660009054906101000a900473ffffffffffffffffffffffffffffffffffffffff1681565b600060098281548110610c2357610c2261514b565b5b90600052602060002090600b0201600501549050919050565b60004260098381548110610c5357610c5261514b565b5b90600052602060002090600b0201600301541115610ca3574260098381548110610c8057610c7f61514b565b5b90600052602060002090600b020160030154610c9c91906150e0565b9050610ca8565b600090505b919050565b610cb5614334565b8060088190555050565b610cc7614334565b610cd160006143b2565b565b60098181548110610ce357600080fd5b90600052602060002090600b02016000915090508060000154908060010160009054906101000a900473ffffffffffffffffffffffffffffffffffffffff16908060020154908060030154908060040154908060050154908060060154908060070160009054906101000a900473ffffffffffffffffffffffffffffffffffffffff169080600801549080600901549080600a015490508b565b60008060009054906101000a900473ffffffffffffffffffffffffffffffffffffffff16905090565b60026001541415610dec576040517f08c379a0000000000000000000000000000000000000000000000000000000008152600401610de3906151c6565b60405180910390fd5b6002600181905550600160098281548110610e0a57610e0961514b565b5b90600052602060002090600b02016004015414610e5c576040517f08c379a0000000000000000000000000000000000000000000000000000000008152600401610e5390615232565b60405180910390fd5b600060098281548110610e7257610e7161514b565b5b90600052602060002090600b020160080154111561174e57600260009054906101000a900473ffffffffffffffffffffffffffffffffffffffff1673ffffffffffffffffffffffffffffffffffffffff1663095ea7b33060098481548110610edd57610edc61514b565b5b90600052602060002090600b0201600801546040518363ffffffff1660e01b8152600401610f0c929190615252565b602060405180830381600087803b158015610f2657600080fd5b505af1158015610f3a573d6000803e3d6000fd5b505050506040513d601f19601f82011682018060405250810190610f5e91906150b3565b5060006064600160098481548110610f7957610f7861514b565b5b90600052602060002090600b020160080154610f95919061527b565b610f9f9190615304565b905060008160098481548110610fb857610fb761514b565b5b90600052602060002090600b020160080154610fd491906150e0565b9050600260009054906101000a900473ffffffffffffffffffffffffffffffffffffffff1673ffffffffffffffffffffffffffffffffffffffff166323b872dd30600660009054906101000a900473ffffffffffffffffffffffffffffffffffffffff16856040518463ffffffff1660e01b815260040161105793929190615050565b602060405180830381600087803b15801561107157600080fd5b505af1158015611085573d6000803e3d6000fd5b505050506040513d601f19601f820116820180604052508101906110a991906150b3565b507f6de79fa3fbd5b46d29b0be67a71db2a9004305e499780a007ec2147758098731600984815481106110df576110de61514b565b5b90600052602060002090600b020160010160009054906101000a900473ffffffffffffffffffffffffffffffffffffffff1683604051611120929190615252565b60405180910390a1600260009054906101000a900473ffffffffffffffffffffffffffffffffffffffff1673ffffffffffffffffffffffffffffffffffffffff166323b872dd306009868154811061117b5761117a61514b565b5b90600052602060002090600b020160010160009054906101000a900473ffffffffffffffffffffffffffffffffffffffff16846040518463ffffffff1660e01b81526004016111cc93929190615050565b602060405180830381600087803b1580156111e657600080fd5b505af11580156111fa573d6000803e3d6000fd5b505050506040513d601f19601f8201168201806040525081019061121e91906150b3565b507f2983755bde2b149ec8f5942cba2708bb9235a94ca22b45266e61f1a63b891fad600984815481106112545761125361514b565b5b90600052602060002090600b020160010160009054906101000a900473ffffffffffffffffffffffffffffffffffffffff166009858154811061129a5761129961514b565b5b90600052602060002090600b0201600801546040516112ba929190615252565b60405180910390a1600983815481106112d6576112d561514b565b5b90600052602060002090600b020160080154600984815481106112fc576112fb61514b565b5b90600052602060002090600b0201600201600082825461131c91906150e0565b9250508190555060005b600a805490508110156117465783600a82815481106113485761134761514b565b5b90600052602060002090600702016004015414801561138c57506001600a82815481106113785761137761514b565b5b906000526020600020906007020160050154145b80156113bd57506001600a82815481106113a9576113a861514b565b5b906000526020600020906007020160060154145b1561173357600a81815481106113d6576113d561514b565b5b906000526020600020906007020160030154600a82815481106113fc576113fb61514b565b5b90600052602060002090600702016002015411156116dc576000600a828154811061142a5761142961514b565b5b906000526020600020906007020160030154600a83815481106114505761144f61514b565b5b90600052602060002090600702016002015461146c91906150e0565b9050600260009054906101000a900473ffffffffffffffffffffffffffffffffffffffff1673ffffffffffffffffffffffffffffffffffffffff1663095ea7b330836040518363ffffffff1660e01b81526004016114cb929190615252565b602060405180830381600087803b1580156114e557600080fd5b505af11580156114f9573d6000803e3d6000fd5b505050506040513d601f19601f8201168201806040525081019061151d91906150b3565b50600260009054906101000a900473ffffffffffffffffffffffffffffffffffffffff1673ffffffffffffffffffffffffffffffffffffffff166323b872dd30600a88815481106115715761157061514b565b5b906000526020600020906007020160010160009054906101000a900473ffffffffffffffffffffffffffffffffffffffff16846040518463ffffffff1660e01b81526004016115c293929190615050565b602060405180830381600087803b1580156115dc57600080fd5b505af11580156115f0573d6000803e3d6000fd5b505050506040513d601f19601f8201168201806040525081019061161491906150b3565b507f98c105e3bc1ca4c7a99cdea9cd2e2c7a0fbf623404262d3dfd0a152545bd25ad600a838154811061164a5761164961514b565b5b906000526020600020906007020160010160009054906101000a900473ffffffffffffffffffffffffffffffffffffffff1682600988815481106116915761169061514b565b5b90600052602060002090600b020160010160009054906101000a900473ffffffffffffffffffffffffffffffffffffffff166040516116d293929190615335565b60405180910390a1505b6000600a85815481106116f2576116f161514b565b5b9060005260206000209060070201600301819055506002600a828154811061171d5761171c61514b565b5b9060005260206000209060070201600501819055505b808061173e9061536c565b915050611326565b505050612930565b6000600982815481106117645761176361514b565b5b90600052602060002090600b020160090154111561204057600360009054906101000a900473ffffffffffffffffffffffffffffffffffffffff1673ffffffffffffffffffffffffffffffffffffffff1663095ea7b330600984815481106117cf576117ce61514b565b5b90600052602060002090600b0201600901546040518363ffffffff1660e01b81526004016117fe929190615252565b602060405180830381600087803b15801561181857600080fd5b505af115801561182c573d6000803e3d6000fd5b505050506040513d601f19601f8201168201806040525081019061185091906150b3565b506000606460016009848154811061186b5761186a61514b565b5b90600052602060002090600b020160090154611887919061527b565b6118919190615304565b9050600081600984815481106118aa576118a961514b565b5b90600052602060002090600b0201600901546118c691906150e0565b9050600360009054906101000a900473ffffffffffffffffffffffffffffffffffffffff1673ffffffffffffffffffffffffffffffffffffffff166323b872dd30600660009054906101000a900473ffffffffffffffffffffffffffffffffffffffff16856040518463ffffffff1660e01b815260040161194993929190615050565b602060405180830381600087803b15801561196357600080fd5b505af1158015611977573d6000803e3d6000fd5b505050506040513d601f19601f8201168201806040525081019061199b91906150b3565b507f7f33091a87db4321c1589259e8e2cd6490f6bfdd78c9bd78ea14dcd35be92fce600984815481106119d1576119d061514b565b5b90600052602060002090600b020160010160009054906101000a900473ffffffffffffffffffffffffffffffffffffffff1683604051611a12929190615252565b60405180910390a1600360009054906101000a900473ffffffffffffffffffffffffffffffffffffffff1673ffffffffffffffffffffffffffffffffffffffff166323b872dd3060098681548110611a6d57611a6c61514b565b5b90600052602060002090600b020160010160009054906101000a900473ffffffffffffffffffffffffffffffffffffffff16846040518463ffffffff1660e01b8152600401611abe93929190615050565b602060405180830381600087803b158015611ad857600080fd5b505af1158015611aec573d6000803e3d6000fd5b505050506040513d601f19601f82011682018060405250810190611b1091906150b3565b507ff572396efe5f85a87e675fdfa31854b820eedf5120bbb23dbb737724549a7b1760098481548110611b4657611b4561514b565b5b90600052602060002090600b020160010160009054906101000a900473ffffffffffffffffffffffffffffffffffffffff1660098581548110611b8c57611b8b61514b565b5b90600052602060002090600b020160090154604051611bac929190615252565b60405180910390a160098381548110611bc857611bc761514b565b5b90600052602060002090600b02016009015460098481548110611bee57611bed61514b565b5b90600052602060002090600b02016002016000828254611c0e91906150e0565b9250508190555060005b600a805490508110156120385783600a8281548110611c3a57611c3961514b565b5b906000526020600020906007020160040154148015611c7e57506001600a8281548110611c6a57611c6961514b565b5b906000526020600020906007020160050154145b8015611caf57506002600a8281548110611c9b57611c9a61514b565b5b906000526020600020906007020160060154145b1561202557600a8181548110611cc857611cc761514b565b5b906000526020600020906007020160030154600a8281548110611cee57611ced61514b565b5b9060005260206000209060070201600201541115611fce576000600a8281548110611d1c57611d1b61514b565b5b906000526020600020906007020160030154600a8381548110611d4257611d4161514b565b5b906000526020600020906007020160020154611d5e91906150e0565b9050600360009054906101000a900473ffffffffffffffffffffffffffffffffffffffff1673ffffffffffffffffffffffffffffffffffffffff1663095ea7b330836040518363ffffffff1660e01b8152600401611dbd929190615252565b602060405180830381600087803b158015611dd757600080fd5b505af1158015611deb573d6000803e3d6000fd5b505050506040513d601f19601f82011682018060405250810190611e0f91906150b3565b50600360009054906101000a900473ffffffffffffffffffffffffffffffffffffffff1673ffffffffffffffffffffffffffffffffffffffff166323b872dd30600a8881548110611e6357611e6261514b565b5b906000526020600020906007020160010160009054906101000a900473ffffffffffffffffffffffffffffffffffffffff16846040518463ffffffff1660e01b8152600401611eb493929190615050565b602060405180830381600087803b158015611ece57600080fd5b505af1158015611ee2573d6000803e3d6000fd5b505050506040513d601f19601f82011682018060405250810190611f0691906150b3565b507f98c105e3bc1ca4c7a99cdea9cd2e2c7a0fbf623404262d3dfd0a152545bd25ad600a8381548110611f3c57611f3b61514b565b5b906000526020600020906007020160010160009054906101000a900473ffffffffffffffffffffffffffffffffffffffff168260098881548110611f8357611f8261514b565b5b90600052602060002090600b020160010160009054906101000a900473ffffffffffffffffffffffffffffffffffffffff16604051611fc493929190615335565b60405180910390a1505b6000600a8581548110611fe457611fe361514b565b5b9060005260206000209060070201600301819055506002600a828154811061200f5761200e61514b565b5b9060005260206000209060070201600501819055505b80806120309061536c565b915050611c18565b50505061292f565b6000600982815481106120565761205561514b565b5b90600052602060002090600b0201600a0154111561292e57600460009054906101000a900473ffffffffffffffffffffffffffffffffffffffff1673ffffffffffffffffffffffffffffffffffffffff1663095ea7b330600984815481106120c1576120c061514b565b5b90600052602060002090600b0201600a01546040518363ffffffff1660e01b81526004016120f0929190615252565b602060405180830381600087803b15801561210a57600080fd5b505af115801561211e573d6000803e3d6000fd5b505050506040513d601f19601f8201168201806040525081019061214291906150b3565b506000606460016009848154811061215d5761215c61514b565b5b90600052602060002090600b0201600a0154612179919061527b565b6121839190615304565b90506000816009848154811061219c5761219b61514b565b5b90600052602060002090600b0201600a01546121b891906150e0565b9050600460009054906101000a900473ffffffffffffffffffffffffffffffffffffffff1673ffffffffffffffffffffffffffffffffffffffff166323b872dd30600660009054906101000a900473ffffffffffffffffffffffffffffffffffffffff16856040518463ffffffff1660e01b815260040161223b93929190615050565b602060405180830381600087803b15801561225557600080fd5b505af1158015612269573d6000803e3d6000fd5b505050506040513d601f19601f8201168201806040525081019061228d91906150b3565b507fd3bb7794107f2141b4d89c04eeb390f268705cda80e10ed66f010c2e71976deb600984815481106122c3576122c261514b565b5b90600052602060002090600b020160010160009054906101000a900473ffffffffffffffffffffffffffffffffffffffff1683604051612304929190615252565b60405180910390a1600460009054906101000a900473ffffffffffffffffffffffffffffffffffffffff1673ffffffffffffffffffffffffffffffffffffffff166323b872dd306009868154811061235f5761235e61514b565b5b90600052602060002090600b020160010160009054906101000a900473ffffffffffffffffffffffffffffffffffffffff16846040518463ffffffff1660e01b81526004016123b093929190615050565b602060405180830381600087803b1580156123ca57600080fd5b505af11580156123de573d6000803e3d6000fd5b505050506040513d601f19601f8201168201806040525081019061240291906150b3565b507ff572396efe5f85a87e675fdfa31854b820eedf5120bbb23dbb737724549a7b17600984815481106124385761243761514b565b5b90600052602060002090600b020160010160009054906101000a900473ffffffffffffffffffffffffffffffffffffffff166009858154811061247e5761247d61514b565b5b90600052602060002090600b0201600a015460405161249e929190615252565b60405180910390a1600983815481106124ba576124b961514b565b5b90600052602060002090600b0201600a0154600984815481106124e0576124df61514b565b5b90600052602060002090600b0201600201600082825461250091906150e0565b9250508190555060005b600a8054905081101561292a5783600a828154811061252c5761252b61514b565b5b90600052602060002090600702016004015414801561257057506001600a828154811061255c5761255b61514b565b5b906000526020600020906007020160050154145b80156125a157506003600a828154811061258d5761258c61514b565b5b906000526020600020906007020160060154145b1561291757600a81815481106125ba576125b961514b565b5b906000526020600020906007020160030154600a82815481106125e0576125df61514b565b5b90600052602060002090600702016002015411156128c0576000600a828154811061260e5761260d61514b565b5b906000526020600020906007020160030154600a83815481106126345761263361514b565b5b90600052602060002090600702016002015461265091906150e0565b9050600460009054906101000a900473ffffffffffffffffffffffffffffffffffffffff1673ffffffffffffffffffffffffffffffffffffffff1663095ea7b330836040518363ffffffff1660e01b81526004016126af929190615252565b602060405180830381600087803b1580156126c957600080fd5b505af11580156126dd573d6000803e3d6000fd5b505050506040513d601f19601f8201168201806040525081019061270191906150b3565b50600460009054906101000a900473ffffffffffffffffffffffffffffffffffffffff1673ffffffffffffffffffffffffffffffffffffffff166323b872dd30600a88815481106127555761275461514b565b5b906000526020600020906007020160010160009054906101000a900473ffffffffffffffffffffffffffffffffffffffff16846040518463ffffffff1660e01b81526004016127a693929190615050565b602060405180830381600087803b1580156127c057600080fd5b505af11580156127d4573d6000803e3d6000fd5b505050506040513d601f19601f820116820180604052508101906127f891906150b3565b507f98c105e3bc1ca4c7a99cdea9cd2e2c7a0fbf623404262d3dfd0a152545bd25ad600a838154811061282e5761282d61514b565b5b906000526020600020906007020160010160009054906101000a900473ffffffffffffffffffffffffffffffffffffffff1682600988815481106128755761287461514b565b5b90600052602060002090600b020160010160009054906101000a900473ffffffffffffffffffffffffffffffffffffffff166040516128b693929190615335565b60405180910390a1505b6000600a85815481106128d6576128d561514b565b5b9060005260206000209060070201600301819055506002600a82815481106129015761290061514b565b5b9060005260206000209060070201600501819055505b80806129229061536c565b91505061250a565b5050505b5b5b6000600982815481106129465761294561514b565b5b90600052602060002090600b02016002015411156129c2576000600982815481106129745761297361514b565b5b90600052602060002090600b0201600201819055507fadd9d74ee9c338ee8881c6d3644817247d1550a0488e3edb096f7fc0c445185360016040516129b99190614c0d565b60405180910390a15b6002600982815481106129d8576129d761514b565b5b90600052602060002090600b0201600401819055506001808190555050565b600060098281548110612a0d57612a0c61514b565b5b90600052602060002090600b0201600201549050919050565b60075481565b6000806000905060005b600a80549050811015612a925783600a8281548110612a5857612a5761514b565b5b9060005260206000209060070201600401541415612a7f578180612a7b9061536c565b9250505b8080612a8a9061536c565b915050612a36565b5080915050919050565b600060098281548110612ab257612ab161514b565b5b90600052602060002090600b02016003015442119050919050565b600080600090508281612ae09190614dd1565b905060005b600a80549050811015612bd35784600a8281548110612b0757612b0661514b565b5b906000526020600020906007020160040154148015612b4b57506001600a8281548110612b3757612b3661514b565b5b906000526020600020906007020160050154145b8015612bac575083600a8281548110612b6757612b6661514b565b5b906000526020600020906007020160030154600a8381548110612b8d57612b8c61514b565b5b906000526020600020906007020160020154612ba991906150e0565b10155b15612bc0578382612bbd9190614dd1565b91505b8080612bcb9061536c565b915050612ae5565b508091505092915050565b6000806000806000600a8681548110612bfa57612bf961514b565b5b9060005260206000209060070201905080600501548160030154826002015483600601549450945094509450509193509193565b8160098181548110612c4357612c4261514b565b5b90600052602060002090600b0201600301544210612c96576040517f08c379a0000000000000000000000000000000000000000000000000000000008152600401612c8d90615427565b60405180910390fd5b600073ffffffffffffffffffffffffffffffffffffffff163373ffffffffffffffffffffffffffffffffffffffff161415612d06576040517f08c379a0000000000000000000000000000000000000000000000000000000008152600401612cfd90614e84565b60405180910390fd5b6000851015612d4a576040517f08c379a0000000000000000000000000000000000000000000000000000000008152600401612d4190614ef0565b60405180910390fd5b6000841015612d8e576040517f08c379a0000000000000000000000000000000000000000000000000000000008152600401612d8590614ef0565b60405180910390fd5b600160098481548110612da457612da361514b565b5b90600052602060002090600b02016004015414612df6576040517f08c379a0000000000000000000000000000000000000000000000000000000008152600401612ded90615232565b60405180910390fd5b6001821415612ec157600260009054906101000a900473ffffffffffffffffffffffffffffffffffffffff1673ffffffffffffffffffffffffffffffffffffffff166323b872dd33308888612e4b9190614dd1565b6040518463ffffffff1660e01b8152600401612e6993929190615050565b602060405180830381600087803b158015612e8357600080fd5b505af1158015612e97573d6000803e3d6000fd5b505050506040513d601f19601f82011682018060405250810190612ebb91906150b3565b50613094565b6002821415612f8c57600360009054906101000a900473ffffffffffffffffffffffffffffffffffffffff1673ffffffffffffffffffffffffffffffffffffffff166323b872dd33308888612f169190614dd1565b6040518463ffffffff1660e01b8152600401612f3493929190615050565b602060405180830381600087803b158015612f4e57600080fd5b505af1158015612f62573d6000803e3d6000fd5b505050506040513d601f19601f82011682018060405250810190612f8691906150b3565b50613093565b600382141561305757600460009054906101000a900473ffffffffffffffffffffffffffffffffffffffff1673ffffffffffffffffffffffffffffffffffffffff166323b872dd33308888612fe19190614dd1565b6040518463ffffffff1660e01b8152600401612fff93929190615050565b602060405180830381600087803b15801561301957600080fd5b505af115801561302d573d6000803e3d6000fd5b505050506040513d601f19601f8201168201806040525081019061305191906150b3565b50613092565b6040517f08c379a000000000000000000000000000000000000000000000000000000000815260040161308990615493565b60405180910390fd5b5b5b60008411156132ec5783600984815481106130b2576130b161514b565b5b90600052602060002090600b020160020160008282546130d29190614dd1565b9250508190555060018214156131235783600984815481106130f7576130f661514b565b5b90600052602060002090600b020160080160008282546131179190614dd1565b925050819055506131b5565b600282141561316d5783600984815481106131415761314061514b565b5b90600052602060002090600b020160090160008282546131619190614dd1565b925050819055506131b4565b60038214156131b357836009848154811061318b5761318a61514b565b5b90600052602060002090600b0201600a0160008282546131ab9190614dd1565b925050819055505b5b5b600b6040518060c00160405280600b8054905081526020018581526020013373ffffffffffffffffffffffffffffffffffffffff16815260200186815260200160008152602001848152509080600181540180825580915050600190039060005260206000209060060201600090919091909150600082015181600001556020820151816001015560408201518160020160006101000a81548173ffffffffffffffffffffffffffffffffffffffff021916908373ffffffffffffffffffffffffffffffffffffffff160217905550606082015181600301556080820151816004015560a0820151816005015550507f8d09c6745838fd32e92a7aec9e4c21f8fcc0ddf4300881dcffdbf060ba8bcff2338585856040516132d994939291906154b3565b60405180910390a16132eb8385614476565b5b600085111561343357600a6040518060e00160405280600a8054905081526020013373ffffffffffffffffffffffffffffffffffffffff16815260200187815260200160008152602001858152602001600181526020018481525090806001815401808255809150506001900390600052602060002090600702016000909190919091506000820151816000015560208201518160010160006101000a81548173ffffffffffffffffffffffffffffffffffffffff021916908373ffffffffffffffffffffffffffffffffffffffff16021790555060408201518160020155606082015181600301556080820151816004015560a0820151816005015560c0820151816006015550507f982b08aefe79525577026fc60aa3d85b642f6336a5078e50f2836434719770a53386858560405161342a94939291906154b3565b60405180910390a15b5050505050565b6000806000905060005b600a805490508110156135325784600a82815481106134665761346561514b565b5b9060005260206000209060070201600401541480156134aa57506001600a82815481106134965761349561514b565b5b906000526020600020906007020160050154145b801561350b575083600a82815481106134c6576134c561514b565b5b906000526020600020906007020160030154600a83815481106134ec576134eb61514b565b5b90600052602060002090600702016002015461350891906150e0565b10155b1561351f57818061351b9061536c565b9250505b808061352a9061536c565b915050613444565b508091505092915050565b6000806000905060005b600b805490508110156135a35783600b82815481106135695761356861514b565b5b906000526020600020906006020160010154141561359057818061358c9061536c565b9250505b808061359b9061536c565b915050613547565b5080915050919050565b600260015414156135f3576040517f08c379a00000000000000000000000000000000000000000000000000000000081526004016135ea906151c6565b60405180910390fd5b60026001819055506001600982815481106136115761361061514b565b5b90600052602060002090600b02016004015414613663576040517f08c379a000000000000000000000000000000000000000000000000000000000815260040161365a90615232565b60405180910390fd5b600981815481106136775761367661514b565b5b90600052602060002090600b020160020154600260009054906101000a900473ffffffffffffffffffffffffffffffffffffffff1673ffffffffffffffffffffffffffffffffffffffff166370a08231306040518263ffffffff1660e01b81526004016136e49190614b2c565b60206040518083038186803b1580156136fc57600080fd5b505afa158015613710573d6000803e3d6000fd5b505050506040513d601f19601f820116820180604052508101906137349190614fb7565b1015613775576040517f08c379a000000000000000000000000000000000000000000000000000000000815260040161376c9061556a565b60405180910390fd5b600981815481106137895761378861514b565b5b90600052602060002090600b020160010160009054906101000a900473ffffffffffffffffffffffffffffffffffffffff1673ffffffffffffffffffffffffffffffffffffffff163373ffffffffffffffffffffffffffffffffffffffff16148061381f57503073ffffffffffffffffffffffffffffffffffffffff163373ffffffffffffffffffffffffffffffffffffffff16145b156141415760005b600a80549050811015613c605781600a82815481106138495761384861514b565b5b90600052602060002090600702016004015414801561388d57506001600a82815481106138795761387861514b565b5b906000526020600020906007020160050154145b15613c4d57600a81815481106138a6576138a561514b565b5b906000526020600020906007020160030154600a82815481106138cc576138cb61514b565b5b9060005260206000209060070201600201541115613bc057600260009054906101000a900473ffffffffffffffffffffffffffffffffffffffff1673ffffffffffffffffffffffffffffffffffffffff1663095ea7b330600a84815481106139375761393661514b565b5b9060005260206000209060070201600201546040518363ffffffff1660e01b8152600401613966929190615252565b602060405180830381600087803b15801561398057600080fd5b505af1158015613994573d6000803e3d6000fd5b505050506040513d601f19601f820116820180604052508101906139b891906150b3565b50600260009054906101000a900473ffffffffffffffffffffffffffffffffffffffff1673ffffffffffffffffffffffffffffffffffffffff166323b872dd30600a8481548110613a0c57613a0b61514b565b5b906000526020600020906007020160010160009054906101000a900473ffffffffffffffffffffffffffffffffffffffff16600a8581548110613a5257613a5161514b565b5b9060005260206000209060070201600201546040518463ffffffff1660e01b8152600401613a8293929190615050565b602060405180830381600087803b158015613a9c57600080fd5b505af1158015613ab0573d6000803e3d6000fd5b505050506040513d601f19601f82011682018060405250810190613ad491906150b3565b507f98c105e3bc1ca4c7a99cdea9cd2e2c7a0fbf623404262d3dfd0a152545bd25ad600a8281548110613b0a57613b0961514b565b5b906000526020600020906007020160010160009054906101000a900473ffffffffffffffffffffffffffffffffffffffff16600a8381548110613b5057613b4f61514b565b5b90600052602060002090600702016002015460098481548110613b7657613b7561514b565b5b90600052602060002090600b020160010160009054906101000a900473ffffffffffffffffffffffffffffffffffffffff16604051613bb793929190615335565b60405180910390a15b600a8181548110613bd457613bd361514b565b5b90600052602060002090600702016002015460098381548110613bfa57613bf961514b565b5b90600052602060002090600b02016002016000828254613c1a91906150e0565b925050819055506002600a8281548110613c3757613c3661514b565b5b9060005260206000209060070201600501819055505b8080613c589061536c565b915050613827565b5060005b600b805490508110156140055781600b8281548110613c8657613c8561514b565b5b906000526020600020906006020160010154148015613cca57506000600b8281548110613cb657613cb561514b565b5b906000526020600020906006020160040154145b15613ff257600260009054906101000a900473ffffffffffffffffffffffffffffffffffffffff1673ffffffffffffffffffffffffffffffffffffffff1663095ea7b330600b8481548110613d2257613d2161514b565b5b9060005260206000209060060201600301546040518363ffffffff1660e01b8152600401613d51929190615252565b602060405180830381600087803b158015613d6b57600080fd5b505af1158015613d7f573d6000803e3d6000fd5b505050506040513d601f19601f82011682018060405250810190613da391906150b3565b50600260009054906101000a900473ffffffffffffffffffffffffffffffffffffffff1673ffffffffffffffffffffffffffffffffffffffff166323b872dd30600b8481548110613df757613df661514b565b5b906000526020600020906006020160020160009054906101000a900473ffffffffffffffffffffffffffffffffffffffff16600b8581548110613e3d57613e3c61514b565b5b9060005260206000209060060201600301546040518463ffffffff1660e01b8152600401613e6d93929190615050565b602060405180830381600087803b158015613e8757600080fd5b505af1158015613e9b573d6000803e3d6000fd5b505050506040513d601f19601f82011682018060405250810190613ebf91906150b3565b50600b8181548110613ed457613ed361514b565b5b90600052602060002090600602016003015460098381548110613efa57613ef961514b565b5b90600052602060002090600b02016002016000828254613f1a91906150e0565b925050819055506002600b8281548110613f3757613f3661514b565b5b9060005260206000209060060201600401819055507f2dc8e290002f06fc0085bbca9dfb8b415cf4d1178950c72ff9ee8f4d8878ee66600b8281548110613f8157613f8061514b565b5b906000526020600020906006020160020160009054906101000a900473ffffffffffffffffffffffffffffffffffffffff16600b8381548110613fc757613fc661514b565b5b90600052602060002090600602016003015484604051613fe993929190615114565b60405180910390a15b8080613ffd9061536c565b915050613c64565b5060006009828154811061401c5761401b61514b565b5b90600052602060002090600b02016002015414156141075760026009828154811061404a5761404961514b565b5b90600052602060002090600b0201600401819055507f36ea5cd5608625e789af0282eecdb4eae1cb7c1cf6d0ec3f9a84f35be850260b600982815481106140945761409361514b565b5b90600052602060002090600b020160010160009054906101000a900473ffffffffffffffffffffffffffffffffffffffff16600983815481106140da576140d961514b565b5b90600052602060002090600b0201600001546040516140fa929190615252565b60405180910390a1614140565b7fadd9d74ee9c338ee8881c6d3644817247d1550a0488e3edb096f7fc0c445185360016040516141379190614c0d565b60405180910390a15b5b6001808190555050565b614153614334565b600073ffffffffffffffffffffffffffffffffffffffff168173ffffffffffffffffffffffffffffffffffffffff1614156141c3576040517f08c379a00000000000000000000000000000000000000000000000000000000081526004016141ba906155fc565b60405180910390fd5b6141cc816143b2565b50565b600460009054906101000a900473ffffffffffffffffffffffffffffffffffffffff1681565b6000806000806009858154811061420f5761420e61514b565b5b90600052602060002090600b020160020154600986815481106142355761423461514b565b5b90600052602060002090600b0201600801546009878154811061425b5761425a61514b565b5b90600052602060002090600b020160090154600988815481106142815761428061514b565b5b90600052602060002090600b0201600a015493509350935093509193509193565b600560009054906101000a900473ffffffffffffffffffffffffffffffffffffffff1681565b600b81815481106142d857600080fd5b90600052602060002090600602016000915090508060000154908060010154908060020160009054906101000a900473ffffffffffffffffffffffffffffffffffffffff16908060030154908060040154908060050154905086565b61433c6148e9565b73ffffffffffffffffffffffffffffffffffffffff1661435a610d7d565b73ffffffffffffffffffffffffffffffffffffffff16146143b0576040517f08c379a00000000000000000000000000000000000000000000000000000000081526004016143a790615668565b60405180910390fd5b565b60008060009054906101000a900473ffffffffffffffffffffffffffffffffffffffff169050816000806101000a81548173ffffffffffffffffffffffffffffffffffffffff021916908373ffffffffffffffffffffffffffffffffffffffff1602179055508173ffffffffffffffffffffffffffffffffffffffff168173ffffffffffffffffffffffffffffffffffffffff167f8be0079c531659141344cd1fd0a4f28419497f9722a3daafe3b4186f6b6457e060405160405180910390a35050565b60005b600a805490508110156148e45781600a828154811061449b5761449a61514b565b5b906000526020600020906007020160030154600a83815481106144c1576144c061514b565b5b9060005260206000209060070201600201546144dd91906150e0565b1015801561450f575082600a82815481106144fb576144fa61514b565b5b906000526020600020906007020160040154145b801561454057506001600a828154811061452c5761452b61514b565b5b906000526020600020906007020160050154145b156148d15781600a828154811061455a5761455961514b565b5b9060005260206000209060070201600301600082825461457a9190614dd1565b9250508190555081600984815481106145965761459561514b565b5b90600052602060002090600b020160020160008282546145b69190614dd1565b925050819055506001600a82815481106145d3576145d261514b565b5b906000526020600020906007020160060154141561462c578160098481548110614600576145ff61514b565b5b90600052602060002090600b020160080160008282546146209190614dd1565b92505081905550614708565b6002600a82815481106146425761464161514b565b5b906000526020600020906007020160060154141561469b57816009848154811061466f5761466e61514b565b5b90600052602060002090600b0201600901600082825461468f9190614dd1565b92505081905550614707565b6003600a82815481106146b1576146b061514b565b5b90600052602060002090600702016006015414156147065781600984815481106146de576146dd61514b565b5b90600052602060002090600b0201600a0160008282546146fe9190614dd1565b925050819055505b5b5b600a818154811061471c5761471b61514b565b5b906000526020600020906007020160030154600a82815481106147425761474161514b565b5b9060005260206000209060070201600201541415614850576002600a82815481106147705761476f61514b565b5b9060005260206000209060070201600501819055507f344f3c440bc0a199d8ebf3e014b04b0be7f494a3e35bc4c4b162dbf9edb24521600a82815481106147ba576147b961514b565b5b906000526020600020906007020160010160009054906101000a900473ffffffffffffffffffffffffffffffffffffffff16600a8381548110614800576147ff61514b565b5b906000526020600020906007020160020154600a84815481106148265761482561514b565b5b90600052602060002090600702016004015460405161484793929190615114565b60405180910390a15b7ff8d3b803c2699d3e25440474a9089daa89195298415edaf5cb5ff73d4cad4d44600a82815481106148855761488461514b565b5b906000526020600020906007020160010160009054906101000a900473ffffffffffffffffffffffffffffffffffffffff1683856040516148c893929190615114565b60405180910390a15b80806148dc9061536c565b915050614479565b505050565b600033905090565b600080fd5b6000819050919050565b614909816148f6565b811461491457600080fd5b50565b60008135905061492681614900565b92915050565b600073ffffffffffffffffffffffffffffffffffffffff82169050919050565b60006149578261492c565b9050919050565b6149678161494c565b811461497257600080fd5b50565b6000813590506149848161495e565b92915050565b6000806000606084860312156149a3576149a26148f1565b5b60006149b186828701614917565b93505060206149c286828701614975565b92505060406149d386828701614917565b9150509250925092565b6000602082840312156149f3576149f26148f1565b5b6000614a0184828501614917565b91505092915050565b614a13816148f6565b82525050565b614a228161494c565b82525050565b600060e082019050614a3d600083018a614a0a565b614a4a6020830189614a19565b614a576040830188614a0a565b614a646060830187614a0a565b614a716080830186614a0a565b614a7e60a0830185614a0a565b614a8b60c0830184614a0a565b98975050505050505050565b6000602082019050614aac6000830184614a0a565b92915050565b6000819050919050565b6000614ad7614ad2614acd8461492c565b614ab2565b61492c565b9050919050565b6000614ae982614abc565b9050919050565b6000614afb82614ade565b9050919050565b614b0b81614af0565b82525050565b6000602082019050614b266000830184614b02565b92915050565b6000602082019050614b416000830184614a19565b92915050565b600061016082019050614b5d600083018e614a0a565b614b6a602083018d614a19565b614b77604083018c614a0a565b614b84606083018b614a0a565b614b91608083018a614a0a565b614b9e60a0830189614a0a565b614bab60c0830188614a0a565b614bb860e0830187614a19565b614bc6610100830186614a0a565b614bd4610120830185614a0a565b614be2610140830184614a0a565b9c9b505050505050505050505050565b60008115159050919050565b614c0781614bf2565b82525050565b6000602082019050614c226000830184614bfe565b92915050565b60008060408385031215614c3f57614c3e6148f1565b5b6000614c4d85828601614917565b9250506020614c5e85828601614917565b9150509250929050565b6000608082019050614c7d6000830187614a0a565b614c8a6020830186614a0a565b614c976040830185614a0a565b614ca46060830184614a0a565b95945050505050565b60008060008060808587031215614cc757614cc66148f1565b5b6000614cd587828801614917565b9450506020614ce687828801614917565b9350506040614cf787828801614917565b9250506060614d0887828801614917565b91505092959194509250565b600060208284031215614d2a57614d296148f1565b5b6000614d3884828501614975565b91505092915050565b600060c082019050614d566000830189614a0a565b614d636020830188614a0a565b614d706040830187614a19565b614d7d6060830186614a0a565b614d8a6080830185614a0a565b614d9760a0830184614a0a565b979650505050505050565b7f4e487b7100000000000000000000000000000000000000000000000000000000600052601160045260246000fd5b6000614ddc826148f6565b9150614de7836148f6565b9250827fffffffffffffffffffffffffffffffffffffffffffffffffffffffffffffffff03821115614e1c57614e1b614da2565b5b828201905092915050565b600082825260208201905092915050565b7f496e76616c696420616464726573730000000000000000000000000000000000600082015250565b6000614e6e600f83614e27565b9150614e7982614e38565b602082019050919050565b60006020820190508181036000830152614e9d81614e61565b9050919050565b7f496e76616c696420616d6f756e74000000000000000000000000000000000000600082015250565b6000614eda600e83614e27565b9150614ee582614ea4565b602082019050919050565b60006020820190508181036000830152614f0981614ecd565b9050919050565b7f56616c7565206973206c6f776572207468616e206d696e696d756d20706f737360008201527f69626c6520616d6f756e74000000000000000000000000000000000000000000602082015250565b6000614f6c602b83614e27565b9150614f7782614f10565b604082019050919050565b60006020820190508181036000830152614f9b81614f5f565b9050919050565b600081519050614fb181614900565b92915050565b600060208284031215614fcd57614fcc6148f1565b5b6000614fdb84828501614fa2565b91505092915050565b7f4e6f7420656e6f75676820746f6b656e20696e2077616c6c6574000000000000600082015250565b600061501a601a83614e27565b915061502582614fe4565b602082019050919050565b600060208201905081810360008301526150498161500d565b9050919050565b60006060820190506150656000830186614a19565b6150726020830185614a19565b61507f6040830184614a0a565b949350505050565b61509081614bf2565b811461509b57600080fd5b50565b6000815190506150ad81615087565b92915050565b6000602082840312156150c9576150c86148f1565b5b60006150d78482850161509e565b91505092915050565b60006150eb826148f6565b91506150f6836148f6565b92508282101561510957615108614da2565b5b828203905092915050565b60006060820190506151296000830186614a19565b6151366020830185614a0a565b6151436040830184614a0a565b949350505050565b7f4e487b7100000000000000000000000000000000000000000000000000000000600052603260045260246000fd5b7f5265656e7472616e637947756172643a207265656e7472616e742063616c6c00600082015250565b60006151b0601f83614e27565b91506151bb8261517a565b602082019050919050565b600060208201905081810360008301526151df816151a3565b9050919050565b7f46756e64206973206e6f74206163746976650000000000000000000000000000600082015250565b600061521c601283614e27565b9150615227826151e6565b602082019050919050565b6000602082019050818103600083015261524b8161520f565b9050919050565b60006040820190506152676000830185614a19565b6152746020830184614a0a565b9392505050565b6000615286826148f6565b9150615291836148f6565b9250817fffffffffffffffffffffffffffffffffffffffffffffffffffffffffffffffff04831182151516156152ca576152c9614da2565b5b828202905092915050565b7f4e487b7100000000000000000000000000000000000000000000000000000000600052601260045260246000fd5b600061530f826148f6565b915061531a836148f6565b92508261532a576153296152d5565b5b828204905092915050565b600060608201905061534a6000830186614a19565b6153576020830185614a0a565b6153646040830184614a19565b949350505050565b6000615377826148f6565b91507fffffffffffffffffffffffffffffffffffffffffffffffffffffffffffffffff8214156153aa576153a9614da2565b5b600182019050919050565b7f446561646c696e6520666f722063726f776466756e64696e672068617320706160008201527f737365642e000000000000000000000000000000000000000000000000000000602082015250565b6000615411602583614e27565b915061541c826153b5565b604082019050919050565b6000602082019050818103600083015261544081615404565b9050919050565b7f496e76616c69642063757272656e637900000000000000000000000000000000600082015250565b600061547d601083614e27565b915061548882615447565b602082019050919050565b600060208201905081810360008301526154ac81615470565b9050919050565b60006080820190506154c86000830187614a19565b6154d56020830186614a0a565b6154e26040830185614a0a565b6154ef6060830184614a0a565b95945050505050565b7f4e6f7420656e6f75676820746f6b656e7320696e2074686520636f6e7472616360008201527f7400000000000000000000000000000000000000000000000000000000000000602082015250565b6000615554602183614e27565b915061555f826154f8565b604082019050919050565b6000602082019050818103600083015261558381615547565b9050919050565b7f4f776e61626c653a206e6577206f776e657220697320746865207a65726f206160008201527f6464726573730000000000000000000000000000000000000000000000000000602082015250565b60006155e6602683614e27565b91506155f18261558a565b604082019050919050565b60006020820190508181036000830152615615816155d9565b9050919050565b7f4f776e61626c653a2063616c6c6572206973206e6f7420746865206f776e6572600082015250565b6000615652602083614e27565b915061565d8261561c565b602082019050919050565b6000602082019050818103600083015261568181615645565b905091905056fea2646970667358221220e710d1b83aa95c5ff65b40aedc8d8829b303f52714b9deb6c8b1ab413f77621e64736f6c63430008090033",
  "linkReferences": {},
  "deployedLinkReferences": {}
}