{
  "_format": "hh-sol-artifact-1",
  "contractName": "Funding",
  "sourceName": "contracts/Funding.sol",
  "abi": [
    {
      "inputs": [
        {
          "internalType": "address",
          "name": "usdcAddress",
          "type": "address"
        },
        {
          "internalType": "address",
          "name": "usdtAddress",
          "type": "address"
        },
        {
          "internalType": "address",
          "name": "daiAddress",
          "type": "address"
        }
      ],
      "stateMutability": "nonpayable",
      "type": "constructor"
    },
    {
      "anonymous": false,
      "inputs": [
        {
          "indexed": false,
          "internalType": "address",
          "name": "owner",
          "type": "address"
        },
        {
          "indexed": false,
          "internalType": "uint256",
          "name": "fundId",
          "type": "uint256"
        }
      ],
      "name": "Cancelled",
      "type": "event"
    },
    {
      "anonymous": false,
      "inputs": [
        {
          "indexed": false,
          "internalType": "address",
          "name": "owner",
          "type": "address"
        },
        {
          "indexed": false,
          "internalType": "uint256",
          "name": "balance",
          "type": "uint256"
        },
        {
          "indexed": false,
          "internalType": "uint256",
          "name": "currency",
          "type": "uint256"
        }
      ],
      "name": "DistributionAccomplished",
      "type": "event"
    },
    {
      "anonymous": false,
      "inputs": [
        {
          "indexed": false,
          "internalType": "address",
          "name": "donator",
          "type": "address"
        },
        {
          "indexed": false,
          "internalType": "uint256",
          "name": "amount",
          "type": "uint256"
        },
        {
          "indexed": false,
          "internalType": "uint256",
          "name": "fundId",
          "type": "uint256"
        },
        {
          "indexed": false,
          "internalType": "uint256",
          "name": "currency",
          "type": "uint256"
        }
      ],
      "name": "Donated",
      "type": "event"
    },
    {
      "anonymous": false,
      "inputs": [
        {
          "indexed": false,
          "internalType": "address",
          "name": "owner",
          "type": "address"
        },
        {
          "indexed": false,
          "internalType": "uint256",
          "name": "cap",
          "type": "uint256"
        },
        {
          "indexed": false,
          "internalType": "uint256",
          "name": "id",
          "type": "uint256"
        }
      ],
      "name": "FundCreated",
      "type": "event"
    },
    {
      "anonymous": false,
      "inputs": [
        {
          "indexed": false,
          "internalType": "address",
          "name": "project",
          "type": "address"
        },
        {
          "indexed": false,
          "internalType": "uint256",
          "name": "fee",
          "type": "uint256"
        }
      ],
      "name": "FundingFee",
      "type": "event"
    },
    {
      "anonymous": false,
      "inputs": [
        {
          "indexed": false,
          "internalType": "bool",
          "name": "status",
          "type": "bool"
        }
      ],
      "name": "IncorrectDistribution",
      "type": "event"
    },
    {
      "anonymous": false,
      "inputs": [
        {
          "indexed": false,
          "internalType": "address",
          "name": "owner",
          "type": "address"
        },
        {
          "indexed": false,
          "internalType": "uint256",
          "name": "cap",
          "type": "uint256"
        },
        {
          "indexed": false,
          "internalType": "uint256",
          "name": "fundId",
          "type": "uint256"
        }
      ],
      "name": "MicroClosed",
      "type": "event"
    },
    {
      "anonymous": false,
      "inputs": [
        {
          "indexed": false,
          "internalType": "address",
          "name": "owner",
          "type": "address"
        },
        {
          "indexed": false,
          "internalType": "uint256",
          "name": "cap",
          "type": "uint256"
        },
        {
          "indexed": false,
          "internalType": "uint256",
          "name": "fundId",
          "type": "uint256"
        },
        {
          "indexed": false,
          "internalType": "uint256",
          "name": "currency",
          "type": "uint256"
        }
      ],
      "name": "MicroCreated",
      "type": "event"
    },
    {
      "anonymous": false,
      "inputs": [
        {
          "indexed": false,
          "internalType": "address",
          "name": "owner",
          "type": "address"
        },
        {
          "indexed": false,
          "internalType": "uint256",
          "name": "amount",
          "type": "uint256"
        },
        {
          "indexed": false,
          "internalType": "uint256",
          "name": "fundId",
          "type": "uint256"
        }
      ],
      "name": "MicroDrained",
      "type": "event"
    },
    {
      "anonymous": false,
      "inputs": [
        {
          "indexed": false,
          "internalType": "address",
          "name": "backer",
          "type": "address"
        },
        {
          "indexed": false,
          "internalType": "address",
          "name": "contractAddress",
          "type": "address"
        },
        {
          "indexed": false,
          "internalType": "uint256",
          "name": "fundId",
          "type": "uint256"
        }
      ],
      "name": "NftReward",
      "type": "event"
    },
    {
      "anonymous": false,
      "inputs": [
        {
          "indexed": true,
          "internalType": "address",
          "name": "previousOwner",
          "type": "address"
        },
        {
          "indexed": true,
          "internalType": "address",
          "name": "newOwner",
          "type": "address"
        }
      ],
      "name": "OwnershipTransferred",
      "type": "event"
    },
    {
      "anonymous": false,
      "inputs": [
        {
          "indexed": false,
          "internalType": "address",
          "name": "project",
          "type": "address"
        },
        {
          "indexed": false,
          "internalType": "uint256",
          "name": "fee",
          "type": "uint256"
        }
      ],
      "name": "PlatformFee",
      "type": "event"
    },
    {
      "anonymous": false,
      "inputs": [
        {
          "indexed": false,
          "internalType": "address",
          "name": "backer",
          "type": "address"
        },
        {
          "indexed": false,
          "internalType": "uint256",
          "name": "amount",
          "type": "uint256"
        },
        {
          "indexed": false,
          "internalType": "uint256",
          "name": "fundId",
          "type": "uint256"
        }
      ],
      "name": "Refunded",
      "type": "event"
    },
    {
      "anonymous": false,
      "inputs": [
        {
          "indexed": false,
          "internalType": "address",
          "name": "microOwner",
          "type": "address"
        },
        {
          "indexed": false,
          "internalType": "uint256",
          "name": "balance",
          "type": "uint256"
        },
        {
          "indexed": false,
          "internalType": "address",
          "name": "fundOwner",
          "type": "address"
        }
      ],
      "name": "Returned",
      "type": "event"
    },
    {
      "anonymous": false,
      "inputs": [
        {
          "indexed": false,
          "internalType": "address",
          "name": "backer",
          "type": "address"
        },
        {
          "indexed": false,
          "internalType": "uint256",
          "name": "amount",
          "type": "uint256"
        },
        {
          "indexed": false,
          "internalType": "uint256",
          "name": "fundId",
          "type": "uint256"
        }
      ],
      "name": "TokenReward",
      "type": "event"
    },
    {
      "inputs": [
        {
          "internalType": "contract IERC20",
          "name": "_rewardTokenAddress",
          "type": "address"
        }
      ],
      "name": "batchDistribute",
      "outputs": [],
      "stateMutability": "nonpayable",
      "type": "function"
    },
    {
      "inputs": [
        {
          "internalType": "uint256",
          "name": "_index",
          "type": "uint256"
        },
        {
          "internalType": "uint256",
          "name": "_amount",
          "type": "uint256"
        }
      ],
      "name": "calcInvolvedMicros",
      "outputs": [
        {
          "internalType": "uint256",
          "name": "",
          "type": "uint256"
        }
      ],
      "stateMutability": "view",
      "type": "function"
    },
    {
      "inputs": [
        {
          "internalType": "uint256",
          "name": "_index",
          "type": "uint256"
        },
        {
          "internalType": "uint256",
          "name": "_amount",
          "type": "uint256"
        }
      ],
      "name": "calcOutcome",
      "outputs": [
        {
          "internalType": "uint256",
          "name": "",
          "type": "uint256"
        }
      ],
      "stateMutability": "view",
      "type": "function"
    },
    {
      "inputs": [
        {
          "internalType": "uint256",
          "name": "_id",
          "type": "uint256"
        }
      ],
      "name": "cancelFund",
      "outputs": [],
      "stateMutability": "nonpayable",
      "type": "function"
    },
    {
      "inputs": [
        {
          "internalType": "uint256",
          "name": "_fee",
          "type": "uint256"
        }
      ],
      "name": "changeFee",
      "outputs": [],
      "stateMutability": "nonpayable",
      "type": "function"
    },
    {
      "inputs": [
        {
          "internalType": "uint256",
          "name": "_amountM",
          "type": "uint256"
        },
        {
          "internalType": "uint256",
          "name": "_amountD",
          "type": "uint256"
        },
        {
          "internalType": "uint256",
          "name": "_id",
          "type": "uint256"
        },
        {
          "internalType": "uint256",
          "name": "_currency",
          "type": "uint256"
        },
        {
          "internalType": "bool",
          "name": "_nftReward",
          "type": "bool"
        }
      ],
      "name": "contribute",
      "outputs": [],
      "stateMutability": "nonpayable",
      "type": "function"
    },
    {
      "inputs": [
        {
          "internalType": "uint256",
          "name": "_level1",
          "type": "uint256"
        }
      ],
      "name": "createFund",
      "outputs": [],
      "stateMutability": "nonpayable",
      "type": "function"
    },
    {
      "inputs": [
        {
          "internalType": "uint256",
          "name": "_fundId",
          "type": "uint256"
        },
        {
          "internalType": "uint256",
          "name": "_totalNumber",
          "type": "uint256"
        },
        {
          "internalType": "address",
          "name": "_nftAddress",
          "type": "address"
        },
        {
          "internalType": "uint256",
          "name": "_nftId",
          "type": "uint256"
        }
      ],
      "name": "createNftReward",
      "outputs": [],
      "stateMutability": "nonpayable",
      "type": "function"
    },
    {
      "inputs": [
        {
          "internalType": "uint256",
          "name": "_fundId",
          "type": "uint256"
        },
        {
          "internalType": "uint256",
          "name": "_totalNumber",
          "type": "uint256"
        },
        {
          "internalType": "uint256",
          "name": "_rewardAmount",
          "type": "uint256"
        },
        {
          "internalType": "address",
          "name": "_rewardAddress",
          "type": "address"
        }
      ],
      "name": "createTokenReward",
      "outputs": [],
      "stateMutability": "nonpayable",
      "type": "function"
    },
    {
      "inputs": [],
      "name": "dai",
      "outputs": [
        {
          "internalType": "contract IERC20",
          "name": "",
          "type": "address"
        }
      ],
      "stateMutability": "view",
      "type": "function"
    },
    {
      "inputs": [
        {
          "internalType": "uint256",
          "name": "_id",
          "type": "uint256"
        }
      ],
      "name": "distribute",
      "outputs": [],
      "stateMutability": "nonpayable",
      "type": "function"
    },
    {
      "inputs": [
        {
          "internalType": "uint256",
          "name": "",
          "type": "uint256"
        }
      ],
      "name": "donations",
      "outputs": [
        {
          "internalType": "uint256",
          "name": "id",
          "type": "uint256"
        },
        {
          "internalType": "uint256",
          "name": "fundId",
          "type": "uint256"
        },
        {
          "internalType": "address",
          "name": "backer",
          "type": "address"
        },
        {
          "internalType": "uint256",
          "name": "amount",
          "type": "uint256"
        },
        {
          "internalType": "uint256",
          "name": "state",
          "type": "uint256"
        },
        {
          "internalType": "uint256",
          "name": "currency",
          "type": "uint256"
        }
      ],
      "stateMutability": "view",
      "type": "function"
    },
    {
      "inputs": [],
      "name": "feeAddress",
      "outputs": [
        {
          "internalType": "address",
          "name": "",
          "type": "address"
        }
      ],
      "stateMutability": "view",
      "type": "function"
    },
    {
      "inputs": [
        {
          "internalType": "uint256",
          "name": "",
          "type": "uint256"
        }
      ],
      "name": "funds",
      "outputs": [
        {
          "internalType": "uint256",
          "name": "id",
          "type": "uint256"
        },
        {
          "internalType": "address",
          "name": "owner",
          "type": "address"
        },
        {
          "internalType": "uint256",
          "name": "balance",
          "type": "uint256"
        },
        {
          "internalType": "uint256",
          "name": "deadline",
          "type": "uint256"
        },
        {
          "internalType": "uint256",
          "name": "state",
          "type": "uint256"
        },
        {
          "internalType": "uint256",
          "name": "level1",
          "type": "uint256"
        },
        {
          "internalType": "uint256",
          "name": "usdcBalance",
          "type": "uint256"
        },
        {
          "internalType": "uint256",
          "name": "usdtBalance",
          "type": "uint256"
        },
        {
          "internalType": "uint256",
          "name": "daiBalance",
          "type": "uint256"
        }
      ],
      "stateMutability": "view",
      "type": "function"
    },
    {
      "inputs": [
        {
          "internalType": "uint256",
          "name": "_index",
          "type": "uint256"
        }
      ],
      "name": "getBackers",
      "outputs": [
        {
          "internalType": "uint256",
          "name": "",
          "type": "uint256"
        }
      ],
      "stateMutability": "view",
      "type": "function"
    },
    {
      "inputs": [
        {
          "internalType": "uint256",
          "name": "_index",
          "type": "uint256"
        }
      ],
      "name": "getConnectedMicroFunds",
      "outputs": [
        {
          "internalType": "uint256",
          "name": "",
          "type": "uint256"
        }
      ],
      "stateMutability": "view",
      "type": "function"
    },
    {
      "inputs": [
        {
          "internalType": "uint256",
          "name": "",
          "type": "uint256"
        }
      ],
      "name": "microFunds",
      "outputs": [
        {
          "internalType": "uint256",
          "name": "microId",
          "type": "uint256"
        },
        {
          "internalType": "address",
          "name": "owner",
          "type": "address"
        },
        {
          "internalType": "uint256",
          "name": "cap",
          "type": "uint256"
        },
        {
          "internalType": "uint256",
          "name": "microBalance",
          "type": "uint256"
        },
        {
          "internalType": "uint256",
          "name": "fundId",
          "type": "uint256"
        },
        {
          "internalType": "uint256",
          "name": "state",
          "type": "uint256"
        },
        {
          "internalType": "uint256",
          "name": "currency",
          "type": "uint256"
        }
      ],
      "stateMutability": "view",
      "type": "function"
    },
    {
      "inputs": [],
      "name": "minAmount",
      "outputs": [
        {
          "internalType": "uint256",
          "name": "",
          "type": "uint256"
        }
      ],
      "stateMutability": "view",
      "type": "function"
    },
    {
      "inputs": [],
      "name": "owner",
      "outputs": [
        {
          "internalType": "address",
          "name": "",
          "type": "address"
        }
      ],
      "stateMutability": "view",
      "type": "function"
    },
    {
      "inputs": [],
      "name": "platformFee",
      "outputs": [
        {
          "internalType": "uint256",
          "name": "",
          "type": "uint256"
        }
      ],
      "stateMutability": "view",
      "type": "function"
    },
    {
      "inputs": [],
      "name": "renounceOwnership",
      "outputs": [],
      "stateMutability": "nonpayable",
      "type": "function"
    },
    {
      "inputs": [
        {
          "internalType": "uint256",
          "name": "",
          "type": "uint256"
        }
      ],
      "name": "rewardList",
      "outputs": [
        {
          "internalType": "uint256",
          "name": "rewardId",
          "type": "uint256"
        },
        {
          "internalType": "address",
          "name": "receiver",
          "type": "address"
        },
        {
          "internalType": "uint256",
          "name": "state",
          "type": "uint256"
        }
      ],
      "stateMutability": "view",
      "type": "function"
    },
    {
      "inputs": [
        {
          "internalType": "uint256",
          "name": "",
          "type": "uint256"
        }
      ],
      "name": "rewards",
      "outputs": [
        {
          "internalType": "uint256",
          "name": "rewardId",
          "type": "uint256"
        },
        {
          "internalType": "uint256",
          "name": "fundId",
          "type": "uint256"
        },
        {
          "internalType": "uint256",
          "name": "totalNumber",
          "type": "uint256"
        },
        {
          "internalType": "uint256",
          "name": "actualNumber",
          "type": "uint256"
        },
        {
          "internalType": "address",
          "name": "owner",
          "type": "address"
        },
        {
          "internalType": "address",
          "name": "contractAddress",
          "type": "address"
        },
        {
          "internalType": "uint256",
          "name": "erc20amount",
          "type": "uint256"
        },
        {
          "internalType": "uint256",
          "name": "nftId",
          "type": "uint256"
        },
        {
          "internalType": "uint256",
          "name": "state",
          "type": "uint256"
        }
      ],
      "stateMutability": "view",
      "type": "function"
    },
    {
      "inputs": [
        {
          "internalType": "uint256",
          "name": "_min",
          "type": "uint256"
        }
      ],
      "name": "setMinimum",
      "outputs": [],
      "stateMutability": "nonpayable",
      "type": "function"
    },
    {
      "inputs": [
        {
          "internalType": "address",
          "name": "newOwner",
          "type": "address"
        }
      ],
      "name": "transferOwnership",
      "outputs": [],
      "stateMutability": "nonpayable",
      "type": "function"
    },
    {
      "inputs": [],
      "name": "usdc",
      "outputs": [
        {
          "internalType": "contract IERC20",
          "name": "",
          "type": "address"
        }
      ],
      "stateMutability": "view",
      "type": "function"
    },
    {
      "inputs": [],
      "name": "usdt",
      "outputs": [
        {
          "internalType": "contract IERC20",
          "name": "",
          "type": "address"
        }
      ],
      "stateMutability": "view",
      "type": "function"
    }
  ],
  "bytecode": "0x608060405273c21223249ca28397b4b6541dffaecc539bff0c59600560006101000a81548173ffffffffffffffffffffffffffffffffffffffff021916908373ffffffffffffffffffffffffffffffffffffffff160217905550600160065560016007553480156200007057600080fd5b506040516200592c3803806200592c8339818101604052810190620000969190620002bf565b620000b6620000aa6200018960201b60201c565b6200019160201b60201c565b6001808190555082600260006101000a81548173ffffffffffffffffffffffffffffffffffffffff021916908373ffffffffffffffffffffffffffffffffffffffff16021790555081600360006101000a81548173ffffffffffffffffffffffffffffffffffffffff021916908373ffffffffffffffffffffffffffffffffffffffff16021790555080600460006101000a81548173ffffffffffffffffffffffffffffffffffffffff021916908373ffffffffffffffffffffffffffffffffffffffff1602179055505050506200031b565b600033905090565b60008060009054906101000a900473ffffffffffffffffffffffffffffffffffffffff169050816000806101000a81548173ffffffffffffffffffffffffffffffffffffffff021916908373ffffffffffffffffffffffffffffffffffffffff1602179055508173ffffffffffffffffffffffffffffffffffffffff168173ffffffffffffffffffffffffffffffffffffffff167f8be0079c531659141344cd1fd0a4f28419497f9722a3daafe3b4186f6b6457e060405160405180910390a35050565b600080fd5b600073ffffffffffffffffffffffffffffffffffffffff82169050919050565b600062000287826200025a565b9050919050565b62000299816200027a565b8114620002a557600080fd5b50565b600081519050620002b9816200028e565b92915050565b600080600060608486031215620002db57620002da62000255565b5b6000620002eb86828701620002a8565b9350506020620002fe86828701620002a8565b92505060406200031186828701620002a8565b9150509250925092565b615601806200032b6000396000f3fe608060405234801561001057600080fd5b50600436106101a95760003560e01c80638da5cb5b116100f9578063c9168b7211610097578063f2fde38b11610071578063f2fde38b146104c8578063f301af42146104e4578063f4b9fa751461051c578063f8626af81461053a576101a9565b8063c9168b7214610460578063e1485dad14610490578063e4810524146104ac576101a9565b8063a4f10f0e116100d3578063a4f10f0e146103b4578063aed9523c146103e4578063b318c83714610400578063be7aec5314610430576101a9565b80638da5cb5b1461035c57806391c05b0b1461037a5780639b2cb5d814610396576101a9565b8063370e41b61161016657806342fa07131161014057806342fa0713146102e25780636a1db1bf146102fe578063715018a61461031a5780637b8e889514610324576101a9565b8063370e41b61461028a5780633e413bee146102a657806341275358146102c4576101a9565b806310d66677146101ae57806316055fa8146101e057806326232a2e146102165780632f48ab7d14610234578063320369ce146102525780633209e9e61461026e575b600080fd5b6101c860048036038101906101c391906145b4565b61056f565b6040516101d793929190614631565b60405180910390f35b6101fa60048036038101906101f591906145b4565b6105c9565b60405161020d9796959493929190614668565b60405180910390f35b61021e61063b565b60405161022b91906146d7565b60405180910390f35b61023c610641565b6040516102499190614751565b60405180910390f35b61026c60048036038101906102679190614798565b610667565b005b610288600480360381019061028391906145b4565b6109de565b005b6102a4600480360381019061029f9190614837565b6109f0565b005b6102ae6112c7565b6040516102bb9190614751565b60405180910390f35b6102cc6112ed565b6040516102d991906148b2565b60405180910390f35b6102fc60048036038101906102f791906145b4565b611313565b005b610318600480360381019061031391906145b4565b611587565b005b610322611599565b005b61033e600480360381019061033991906145b4565b6115ad565b604051610353999897969594939291906148cd565b60405180910390f35b61036461162b565b60405161037191906148b2565b60405180910390f35b610394600480360381019061038f91906145b4565b611654565b005b61039e6121fa565b6040516103ab91906146d7565b60405180910390f35b6103ce60048036038101906103c991906145b4565b612200565b6040516103db91906146d7565b60405180910390f35b6103fe60048036038101906103f99190614998565b612270565b005b61041a600480360381019061041591906149c5565b6124a7565b60405161042791906146d7565b60405180910390f35b61044a600480360381019061044591906149c5565b6125b8565b60405161045791906146d7565b60405180910390f35b61047a600480360381019061047591906145b4565b6126bb565b60405161048791906146d7565b60405180910390f35b6104aa60048036038101906104a59190614a05565b61272b565b005b6104c660048036038101906104c191906145b4565b612a50565b005b6104e260048036038101906104dd9190614a6c565b612e7f565b005b6104fe60048036038101906104f991906145b4565b612f03565b60405161051399989796959493929190614a99565b60405180910390f35b610524612fa1565b6040516105319190614751565b60405180910390f35b610554600480360381019061054f91906145b4565b612fc7565b60405161056696959493929190614b26565b60405180910390f35b600c818154811061057f57600080fd5b90600052602060002090600302016000915090508060000154908060010160009054906101000a900473ffffffffffffffffffffffffffffffffffffffff16908060020154905083565b600981815481106105d957600080fd5b90600052602060002090600702016000915090508060000154908060010160009054906101000a900473ffffffffffffffffffffffffffffffffffffffff16908060020154908060030154908060040154908060050154908060060154905087565b60075481565b600360009054906101000a900473ffffffffffffffffffffffffffffffffffffffff1681565b600073ffffffffffffffffffffffffffffffffffffffff163373ffffffffffffffffffffffffffffffffffffffff1614156106d7576040517f08c379a00000000000000000000000000000000000000000000000000000000081526004016106ce90614be4565b60405180910390fd5b6000831161071a576040517f08c379a000000000000000000000000000000000000000000000000000000000815260040161071190614c50565b60405180910390fd5b600082905060008173ffffffffffffffffffffffffffffffffffffffff1662fdd58e33856040518363ffffffff1660e01b815260040161075b929190614c70565b60206040518083038186803b15801561077357600080fd5b505afa158015610787573d6000803e3d6000fd5b505050506040513d601f19601f820116820180604052508101906107ab9190614cae565b9050808511156107f0576040517f08c379a00000000000000000000000000000000000000000000000000000000081526004016107e790614d27565b60405180910390fd5b8173ffffffffffffffffffffffffffffffffffffffff1663f242432a333086896040518563ffffffff1660e01b815260040161082f9493929190614d7e565b600060405180830381600087803b15801561084957600080fd5b505af115801561085d573d6000803e3d6000fd5b50505050600b604051806101200160405280600b8054905081526020018881526020018781526020018781526020013373ffffffffffffffffffffffffffffffffffffffff1681526020018673ffffffffffffffffffffffffffffffffffffffff16815260200160008152602001858152602001600181525090806001815401808255809150506001900390600052602060002090600902016000909190919091506000820151816000015560208201518160010155604082015181600201556060820151816003015560808201518160040160006101000a81548173ffffffffffffffffffffffffffffffffffffffff021916908373ffffffffffffffffffffffffffffffffffffffff16021790555060a08201518160050160006101000a81548173ffffffffffffffffffffffffffffffffffffffff021916908373ffffffffffffffffffffffffffffffffffffffff16021790555060c0820151816006015560e0820151816007015561010082015181600801555050505050505050565b6109e6613033565b8060068190555050565b8260088181548110610a0557610a04614dd6565b5b9060005260206000209060090201600301544210610a58576040517f08c379a0000000000000000000000000000000000000000000000000000000008152600401610a4f90614e77565b60405180910390fd5b600160088581548110610a6e57610a6d614dd6565b5b90600052602060002090600902016004015414610ac0576040517f08c379a0000000000000000000000000000000000000000000000000000000008152600401610ab790614ee3565b60405180910390fd5b600073ffffffffffffffffffffffffffffffffffffffff163373ffffffffffffffffffffffffffffffffffffffff161415610b30576040517f08c379a0000000000000000000000000000000000000000000000000000000008152600401610b2790614be4565b60405180910390fd5b6000861015610b74576040517f08c379a0000000000000000000000000000000000000000000000000000000008152600401610b6b90614c50565b60405180910390fd5b6000851015610bb8576040517f08c379a0000000000000000000000000000000000000000000000000000000008152600401610baf90614c50565b60405180910390fd5b6001831415610cca57600260009054906101000a900473ffffffffffffffffffffffffffffffffffffffff1673ffffffffffffffffffffffffffffffffffffffff166323b872dd33308989610c0d9190614f32565b6040518463ffffffff1660e01b8152600401610c2b93929190614f88565b602060405180830381600087803b158015610c4557600080fd5b505af1158015610c59573d6000803e3d6000fd5b505050506040513d601f19601f82011682018060405250810190610c7d9190614fd4565b508585610c8a9190614f32565b60088581548110610c9e57610c9d614dd6565b5b90600052602060002090600902016006016000828254610cbe9190614f32565b92505081905550610f2b565b6002831415610ddc57600360009054906101000a900473ffffffffffffffffffffffffffffffffffffffff1673ffffffffffffffffffffffffffffffffffffffff166323b872dd33308989610d1f9190614f32565b6040518463ffffffff1660e01b8152600401610d3d93929190614f88565b602060405180830381600087803b158015610d5757600080fd5b505af1158015610d6b573d6000803e3d6000fd5b505050506040513d601f19601f82011682018060405250810190610d8f9190614fd4565b508585610d9c9190614f32565b60088581548110610db057610daf614dd6565b5b90600052602060002090600902016007016000828254610dd09190614f32565b92505081905550610f2a565b6003831415610eee57600460009054906101000a900473ffffffffffffffffffffffffffffffffffffffff1673ffffffffffffffffffffffffffffffffffffffff166323b872dd33308989610e319190614f32565b6040518463ffffffff1660e01b8152600401610e4f93929190614f88565b602060405180830381600087803b158015610e6957600080fd5b505af1158015610e7d573d6000803e3d6000fd5b505050506040513d601f19601f82011682018060405250810190610ea19190614fd4565b508585610eae9190614f32565b60088581548110610ec257610ec1614dd6565b5b90600052602060002090600902016008016000828254610ee29190614f32565b92505081905550610f29565b6040517f08c379a0000000000000000000000000000000000000000000000000000000008152600401610f209061504d565b60405180910390fd5b5b5b8585610f379190614f32565b60088581548110610f4b57610f4a614dd6565b5b90600052602060002090600902016002016000828254610f6b9190614f32565b9250508190555060008511156110b257600a6040518060c00160405280600a8054905081526020018681526020013373ffffffffffffffffffffffffffffffffffffffff16815260200187815260200160008152602001858152509080600181540180825580915050600190039060005260206000209060060201600090919091909150600082015181600001556020820151816001015560408201518160020160006101000a81548173ffffffffffffffffffffffffffffffffffffffff021916908373ffffffffffffffffffffffffffffffffffffffff160217905550606082015181600301556080820151816004015560a0820151816005015550507f8d09c6745838fd32e92a7aec9e4c21f8fcc0ddf4300881dcffdbf060ba8bcff23386868660405161109f949392919061506d565b60405180910390a16110b184866130b1565b5b60008611156111f95760096040518060e0016040528060098054905081526020013373ffffffffffffffffffffffffffffffffffffffff16815260200188815260200160008152602001868152602001600181526020018581525090806001815401808255809150506001900390600052602060002090600702016000909190919091506000820151816000015560208201518160010160006101000a81548173ffffffffffffffffffffffffffffffffffffffff021916908373ffffffffffffffffffffffffffffffffffffffff16021790555060408201518160020155606082015181600301556080820151816004015560a0820151816005015560c0820151816006015550507f982b08aefe79525577026fc60aa3d85b642f6336a5078e50f2836434719770a5338786866040516111f0949392919061506d565b60405180910390a15b81156112bf57600c6040518060600160405280600c8054905081526020013373ffffffffffffffffffffffffffffffffffffffff168152602001600181525090806001815401808255809150506001900390600052602060002090600302016000909190919091506000820151816000015560208201518160010160006101000a81548173ffffffffffffffffffffffffffffffffffffffff021916908373ffffffffffffffffffffffffffffffffffffffff1602179055506040820151816002015550505b505050505050565b600260009054906101000a900473ffffffffffffffffffffffffffffffffffffffff1681565b600560009054906101000a900473ffffffffffffffffffffffffffffffffffffffff1681565b600062278d00426113249190614f32565b9050600073ffffffffffffffffffffffffffffffffffffffff163373ffffffffffffffffffffffffffffffffffffffff161415611396576040517f08c379a000000000000000000000000000000000000000000000000000000000815260040161138d90614be4565b60405180910390fd5b600082116113d9576040517f08c379a00000000000000000000000000000000000000000000000000000000081526004016113d090614c50565b60405180910390fd5b60065482101561141e576040517f08c379a000000000000000000000000000000000000000000000000000000000815260040161141590615124565b60405180910390fd5b600860405180610120016040528060088054905081526020013373ffffffffffffffffffffffffffffffffffffffff16815260200160008152602001838152602001600181526020018481526020016000815260200160008152602001600081525090806001815401808255809150506001900390600052602060002090600902016000909190919091506000820151816000015560208201518160010160006101000a81548173ffffffffffffffffffffffffffffffffffffffff021916908373ffffffffffffffffffffffffffffffffffffffff16021790555060408201518160020155606082015181600301556080820151816004015560a0820151816005015560c0820151816006015560e08201518160070155610100820151816008015550507ff18ce1b70b1a4044491b54196c83d95e67aae09483ce0d2e1c2a8189faca7644338360088054905060405161157b93929190615144565b60405180910390a15050565b61158f613033565b8060078190555050565b6115a1613033565b6115ab6000613524565b565b600881815481106115bd57600080fd5b90600052602060002090600902016000915090508060000154908060010160009054906101000a900473ffffffffffffffffffffffffffffffffffffffff16908060020154908060030154908060040154908060050154908060060154908060070154908060080154905089565b60008060009054906101000a900473ffffffffffffffffffffffffffffffffffffffff16905090565b6002600154141561169a576040517f08c379a0000000000000000000000000000000000000000000000000000000008152600401611691906151c7565b60405180910390fd5b60026001819055506001600882815481106116b8576116b7614dd6565b5b9060005260206000209060090201600401541461170a576040517f08c379a000000000000000000000000000000000000000000000000000000000815260040161170190614ee3565b60405180910390fd5b6000600882815481106117205761171f614dd6565b5b90600052602060002090600902016006015411156117bc5761178c81600883815481106117505761174f614dd6565b5b9060005260206000209060090201600601546001600260009054906101000a900473ffffffffffffffffffffffffffffffffffffffff166135e8565b6000600882815481106117a2576117a1614dd6565b5b90600052602060002090600902016006018190555061191e565b6000600882815481106117d2576117d1614dd6565b5b906000526020600020906009020160070154111561186e5761183e816008838154811061180257611801614dd6565b5b9060005260206000209060090201600701546002600360009054906101000a900473ffffffffffffffffffffffffffffffffffffffff166135e8565b60006008828154811061185457611853614dd6565b5b90600052602060002090600902016007018190555061191d565b60006008828154811061188457611883614dd6565b5b906000526020600020906009020160080154111561191c576118f081600883815481106118b4576118b3614dd6565b5b9060005260206000209060090201600801546003600460009054906101000a900473ffffffffffffffffffffffffffffffffffffffff166135e8565b60006008828154811061190657611905614dd6565b5b9060005260206000209060090201600801819055505b5b5b60005b600b80549050811015611d065781600b828154811061194357611942614dd6565b5b90600052602060002090600902016001015414801561198757506001600b828154811061197357611972614dd6565b5b906000526020600020906009020160080154145b15611cf35760005b600c80549050811015611cc657600b82815481106119b0576119af614dd6565b5b906000526020600020906009020160000154600c82815481106119d6576119d5614dd6565b5b9060005260206000209060030201600001541415611cb3576000600b8381548110611a0457611a03614dd6565b5b906000526020600020906009020160050160009054906101000a900473ffffffffffffffffffffffffffffffffffffffff1690508073ffffffffffffffffffffffffffffffffffffffff1663a22cb465600c8581548110611a6857611a67614dd6565b5b906000526020600020906003020160010160009054906101000a900473ffffffffffffffffffffffffffffffffffffffff1660016040518363ffffffff1660e01b8152600401611ab99291906151f6565b600060405180830381600087803b158015611ad357600080fd5b505af1158015611ae7573d6000803e3d6000fd5b505050508073ffffffffffffffffffffffffffffffffffffffff1663f242432a30600c8581548110611b1c57611b1b614dd6565b5b906000526020600020906003020160010160009054906101000a900473ffffffffffffffffffffffffffffffffffffffff16600b8781548110611b6257611b61614dd6565b5b90600052602060002090600902016007015460016040518563ffffffff1660e01b8152600401611b95949392919061525a565b600060405180830381600087803b158015611baf57600080fd5b505af1158015611bc3573d6000803e3d6000fd5b505050507f02831dc758bff33d50760d448f62f2df8aa0138e4a9df9090ea89752eed49a0b600c8381548110611bfc57611bfb614dd6565b5b906000526020600020906003020160010160009054906101000a900473ffffffffffffffffffffffffffffffffffffffff16600b8581548110611c4257611c41614dd6565b5b906000526020600020906009020160050160009054906101000a900473ffffffffffffffffffffffffffffffffffffffff16600b8681548110611c8857611c87614dd6565b5b906000526020600020906009020160010154604051611ca993929190614f88565b60405180910390a1505b8080611cbe906152b2565b91505061198f565b506003600b8281548110611cdd57611cdc614dd6565b5b9060005260206000209060090201600801819055505b8080611cfe906152b2565b915050611921565b5060005b600b805490508110156121325781600b8281548110611d2c57611d2b614dd6565b5b906000526020600020906009020160010154148015611d7057506001600b8281548110611d5c57611d5b614dd6565b5b906000526020600020906009020160080154145b1561211f5760005b600c805490508110156120f257600b8281548110611d9957611d98614dd6565b5b906000526020600020906009020160000154600c8281548110611dbf57611dbe614dd6565b5b90600052602060002090600302016000015414156120df576000600b8381548110611ded57611dec614dd6565b5b906000526020600020906009020160050160009054906101000a900473ffffffffffffffffffffffffffffffffffffffff1690508073ffffffffffffffffffffffffffffffffffffffff1663095ea7b3600c8581548110611e5157611e50614dd6565b5b906000526020600020906003020160010160009054906101000a900473ffffffffffffffffffffffffffffffffffffffff16600b8681548110611e9757611e96614dd6565b5b9060005260206000209060090201600601546040518363ffffffff1660e01b8152600401611ec6929190614c70565b602060405180830381600087803b158015611ee057600080fd5b505af1158015611ef4573d6000803e3d6000fd5b505050506040513d601f19601f82011682018060405250810190611f189190614fd4565b508073ffffffffffffffffffffffffffffffffffffffff166323b872dd30600c8581548110611f4a57611f49614dd6565b5b906000526020600020906003020160010160009054906101000a900473ffffffffffffffffffffffffffffffffffffffff16600b8781548110611f9057611f8f614dd6565b5b9060005260206000209060090201600601546040518463ffffffff1660e01b8152600401611fc093929190614f88565b602060405180830381600087803b158015611fda57600080fd5b505af1158015611fee573d6000803e3d6000fd5b505050506040513d601f19601f820116820180604052508101906120129190614fd4565b507f3adf3da2135947812c45eca117d988b3303c3d941f155f0afb27d7b0230fab32600c838154811061204857612047614dd6565b5b906000526020600020906003020160010160009054906101000a900473ffffffffffffffffffffffffffffffffffffffff16600b858154811061208e5761208d614dd6565b5b906000526020600020906009020160060154600b86815481106120b4576120b3614dd6565b5b9060005260206000209060090201600101546040516120d593929190615144565b60405180910390a1505b80806120ea906152b2565b915050611d78565b506003600b828154811061210957612108614dd6565b5b9060005260206000209060090201600801819055505b808061212a906152b2565b915050611d0a565b5060006008828154811061214957612148614dd6565b5b90600052602060002090600902016002015411156121c55760006008828154811061217757612176614dd6565b5b9060005260206000209060090201600201819055507fadd9d74ee9c338ee8881c6d3644817247d1550a0488e3edb096f7fc0c445185360016040516121bc91906152fb565b60405180910390a15b6002600882815481106121db576121da614dd6565b5b9060005260206000209060090201600401819055506001808190555050565b60065481565b6000806000905060005b60098054905081101561226657836009828154811061222c5761222b614dd6565b5b906000526020600020906007020160040154141561225357818061224f906152b2565b9250505b808061225e906152b2565b91505061220a565b5080915050919050565b612278613033565b600260015414156122be576040517f08c379a00000000000000000000000000000000000000000000000000000000081526004016122b5906151c7565b60405180910390fd5b600260018190555060005b60088054905081101561249c57600881815481106122ea576122e9614dd6565b5b90600052602060002090600902016003015442101561230857612489565b60016008828154811061231e5761231d614dd6565b5b90600052602060002090600902016004015414801561238757506008818154811061234c5761234b614dd6565b5b9060005260206000209060090201600501546008828154811061237257612371614dd6565b5b90600052602060002090600902016002015410155b80156123b75750600881815481106123a2576123a1614dd6565b5b90600052602060002090600902016003015442115b156123ca576123c581611654565b612488565b6001600882815481106123e0576123df614dd6565b5b90600052602060002090600902016004015414801561244857506008818154811061240e5761240d614dd6565b5b9060005260206000209060090201600501546008828154811061243457612433614dd6565b5b906000526020600020906009020160020154105b801561247857506008818154811061246357612462614dd6565b5b90600052602060002090600902016003015442115b156124875761248681612a50565b5b5b5b8080612494906152b2565b9150506122c9565b506001808190555050565b6000806000905082816124ba9190614f32565b905060005b6009805490508110156125ad5784600982815481106124e1576124e0614dd6565b5b906000526020600020906007020160040154148015612525575060016009828154811061251157612510614dd6565b5b906000526020600020906007020160050154145b80156125865750836009828154811061254157612540614dd6565b5b9060005260206000209060070201600301546009838154811061256757612566614dd6565b5b9060005260206000209060070201600201546125839190615316565b10155b1561259a5783826125979190614f32565b91505b80806125a5906152b2565b9150506124bf565b508091505092915050565b6000806000905060005b6009805490508110156126b05784600982815481106125e4576125e3614dd6565b5b906000526020600020906007020160040154148015612628575060016009828154811061261457612613614dd6565b5b906000526020600020906007020160050154145b80156126895750836009828154811061264457612643614dd6565b5b9060005260206000209060070201600301546009838154811061266a57612669614dd6565b5b9060005260206000209060070201600201546126869190615316565b10155b1561269d578180612699906152b2565b9250505b80806126a8906152b2565b9150506125c2565b508091505092915050565b6000806000905060005b600a805490508110156127215783600a82815481106126e7576126e6614dd6565b5b906000526020600020906006020160010154141561270e57818061270a906152b2565b9250505b8080612719906152b2565b9150506126c5565b5080915050919050565b6000821161276e576040517f08c379a0000000000000000000000000000000000000000000000000000000008152600401612765906153bc565b60405180910390fd5b600081905060008173ffffffffffffffffffffffffffffffffffffffff166370a08231336040518263ffffffff1660e01b81526004016127ae91906148b2565b60206040518083038186803b1580156127c657600080fd5b505afa1580156127da573d6000803e3d6000fd5b505050506040513d601f19601f820116820180604052508101906127fe9190614cae565b905080841115612843576040517f08c379a000000000000000000000000000000000000000000000000000000000815260040161283a90614d27565b60405180910390fd5b8173ffffffffffffffffffffffffffffffffffffffff166323b872dd3330876040518463ffffffff1660e01b815260040161288093929190614f88565b602060405180830381600087803b15801561289a57600080fd5b505af11580156128ae573d6000803e3d6000fd5b505050506040513d601f19601f820116820180604052508101906128d29190614fd4565b50600b604051806101200160405280600b8054905081526020018881526020018781526020018781526020013373ffffffffffffffffffffffffffffffffffffffff1681526020018573ffffffffffffffffffffffffffffffffffffffff16815260200186815260200160008152602001600281525090806001815401808255809150506001900390600052602060002090600902016000909190919091506000820151816000015560208201518160010155604082015181600201556060820151816003015560808201518160040160006101000a81548173ffffffffffffffffffffffffffffffffffffffff021916908373ffffffffffffffffffffffffffffffffffffffff16021790555060a08201518160050160006101000a81548173ffffffffffffffffffffffffffffffffffffffff021916908373ffffffffffffffffffffffffffffffffffffffff16021790555060c0820151816006015560e0820151816007015561010082015181600801555050505050505050565b60026001541415612a96576040517f08c379a0000000000000000000000000000000000000000000000000000000008152600401612a8d906151c7565b60405180910390fd5b6002600181905550600160088281548110612ab457612ab3614dd6565b5b90600052602060002090600902016004015414612b06576040517f08c379a0000000000000000000000000000000000000000000000000000000008152600401612afd90614ee3565b60405180910390fd5b600060088281548110612b1c57612b1b614dd6565b5b9060005260206000209060090201600601541115612bb457612b888160088381548110612b4c57612b4b614dd6565b5b9060005260206000209060090201600601546001600260009054906101000a900473ffffffffffffffffffffffffffffffffffffffff16613d4b565b600060088281548110612b9e57612b9d614dd6565b5b9060005260206000209060090201600601819055505b600060088281548110612bca57612bc9614dd6565b5b9060005260206000209060090201600701541115612c6257612c368160088381548110612bfa57612bf9614dd6565b5b9060005260206000209060090201600701546002600360009054906101000a900473ffffffffffffffffffffffffffffffffffffffff16613d4b565b600060088281548110612c4c57612c4b614dd6565b5b9060005260206000209060090201600701819055505b600060088281548110612c7857612c77614dd6565b5b9060005260206000209060090201600801541115612d1057612ce48160088381548110612ca857612ca7614dd6565b5b9060005260206000209060090201600801546003600460009054906101000a900473ffffffffffffffffffffffffffffffffffffffff16613d4b565b600060088281548110612cfa57612cf9614dd6565b5b9060005260206000209060090201600801819055505b600060088281548110612d2657612d25614dd6565b5b9060005260206000209060090201600201541415612e1157600060088281548110612d5457612d53614dd6565b5b9060005260206000209060090201600401819055507f36ea5cd5608625e789af0282eecdb4eae1cb7c1cf6d0ec3f9a84f35be850260b60088281548110612d9e57612d9d614dd6565b5b906000526020600020906009020160010160009054906101000a900473ffffffffffffffffffffffffffffffffffffffff1660088381548110612de457612de3614dd6565b5b906000526020600020906009020160000154604051612e04929190614c70565b60405180910390a1612e75565b600060088281548110612e2757612e26614dd6565b5b9060005260206000209060090201600201819055507fadd9d74ee9c338ee8881c6d3644817247d1550a0488e3edb096f7fc0c44518536001604051612e6c91906152fb565b60405180910390a15b6001808190555050565b612e87613033565b600073ffffffffffffffffffffffffffffffffffffffff168173ffffffffffffffffffffffffffffffffffffffff161415612ef7576040517f08c379a0000000000000000000000000000000000000000000000000000000008152600401612eee9061544e565b60405180910390fd5b612f0081613524565b50565b600b8181548110612f1357600080fd5b90600052602060002090600902016000915090508060000154908060010154908060020154908060030154908060040160009054906101000a900473ffffffffffffffffffffffffffffffffffffffff16908060050160009054906101000a900473ffffffffffffffffffffffffffffffffffffffff16908060060154908060070154908060080154905089565b600460009054906101000a900473ffffffffffffffffffffffffffffffffffffffff1681565b600a8181548110612fd757600080fd5b90600052602060002090600602016000915090508060000154908060010154908060020160009054906101000a900473ffffffffffffffffffffffffffffffffffffffff16908060030154908060040154908060050154905086565b61303b614571565b73ffffffffffffffffffffffffffffffffffffffff1661305961162b565b73ffffffffffffffffffffffffffffffffffffffff16146130af576040517f08c379a00000000000000000000000000000000000000000000000000000000081526004016130a6906154ba565b60405180910390fd5b565b60005b60098054905081101561351f5781600982815481106130d6576130d5614dd6565b5b906000526020600020906007020160030154600983815481106130fc576130fb614dd6565b5b9060005260206000209060070201600201546131189190615316565b1015801561314a5750826009828154811061313657613135614dd6565b5b906000526020600020906007020160040154145b801561317b575060016009828154811061316757613166614dd6565b5b906000526020600020906007020160050154145b1561350c57816009828154811061319557613194614dd6565b5b906000526020600020906007020160030160008282546131b59190614f32565b9250508190555081600884815481106131d1576131d0614dd6565b5b906000526020600020906009020160020160008282546131f19190614f32565b9250508190555060016009828154811061320e5761320d614dd6565b5b906000526020600020906007020160060154141561326757816008848154811061323b5761323a614dd6565b5b9060005260206000209060090201600601600082825461325b9190614f32565b92505081905550613343565b60026009828154811061327d5761327c614dd6565b5b90600052602060002090600702016006015414156132d65781600884815481106132aa576132a9614dd6565b5b906000526020600020906009020160070160008282546132ca9190614f32565b92505081905550613342565b6003600982815481106132ec576132eb614dd6565b5b906000526020600020906007020160060154141561334157816008848154811061331957613318614dd6565b5b906000526020600020906009020160080160008282546133399190614f32565b925050819055505b5b5b6009818154811061335757613356614dd6565b5b9060005260206000209060070201600301546009828154811061337d5761337c614dd6565b5b906000526020600020906007020160020154141561348b576002600982815481106133ab576133aa614dd6565b5b9060005260206000209060070201600501819055507f344f3c440bc0a199d8ebf3e014b04b0be7f494a3e35bc4c4b162dbf9edb24521600982815481106133f5576133f4614dd6565b5b906000526020600020906007020160010160009054906101000a900473ffffffffffffffffffffffffffffffffffffffff166009838154811061343b5761343a614dd6565b5b9060005260206000209060070201600201546009848154811061346157613460614dd6565b5b90600052602060002090600702016004015460405161348293929190615144565b60405180910390a15b7ff8d3b803c2699d3e25440474a9089daa89195298415edaf5cb5ff73d4cad4d44600982815481106134c0576134bf614dd6565b5b906000526020600020906007020160010160009054906101000a900473ffffffffffffffffffffffffffffffffffffffff16838560405161350393929190615144565b60405180910390a15b8080613517906152b2565b9150506130b4565b505050565b60008060009054906101000a900473ffffffffffffffffffffffffffffffffffffffff169050816000806101000a81548173ffffffffffffffffffffffffffffffffffffffff021916908373ffffffffffffffffffffffffffffffffffffffff1602179055508173ffffffffffffffffffffffffffffffffffffffff168173ffffffffffffffffffffffffffffffffffffffff167f8be0079c531659141344cd1fd0a4f28419497f9722a3daafe3b4186f6b6457e060405160405180910390a35050565b8073ffffffffffffffffffffffffffffffffffffffff1663095ea7b330856040518363ffffffff1660e01b8152600401613623929190614c70565b602060405180830381600087803b15801561363d57600080fd5b505af1158015613651573d6000803e3d6000fd5b505050506040513d601f19601f820116820180604052508101906136759190614fd4565b506000606460018561368791906154da565b6136919190615563565b9050600081856136a19190615316565b90508273ffffffffffffffffffffffffffffffffffffffff166323b872dd30600560009054906101000a900473ffffffffffffffffffffffffffffffffffffffff16856040518463ffffffff1660e01b815260040161370293929190614f88565b602060405180830381600087803b15801561371c57600080fd5b505af1158015613730573d6000803e3d6000fd5b505050506040513d601f19601f820116820180604052508101906137549190614fd4565b507fa4c6a382f73ff9613852e022f107d783974efe6f56975cafa30fcf48256f09356008878154811061378a57613789614dd6565b5b906000526020600020906009020160010160009054906101000a900473ffffffffffffffffffffffffffffffffffffffff16836040516137cb929190614c70565b60405180910390a18273ffffffffffffffffffffffffffffffffffffffff166323b872dd306008898154811061380457613803614dd6565b5b906000526020600020906009020160010160009054906101000a900473ffffffffffffffffffffffffffffffffffffffff16846040518463ffffffff1660e01b815260040161385593929190614f88565b602060405180830381600087803b15801561386f57600080fd5b505af1158015613883573d6000803e3d6000fd5b505050506040513d601f19601f820116820180604052508101906138a79190614fd4565b507f3b5e2b80c7d0cf08e68f899d74d0769f512f6e79840f1ea3b78fe64213909996600887815481106138dd576138dc614dd6565b5b906000526020600020906009020160010160009054906101000a900473ffffffffffffffffffffffffffffffffffffffff16868660405161392093929190615144565b60405180910390a1846008878154811061393d5761393c614dd6565b5b9060005260206000209060090201600201600082825461395d9190615316565b9250508190555060005b600980549050811015613d4257866009828154811061398957613988614dd6565b5b9060005260206000209060070201600401541480156139cd57506001600982815481106139b9576139b8614dd6565b5b906000526020600020906007020160050154145b80156139fd575084600982815481106139e9576139e8614dd6565b5b906000526020600020906007020160060154145b15613d2f5760098181548110613a1657613a15614dd6565b5b90600052602060002090600702016003015460098281548110613a3c57613a3b614dd6565b5b9060005260206000209060070201600201541115613cd857600060098281548110613a6a57613a69614dd6565b5b90600052602060002090600702016003015460098381548110613a9057613a8f614dd6565b5b906000526020600020906007020160020154613aac9190615316565b90508473ffffffffffffffffffffffffffffffffffffffff1663095ea7b330836040518363ffffffff1660e01b8152600401613ae9929190614c70565b602060405180830381600087803b158015613b0357600080fd5b505af1158015613b17573d6000803e3d6000fd5b505050506040513d601f19601f82011682018060405250810190613b3b9190614fd4565b508473ffffffffffffffffffffffffffffffffffffffff166323b872dd3060098b81548110613b6d57613b6c614dd6565b5b906000526020600020906007020160010160009054906101000a900473ffffffffffffffffffffffffffffffffffffffff16846040518463ffffffff1660e01b8152600401613bbe93929190614f88565b602060405180830381600087803b158015613bd857600080fd5b505af1158015613bec573d6000803e3d6000fd5b505050506040513d601f19601f82011682018060405250810190613c109190614fd4565b507f98c105e3bc1ca4c7a99cdea9cd2e2c7a0fbf623404262d3dfd0a152545bd25ad60098381548110613c4657613c45614dd6565b5b906000526020600020906007020160010160009054906101000a900473ffffffffffffffffffffffffffffffffffffffff168260088b81548110613c8d57613c8c614dd6565b5b906000526020600020906009020160010160009054906101000a900473ffffffffffffffffffffffffffffffffffffffff16604051613cce93929190615594565b60405180910390a1505b600060098881548110613cee57613ced614dd6565b5b906000526020600020906007020160030181905550600260098281548110613d1957613d18614dd6565b5b9060005260206000209060070201600501819055505b8080613d3a906152b2565b915050613967565b50505050505050565b60005b6009805490508110156141a6578460098281548110613d7057613d6f614dd6565b5b906000526020600020906007020160040154148015613db45750600160098281548110613da057613d9f614dd6565b5b906000526020600020906007020160050154145b8015613de457508260098281548110613dd057613dcf614dd6565b5b906000526020600020906007020160060154145b156141935760098181548110613dfd57613dfc614dd6565b5b90600052602060002090600702016003015460098281548110613e2357613e22614dd6565b5b90600052602060002090600702016002015411156140d3578173ffffffffffffffffffffffffffffffffffffffff1663095ea7b33060098481548110613e6c57613e6b614dd6565b5b9060005260206000209060070201600201546040518363ffffffff1660e01b8152600401613e9b929190614c70565b602060405180830381600087803b158015613eb557600080fd5b505af1158015613ec9573d6000803e3d6000fd5b505050506040513d601f19601f82011682018060405250810190613eed9190614fd4565b508173ffffffffffffffffffffffffffffffffffffffff166323b872dd3060098481548110613f1f57613f1e614dd6565b5b906000526020600020906007020160010160009054906101000a900473ffffffffffffffffffffffffffffffffffffffff1660098581548110613f6557613f64614dd6565b5b9060005260206000209060070201600201546040518463ffffffff1660e01b8152600401613f9593929190614f88565b602060405180830381600087803b158015613faf57600080fd5b505af1158015613fc3573d6000803e3d6000fd5b505050506040513d601f19601f82011682018060405250810190613fe79190614fd4565b507f98c105e3bc1ca4c7a99cdea9cd2e2c7a0fbf623404262d3dfd0a152545bd25ad6009828154811061401d5761401c614dd6565b5b906000526020600020906007020160010160009054906101000a900473ffffffffffffffffffffffffffffffffffffffff166009838154811061406357614062614dd6565b5b9060005260206000209060070201600201546008848154811061408957614088614dd6565b5b906000526020600020906009020160010160009054906101000a900473ffffffffffffffffffffffffffffffffffffffff166040516140ca93929190615594565b60405180910390a15b600981815481106140e7576140e6614dd6565b5b9060005260206000209060070201600201546008868154811061410d5761410c614dd6565b5b9060005260206000209060090201600201600082825461412d9190615316565b9250508190555060046009828154811061414a57614149614dd6565b5b9060005260206000209060070201600501819055506009818154811061417357614172614dd6565b5b906000526020600020906007020160020154846141909190615316565b93505b808061419e906152b2565b915050613d4e565b5060005b600a8054905081101561456a5784600a82815481106141cc576141cb614dd6565b5b90600052602060002090600602016001015414801561421057506000600a82815481106141fc576141fb614dd6565b5b906000526020600020906006020160040154145b8015614240575082600a828154811061422c5761422b614dd6565b5b906000526020600020906006020160050154145b15614557578173ffffffffffffffffffffffffffffffffffffffff1663095ea7b330600a848154811061427657614275614dd6565b5b9060005260206000209060060201600301546040518363ffffffff1660e01b81526004016142a5929190614c70565b602060405180830381600087803b1580156142bf57600080fd5b505af11580156142d3573d6000803e3d6000fd5b505050506040513d601f19601f820116820180604052508101906142f79190614fd4565b508173ffffffffffffffffffffffffffffffffffffffff166323b872dd30600a848154811061432957614328614dd6565b5b906000526020600020906006020160020160009054906101000a900473ffffffffffffffffffffffffffffffffffffffff16600a858154811061436f5761436e614dd6565b5b9060005260206000209060060201600301546040518463ffffffff1660e01b815260040161439f93929190614f88565b602060405180830381600087803b1580156143b957600080fd5b505af11580156143cd573d6000803e3d6000fd5b505050506040513d601f19601f820116820180604052508101906143f19190614fd4565b50600a818154811061440657614405614dd6565b5b9060005260206000209060060201600301546008868154811061442c5761442b614dd6565b5b9060005260206000209060090201600201600082825461444c9190615316565b92505081905550600a818154811061446757614466614dd6565b5b906000526020600020906006020160030154846144849190615316565b93506004600a828154811061449c5761449b614dd6565b5b9060005260206000209060060201600401819055507f2dc8e290002f06fc0085bbca9dfb8b415cf4d1178950c72ff9ee8f4d8878ee66600a82815481106144e6576144e5614dd6565b5b906000526020600020906006020160020160009054906101000a900473ffffffffffffffffffffffffffffffffffffffff16600a838154811061452c5761452b614dd6565b5b9060005260206000209060060201600301548760405161454e93929190615144565b60405180910390a15b8080614562906152b2565b9150506141aa565b5050505050565b600033905090565b600080fd5b6000819050919050565b6145918161457e565b811461459c57600080fd5b50565b6000813590506145ae81614588565b92915050565b6000602082840312156145ca576145c9614579565b5b60006145d88482850161459f565b91505092915050565b6145ea8161457e565b82525050565b600073ffffffffffffffffffffffffffffffffffffffff82169050919050565b600061461b826145f0565b9050919050565b61462b81614610565b82525050565b600060608201905061464660008301866145e1565b6146536020830185614622565b61466060408301846145e1565b949350505050565b600060e08201905061467d600083018a6145e1565b61468a6020830189614622565b61469760408301886145e1565b6146a460608301876145e1565b6146b160808301866145e1565b6146be60a08301856145e1565b6146cb60c08301846145e1565b98975050505050505050565b60006020820190506146ec60008301846145e1565b92915050565b6000819050919050565b600061471761471261470d846145f0565b6146f2565b6145f0565b9050919050565b6000614729826146fc565b9050919050565b600061473b8261471e565b9050919050565b61474b81614730565b82525050565b60006020820190506147666000830184614742565b92915050565b61477581614610565b811461478057600080fd5b50565b6000813590506147928161476c565b92915050565b600080600080608085870312156147b2576147b1614579565b5b60006147c08782880161459f565b94505060206147d18782880161459f565b93505060406147e287828801614783565b92505060606147f38782880161459f565b91505092959194509250565b60008115159050919050565b614814816147ff565b811461481f57600080fd5b50565b6000813590506148318161480b565b92915050565b600080600080600060a0868803121561485357614852614579565b5b60006148618882890161459f565b95505060206148728882890161459f565b94505060406148838882890161459f565b93505060606148948882890161459f565b92505060806148a588828901614822565b9150509295509295909350565b60006020820190506148c76000830184614622565b92915050565b6000610120820190506148e3600083018c6145e1565b6148f0602083018b614622565b6148fd604083018a6145e1565b61490a60608301896145e1565b61491760808301886145e1565b61492460a08301876145e1565b61493160c08301866145e1565b61493e60e08301856145e1565b61494c6101008301846145e1565b9a9950505050505050505050565b600061496582614610565b9050919050565b6149758161495a565b811461498057600080fd5b50565b6000813590506149928161496c565b92915050565b6000602082840312156149ae576149ad614579565b5b60006149bc84828501614983565b91505092915050565b600080604083850312156149dc576149db614579565b5b60006149ea8582860161459f565b92505060206149fb8582860161459f565b9150509250929050565b60008060008060808587031215614a1f57614a1e614579565b5b6000614a2d8782880161459f565b9450506020614a3e8782880161459f565b9350506040614a4f8782880161459f565b9250506060614a6087828801614783565b91505092959194509250565b600060208284031215614a8257614a81614579565b5b6000614a9084828501614783565b91505092915050565b600061012082019050614aaf600083018c6145e1565b614abc602083018b6145e1565b614ac9604083018a6145e1565b614ad660608301896145e1565b614ae36080830188614622565b614af060a0830187614622565b614afd60c08301866145e1565b614b0a60e08301856145e1565b614b186101008301846145e1565b9a9950505050505050505050565b600060c082019050614b3b60008301896145e1565b614b4860208301886145e1565b614b556040830187614622565b614b6260608301866145e1565b614b6f60808301856145e1565b614b7c60a08301846145e1565b979650505050505050565b600082825260208201905092915050565b7f496e76616c696420616464726573730000000000000000000000000000000000600082015250565b6000614bce600f83614b87565b9150614bd982614b98565b602082019050919050565b60006020820190508181036000830152614bfd81614bc1565b9050919050565b7f496e76616c696420616d6f756e74000000000000000000000000000000000000600082015250565b6000614c3a600e83614b87565b9150614c4582614c04565b602082019050919050565b60006020820190508181036000830152614c6981614c2d565b9050919050565b6000604082019050614c856000830185614622565b614c9260208301846145e1565b9392505050565b600081519050614ca881614588565b92915050565b600060208284031215614cc457614cc3614579565b5b6000614cd284828501614c99565b91505092915050565b7f4e6f7420656e6f75676820746f6b656e20696e2077616c6c6574000000000000600082015250565b6000614d11601a83614b87565b9150614d1c82614cdb565b602082019050919050565b60006020820190508181036000830152614d4081614d04565b9050919050565b600082825260208201905092915050565b50565b6000614d68600083614d47565b9150614d7382614d58565b600082019050919050565b600060a082019050614d936000830187614622565b614da06020830186614622565b614dad60408301856145e1565b614dba60608301846145e1565b8181036080830152614dcb81614d5b565b905095945050505050565b7f4e487b7100000000000000000000000000000000000000000000000000000000600052603260045260246000fd5b7f446561646c696e6520666f722063726f776466756e64696e672068617320706160008201527f737365642e000000000000000000000000000000000000000000000000000000602082015250565b6000614e61602583614b87565b9150614e6c82614e05565b604082019050919050565b60006020820190508181036000830152614e9081614e54565b9050919050565b7f46756e64206973206e6f74206163746976650000000000000000000000000000600082015250565b6000614ecd601283614b87565b9150614ed882614e97565b602082019050919050565b60006020820190508181036000830152614efc81614ec0565b9050919050565b7f4e487b7100000000000000000000000000000000000000000000000000000000600052601160045260246000fd5b6000614f3d8261457e565b9150614f488361457e565b9250827fffffffffffffffffffffffffffffffffffffffffffffffffffffffffffffffff03821115614f7d57614f7c614f03565b5b828201905092915050565b6000606082019050614f9d6000830186614622565b614faa6020830185614622565b614fb760408301846145e1565b949350505050565b600081519050614fce8161480b565b92915050565b600060208284031215614fea57614fe9614579565b5b6000614ff884828501614fbf565b91505092915050565b7f496e76616c69642063757272656e637900000000000000000000000000000000600082015250565b6000615037601083614b87565b915061504282615001565b602082019050919050565b600060208201905081810360008301526150668161502a565b9050919050565b60006080820190506150826000830187614622565b61508f60208301866145e1565b61509c60408301856145e1565b6150a960608301846145e1565b95945050505050565b7f56616c7565206973206c6f776572207468616e206d696e696d756d20706f737360008201527f69626c6520616d6f756e74000000000000000000000000000000000000000000602082015250565b600061510e602b83614b87565b9150615119826150b2565b604082019050919050565b6000602082019050818103600083015261513d81615101565b9050919050565b60006060820190506151596000830186614622565b61516660208301856145e1565b61517360408301846145e1565b949350505050565b7f5265656e7472616e637947756172643a207265656e7472616e742063616c6c00600082015250565b60006151b1601f83614b87565b91506151bc8261517b565b602082019050919050565b600060208201905081810360008301526151e0816151a4565b9050919050565b6151f0816147ff565b82525050565b600060408201905061520b6000830185614622565b61521860208301846151e7565b9392505050565b6000819050919050565b600061524461523f61523a8461521f565b6146f2565b61457e565b9050919050565b61525481615229565b82525050565b600060a08201905061526f6000830187614622565b61527c6020830186614622565b61528960408301856145e1565b615296606083018461524b565b81810360808301526152a781614d5b565b905095945050505050565b60006152bd8261457e565b91507fffffffffffffffffffffffffffffffffffffffffffffffffffffffffffffffff8214156152f0576152ef614f03565b5b600182019050919050565b600060208201905061531060008301846151e7565b92915050565b60006153218261457e565b915061532c8361457e565b92508282101561533f5761533e614f03565b5b828203905092915050565b7f52657761726420616d6f756e742073686f756c6420626520686967686572207460008201527f68616e2030000000000000000000000000000000000000000000000000000000602082015250565b60006153a6602583614b87565b91506153b18261534a565b604082019050919050565b600060208201905081810360008301526153d581615399565b9050919050565b7f4f776e61626c653a206e6577206f776e657220697320746865207a65726f206160008201527f6464726573730000000000000000000000000000000000000000000000000000602082015250565b6000615438602683614b87565b9150615443826153dc565b604082019050919050565b600060208201905081810360008301526154678161542b565b9050919050565b7f4f776e61626c653a2063616c6c6572206973206e6f7420746865206f776e6572600082015250565b60006154a4602083614b87565b91506154af8261546e565b602082019050919050565b600060208201905081810360008301526154d381615497565b9050919050565b60006154e58261457e565b91506154f08361457e565b9250817fffffffffffffffffffffffffffffffffffffffffffffffffffffffffffffffff048311821515161561552957615528614f03565b5b828202905092915050565b7f4e487b7100000000000000000000000000000000000000000000000000000000600052601260045260246000fd5b600061556e8261457e565b91506155798361457e565b92508261558957615588615534565b5b828204905092915050565b60006060820190506155a96000830186614622565b6155b660208301856145e1565b6155c36040830184614622565b94935050505056fea2646970667358221220e76ef2ba736c4ab2ca52f5614306689492ca985441b9929fc6e610f60516297564736f6c63430008090033",
  "linkReferences": {},
  "deployedLinkReferences": {}
}