{
  "_format": "hh-sol-artifact-1",
  "contractName": "Faucet",
  "sourceName": "contracts/Faucet.sol",
  "abi": [
    {
      "inputs": [
        {
          "internalType": "address",
          "name": "_tokenInstance",
          "type": "address"
        }
      ],
      "stateMutability": "nonpayable",
      "type": "constructor"
    },
    {
      "anonymous": false,
      "inputs": [
        {
          "indexed": false,
          "internalType": "address",
          "name": "sender",
          "type": "address"
        }
      ],
      "name": "FaucetReceived",
      "type": "event"
    },
    {
      "inputs": [],
      "name": "requestTokens",
      "outputs": [],
      "stateMutability": "nonpayable",
      "type": "function"
    },
    {
      "inputs": [],
      "name": "tokenAmount",
      "outputs": [
        {
          "internalType": "uint256",
          "name": "",
          "type": "uint256"
        }
      ],
      "stateMutability": "view",
      "type": "function"
    },
    {
      "inputs": [],
      "name": "tokenInstance",
      "outputs": [
        {
          "internalType": "contract ERC20",
          "name": "",
          "type": "address"
        }
      ],
      "stateMutability": "view",
      "type": "function"
    }
  ],
  "bytecode": "0x608060405234801561001057600080fd5b50604051610489380380610489833981810160405281019061003291906100db565b806000806101000a81548173ffffffffffffffffffffffffffffffffffffffff021916908373ffffffffffffffffffffffffffffffffffffffff16021790555050610108565b600080fd5b600073ffffffffffffffffffffffffffffffffffffffff82169050919050565b60006100a88261007d565b9050919050565b6100b88161009d565b81146100c357600080fd5b50565b6000815190506100d5816100af565b92915050565b6000602082840312156100f1576100f0610078565b5b60006100ff848285016100c6565b91505092915050565b610372806101176000396000f3fe608060405234801561001057600080fd5b50600436106100415760003560e01c8063359cf2b714610046578063658030b314610050578063eec7faa11461006e575b600080fd5b61004e61008c565b005b610058610175565b604051610065919061021e565b60405180910390f35b610076610199565b6040516100839190610252565b60405180910390f35b60008054906101000a900473ffffffffffffffffffffffffffffffffffffffff1673ffffffffffffffffffffffffffffffffffffffff1663a9059cbb336103e86040518363ffffffff1660e01b81526004016100e992919061028e565b602060405180830381600087803b15801561010357600080fd5b505af1158015610117573d6000803e3d6000fd5b505050506040513d601f19601f8201168201806040525081019061013b91906102f4565b507fb46e741ed4358e3cfe1cea8a9cf8756d9f56012edc754673aff08923cf022ef83360405161016b9190610321565b60405180910390a1565b60008054906101000a900473ffffffffffffffffffffffffffffffffffffffff1681565b6103e881565b600073ffffffffffffffffffffffffffffffffffffffff82169050919050565b6000819050919050565b60006101e46101df6101da8461019f565b6101bf565b61019f565b9050919050565b60006101f6826101c9565b9050919050565b6000610208826101eb565b9050919050565b610218816101fd565b82525050565b6000602082019050610233600083018461020f565b92915050565b6000819050919050565b61024c81610239565b82525050565b60006020820190506102676000830184610243565b92915050565b60006102788261019f565b9050919050565b6102888161026d565b82525050565b60006040820190506102a3600083018561027f565b6102b06020830184610243565b9392505050565b600080fd5b60008115159050919050565b6102d1816102bc565b81146102dc57600080fd5b50565b6000815190506102ee816102c8565b92915050565b60006020828403121561030a576103096102b7565b5b6000610318848285016102df565b91505092915050565b6000602082019050610336600083018461027f565b9291505056fea2646970667358221220438984cd82fb06916e9cb54b8ef99663e77168578fb86395b004a014b0ecab0664736f6c63430008090033",
  "linkReferences": {},
  "deployedLinkReferences": {}
}