{
    "_format": "hh-sol-artifact-1",
    "contractName": "FundFacet",
    "sourceName": "contracts/facets/Fund.sol",
    "abi": [
        {
            "inputs": [
                {
                    "internalType": "uint256",
                    "name": "amount",
                    "type": "uint256"
                }
            ],
            "name": "InvalidAmount",
            "type": "error"
        },
        {
            "anonymous": false,
            "inputs": [
                {
                    "indexed": false,
                    "internalType": "uint256",
                    "name": "id",
                    "type": "uint256"
                }
            ],
            "name": "FundCreated",
            "type": "event"
        },
        {
            "anonymous": false,
            "inputs": [
                {
                    "indexed": false,
                    "internalType": "address",
                    "name": "owner",
                    "type": "address"
                },
                {
                    "indexed": false,
                    "internalType": "uint256",
                    "name": "cap",
                    "type": "uint256"
                },
                {
                    "indexed": false,
                    "internalType": "uint256",
                    "name": "fundId",
                    "type": "uint256"
                }
            ],
            "name": "MicroClosed",
            "type": "event"
        },
        {
            "anonymous": false,
            "inputs": [
                {
                    "indexed": false,
                    "internalType": "address",
                    "name": "owner",
                    "type": "address"
                },
                {
                    "indexed": false,
                    "internalType": "uint256",
                    "name": "amount",
                    "type": "uint256"
                },
                {
                    "indexed": false,
                    "internalType": "uint256",
                    "name": "fundId",
                    "type": "uint256"
                }
            ],
            "name": "MicroDrained",
            "type": "event"
        },
        {
            "anonymous": false,
            "inputs": [
                {
                    "indexed": false,
                    "internalType": "address",
                    "name": "microOwner",
                    "type": "address"
                },
                {
                    "indexed": false,
                    "internalType": "uint256",
                    "name": "balance",
                    "type": "uint256"
                },
                {
                    "indexed": false,
                    "internalType": "address",
                    "name": "fundOwner",
                    "type": "address"
                }
            ],
            "name": "Returned",
            "type": "event"
        },
        {
            "inputs": [
                {
                    "internalType": "uint256",
                    "name": "_index",
                    "type": "uint256"
                },
                {
                    "internalType": "uint256",
                    "name": "_amount",
                    "type": "uint256"
                }
            ],
            "name": "calcInvolvedMicros",
            "outputs": [
                {
                    "internalType": "uint256",
                    "name": "",
                    "type": "uint256"
                }
            ],
            "stateMutability": "view",
            "type": "function"
        },
        {
            "inputs": [
                {
                    "internalType": "uint256",
                    "name": "_index",
                    "type": "uint256"
                },
                {
                    "internalType": "uint256",
                    "name": "_amount",
                    "type": "uint256"
                }
            ],
            "name": "calcOutcome",
            "outputs": [
                {
                    "internalType": "uint256",
                    "name": "",
                    "type": "uint256"
                }
            ],
            "stateMutability": "view",
            "type": "function"
        },
        {
            "inputs": [
                {
                    "internalType": "uint256",
                    "name": "_level1",
                    "type": "uint256"
                }
            ],
            "name": "createFund",
            "outputs": [],
            "stateMutability": "nonpayable",
            "type": "function"
        },
        {
            "inputs": [
                {
                    "internalType": "uint256",
                    "name": "_index",
                    "type": "uint256"
                }
            ],
            "name": "getConnectedMicroFunds",
            "outputs": [
                {
                    "internalType": "uint256",
                    "name": "",
                    "type": "uint256"
                }
            ],
            "stateMutability": "view",
            "type": "function"
        },
        {
            "inputs": [
                {
                    "internalType": "uint256",
                    "name": "_id",
                    "type": "uint256"
                }
            ],
            "name": "getFundDetail",
            "outputs": [
                {
                    "components": [
                        {
                            "internalType": "uint256",
                            "name": "id",
                            "type": "uint256"
                        },
                        {
                            "internalType": "address",
                            "name": "owner",
                            "type": "address"
                        },
                        {
                            "internalType": "uint256",
                            "name": "balance",
                            "type": "uint256"
                        },
                        {
                            "internalType": "uint256",
                            "name": "deadline",
                            "type": "uint256"
                        },
                        {
                            "internalType": "uint256",
                            "name": "state",
                            "type": "uint256"
                        },
                        {
                            "internalType": "uint256",
                            "name": "level1",
                            "type": "uint256"
                        },
                        {
                            "internalType": "uint256",
                            "name": "usdcBalance",
                            "type": "uint256"
                        },
                        {
                            "internalType": "uint256",
                            "name": "usdtBalance",
                            "type": "uint256"
                        },
                        {
                            "internalType": "uint256",
                            "name": "micros",
                            "type": "uint256"
                        },
                        {
                            "internalType": "uint256",
                            "name": "backerNumber",
                            "type": "uint256"
                        }
                    ],
                    "internalType": "struct Fund",
                    "name": "",
                    "type": "tuple"
                }
            ],
            "stateMutability": "view",
            "type": "function"
        },
        {
            "inputs": [],
            "name": "getMyDonations",
            "outputs": [
                {
                    "internalType": "uint256[]",
                    "name": "",
                    "type": "uint256[]"
                }
            ],
            "stateMutability": "view",
            "type": "function"
        },
        {
            "inputs": [],
            "name": "getMyMicrofunds",
            "outputs": [
                {
                    "internalType": "uint256[]",
                    "name": "",
                    "type": "uint256[]"
                }
            ],
            "stateMutability": "view",
            "type": "function"
        }
    ],
    "bytecode": "0x608060405234801561001057600080fd5b50610fc9806100206000396000f3fe608060405234801561001057600080fd5b506004361061007d5760003560e01c806390e4a1301161005b57806390e4a130146100ec578063a4f10f0e1461010a578063b318c8371461013a578063be7aec531461016a5761007d565b80632e622bf9146100825780632e94dafc146100a057806342fa0713146100d0575b600080fd5b61008a61019a565b6040516100979190610c43565b60405180910390f35b6100ba60048036038101906100b59190610c96565b61039e565b6040516100c79190610dd0565b60405180910390f35b6100ea60048036038101906100e59190610c96565b61048e565b005b6100f4610667565b6040516101019190610c43565b60405180910390f35b610124600480360381019061011f9190610c96565b61086b565b6040516101319190610dfb565b60405180910390f35b610154600480360381019061014f9190610e16565b6108e0565b6040516101619190610dfb565b60405180910390f35b610184600480360381019061017f9190610e16565b610a00565b6040516101919190610dfb565b60405180910390f35b60606000805b60006005018054905081101561024d573373ffffffffffffffffffffffffffffffffffffffff16600060050182815481106101de576101dd610e56565b5b906000526020600020906007020160010160009054906101000a900473ffffffffffffffffffffffffffffffffffffffff1673ffffffffffffffffffffffffffffffffffffffff160361023a57818061023690610eb4565b9250505b808061024590610eb4565b9150506101a0565b5060008167ffffffffffffffff81111561026a57610269610efc565b5b6040519080825280602002602001820160405280156102985781602001602082028036833780820191505090505b5090506000805b600060050180549050811015610394573373ffffffffffffffffffffffffffffffffffffffff16600060050182815481106102dd576102dc610e56565b5b906000526020600020906007020160010160009054906101000a900473ffffffffffffffffffffffffffffffffffffffff1673ffffffffffffffffffffffffffffffffffffffff1603610381576000600501818154811061034157610340610e56565b5b90600052602060002090600702016004015483838151811061036657610365610e56565b5b602002602001018181525050818061037d90610eb4565b9250505b808061038c90610eb4565b91505061029f565b5081935050505090565b6103a6610b12565b600060040182815481106103bd576103bc610e56565b5b90600052602060002090600a020160405180610140016040529081600082015481526020016001820160009054906101000a900473ffffffffffffffffffffffffffffffffffffffff1673ffffffffffffffffffffffffffffffffffffffff1673ffffffffffffffffffffffffffffffffffffffff168152602001600282015481526020016003820154815260200160048201548152602001600582015481526020016006820154815260200160078201548152602001600882015481526020016009820154815250509050919050565b600062278d004261049f9190610f2b565b905060008210156104e757816040517f3728b83d0000000000000000000000000000000000000000000000000000000081526004016104de9190610dfb565b60405180910390fd5b600060040160405180610140016040528060006004018054905081526020013373ffffffffffffffffffffffffffffffffffffffff1681526020016000815260200183815260200160018152602001848152602001600081526020016000815260200160008152602001600081525090806001815401808255809150506001900390600052602060002090600a02016000909190919091506000820151816000015560208201518160010160006101000a81548173ffffffffffffffffffffffffffffffffffffffff021916908373ffffffffffffffffffffffffffffffffffffffff16021790555060408201518160020155606082015181600301556080820151816004015560a0820151816005015560c0820151816006015560e082015181600701556101008201518160080155610120820151816009015550507fec41606da1b7e318a73aa4bf363741fa612f34a0bdc09cf8e6b3417289ad1a5160006004018054905060405161065b9190610dfb565b60405180910390a15050565b60606000805b60006006018054905081101561071a573373ffffffffffffffffffffffffffffffffffffffff16600060060182815481106106ab576106aa610e56565b5b906000526020600020906006020160020160009054906101000a900473ffffffffffffffffffffffffffffffffffffffff1673ffffffffffffffffffffffffffffffffffffffff160361070757818061070390610eb4565b9250505b808061071290610eb4565b91505061066d565b5060008167ffffffffffffffff81111561073757610736610efc565b5b6040519080825280602002602001820160405280156107655781602001602082028036833780820191505090505b5090506000805b600060060180549050811015610861573373ffffffffffffffffffffffffffffffffffffffff16600060060182815481106107aa576107a9610e56565b5b906000526020600020906006020160020160009054906101000a900473ffffffffffffffffffffffffffffffffffffffff1673ffffffffffffffffffffffffffffffffffffffff160361084e576000600601818154811061080e5761080d610e56565b5b90600052602060002090600602016001015483838151811061083357610832610e56565b5b602002602001018181525050818061084a90610eb4565b9250505b808061085990610eb4565b91505061076c565b5081935050505090565b6000806000905060005b6000600501805490508110156108d657836000600501828154811061089d5761089c610e56565b5b906000526020600020906007020160040154036108c35781806108bf90610eb4565b9250505b80806108ce90610eb4565b915050610875565b5080915050919050565b6000806000905082816108f39190610f2b565b905060005b6000600501805490508110156109f55784600060050182815481106109205761091f610e56565b5b906000526020600020906007020160040154148015610967575060016000600501828154811061095357610952610e56565b5b906000526020600020906007020160050154145b80156109ce5750836000600501828154811061098657610985610e56565b5b906000526020600020906007020160030154600060050183815481106109af576109ae610e56565b5b9060005260206000209060070201600201546109cb9190610f5f565b10155b156109e25783826109df9190610f2b565b91505b80806109ed90610eb4565b9150506108f8565b508091505092915050565b6000806000905060005b600060050180549050811015610b07578460006005018281548110610a3257610a31610e56565b5b906000526020600020906007020160040154148015610a795750600160006005018281548110610a6557610a64610e56565b5b906000526020600020906007020160050154145b8015610ae057508360006005018281548110610a9857610a97610e56565b5b90600052602060002090600702016003015460006005018381548110610ac157610ac0610e56565b5b906000526020600020906007020160020154610add9190610f5f565b10155b15610af4578180610af090610eb4565b9250505b8080610aff90610eb4565b915050610a0a565b508091505092915050565b60405180610140016040528060008152602001600073ffffffffffffffffffffffffffffffffffffffff16815260200160008152602001600081526020016000815260200160008152602001600081526020016000815260200160008152602001600081525090565b600081519050919050565b600082825260208201905092915050565b6000819050602082019050919050565b6000819050919050565b610bba81610ba7565b82525050565b6000610bcc8383610bb1565b60208301905092915050565b6000602082019050919050565b6000610bf082610b7b565b610bfa8185610b86565b9350610c0583610b97565b8060005b83811015610c36578151610c1d8882610bc0565b9750610c2883610bd8565b925050600181019050610c09565b5085935050505092915050565b60006020820190508181036000830152610c5d8184610be5565b905092915050565b600080fd5b610c7381610ba7565b8114610c7e57600080fd5b50565b600081359050610c9081610c6a565b92915050565b600060208284031215610cac57610cab610c65565b5b6000610cba84828501610c81565b91505092915050565b600073ffffffffffffffffffffffffffffffffffffffff82169050919050565b6000610cee82610cc3565b9050919050565b610cfe81610ce3565b82525050565b61014082016000820151610d1b6000850182610bb1565b506020820151610d2e6020850182610cf5565b506040820151610d416040850182610bb1565b506060820151610d546060850182610bb1565b506080820151610d676080850182610bb1565b5060a0820151610d7a60a0850182610bb1565b5060c0820151610d8d60c0850182610bb1565b5060e0820151610da060e0850182610bb1565b50610100820151610db5610100850182610bb1565b50610120820151610dca610120850182610bb1565b50505050565b600061014082019050610de66000830184610d04565b92915050565b610df581610ba7565b82525050565b6000602082019050610e106000830184610dec565b92915050565b60008060408385031215610e2d57610e2c610c65565b5b6000610e3b85828601610c81565b9250506020610e4c85828601610c81565b9150509250929050565b7f4e487b7100000000000000000000000000000000000000000000000000000000600052603260045260246000fd5b7f4e487b7100000000000000000000000000000000000000000000000000000000600052601160045260246000fd5b6000610ebf82610ba7565b91507fffffffffffffffffffffffffffffffffffffffffffffffffffffffffffffffff8203610ef157610ef0610e85565b5b600182019050919050565b7f4e487b7100000000000000000000000000000000000000000000000000000000600052604160045260246000fd5b6000610f3682610ba7565b9150610f4183610ba7565b9250828201905080821115610f5957610f58610e85565b5b92915050565b6000610f6a82610ba7565b9150610f7583610ba7565b9250828203905081811115610f8d57610f8c610e85565b5b9291505056fea264697066735822122030883c047b3f84bc6b9b555ce0f209747cf6e292af4d950adee722f0418ca7a764736f6c63430008110033",
    "linkReferences": {},
    "deployedLinkReferences": {}
}