{
    "_format": "hh-sol-artifact-1",
    "contractName": "MasterFacet",
    "sourceName": "contracts/facets/Master.sol",
    "abi": [
        {
            "inputs": [
                {
                    "internalType": "bool",
                    "name": "deadline",
                    "type": "bool"
                }
            ],
            "name": "Deadline",
            "type": "error"
        },
        {
            "inputs": [
                {
                    "internalType": "uint256",
                    "name": "fund",
                    "type": "uint256"
                }
            ],
            "name": "FundInactive",
            "type": "error"
        },
        {
            "inputs": [
                {
                    "internalType": "address",
                    "name": "addr",
                    "type": "address"
                }
            ],
            "name": "InvalidAddress",
            "type": "error"
        },
        {
            "inputs": [
                {
                    "internalType": "uint256",
                    "name": "amount",
                    "type": "uint256"
                }
            ],
            "name": "InvalidAmount",
            "type": "error"
        },
        {
            "inputs": [
                {
                    "internalType": "uint256",
                    "name": "balance",
                    "type": "uint256"
                }
            ],
            "name": "LowBalance",
            "type": "error"
        },
        {
            "inputs": [
                {
                    "internalType": "address",
                    "name": "_user",
                    "type": "address"
                },
                {
                    "internalType": "address",
                    "name": "_contractOwner",
                    "type": "address"
                }
            ],
            "name": "NotContractOwner",
            "type": "error"
        },
        {
            "inputs": [
                {
                    "internalType": "uint256",
                    "name": "rewardId",
                    "type": "uint256"
                }
            ],
            "name": "RewardFull",
            "type": "error"
        },
        {
            "anonymous": false,
            "inputs": [
                {
                    "indexed": false,
                    "internalType": "address",
                    "name": "owner",
                    "type": "address"
                },
                {
                    "indexed": false,
                    "internalType": "uint256",
                    "name": "balance",
                    "type": "uint256"
                },
                {
                    "indexed": false,
                    "internalType": "uint256",
                    "name": "currency",
                    "type": "uint256"
                },
                {
                    "indexed": false,
                    "internalType": "uint256",
                    "name": "fee",
                    "type": "uint256"
                }
            ],
            "name": "DistributionAccomplished",
            "type": "event"
        },
        {
            "anonymous": false,
            "inputs": [
                {
                    "indexed": false,
                    "internalType": "address",
                    "name": "donator",
                    "type": "address"
                },
                {
                    "indexed": false,
                    "internalType": "uint256",
                    "name": "amount",
                    "type": "uint256"
                },
                {
                    "indexed": false,
                    "internalType": "uint256",
                    "name": "fundId",
                    "type": "uint256"
                },
                {
                    "indexed": false,
                    "internalType": "uint256",
                    "name": "currency",
                    "type": "uint256"
                },
                {
                    "indexed": false,
                    "internalType": "uint256",
                    "name": "microDrained",
                    "type": "uint256"
                }
            ],
            "name": "Donated",
            "type": "event"
        },
        {
            "anonymous": false,
            "inputs": [
                {
                    "indexed": false,
                    "internalType": "address",
                    "name": "owner",
                    "type": "address"
                },
                {
                    "indexed": false,
                    "internalType": "uint256",
                    "name": "cap",
                    "type": "uint256"
                },
                {
                    "indexed": false,
                    "internalType": "uint256",
                    "name": "fundId",
                    "type": "uint256"
                }
            ],
            "name": "MicroClosed",
            "type": "event"
        },
        {
            "anonymous": false,
            "inputs": [
                {
                    "indexed": false,
                    "internalType": "address",
                    "name": "owner",
                    "type": "address"
                },
                {
                    "indexed": false,
                    "internalType": "uint256",
                    "name": "cap",
                    "type": "uint256"
                },
                {
                    "indexed": false,
                    "internalType": "uint256",
                    "name": "fundId",
                    "type": "uint256"
                },
                {
                    "indexed": false,
                    "internalType": "uint256",
                    "name": "currency",
                    "type": "uint256"
                },
                {
                    "indexed": false,
                    "internalType": "uint256",
                    "name": "microId",
                    "type": "uint256"
                }
            ],
            "name": "MicroCreated",
            "type": "event"
        },
        {
            "anonymous": false,
            "inputs": [
                {
                    "indexed": false,
                    "internalType": "address",
                    "name": "owner",
                    "type": "address"
                },
                {
                    "indexed": false,
                    "internalType": "uint256",
                    "name": "amount",
                    "type": "uint256"
                },
                {
                    "indexed": false,
                    "internalType": "uint256",
                    "name": "fundId",
                    "type": "uint256"
                }
            ],
            "name": "MicroDrained",
            "type": "event"
        },
        {
            "anonymous": false,
            "inputs": [
                {
                    "indexed": false,
                    "internalType": "address",
                    "name": "backer",
                    "type": "address"
                },
                {
                    "indexed": false,
                    "internalType": "address",
                    "name": "contractAddress",
                    "type": "address"
                },
                {
                    "indexed": false,
                    "internalType": "uint256",
                    "name": "fundId",
                    "type": "uint256"
                }
            ],
            "name": "NftReward",
            "type": "event"
        },
        {
            "anonymous": false,
            "inputs": [
                {
                    "indexed": false,
                    "internalType": "address",
                    "name": "backer",
                    "type": "address"
                },
                {
                    "indexed": false,
                    "internalType": "uint256",
                    "name": "amount",
                    "type": "uint256"
                },
                {
                    "indexed": false,
                    "internalType": "uint256",
                    "name": "fundId",
                    "type": "uint256"
                }
            ],
            "name": "Refunded",
            "type": "event"
        },
        {
            "anonymous": false,
            "inputs": [
                {
                    "indexed": false,
                    "internalType": "address",
                    "name": "microOwner",
                    "type": "address"
                },
                {
                    "indexed": false,
                    "internalType": "uint256",
                    "name": "balance",
                    "type": "uint256"
                },
                {
                    "indexed": false,
                    "internalType": "address",
                    "name": "fundOwner",
                    "type": "address"
                }
            ],
            "name": "Returned",
            "type": "event"
        },
        {
            "anonymous": false,
            "inputs": [
                {
                    "indexed": false,
                    "internalType": "address",
                    "name": "owner",
                    "type": "address"
                },
                {
                    "indexed": false,
                    "internalType": "uint256",
                    "name": "rewardId",
                    "type": "uint256"
                },
                {
                    "indexed": false,
                    "internalType": "uint256",
                    "name": "amount",
                    "type": "uint256"
                }
            ],
            "name": "RewardCharged",
            "type": "event"
        },
        {
            "anonymous": false,
            "inputs": [
                {
                    "indexed": false,
                    "internalType": "address",
                    "name": "owner",
                    "type": "address"
                },
                {
                    "indexed": false,
                    "internalType": "uint256",
                    "name": "rewardId",
                    "type": "uint256"
                }
            ],
            "name": "RewardNotCharged",
            "type": "event"
        },
        {
            "anonymous": false,
            "inputs": [
                {
                    "indexed": false,
                    "internalType": "address",
                    "name": "backer",
                    "type": "address"
                },
                {
                    "indexed": false,
                    "internalType": "uint256",
                    "name": "amount",
                    "type": "uint256"
                },
                {
                    "indexed": false,
                    "internalType": "uint256",
                    "name": "fundId",
                    "type": "uint256"
                }
            ],
            "name": "TokenReward",
            "type": "event"
        },
        {
            "inputs": [
                {
                    "internalType": "uint256",
                    "name": "_id",
                    "type": "uint256"
                }
            ],
            "name": "cancelFund",
            "outputs": [],
            "stateMutability": "nonpayable",
            "type": "function"
        },
        {
            "inputs": [
                {
                    "internalType": "uint256",
                    "name": "_id",
                    "type": "uint256"
                },
                {
                    "internalType": "address",
                    "name": "_add",
                    "type": "address"
                }
            ],
            "name": "claimMicro",
            "outputs": [],
            "stateMutability": "nonpayable",
            "type": "function"
        },
        {
            "inputs": [
                {
                    "internalType": "uint256",
                    "name": "_amountM",
                    "type": "uint256"
                },
                {
                    "internalType": "uint256",
                    "name": "_amountD",
                    "type": "uint256"
                },
                {
                    "internalType": "uint256",
                    "name": "_id",
                    "type": "uint256"
                },
                {
                    "internalType": "uint256",
                    "name": "_currency",
                    "type": "uint256"
                },
                {
                    "internalType": "uint256",
                    "name": "_rewardId",
                    "type": "uint256"
                }
            ],
            "name": "contribute",
            "outputs": [],
            "stateMutability": "nonpayable",
            "type": "function"
        },
        {
            "inputs": [],
            "name": "createZeroData",
            "outputs": [],
            "stateMutability": "nonpayable",
            "type": "function"
        },
        {
            "inputs": [
                {
                    "internalType": "uint256",
                    "name": "_id",
                    "type": "uint256"
                }
            ],
            "name": "distribute",
            "outputs": [],
            "stateMutability": "nonpayable",
            "type": "function"
        },
        {
            "inputs": [
                {
                    "internalType": "uint256",
                    "name": "_id",
                    "type": "uint256"
                },
                {
                    "internalType": "uint256",
                    "name": "_currency",
                    "type": "uint256"
                },
                {
                    "internalType": "contract IERC20",
                    "name": "_token",
                    "type": "address"
                }
            ],
            "name": "returnMicrofunds",
            "outputs": [],
            "stateMutability": "nonpayable",
            "type": "function"
        }
    ],
    "bytecode": "0x608060405234801561001057600080fd5b5061398d806100206000396000f3fe608060405234801561001057600080fd5b50600436106100625760003560e01c80631d711a9f1461006757806391c05b0b1461008357806398d559f81461009f578063c204a7d1146100a9578063d40ff37d146100c5578063e4810524146100e1575b600080fd5b610081600480360381019061007c91906132a6565b6100fd565b005b61009d60048036038101906100989190613321565b6107dc565b005b6100a7610a31565b005b6100c360048036038101906100be91906133ac565b610cf7565b005b6100df60048036038101906100da919061342a565b611462565b005b6100fb60048036038101906100f69190613321565b611857565b005b82600060040181815481106101155761011461347d565b5b90600052602060002090600a02016003015442111561016c5760016040517f543bc0fb00000000000000000000000000000000000000000000000000000000815260040161016391906134c7565b60405180910390fd5b6001600060040185815481106101855761018461347d565b5b90600052602060002090600a020160040154146101d957836040517f8eba2e3d0000000000000000000000000000000000000000000000000000000081526004016101d091906134f1565b60405180910390fd5b600086101561021f57856040517f3728b83d00000000000000000000000000000000000000000000000000000000815260040161021691906134f1565b60405180910390fd5b600085101561026557846040517f3728b83d00000000000000000000000000000000000000000000000000000000815260040161025c91906134f1565b60405180910390fd5b6001830361036257600060010160009054906101000a900473ffffffffffffffffffffffffffffffffffffffff1673ffffffffffffffffffffffffffffffffffffffff166323b872dd333089896102bc919061353b565b6040518463ffffffff1660e01b81526004016102da9392919061357e565b6020604051808303816000875af11580156102f9573d6000803e3d6000fd5b505050506040513d601f19601f8201168201806040525081019061031d91906135e1565b5084600060040185815481106103365761033561347d565b5b90600052602060002090600a02016006016000828254610356919061353b565b9250508190555061045c565b6002830361045b57600060020160009054906101000a900473ffffffffffffffffffffffffffffffffffffffff1673ffffffffffffffffffffffffffffffffffffffff166323b872dd333089896103b9919061353b565b6040518463ffffffff1660e01b81526004016103d79392919061357e565b6020604051808303816000875af11580156103f6573d6000803e3d6000fd5b505050506040513d601f19601f8201168201806040525081019061041a91906135e1565b5084600060040185815481106104335761043261347d565b5b90600052602060002090600a02016007016000828254610453919061353b565b925050819055505b5b60008511156105e95760006006016040518060c0016040528060006006018054905081526020018681526020013373ffffffffffffffffffffffffffffffffffffffff16815260200187815260200160008152602001858152509080600181540180825580915050600190039060005260206000209060060201600090919091909150600082015181600001556020820151816001015560408201518160020160006101000a81548173ffffffffffffffffffffffffffffffffffffffff021916908373ffffffffffffffffffffffffffffffffffffffff160217905550606082015181600301556080820151816004015560a0820151816005015550506001600060040185815481106105735761057261347d565b5b90600052602060002090600a02016009016000828254610593919061353b565b9250508190555060006105a68587611f07565b90507f5a6bd9c92682eca6be18f65696b3310b13970a058f992be29c8c64860b4dd64733878787856040516105df95949392919061360e565b60405180910390a1505b60008611156107805760006005016040518060e0016040528060006005018054905081526020013373ffffffffffffffffffffffffffffffffffffffff16815260200188815260200160008152602001868152602001600181526020018581525090806001815401808255809150506001900390600052602060002090600702016000909190919091506000820151816000015560208201518160010160006101000a81548173ffffffffffffffffffffffffffffffffffffffff021916908373ffffffffffffffffffffffffffffffffffffffff16021790555060408201518160020155606082015181600301556080820151816004015560a0820151816005015560c0820151816006015550506001600060040185815481106107115761071061347d565b5b90600052602060002090600a02016008016000828254610731919061353b565b925050819055507f08514d1c5e17f21f6d45a7d774c0270bd0e2a3df04aff3d80e7b811ac8c5c3e03387868660006005018054905060405161077795949392919061360e565b60405180910390a15b84600060040185815481106107985761079761347d565b5b90600052602060002090600a020160020160008282546107b8919061353b565b925050819055506107d48286886107cf919061353b565b612358565b505050505050565b6107e46126d7565b6001600060040182815481106107fd576107fc61347d565b5b90600052602060002090600a0201600401541461085157806040517f8eba2e3d00000000000000000000000000000000000000000000000000000000815260040161084891906134f1565b60405180910390fd5b60008060040182815481106108695761086861347d565b5b90600052602060002090600a020160020154116108e557600060040181815481106108975761089661347d565b5b90600052602060002090600a0201600201546040517f4d4f8aa60000000000000000000000000000000000000000000000000000000081526004016108dc91906134f1565b60405180910390fd5b6002600060040182815481106108fe576108fd61347d565b5b90600052602060002090600a020160040181905550600080600401828154811061092b5761092a61347d565b5b90600052602060002090600a02016006015411156109a25761099d816000600401838154811061095e5761095d61347d565b5b90600052602060002090600a0201600601546001600060010160009054906101000a900473ffffffffffffffffffffffffffffffffffffffff166127a1565b610a2e565b60008060040182815481106109ba576109b961347d565b5b90600052602060002090600a0201600701541115610a2d57610a2c81600060040183815481106109ed576109ec61347d565b5b90600052602060002090600a0201600701546002600060020160009054906101000a900473ffffffffffffffffffffffffffffffffffffffff166127a1565b5b5b50565b610a396126d7565b600060040160405180610140016040528060008152602001600073ffffffffffffffffffffffffffffffffffffffff16815260200160008152602001600081526020016001815260200164746a5288008152602001600081526020016000815260200160008152602001600081525090806001815401808255809150506001900390600052602060002090600a02016000909190919091506000820151816000015560208201518160010160006101000a81548173ffffffffffffffffffffffffffffffffffffffff021916908373ffffffffffffffffffffffffffffffffffffffff16021790555060408201518160020155606082015181600301556080820151816004015560a0820151816005015560c0820151816006015560e082015181600701556101008201518160080155610120820151816009015550506000600701604051806101200160405280600081526020016000815260200166038d7ea4c680008152602001600081526020013373ffffffffffffffffffffffffffffffffffffffff168152602001600073ffffffffffffffffffffffffffffffffffffffff1681526020016000815260200160008152602001600181525090806001815401808255809150506001900390600052602060002090600902016000909190919091506000820151816000015560208201518160010155604082015181600201556060820151816003015560808201518160040160006101000a81548173ffffffffffffffffffffffffffffffffffffffff021916908373ffffffffffffffffffffffffffffffffffffffff16021790555060a08201518160050160006101000a81548173ffffffffffffffffffffffffffffffffffffffff021916908373ffffffffffffffffffffffffffffffffffffffff16021790555060c0820151816006015560e0820151816007015561010082015181600801555050565b600160006005018381548110610d1057610d0f61347d565b5b90600052602060002090600702016005015414610d6457816040517f8eba2e3d000000000000000000000000000000000000000000000000000000008152600401610d5b91906134f1565b60405180910390fd5b60006005018281548110610d7b57610d7a61347d565b5b90600052602060002090600702016003015460006005018381548110610da457610da361347d565b5b90600052602060002090600702016002015403610e205760006005018281548110610dd257610dd161347d565b5b9060005260206000209060070201600301546040517f4d4f8aa6000000000000000000000000000000000000000000000000000000008152600401610e1791906134f1565b60405180910390fd5b8073ffffffffffffffffffffffffffffffffffffffff1660006005018381548110610e4e57610e4d61347d565b5b906000526020600020906007020160010160009054906101000a900473ffffffffffffffffffffffffffffffffffffffff1673ffffffffffffffffffffffffffffffffffffffff1614610f205760006005018281548110610eb257610eb161347d565b5b906000526020600020906007020160010160009054906101000a900473ffffffffffffffffffffffffffffffffffffffff166040517f8e4c8aa6000000000000000000000000000000000000000000000000000000008152600401610f179190613661565b60405180910390fd5b600260006005018381548110610f3957610f3861347d565b5b9060005260206000209060070201600501819055506000806005018381548110610f6657610f6561347d565b5b90600052602060002090600702016003015460006005018481548110610f8f57610f8e61347d565b5b906000526020600020906007020160020154610fab919061367c565b90506000806005018481548110610fc557610fc461347d565b5b9060005260206000209060070201600401549050600160006005018581548110610ff257610ff161347d565b5b906000526020600020906007020160060154036111a057600060010160009054906101000a900473ffffffffffffffffffffffffffffffffffffffff1673ffffffffffffffffffffffffffffffffffffffff1663095ea7b330846040518363ffffffff1660e01b81526004016110699291906136b0565b6020604051808303816000875af1158015611088573d6000803e3d6000fd5b505050506040513d601f19601f820116820180604052508101906110ac91906135e1565b50600060010160009054906101000a900473ffffffffffffffffffffffffffffffffffffffff1673ffffffffffffffffffffffffffffffffffffffff166323b872dd30600060050187815481106111065761110561347d565b5b906000526020600020906007020160010160009054906101000a900473ffffffffffffffffffffffffffffffffffffffff16856040518463ffffffff1660e01b81526004016111579392919061357e565b6020604051808303816000875af1158015611176573d6000803e3d6000fd5b505050506040513d601f19601f8201168201806040525081019061119a91906135e1565b50611364565b6002600060050185815481106111b9576111b861347d565b5b9060005260206000209060070201600601540361136357600060020160009054906101000a900473ffffffffffffffffffffffffffffffffffffffff1673ffffffffffffffffffffffffffffffffffffffff1663095ea7b330846040518363ffffffff1660e01b81526004016112309291906136b0565b6020604051808303816000875af115801561124f573d6000803e3d6000fd5b505050506040513d601f19601f8201168201806040525081019061127391906135e1565b50600060020160009054906101000a900473ffffffffffffffffffffffffffffffffffffffff1673ffffffffffffffffffffffffffffffffffffffff166323b872dd30600060050187815481106112cd576112cc61347d565b5b906000526020600020906007020160010160009054906101000a900473ffffffffffffffffffffffffffffffffffffffff16856040518463ffffffff1660e01b815260040161131e9392919061357e565b6020604051808303816000875af115801561133d573d6000803e3d6000fd5b505050506040513d601f19601f8201168201806040525081019061136191906135e1565b505b5b600080600501858154811061137c5761137b61347d565b5b9060005260206000209060070201600301819055507f98c105e3bc1ca4c7a99cdea9cd2e2c7a0fbf623404262d3dfd0a152545bd25ad600060050185815481106113c9576113c861347d565b5b906000526020600020906007020160010160009054906101000a900473ffffffffffffffffffffffffffffffffffffffff1683600060040184815481106114135761141261347d565b5b90600052602060002090600a020160010160009054906101000a900473ffffffffffffffffffffffffffffffffffffffff16604051611454939291906136d9565b60405180910390a150505050565b61146a6126d7565b60005b6000600501805490508110156118515783600060050182815481106114955761149461347d565b5b9060005260206000209060070201600401541480156114dc57506001600060050182815481106114c8576114c761347d565b5b906000526020600020906007020160050154145b801561150f575082600060050182815481106114fb576114fa61347d565b5b906000526020600020906007020160060154145b801561156a57506000600501818154811061152d5761152c61347d565b5b906000526020600020906007020160030154600060050182815481106115565761155561347d565b5b906000526020600020906007020160020154115b1561183e576002600060050182815481106115885761158761347d565b5b90600052602060002090600702016005018190555060008060050182815481106115b5576115b461347d565b5b906000526020600020906007020160030154600060050183815481106115de576115dd61347d565b5b9060005260206000209060070201600201546115fa919061367c565b90508273ffffffffffffffffffffffffffffffffffffffff1663095ea7b330836040518363ffffffff1660e01b81526004016116379291906136b0565b6020604051808303816000875af1158015611656573d6000803e3d6000fd5b505050506040513d601f19601f8201168201806040525081019061167a91906135e1565b5060008060050183815481106116935761169261347d565b5b9060005260206000209060070201600301819055508273ffffffffffffffffffffffffffffffffffffffff166323b872dd30600060050185815481106116dc576116db61347d565b5b906000526020600020906007020160010160009054906101000a900473ffffffffffffffffffffffffffffffffffffffff16846040518463ffffffff1660e01b815260040161172d9392919061357e565b6020604051808303816000875af115801561174c573d6000803e3d6000fd5b505050506040513d601f19601f8201168201806040525081019061177091906135e1565b507f98c105e3bc1ca4c7a99cdea9cd2e2c7a0fbf623404262d3dfd0a152545bd25ad600060050183815481106117a9576117a861347d565b5b906000526020600020906007020160010160009054906101000a900473ffffffffffffffffffffffffffffffffffffffff1682600060040188815481106117f3576117f261347d565b5b90600052602060002090600a020160010160009054906101000a900473ffffffffffffffffffffffffffffffffffffffff16604051611834939291906136d9565b60405180910390a1505b808061184990613710565b91505061146d565b50505050565b61185f6126d7565b6001600060040182815481106118785761187761347d565b5b90600052602060002090600a020160040154146118cc57806040517f8eba2e3d0000000000000000000000000000000000000000000000000000000081526004016118c391906134f1565b60405180910390fd5b60008060040182815481106118e4576118e361347d565b5b90600052602060002090600a02016004018190555060008060040182815481106119115761191061347d565b5b90600052602060002090600a02016006015411156119b15761198381600060040183815481106119445761194361347d565b5b90600052602060002090600a0201600601546001600060010160009054906101000a900473ffffffffffffffffffffffffffffffffffffffff16612a8b565b600080600401828154811061199b5761199a61347d565b5b90600052602060002090600a0201600601819055505b60008060040182815481106119c9576119c861347d565b5b90600052602060002090600a0201600701541115611a6957611a3b81600060040183815481106119fc576119fb61347d565b5b90600052602060002090600a0201600701546002600060020160009054906101000a900473ffffffffffffffffffffffffffffffffffffffff16612a8b565b6000806004018281548110611a5357611a5261347d565b5b90600052602060002090600a0201600701819055505b60005b600060070180549050811015611f03578160006007018281548110611a9457611a9361347d565b5b906000526020600020906009020160010154148015611ada57506000806007018281548110611ac657611ac561347d565b5b906000526020600020906009020160020154115b15611ef057600260006007018281548110611af857611af761347d565b5b90600052602060002090600902016008015403611cf9576000806007018281548110611b2757611b2661347d565b5b906000526020600020906009020160050160009054906101000a900473ffffffffffffffffffffffffffffffffffffffff1690508073ffffffffffffffffffffffffffffffffffffffff1663095ea7b33060006007018581548110611b8f57611b8e61347d565b5b9060005260206000209060090201600601546040518363ffffffff1660e01b8152600401611bbe9291906136b0565b6020604051808303816000875af1158015611bdd573d6000803e3d6000fd5b505050506040513d601f19601f82011682018060405250810190611c0191906135e1565b508073ffffffffffffffffffffffffffffffffffffffff166323b872dd3060006004018681548110611c3657611c3561347d565b5b90600052602060002090600a020160010160009054906101000a900473ffffffffffffffffffffffffffffffffffffffff1660006007018681548110611c7f57611c7e61347d565b5b9060005260206000209060090201600601546040518463ffffffff1660e01b8152600401611caf9392919061357e565b6020604051808303816000875af1158015611cce573d6000803e3d6000fd5b505050506040513d601f19601f82011682018060405250810190611cf291906135e1565b5050611eef565b600160006007018281548110611d1257611d1161347d565b5b90600052602060002090600902016008015403611eee576000806007018281548110611d4157611d4061347d565b5b906000526020600020906009020160050160009054906101000a900473ffffffffffffffffffffffffffffffffffffffff1690508073ffffffffffffffffffffffffffffffffffffffff1663a22cb4653060016040518363ffffffff1660e01b8152600401611db1929190613758565b600060405180830381600087803b158015611dcb57600080fd5b505af1158015611ddf573d6000803e3d6000fd5b505050508073ffffffffffffffffffffffffffffffffffffffff1663f242432a3060006004018681548110611e1757611e1661347d565b5b90600052602060002090600a020160010160009054906101000a900473ffffffffffffffffffffffffffffffffffffffff1660006007018681548110611e6057611e5f61347d565b5b90600052602060002090600902016007015460006007018781548110611e8957611e8861347d565b5b9060005260206000209060090201600201546040518563ffffffff1660e01b8152600401611eba94939291906137b8565b600060405180830381600087803b158015611ed457600080fd5b505af1158015611ee8573d6000803e3d6000fd5b50505050505b5b5b8080611efb90613710565b915050611a6c565b5050565b6000806000905060005b60006005018054905081101561234d578360006005018281548110611f3957611f3861347d565b5b90600052602060002090600702016003015460006005018381548110611f6257611f6161347d565b5b906000526020600020906007020160020154611f7e919061367c565b10158015611fb357508460006005018281548110611f9f57611f9e61347d565b5b906000526020600020906007020160040154145b8015611fe75750600160006005018281548110611fd357611fd261347d565b5b906000526020600020906007020160050154145b1561233a5783600060050182815481106120045761200361347d565b5b90600052602060002090600702016003016000828254612024919061353b565b9250508190555083600060040186815481106120435761204261347d565b5b90600052602060002090600a02016002016000828254612063919061353b565b925050819055508382612076919061353b565b91506001600060050182815481106120915761209061347d565b5b906000526020600020906007020160060154036120ec5783600060040186815481106120c0576120bf61347d565b5b90600052602060002090600a020160060160008282546120e0919061353b565b9250508190555061215d565b6002600060050182815481106121055761210461347d565b5b9060005260206000209060070201600601540361215c5783600060040186815481106121345761213361347d565b5b90600052602060002090600a02016007016000828254612154919061353b565b925050819055505b5b600060050181815481106121745761217361347d565b5b9060005260206000209060070201600301546000600501828154811061219d5761219c61347d565b5b906000526020600020906007020160020154036122b6576002600060050182815481106121cd576121cc61347d565b5b9060005260206000209060070201600501819055507f344f3c440bc0a199d8ebf3e014b04b0be7f494a3e35bc4c4b162dbf9edb245216000600501828154811061221a5761221961347d565b5b906000526020600020906007020160010160009054906101000a900473ffffffffffffffffffffffffffffffffffffffff16600060050183815481106122635761226261347d565b5b9060005260206000209060070201600201546000600501848154811061228c5761228b61347d565b5b9060005260206000209060070201600401546040516122ad93929190613810565b60405180910390a15b7ff8d3b803c2699d3e25440474a9089daa89195298415edaf5cb5ff73d4cad4d44600060050182815481106122ee576122ed61347d565b5b906000526020600020906007020160010160009054906101000a900473ffffffffffffffffffffffffffffffffffffffff16858760405161233193929190613810565b60405180910390a15b808061234590613710565b915050611f11565b508091505092915050565b6005600060070183815481106123715761237061347d565b5b906000526020600020906009020160080154036123c557816040517f8eba2e3d0000000000000000000000000000000000000000000000000000000081526004016123bc91906134f1565b60405180910390fd5b600060070182815481106123dc576123db61347d565b5b906000526020600020906009020160020154600060070183815481106124055761240461347d565b5b9060005260206000209060090201600301541061245957816040517f53f849cb00000000000000000000000000000000000000000000000000000000815260040161245091906134f1565b60405180910390fd5b600082141580156124915750806000600701838154811061247d5761247c61347d565b5b906000526020600020906009020160060154145b15612699576001600060070183815481106124af576124ae61347d565b5b906000526020600020906009020160030160008282546124cf919061353b565b9250508190555060006008016040518060800160405280600060070185815481106124fd576124fc61347d565b5b906000526020600020906009020160000154815260200160006008018054905081526020013373ffffffffffffffffffffffffffffffffffffffff16815260200160018152509080600181540180825580915050600190039060005260206000209060040201600090919091909150600082015181600001556020820151816001015560408201518160020160006101000a81548173ffffffffffffffffffffffffffffffffffffffff021916908373ffffffffffffffffffffffffffffffffffffffff160217905550606082015181600301555050600060070182815481106125ea576125e961347d565b5b906000526020600020906009020160020154600060070183815481106126135761261261347d565b5b90600052602060002090600902016003015403612659576005600060070183815481106126435761264261347d565b5b9060005260206000209060090201600801819055505b7f73a4bfbaae917a7775bdbad0a9368eb7c834b859e46d677b71c6d729ad23c25633838360405161268c93929190613810565b60405180910390a16126d3565b7fdd27cb38b3f90c42adf215ca459e451e510a71136706ab7c428d9c5147e3cce333836040516126ca9291906136b0565b60405180910390a15b5050565b6126df61323e565b60030160009054906101000a900473ffffffffffffffffffffffffffffffffffffffff1673ffffffffffffffffffffffffffffffffffffffff163373ffffffffffffffffffffffffffffffffffffffff161461279f573361273e61323e565b60030160009054906101000a900473ffffffffffffffffffffffffffffffffffffffff166040517fff4127cb000000000000000000000000000000000000000000000000000000008152600401612796929190613847565b60405180910390fd5b565b600073c21223249ca28397b4b6541dffaecc539bff0c599050600060646000866127cb9190613870565b6127d591906138e1565b9050600081866127e5919061367c565b90508373ffffffffffffffffffffffffffffffffffffffff1663095ea7b330886040518363ffffffff1660e01b81526004016128229291906136b0565b6020604051808303816000875af1158015612841573d6000803e3d6000fd5b505050506040513d601f19601f8201168201806040525081019061286591906135e1565b508373ffffffffffffffffffffffffffffffffffffffff166323b872dd3085856040518463ffffffff1660e01b81526004016128a39392919061357e565b6020604051808303816000875af11580156128c2573d6000803e3d6000fd5b505050506040513d601f19601f820116820180604052508101906128e691906135e1565b508373ffffffffffffffffffffffffffffffffffffffff166323b872dd3060006004018a8154811061291b5761291a61347d565b5b90600052602060002090600a020160010160009054906101000a900473ffffffffffffffffffffffffffffffffffffffff16846040518463ffffffff1660e01b815260040161296c9392919061357e565b6020604051808303816000875af115801561298b573d6000803e3d6000fd5b505050506040513d601f19601f820116820180604052508101906129af91906135e1565b5080866129bc919061367c565b955080600060040188815481106129d6576129d561347d565b5b90600052602060002090600a020160020160008282546129f6919061367c565b925050819055507f64d61d2ac479ab7599ffa1d149b88db8885479b048acc20eb29672663a3ec77260006004018881548110612a3557612a3461347d565b5b90600052602060002090600a020160010160009054906101000a900473ffffffffffffffffffffffffffffffffffffffff16878785604051612a7a9493929190613912565b60405180910390a150505050505050565b60005b600060050180549050811015612e6b578460006005018281548110612ab657612ab561347d565b5b906000526020600020906007020160040154148015612afc57508260006005018281548110612ae857612ae761347d565b5b906000526020600020906007020160060154145b15612e5857600460006005018281548110612b1a57612b1961347d565b5b90600052602060002090600702016005018190555060006005018181548110612b4657612b4561347d565b5b90600052602060002090600702016003015460006004018681548110612b6f57612b6e61347d565b5b90600052602060002090600a02016002016000828254612b8f919061367c565b9250508190555060006005018181548110612bad57612bac61347d565b5b90600052602060002090600702016003015484612bca919061367c565b93508173ffffffffffffffffffffffffffffffffffffffff1663095ea7b33060006005018481548110612c0057612bff61347d565b5b9060005260206000209060070201600201546040518363ffffffff1660e01b8152600401612c2f9291906136b0565b6020604051808303816000875af1158015612c4e573d6000803e3d6000fd5b505050506040513d601f19601f82011682018060405250810190612c7291906135e1565b508173ffffffffffffffffffffffffffffffffffffffff166323b872dd3060006005018481548110612ca757612ca661347d565b5b906000526020600020906007020160010160009054906101000a900473ffffffffffffffffffffffffffffffffffffffff1660006005018581548110612cf057612cef61347d565b5b9060005260206000209060070201600201546040518463ffffffff1660e01b8152600401612d209392919061357e565b6020604051808303816000875af1158015612d3f573d6000803e3d6000fd5b505050506040513d601f19601f82011682018060405250810190612d6391906135e1565b507f98c105e3bc1ca4c7a99cdea9cd2e2c7a0fbf623404262d3dfd0a152545bd25ad60006005018281548110612d9c57612d9b61347d565b5b906000526020600020906007020160010160009054906101000a900473ffffffffffffffffffffffffffffffffffffffff1660006005018381548110612de557612de461347d565b5b90600052602060002090600702016002015460006004018481548110612e0e57612e0d61347d565b5b90600052602060002090600a020160010160009054906101000a900473ffffffffffffffffffffffffffffffffffffffff16604051612e4f939291906136d9565b60405180910390a15b8080612e6390613710565b915050612a8e565b5060005b600060060180549050811015613237578460006006018281548110612e9757612e9661347d565b5b906000526020600020906006020160010154148015612edd57506000806006018281548110612ec957612ec861347d565b5b906000526020600020906006020160040154145b8015612f1057508260006006018281548110612efc57612efb61347d565b5b906000526020600020906006020160050154145b156132245760006006018181548110612f2c57612f2b61347d565b5b90600052602060002090600602016003015460006004018681548110612f5557612f5461347d565b5b90600052602060002090600a02016002016000828254612f75919061367c565b9250508190555060006006018181548110612f9357612f9261347d565b5b90600052602060002090600602016003015484612fb0919061367c565b9350600460006006018281548110612fcb57612fca61347d565b5b9060005260206000209060060201600401819055508173ffffffffffffffffffffffffffffffffffffffff1663095ea7b330600060060184815481106130145761301361347d565b5b9060005260206000209060060201600301546040518363ffffffff1660e01b81526004016130439291906136b0565b6020604051808303816000875af1158015613062573d6000803e3d6000fd5b505050506040513d601f19601f8201168201806040525081019061308691906135e1565b508173ffffffffffffffffffffffffffffffffffffffff166323b872dd30600060060184815481106130bb576130ba61347d565b5b906000526020600020906006020160020160009054906101000a900473ffffffffffffffffffffffffffffffffffffffff16600060060185815481106131045761310361347d565b5b9060005260206000209060060201600301546040518463ffffffff1660e01b81526004016131349392919061357e565b6020604051808303816000875af1158015613153573d6000803e3d6000fd5b505050506040513d601f19601f8201168201806040525081019061317791906135e1565b507f2dc8e290002f06fc0085bbca9dfb8b415cf4d1178950c72ff9ee8f4d8878ee66600060060182815481106131b0576131af61347d565b5b906000526020600020906006020160020160009054906101000a900473ffffffffffffffffffffffffffffffffffffffff16600060060183815481106131f9576131f861347d565b5b9060005260206000209060060201600301548760405161321b93929190613810565b60405180910390a15b808061322f90613710565b915050612e6f565b5050505050565b6000807fc8fcad8db84d3cc18b4c41d551ea0ee66dd599cde068d998e57d5e09332c131c90508091505090565b600080fd5b6000819050919050565b61328381613270565b811461328e57600080fd5b50565b6000813590506132a08161327a565b92915050565b600080600080600060a086880312156132c2576132c161326b565b5b60006132d088828901613291565b95505060206132e188828901613291565b94505060406132f288828901613291565b935050606061330388828901613291565b925050608061331488828901613291565b9150509295509295909350565b6000602082840312156133375761333661326b565b5b600061334584828501613291565b91505092915050565b600073ffffffffffffffffffffffffffffffffffffffff82169050919050565b60006133798261334e565b9050919050565b6133898161336e565b811461339457600080fd5b50565b6000813590506133a681613380565b92915050565b600080604083850312156133c3576133c261326b565b5b60006133d185828601613291565b92505060206133e285828601613397565b9150509250929050565b60006133f78261336e565b9050919050565b613407816133ec565b811461341257600080fd5b50565b600081359050613424816133fe565b92915050565b6000806000606084860312156134435761344261326b565b5b600061345186828701613291565b935050602061346286828701613291565b925050604061347386828701613415565b9150509250925092565b7f4e487b7100000000000000000000000000000000000000000000000000000000600052603260045260246000fd5b60008115159050919050565b6134c1816134ac565b82525050565b60006020820190506134dc60008301846134b8565b92915050565b6134eb81613270565b82525050565b600060208201905061350660008301846134e2565b92915050565b7f4e487b7100000000000000000000000000000000000000000000000000000000600052601160045260246000fd5b600061354682613270565b915061355183613270565b92508282019050808211156135695761356861350c565b5b92915050565b6135788161336e565b82525050565b6000606082019050613593600083018661356f565b6135a0602083018561356f565b6135ad60408301846134e2565b949350505050565b6135be816134ac565b81146135c957600080fd5b50565b6000815190506135db816135b5565b92915050565b6000602082840312156135f7576135f661326b565b5b6000613605848285016135cc565b91505092915050565b600060a082019050613623600083018861356f565b61363060208301876134e2565b61363d60408301866134e2565b61364a60608301856134e2565b61365760808301846134e2565b9695505050505050565b6000602082019050613676600083018461356f565b92915050565b600061368782613270565b915061369283613270565b92508282039050818111156136aa576136a961350c565b5b92915050565b60006040820190506136c5600083018561356f565b6136d260208301846134e2565b9392505050565b60006060820190506136ee600083018661356f565b6136fb60208301856134e2565b613708604083018461356f565b949350505050565b600061371b82613270565b91507fffffffffffffffffffffffffffffffffffffffffffffffffffffffffffffffff820361374d5761374c61350c565b5b600182019050919050565b600060408201905061376d600083018561356f565b61377a60208301846134b8565b9392505050565b600082825260208201905092915050565b50565b60006137a2600083613781565b91506137ad82613792565b600082019050919050565b600060a0820190506137cd600083018761356f565b6137da602083018661356f565b6137e760408301856134e2565b6137f460608301846134e2565b818103608083015261380581613795565b905095945050505050565b6000606082019050613825600083018661356f565b61383260208301856134e2565b61383f60408301846134e2565b949350505050565b600060408201905061385c600083018561356f565b613869602083018461356f565b9392505050565b600061387b82613270565b915061388683613270565b925082820261389481613270565b915082820484148315176138ab576138aa61350c565b5b5092915050565b7f4e487b7100000000000000000000000000000000000000000000000000000000600052601260045260246000fd5b60006138ec82613270565b91506138f783613270565b925082613907576139066138b2565b5b828204905092915050565b6000608082019050613927600083018761356f565b61393460208301866134e2565b61394160408301856134e2565b61394e60608301846134e2565b9594505050505056fea2646970667358221220107c557d3a38b339f8d6b9047a2da197c0375373bd650c67fb73addc01346cea64736f6c63430008110033",
    "linkReferences": {},
    "deployedLinkReferences": {}
}