{
    "_format": "hh-sol-artifact-1",
    "contractName": "MessageSender",
    "sourceName": "contracts/MessageSender.sol",
    "abi": [
        {
            "inputs": [
                {
                    "internalType": "address",
                    "name": "_gateway",
                    "type": "address"
                },
                {
                    "internalType": "address",
                    "name": "_gasReceiver",
                    "type": "address"
                }
            ],
            "stateMutability": "nonpayable",
            "type": "constructor"
        },
        {
            "inputs": [
                {
                    "internalType": "string",
                    "name": "destinationChain",
                    "type": "string"
                },
                {
                    "internalType": "string",
                    "name": "destinationAddress",
                    "type": "string"
                },
                {
                    "internalType": "string",
                    "name": "symbol",
                    "type": "string"
                },
                {
                    "internalType": "uint256",
                    "name": "amount",
                    "type": "uint256"
                }
            ],
            "name": "callWithToken",
            "outputs": [],
            "stateMutability": "payable",
            "type": "function"
        }
    ],
    "bytecode": "0x60a060405234801561001057600080fd5b50604051610a38380380610a3883398181016040528101906100329190610110565b8173ffffffffffffffffffffffffffffffffffffffff1660808173ffffffffffffffffffffffffffffffffffffffff1681525050806000806101000a81548173ffffffffffffffffffffffffffffffffffffffff021916908373ffffffffffffffffffffffffffffffffffffffff1602179055505050610150565b600080fd5b600073ffffffffffffffffffffffffffffffffffffffff82169050919050565b60006100dd826100b2565b9050919050565b6100ed816100d2565b81146100f857600080fd5b50565b60008151905061010a816100e4565b92915050565b60008060408385031215610127576101266100ad565b5b6000610135858286016100fb565b9250506020610146858286016100fb565b9150509250929050565b6080516108c06101786000396000818160430152818161019c01526102fc01526108c06000f3fe60806040526004361061001e5760003560e01c8063532dd03214610023575b600080fd5b61003d60048036038101906100389190610443565b61003f565b005b60007f000000000000000000000000000000000000000000000000000000000000000073ffffffffffffffffffffffffffffffffffffffff1663935b13f685856040518363ffffffff1660e01b815260040161009c92919061056a565b60206040518083038186803b1580156100b457600080fd5b505afa1580156100c8573d6000803e3d6000fd5b505050506040513d601f19601f820116820180604052508101906100ec91906105ec565b90508073ffffffffffffffffffffffffffffffffffffffff166323b872dd3330856040518463ffffffff1660e01b815260040161012b93929190610637565b602060405180830381600087803b15801561014557600080fd5b505af1158015610159573d6000803e3d6000fd5b505050506040513d601f19601f8201168201806040525081019061017d91906106a6565b508073ffffffffffffffffffffffffffffffffffffffff1663095ea7b37f0000000000000000000000000000000000000000000000000000000000000000846040518363ffffffff1660e01b81526004016101d99291906106d3565b602060405180830381600087803b1580156101f357600080fd5b505af1158015610207573d6000803e3d6000fd5b505050506040513d601f19601f8201168201806040525081019061022b91906106a6565b506000868660405160200161024192919061056a565b604051602081830303815290604052905060003411156102fa5760008054906101000a900473ffffffffffffffffffffffffffffffffffffffff1673ffffffffffffffffffffffffffffffffffffffff1663c62c200234308c8c8c8c888d8d8d336040518c63ffffffff1660e01b81526004016102c79a99989796959493929190610784565b6000604051808303818588803b1580156102e057600080fd5b505af11580156102f4573d6000803e3d6000fd5b50505050505b7f000000000000000000000000000000000000000000000000000000000000000073ffffffffffffffffffffffffffffffffffffffff1663b54170848a8a8a8a868b8b8b6040518963ffffffff1660e01b8152600401610361989796959493929190610815565b600060405180830381600087803b15801561037b57600080fd5b505af115801561038f573d6000803e3d6000fd5b50505050505050505050505050565b600080fd5b600080fd5b600080fd5b600080fd5b600080fd5b60008083601f8401126103cd576103cc6103a8565b5b8235905067ffffffffffffffff8111156103ea576103e96103ad565b5b602083019150836001820283011115610406576104056103b2565b5b9250929050565b6000819050919050565b6104208161040d565b811461042b57600080fd5b50565b60008135905061043d81610417565b92915050565b60008060008060008060006080888a0312156104625761046161039e565b5b600088013567ffffffffffffffff8111156104805761047f6103a3565b5b61048c8a828b016103b7565b9750975050602088013567ffffffffffffffff8111156104af576104ae6103a3565b5b6104bb8a828b016103b7565b9550955050604088013567ffffffffffffffff8111156104de576104dd6103a3565b5b6104ea8a828b016103b7565b935093505060606104fd8a828b0161042e565b91505092959891949750929550565b600082825260208201905092915050565b82818337600083830152505050565b6000601f19601f8301169050919050565b6000610549838561050c565b935061055683858461051d565b61055f8361052c565b840190509392505050565b6000602082019050818103600083015261058581848661053d565b90509392505050565b600073ffffffffffffffffffffffffffffffffffffffff82169050919050565b60006105b98261058e565b9050919050565b6105c9816105ae565b81146105d457600080fd5b50565b6000815190506105e6816105c0565b92915050565b6000602082840312156106025761060161039e565b5b6000610610848285016105d7565b91505092915050565b610622816105ae565b82525050565b6106318161040d565b82525050565b600060608201905061064c6000830186610619565b6106596020830185610619565b6106666040830184610628565b949350505050565b60008115159050919050565b6106838161066e565b811461068e57600080fd5b50565b6000815190506106a08161067a565b92915050565b6000602082840312156106bc576106bb61039e565b5b60006106ca84828501610691565b91505092915050565b60006040820190506106e86000830185610619565b6106f56020830184610628565b9392505050565b600081519050919050565b600082825260208201905092915050565b60005b8381101561073657808201518184015260208101905061071b565b83811115610745576000848401525b50505050565b6000610756826106fc565b6107608185610707565b9350610770818560208601610718565b6107798161052c565b840191505092915050565b600060e082019050610799600083018d610619565b81810360208301526107ac818b8d61053d565b905081810360408301526107c181898b61053d565b905081810360608301526107d5818861074b565b905081810360808301526107ea81868861053d565b90506107f960a0830185610628565b61080660c0830184610619565b9b9a5050505050505050505050565b600060a0820190508181036000830152610830818a8c61053d565b9050818103602083015261084581888a61053d565b90508181036040830152610859818761074b565b9050818103606083015261086e81858761053d565b905061087d6080830184610628565b999850505050505050505056fea2646970667358221220ba3ba215692fff75e12112a6d3be4ffeb680e6077992655d0dd893ae8d0db7d564736f6c63430008090033",
    "linkReferences": {},
    "deployedLinkReferences": {}
}