{
    "_format": "hh-sol-artifact-1",
    "contractName": "RewardFacet",
    "sourceName": "contracts/facets/RewardFacet.sol",
    "abi": [
        {
            "inputs": [
                {
                    "internalType": "uint256",
                    "name": "fundId",
                    "type": "uint256"
                }
            ],
            "name": "FundNotClosed",
            "type": "error"
        },
        {
            "inputs": [
                {
                    "internalType": "address",
                    "name": "addr",
                    "type": "address"
                }
            ],
            "name": "InvalidAddress",
            "type": "error"
        },
        {
            "inputs": [
                {
                    "internalType": "uint256",
                    "name": "amount",
                    "type": "uint256"
                }
            ],
            "name": "InvalidAmount",
            "type": "error"
        },
        {
            "inputs": [
                {
                    "internalType": "uint256",
                    "name": "balance",
                    "type": "uint256"
                }
            ],
            "name": "LowBalance",
            "type": "error"
        },
        {
            "inputs": [
                {
                    "internalType": "address",
                    "name": "_user",
                    "type": "address"
                },
                {
                    "internalType": "address",
                    "name": "_contractOwner",
                    "type": "address"
                }
            ],
            "name": "NotContractOwner",
            "type": "error"
        },
        {
            "anonymous": false,
            "inputs": [
                {
                    "indexed": false,
                    "internalType": "address",
                    "name": "backer",
                    "type": "address"
                },
                {
                    "indexed": false,
                    "internalType": "address",
                    "name": "contractAddress",
                    "type": "address"
                },
                {
                    "indexed": false,
                    "internalType": "uint256",
                    "name": "fundId",
                    "type": "uint256"
                }
            ],
            "name": "NftReward",
            "type": "event"
        },
        {
            "anonymous": false,
            "inputs": [
                {
                    "indexed": false,
                    "internalType": "uint256",
                    "name": "rewardId",
                    "type": "uint256"
                },
                {
                    "indexed": false,
                    "internalType": "address",
                    "name": "owner",
                    "type": "address"
                },
                {
                    "indexed": false,
                    "internalType": "address",
                    "name": "contractAddress",
                    "type": "address"
                },
                {
                    "indexed": false,
                    "internalType": "uint256",
                    "name": "amount",
                    "type": "uint256"
                },
                {
                    "indexed": false,
                    "internalType": "uint256",
                    "name": "fundId",
                    "type": "uint256"
                },
                {
                    "indexed": false,
                    "internalType": "uint256",
                    "name": "rewardType",
                    "type": "uint256"
                }
            ],
            "name": "RewardCreated",
            "type": "event"
        },
        {
            "anonymous": false,
            "inputs": [
                {
                    "indexed": false,
                    "internalType": "address",
                    "name": "backer",
                    "type": "address"
                },
                {
                    "indexed": false,
                    "internalType": "uint256",
                    "name": "amount",
                    "type": "uint256"
                },
                {
                    "indexed": false,
                    "internalType": "uint256",
                    "name": "fundId",
                    "type": "uint256"
                }
            ],
            "name": "TokenReward",
            "type": "event"
        },
        {
            "inputs": [
                {
                    "internalType": "uint256",
                    "name": "_fundId",
                    "type": "uint256"
                },
                {
                    "internalType": "uint256",
                    "name": "_totalNumber",
                    "type": "uint256"
                },
                {
                    "internalType": "uint256",
                    "name": "_rewardAmount",
                    "type": "uint256"
                },
                {
                    "internalType": "address",
                    "name": "_tokenAddress",
                    "type": "address"
                },
                {
                    "internalType": "uint256",
                    "name": "_type",
                    "type": "uint256"
                }
            ],
            "name": "createReward",
            "outputs": [],
            "stateMutability": "nonpayable",
            "type": "function"
        },
        {
            "inputs": [
                {
                    "internalType": "uint256",
                    "name": "_id",
                    "type": "uint256"
                }
            ],
            "name": "distributeFundRewards",
            "outputs": [],
            "stateMutability": "nonpayable",
            "type": "function"
        }
    ],
    "bytecode": "0x608060405234801561001057600080fd5b50611c2e806100206000396000f3fe608060405234801561001057600080fd5b50600436106100365760003560e01c80631928056d1461003b578063844dac2514610057575b600080fd5b61005560048036038101906100509190611656565b610073565b005b610071600480360381019061006c91906116e1565b610d26565b005b61007b611524565b6002600060040182815481106100945761009361175c565b5b90600052602060002090600a020160040154146100e857806040517f0ece10ba0000000000000000000000000000000000000000000000000000000081526004016100df919061179a565b60405180910390fd5b60005b600060070180549050811015610d225760008060070182815481106101135761011261175c565b5b906000526020600020906009020160050160009054906101000a900473ffffffffffffffffffffffffffffffffffffffff169050600080600701838154811061015f5761015e61175c565b5b906000526020600020906009020160050160009054906101000a900473ffffffffffffffffffffffffffffffffffffffff16905083600060070184815481106101ab576101aa61175c565b5b9060005260206000209060090201600101541480156101f357506003600060070184815481106101de576101dd61175c565b5b90600052602060002090600902016008015414155b15610d0d5760005b6000600801805490508110156108cb57600060070184815481106102225761022161175c565b5b9060005260206000209060090201600001546000600801828154811061024b5761024a61175c565b5b906000526020600020906004020160000154148015610292575060016000600701858154811061027e5761027d61175c565b5b906000526020600020906009020160080154145b80156102c757506003600060080182815481106102b2576102b161175c565b5b90600052602060002090600402016003015414155b1561058a576003600060080182815481106102e5576102e461175c565b5b9060005260206000209060040201600301819055508173ffffffffffffffffffffffffffffffffffffffff1663a22cb4656000600801868154811061032d5761032c61175c565b5b906000526020600020906004020160020160009054906101000a900473ffffffffffffffffffffffffffffffffffffffff1660016040518363ffffffff1660e01b815260040161037e9291906117df565b600060405180830381600087803b15801561039857600080fd5b505af11580156103ac573d6000803e3d6000fd5b505050508173ffffffffffffffffffffffffffffffffffffffff1663f242432a30600060080184815481106103e4576103e361175c565b5b906000526020600020906004020160020160009054906101000a900473ffffffffffffffffffffffffffffffffffffffff166000600701888154811061042d5761042c61175c565b5b90600052602060002090600902016007015460016040518563ffffffff1660e01b81526004016104609493929190611884565b600060405180830381600087803b15801561047a57600080fd5b505af115801561048e573d6000803e3d6000fd5b505050507f02831dc758bff33d50760d448f62f2df8aa0138e4a9df9090ea89752eed49a0b600060080182815481106104ca576104c961175c565b5b906000526020600020906004020160020160009054906101000a900473ffffffffffffffffffffffffffffffffffffffff16600060070186815481106105135761051261175c565b5b906000526020600020906009020160050160009054906101000a900473ffffffffffffffffffffffffffffffffffffffff166000600701878154811061055c5761055b61175c565b5b90600052602060002090600902016001015460405161057d939291906118dc565b60405180910390a16108b8565b600060070184815481106105a1576105a061175c565b5b906000526020600020906009020160000154600060080182815481106105ca576105c961175c565b5b90600052602060002090600402016000015414801561061157506002600060070185815481106105fd576105fc61175c565b5b906000526020600020906009020160080154145b801561064657506003600060080182815481106106315761063061175c565b5b90600052602060002090600402016003015414155b156108b7578273ffffffffffffffffffffffffffffffffffffffff1663095ea7b3306000600701878154811061067f5761067e61175c565b5b9060005260206000209060090201600601546040518363ffffffff1660e01b81526004016106ae929190611913565b6020604051808303816000875af11580156106cd573d6000803e3d6000fd5b505050506040513d601f19601f820116820180604052508101906106f19190611968565b508273ffffffffffffffffffffffffffffffffffffffff166323b872dd30600060080184815481106107265761072561175c565b5b906000526020600020906004020160020160009054906101000a900473ffffffffffffffffffffffffffffffffffffffff166000600701888154811061076f5761076e61175c565b5b9060005260206000209060090201600601546040518463ffffffff1660e01b815260040161079f939291906118dc565b6020604051808303816000875af11580156107be573d6000803e3d6000fd5b505050506040513d601f19601f820116820180604052508101906107e29190611968565b507f3adf3da2135947812c45eca117d988b3303c3d941f155f0afb27d7b0230fab326000600801828154811061081b5761081a61175c565b5b906000526020600020906004020160020160009054906101000a900473ffffffffffffffffffffffffffffffffffffffff16600060070186815481106108645761086361175c565b5b9060005260206000209060090201600601546000600701878154811061088d5761088c61175c565b5b9060005260206000209060090201600101546040516108ae93929190611995565b60405180910390a15b5b80806108c3906119fb565b9150506101fb565b50600060070183815481106108e3576108e261175c565b5b9060005260206000209060090201600301546000600701848154811061090c5761090b61175c565b5b9060005260206000209060090201600201541115610cde57600080600701848154811061093c5761093b61175c565b5b906000526020600020906009020160030154600060070185815481106109655761096461175c565b5b9060005260206000209060090201600201546109819190611a43565b905060016000600701858154811061099c5761099b61175c565b5b90600052602060002090600902016008015403610b07578173ffffffffffffffffffffffffffffffffffffffff1663a22cb4653060016040518363ffffffff1660e01b81526004016109ef9291906117df565b600060405180830381600087803b158015610a0957600080fd5b505af1158015610a1d573d6000803e3d6000fd5b505050508173ffffffffffffffffffffffffffffffffffffffff1663f242432a3060006007018781548110610a5557610a5461175c565b5b906000526020600020906009020160040160009054906101000a900473ffffffffffffffffffffffffffffffffffffffff1660006007018881548110610a9e57610a9d61175c565b5b906000526020600020906009020160070154856040518563ffffffff1660e01b8152600401610ad09493929190611a77565b600060405180830381600087803b158015610aea57600080fd5b505af1158015610afe573d6000803e3d6000fd5b50505050610cdc565b600260006007018581548110610b2057610b1f61175c565b5b90600052602060002090600902016008015403610cdb578273ffffffffffffffffffffffffffffffffffffffff1663095ea7b33060006007018781548110610b6b57610b6a61175c565b5b9060005260206000209060090201600601546040518363ffffffff1660e01b8152600401610b9a929190611913565b6020604051808303816000875af1158015610bb9573d6000803e3d6000fd5b505050506040513d601f19601f82011682018060405250810190610bdd9190611968565b508273ffffffffffffffffffffffffffffffffffffffff166323b872dd3060006007018781548110610c1257610c1161175c565b5b906000526020600020906009020160040160009054906101000a900473ffffffffffffffffffffffffffffffffffffffff168460006007018981548110610c5c57610c5b61175c565b5b906000526020600020906009020160060154610c789190611acf565b6040518463ffffffff1660e01b8152600401610c96939291906118dc565b6020604051808303816000875af1158015610cb5573d6000803e3d6000fd5b505050506040513d601f19601f82011682018060405250810190610cd99190611968565b505b5b505b600360006007018481548110610cf757610cf661175c565b5b9060005260206000209060090201600801819055505b50508080610d1a906119fb565b9150506100eb565b5050565b6000831015610d6c57826040517f3728b83d000000000000000000000000000000000000000000000000000000008152600401610d63919061179a565b60405180910390fd5b600073ffffffffffffffffffffffffffffffffffffffff163373ffffffffffffffffffffffffffffffffffffffff1603610ddd57336040517f8e4c8aa6000000000000000000000000000000000000000000000000000000008152600401610dd49190611b11565b60405180910390fd5b60008103610f675760006007016040518061012001604052806000600701805490508152602001878152602001868152602001600081526020013373ffffffffffffffffffffffffffffffffffffffff1681526020018473ffffffffffffffffffffffffffffffffffffffff1681526020016000815260200160008152602001600081525090806001815401808255809150506001900390600052602060002090600902016000909190919091506000820151816000015560208201518160010155604082015181600201556060820151816003015560808201518160040160006101000a81548173ffffffffffffffffffffffffffffffffffffffff021916908373ffffffffffffffffffffffffffffffffffffffff16021790555060a08201518160050160006101000a81548173ffffffffffffffffffffffffffffffffffffffff021916908373ffffffffffffffffffffffffffffffffffffffff16021790555060c0820151816006015560e08201518160070155610100820151816008015550506114d4565b600181036112915760008411610fb457836040517f3728b83d000000000000000000000000000000000000000000000000000000008152600401610fab919061179a565b60405180910390fd5b60008484610fc29190611acf565b9050600083905060008173ffffffffffffffffffffffffffffffffffffffff166370a08231336040518263ffffffff1660e01b81526004016110049190611b11565b602060405180830381865afa158015611021573d6000803e3d6000fd5b505050506040513d601f19601f820116820180604052508101906110459190611b41565b90508581101561108c57806040517f4d4f8aa6000000000000000000000000000000000000000000000000000000008152600401611083919061179a565b60405180910390fd5b8173ffffffffffffffffffffffffffffffffffffffff166323b872dd3330866040518463ffffffff1660e01b81526004016110c9939291906118dc565b6020604051808303816000875af11580156110e8573d6000803e3d6000fd5b505050506040513d601f19601f8201168201806040525081019061110c9190611968565b50600060070160405180610120016040528060006007018054905081526020018a8152602001898152602001600081526020013373ffffffffffffffffffffffffffffffffffffffff1681526020018773ffffffffffffffffffffffffffffffffffffffff16815260200188815260200160008152602001600281525090806001815401808255809150506001900390600052602060002090600902016000909190919091506000820151816000015560208201518160010155604082015181600201556060820151816003015560808201518160040160006101000a81548173ffffffffffffffffffffffffffffffffffffffff021916908373ffffffffffffffffffffffffffffffffffffffff16021790555060a08201518160050160006101000a81548173ffffffffffffffffffffffffffffffffffffffff021916908373ffffffffffffffffffffffffffffffffffffffff16021790555060c0820151816006015560e08201518160070155610100820151816008015550505050506114d3565b600281036114d257600084116112de57836040517f3728b83d0000000000000000000000000000000000000000000000000000000081526004016112d5919061179a565b60405180910390fd5b60008290508073ffffffffffffffffffffffffffffffffffffffff1663f242432a333087896040518563ffffffff1660e01b81526004016113229493929190611a77565b600060405180830381600087803b15801561133c57600080fd5b505af1158015611350573d6000803e3d6000fd5b5050505060006007016040518061012001604052806000600701805490508152602001888152602001878152602001600081526020013373ffffffffffffffffffffffffffffffffffffffff1681526020018573ffffffffffffffffffffffffffffffffffffffff16815260200160008152602001868152602001600181525090806001815401808255809150506001900390600052602060002090600902016000909190919091506000820151816000015560208201518160010155604082015181600201556060820151816003015560808201518160040160006101000a81548173ffffffffffffffffffffffffffffffffffffffff021916908373ffffffffffffffffffffffffffffffffffffffff16021790555060a08201518160050160006101000a81548173ffffffffffffffffffffffffffffffffffffffff021916908373ffffffffffffffffffffffffffffffffffffffff16021790555060c0820151816006015560e0820151816007015561010082015181600801555050505b5b5b7f0b98152cd016b4b12bb1725a02113644c5bde7de62e0ea9fddcfdc33edaf6b0b600060070180549050338486898660405161151596959493929190611b6e565b60405180910390a15050505050565b61152c6115ee565b60030160009054906101000a900473ffffffffffffffffffffffffffffffffffffffff1673ffffffffffffffffffffffffffffffffffffffff163373ffffffffffffffffffffffffffffffffffffffff16146115ec573361158b6115ee565b60030160009054906101000a900473ffffffffffffffffffffffffffffffffffffffff166040517fff4127cb0000000000000000000000000000000000000000000000000000000081526004016115e3929190611bcf565b60405180910390fd5b565b6000807fc8fcad8db84d3cc18b4c41d551ea0ee66dd599cde068d998e57d5e09332c131c90508091505090565b600080fd5b6000819050919050565b61163381611620565b811461163e57600080fd5b50565b6000813590506116508161162a565b92915050565b60006020828403121561166c5761166b61161b565b5b600061167a84828501611641565b91505092915050565b600073ffffffffffffffffffffffffffffffffffffffff82169050919050565b60006116ae82611683565b9050919050565b6116be816116a3565b81146116c957600080fd5b50565b6000813590506116db816116b5565b92915050565b600080600080600060a086880312156116fd576116fc61161b565b5b600061170b88828901611641565b955050602061171c88828901611641565b945050604061172d88828901611641565b935050606061173e888289016116cc565b925050608061174f88828901611641565b9150509295509295909350565b7f4e487b7100000000000000000000000000000000000000000000000000000000600052603260045260246000fd5b61179481611620565b82525050565b60006020820190506117af600083018461178b565b92915050565b6117be816116a3565b82525050565b60008115159050919050565b6117d9816117c4565b82525050565b60006040820190506117f460008301856117b5565b61180160208301846117d0565b9392505050565b6000819050919050565b6000819050919050565b600061183761183261182d84611808565b611812565b611620565b9050919050565b6118478161181c565b82525050565b600082825260208201905092915050565b50565b600061186e60008361184d565b91506118798261185e565b600082019050919050565b600060a08201905061189960008301876117b5565b6118a660208301866117b5565b6118b3604083018561178b565b6118c0606083018461183e565b81810360808301526118d181611861565b905095945050505050565b60006060820190506118f160008301866117b5565b6118fe60208301856117b5565b61190b604083018461178b565b949350505050565b600060408201905061192860008301856117b5565b611935602083018461178b565b9392505050565b611945816117c4565b811461195057600080fd5b50565b6000815190506119628161193c565b92915050565b60006020828403121561197e5761197d61161b565b5b600061198c84828501611953565b91505092915050565b60006060820190506119aa60008301866117b5565b6119b7602083018561178b565b6119c4604083018461178b565b949350505050565b7f4e487b7100000000000000000000000000000000000000000000000000000000600052601160045260246000fd5b6000611a0682611620565b91507fffffffffffffffffffffffffffffffffffffffffffffffffffffffffffffffff8203611a3857611a376119cc565b5b600182019050919050565b6000611a4e82611620565b9150611a5983611620565b9250828203905081811115611a7157611a706119cc565b5b92915050565b600060a082019050611a8c60008301876117b5565b611a9960208301866117b5565b611aa6604083018561178b565b611ab3606083018461178b565b8181036080830152611ac481611861565b905095945050505050565b6000611ada82611620565b9150611ae583611620565b9250828202611af381611620565b91508282048414831517611b0a57611b096119cc565b5b5092915050565b6000602082019050611b2660008301846117b5565b92915050565b600081519050611b3b8161162a565b92915050565b600060208284031215611b5757611b5661161b565b5b6000611b6584828501611b2c565b91505092915050565b600060c082019050611b83600083018961178b565b611b9060208301886117b5565b611b9d60408301876117b5565b611baa606083018661178b565b611bb7608083018561178b565b611bc460a083018461178b565b979650505050505050565b6000604082019050611be460008301856117b5565b611bf160208301846117b5565b939250505056fea26469706673582212200ef3a978c4c554402ab49252f9395163e75cbf0267bd41288d4f872a99d285cd64736f6c63430008110033",
    "linkReferences": {},
    "deployedLinkReferences": {}
}